{
  "_format": "hh-sol-artifact-1",
  "contractName": "ERC1155OnChain",
  "sourceName": "contracts/schain/tokens/ERC1155OnChain.sol",
  "abi": [
    {
      "inputs": [
        {
          "internalType": "string",
          "name": "uri",
          "type": "string"
        }
      ],
      "stateMutability": "nonpayable",
      "type": "constructor"
    },
    {
      "anonymous": false,
      "inputs": [
        {
          "indexed": true,
          "internalType": "address",
          "name": "account",
          "type": "address"
        },
        {
          "indexed": true,
          "internalType": "address",
          "name": "operator",
          "type": "address"
        },
        {
          "indexed": false,
          "internalType": "bool",
          "name": "approved",
          "type": "bool"
        }
      ],
      "name": "ApprovalForAll",
      "type": "event"
    },
    {
      "anonymous": false,
      "inputs": [
        {
          "indexed": false,
          "internalType": "uint8",
          "name": "version",
          "type": "uint8"
        }
      ],
      "name": "Initialized",
      "type": "event"
    },
    {
      "anonymous": false,
      "inputs": [
        {
          "indexed": true,
          "internalType": "bytes32",
          "name": "role",
          "type": "bytes32"
        },
        {
          "indexed": true,
          "internalType": "bytes32",
          "name": "previousAdminRole",
          "type": "bytes32"
        },
        {
          "indexed": true,
          "internalType": "bytes32",
          "name": "newAdminRole",
          "type": "bytes32"
        }
      ],
      "name": "RoleAdminChanged",
      "type": "event"
    },
    {
      "anonymous": false,
      "inputs": [
        {
          "indexed": true,
          "internalType": "bytes32",
          "name": "role",
          "type": "bytes32"
        },
        {
          "indexed": true,
          "internalType": "address",
          "name": "account",
          "type": "address"
        },
        {
          "indexed": true,
          "internalType": "address",
          "name": "sender",
          "type": "address"
        }
      ],
      "name": "RoleGranted",
      "type": "event"
    },
    {
      "anonymous": false,
      "inputs": [
        {
          "indexed": true,
          "internalType": "bytes32",
          "name": "role",
          "type": "bytes32"
        },
        {
          "indexed": true,
          "internalType": "address",
          "name": "account",
          "type": "address"
        },
        {
          "indexed": true,
          "internalType": "address",
          "name": "sender",
          "type": "address"
        }
      ],
      "name": "RoleRevoked",
      "type": "event"
    },
    {
      "anonymous": false,
      "inputs": [
        {
          "indexed": true,
          "internalType": "address",
          "name": "operator",
          "type": "address"
        },
        {
          "indexed": true,
          "internalType": "address",
          "name": "from",
          "type": "address"
        },
        {
          "indexed": true,
          "internalType": "address",
          "name": "to",
          "type": "address"
        },
        {
          "indexed": false,
          "internalType": "uint256[]",
          "name": "ids",
          "type": "uint256[]"
        },
        {
          "indexed": false,
          "internalType": "uint256[]",
          "name": "values",
          "type": "uint256[]"
        }
      ],
      "name": "TransferBatch",
      "type": "event"
    },
    {
      "anonymous": false,
      "inputs": [
        {
          "indexed": true,
          "internalType": "address",
          "name": "operator",
          "type": "address"
        },
        {
          "indexed": true,
          "internalType": "address",
          "name": "from",
          "type": "address"
        },
        {
          "indexed": true,
          "internalType": "address",
          "name": "to",
          "type": "address"
        },
        {
          "indexed": false,
          "internalType": "uint256",
          "name": "id",
          "type": "uint256"
        },
        {
          "indexed": false,
          "internalType": "uint256",
          "name": "value",
          "type": "uint256"
        }
      ],
      "name": "TransferSingle",
      "type": "event"
    },
    {
      "anonymous": false,
      "inputs": [
        {
          "indexed": false,
          "internalType": "string",
          "name": "value",
          "type": "string"
        },
        {
          "indexed": true,
          "internalType": "uint256",
          "name": "id",
          "type": "uint256"
        }
      ],
      "name": "URI",
      "type": "event"
    },
    {
      "inputs": [],
      "name": "DEFAULT_ADMIN_ROLE",
      "outputs": [
        {
          "internalType": "bytes32",
          "name": "",
          "type": "bytes32"
        }
      ],
      "stateMutability": "view",
      "type": "function"
    },
    {
      "inputs": [],
      "name": "MINTER_ROLE",
      "outputs": [
        {
          "internalType": "bytes32",
          "name": "",
          "type": "bytes32"
        }
      ],
      "stateMutability": "view",
      "type": "function"
    },
    {
      "inputs": [
        {
          "internalType": "address",
          "name": "account",
          "type": "address"
        },
        {
          "internalType": "uint256",
          "name": "id",
          "type": "uint256"
        }
      ],
      "name": "balanceOf",
      "outputs": [
        {
          "internalType": "uint256",
          "name": "",
          "type": "uint256"
        }
      ],
      "stateMutability": "view",
      "type": "function"
    },
    {
      "inputs": [
        {
          "internalType": "address[]",
          "name": "accounts",
          "type": "address[]"
        },
        {
          "internalType": "uint256[]",
          "name": "ids",
          "type": "uint256[]"
        }
      ],
      "name": "balanceOfBatch",
      "outputs": [
        {
          "internalType": "uint256[]",
          "name": "",
          "type": "uint256[]"
        }
      ],
      "stateMutability": "view",
      "type": "function"
    },
    {
      "inputs": [
        {
          "internalType": "address",
          "name": "account",
          "type": "address"
        },
        {
          "internalType": "uint256",
          "name": "id",
          "type": "uint256"
        },
        {
          "internalType": "uint256",
          "name": "value",
          "type": "uint256"
        }
      ],
      "name": "burn",
      "outputs": [],
      "stateMutability": "nonpayable",
      "type": "function"
    },
    {
      "inputs": [
        {
          "internalType": "address",
          "name": "account",
          "type": "address"
        },
        {
          "internalType": "uint256[]",
          "name": "ids",
          "type": "uint256[]"
        },
        {
          "internalType": "uint256[]",
          "name": "values",
          "type": "uint256[]"
        }
      ],
      "name": "burnBatch",
      "outputs": [],
      "stateMutability": "nonpayable",
      "type": "function"
    },
    {
      "inputs": [
        {
          "internalType": "bytes32",
          "name": "role",
          "type": "bytes32"
        }
      ],
      "name": "getRoleAdmin",
      "outputs": [
        {
          "internalType": "bytes32",
          "name": "",
          "type": "bytes32"
        }
      ],
      "stateMutability": "view",
      "type": "function"
    },
    {
      "inputs": [
        {
          "internalType": "bytes32",
          "name": "role",
          "type": "bytes32"
        },
        {
          "internalType": "uint256",
          "name": "index",
          "type": "uint256"
        }
      ],
      "name": "getRoleMember",
      "outputs": [
        {
          "internalType": "address",
          "name": "",
          "type": "address"
        }
      ],
      "stateMutability": "view",
      "type": "function"
    },
    {
      "inputs": [
        {
          "internalType": "bytes32",
          "name": "role",
          "type": "bytes32"
        }
      ],
      "name": "getRoleMemberCount",
      "outputs": [
        {
          "internalType": "uint256",
          "name": "",
          "type": "uint256"
        }
      ],
      "stateMutability": "view",
      "type": "function"
    },
    {
      "inputs": [
        {
          "internalType": "bytes32",
          "name": "role",
          "type": "bytes32"
        },
        {
          "internalType": "address",
          "name": "account",
          "type": "address"
        }
      ],
      "name": "grantRole",
      "outputs": [],
      "stateMutability": "nonpayable",
      "type": "function"
    },
    {
      "inputs": [
        {
          "internalType": "bytes32",
          "name": "role",
          "type": "bytes32"
        },
        {
          "internalType": "address",
          "name": "account",
          "type": "address"
        }
      ],
      "name": "hasRole",
      "outputs": [
        {
          "internalType": "bool",
          "name": "",
          "type": "bool"
        }
      ],
      "stateMutability": "view",
      "type": "function"
    },
    {
      "inputs": [
        {
          "internalType": "address",
          "name": "account",
          "type": "address"
        },
        {
          "internalType": "address",
          "name": "operator",
          "type": "address"
        }
      ],
      "name": "isApprovedForAll",
      "outputs": [
        {
          "internalType": "bool",
          "name": "",
          "type": "bool"
        }
      ],
      "stateMutability": "view",
      "type": "function"
    },
    {
      "inputs": [
        {
          "internalType": "address",
          "name": "account",
          "type": "address"
        },
        {
          "internalType": "uint256",
          "name": "id",
          "type": "uint256"
        },
        {
          "internalType": "uint256",
          "name": "amount",
          "type": "uint256"
        },
        {
          "internalType": "bytes",
          "name": "data",
          "type": "bytes"
        }
      ],
      "name": "mint",
      "outputs": [],
      "stateMutability": "nonpayable",
      "type": "function"
    },
    {
      "inputs": [
        {
          "internalType": "address",
          "name": "account",
          "type": "address"
        },
        {
          "internalType": "uint256[]",
          "name": "ids",
          "type": "uint256[]"
        },
        {
          "internalType": "uint256[]",
          "name": "amounts",
          "type": "uint256[]"
        },
        {
          "internalType": "bytes",
          "name": "data",
          "type": "bytes"
        }
      ],
      "name": "mintBatch",
      "outputs": [],
      "stateMutability": "nonpayable",
      "type": "function"
    },
    {
      "inputs": [
        {
          "internalType": "bytes32",
          "name": "role",
          "type": "bytes32"
        },
        {
          "internalType": "address",
          "name": "account",
          "type": "address"
        }
      ],
      "name": "renounceRole",
      "outputs": [],
      "stateMutability": "nonpayable",
      "type": "function"
    },
    {
      "inputs": [
        {
          "internalType": "bytes32",
          "name": "role",
          "type": "bytes32"
        },
        {
          "internalType": "address",
          "name": "account",
          "type": "address"
        }
      ],
      "name": "revokeRole",
      "outputs": [],
      "stateMutability": "nonpayable",
      "type": "function"
    },
    {
      "inputs": [
        {
          "internalType": "address",
          "name": "from",
          "type": "address"
        },
        {
          "internalType": "address",
          "name": "to",
          "type": "address"
        },
        {
          "internalType": "uint256[]",
          "name": "ids",
          "type": "uint256[]"
        },
        {
          "internalType": "uint256[]",
          "name": "amounts",
          "type": "uint256[]"
        },
        {
          "internalType": "bytes",
          "name": "data",
          "type": "bytes"
        }
      ],
      "name": "safeBatchTransferFrom",
      "outputs": [],
      "stateMutability": "nonpayable",
      "type": "function"
    },
    {
      "inputs": [
        {
          "internalType": "address",
          "name": "from",
          "type": "address"
        },
        {
          "internalType": "address",
          "name": "to",
          "type": "address"
        },
        {
          "internalType": "uint256",
          "name": "id",
          "type": "uint256"
        },
        {
          "internalType": "uint256",
          "name": "amount",
          "type": "uint256"
        },
        {
          "internalType": "bytes",
          "name": "data",
          "type": "bytes"
        }
      ],
      "name": "safeTransferFrom",
      "outputs": [],
      "stateMutability": "nonpayable",
      "type": "function"
    },
    {
      "inputs": [
        {
          "internalType": "address",
          "name": "operator",
          "type": "address"
        },
        {
          "internalType": "bool",
          "name": "approved",
          "type": "bool"
        }
      ],
      "name": "setApprovalForAll",
      "outputs": [],
      "stateMutability": "nonpayable",
      "type": "function"
    },
    {
      "inputs": [
        {
          "internalType": "bytes4",
          "name": "interfaceId",
          "type": "bytes4"
        }
      ],
      "name": "supportsInterface",
      "outputs": [
        {
          "internalType": "bool",
          "name": "",
          "type": "bool"
        }
      ],
      "stateMutability": "view",
      "type": "function"
    },
    {
      "inputs": [
        {
          "internalType": "uint256",
          "name": "",
          "type": "uint256"
        }
      ],
      "name": "uri",
      "outputs": [
        {
          "internalType": "string",
          "name": "",
          "type": "string"
        }
      ],
      "stateMutability": "view",
      "type": "function"
    }
  ],
  "bytecode": "0x60806040523480156200001157600080fd5b5060405162002ecd38038062002ecd8339810160408190526200003491620004ed565b600054610100900460ff1615808015620000555750600054600160ff909116105b806200008557506200007230620001d760201b620009121760201c565b15801562000085575060005460ff166001145b620000ee5760405162461bcd60e51b815260206004820152602e60248201527f496e697469616c697a61626c653a20636f6e747261637420697320616c72656160448201526d191e481a5b9a5d1a585b1a5e995960921b60648201526084015b60405180910390fd5b6000805460ff19166001179055801562000112576000805461ff0019166101001790555b62000127620001e660201b620009211760201c565b6200013d826200024460201b6200094a1760201c565b62000152620001e660201b620009211760201c565b6200016d60008051602062002ead83398151915280620002ae565b6200018860008051602062002ead83398151915233620002f9565b8015620001cf576000805461ff0019169055604051600181527f7f26b83ff96e1f2b6a682f133852f6798a09c465da95921460cefb38474024989060200160405180910390a15b50506200071c565b6001600160a01b03163b151590565b600054610100900460ff16620002425760405162461bcd60e51b815260206004820152602b602482015260008051602062002e8d83398151915260448201526a6e697469616c697a696e6760a81b6064820152608401620000e5565b565b600054610100900460ff16620002a05760405162461bcd60e51b815260206004820152602b602482015260008051602062002e8d83398151915260448201526a6e697469616c697a696e6760a81b6064820152608401620000e5565b620002ab8162000309565b50565b600082815260656020526040808220600101805490849055905190918391839186917fbd79b86ffe0ab8e8776151514217cd7cacd52c909f66475c3af44e129f0b00ff9190a4505050565b62000305828262000370565b5050565b600054610100900460ff16620003655760405162461bcd60e51b815260206004820152602b602482015260008051602062002e8d83398151915260448201526a6e697469616c697a696e6760a81b6064820152608401620000e5565b620002ab81620003b3565b620003878282620003c160201b6200097d1760201c565b6000828152609760209081526040909120620003ae91839062000a0362000465821b17901c565b505050565b60cb62000305828262000650565b60008281526065602090815260408083206001600160a01b038516845290915290205460ff16620003055760008281526065602090815260408083206001600160a01b03851684529091529020805460ff19166001179055620004213390565b6001600160a01b0316816001600160a01b0316837f2f8788117e7eff1d82e926ec794901d17c78024a50270940304540a733656f0d60405160405180910390a45050565b60006200047c836001600160a01b03841662000485565b90505b92915050565b6000818152600183016020526040812054620004ce575081546001818101845560008481526020808220909301849055845484825282860190935260409020919091556200047f565b5060006200047f565b634e487b7160e01b600052604160045260246000fd5b600060208083850312156200050157600080fd5b82516001600160401b03808211156200051957600080fd5b818501915085601f8301126200052e57600080fd5b815181811115620005435762000543620004d7565b604051601f8201601f19908116603f011681019083821181831017156200056e576200056e620004d7565b8160405282815288868487010111156200058757600080fd5b600093505b82841015620005ab57848401860151818501870152928501926200058c565b600086848301015280965050505050505092915050565b600181811c90821680620005d757607f821691505b602082108103620005f857634e487b7160e01b600052602260045260246000fd5b50919050565b601f821115620003ae57600081815260208120601f850160051c81016020861015620006275750805b601f850160051c820191505b81811015620006485782815560010162000633565b505050505050565b81516001600160401b038111156200066c576200066c620004d7565b62000684816200067d8454620005c2565b84620005fe565b602080601f831160018114620006bc5760008415620006a35750858301515b600019600386901b1c1916600185901b17855562000648565b600085815260208120601f198616915b82811015620006ed57888601518255948401946001909101908401620006cc565b50858210156200070c5787850151600019600388901b60f8161c191681555b5050505050600190811b01905550565b612761806200072c6000396000f3fe608060405234801561001057600080fd5b50600436106101365760003560e01c8063731133e9116100b8578063ca15c8731161007c578063ca15c873146102b4578063d5391393146102c7578063d547741f146102ee578063e985e9c514610301578063f242432a1461033d578063f5298aca1461035057600080fd5b8063731133e9146102485780639010d07c1461025b57806391d1485414610286578063a217fddf14610299578063a22cb465146102a157600080fd5b80632eb2c2d6116100ff5780632eb2c2d6146101dc5780632f2ff15d146101ef57806336568abe146102025780634e1273f4146102155780636b20c4541461023557600080fd5b8062fdd58e1461013b57806301ffc9a7146101615780630e89341c146101845780631f7fdffa146101a4578063248a9ca3146101b9575b600080fd5b61014e610149366004611a1f565b610363565b6040519081526020015b60405180910390f35b61017461016f366004611a5f565b6103fe565b6040519015158152602001610158565b610197610192366004611a7c565b610409565b6040516101589190611ae5565b6101b76101b2366004611c41565b61049d565b005b61014e6101c7366004611a7c565b60009081526065602052604090206001015490565b6101b76101ea366004611cd9565b61051e565b6101b76101fd366004611d82565b61056a565b6101b7610210366004611d82565b610594565b610228610223366004611dae565b610612565b6040516101589190611eb3565b6101b7610243366004611ec6565b61073b565b6101b7610256366004611f39565b61077e565b61026e610269366004611f8d565b6107f9565b6040516001600160a01b039091168152602001610158565b610174610294366004611d82565b610818565b61014e600081565b6101b76102af366004611faf565b610843565b61014e6102c2366004611a7c565b61084e565b61014e7f9f2df0fed2c77648de5860a4cc508cd0818c85b8b8a1ab4ceeef8d981c8956a681565b6101b76102fc366004611d82565b610865565b61017461030f366004611feb565b6001600160a01b03918216600090815260ca6020908152604080832093909416825291909152205460ff1690565b6101b761034b366004612015565b61088a565b6101b761035e366004612079565b6108cf565b60006001600160a01b0383166103d35760405162461bcd60e51b815260206004820152602a60248201527f455243313135353a2061646472657373207a65726f206973206e6f742061207660448201526930b634b21037bbb732b960b11b60648201526084015b60405180910390fd5b50600081815260c9602090815260408083206001600160a01b03861684529091529020545b92915050565b60006103f882610a18565b606060cb8054610418906120ac565b80601f0160208091040260200160405190810160405280929190818152602001828054610444906120ac565b80156104915780601f1061046657610100808354040283529160200191610491565b820191906000526020600020905b81548152906001019060200180831161047457829003601f168201915b50505050509050919050565b6104c77f9f2df0fed2c77648de5860a4cc508cd0818c85b8b8a1ab4ceeef8d981c8956a633610818565b61050c5760405162461bcd60e51b815260206004820152601660248201527529b2b73232b91034b9903737ba10309026b4b73a32b960511b60448201526064016103ca565b61051884848484610a58565b50505050565b6001600160a01b03851633148061053a575061053a853361030f565b6105565760405162461bcd60e51b81526004016103ca906120e6565b6105638585858585610ba4565b5050505050565b60008281526065602052604090206001015461058581610d43565b61058f8383610d4d565b505050565b6001600160a01b03811633146106045760405162461bcd60e51b815260206004820152602f60248201527f416363657373436f6e74726f6c3a2063616e206f6e6c792072656e6f756e636560448201526e103937b632b9903337b91039b2b63360891b60648201526084016103ca565b61060e8282610d6f565b5050565b606081518351146106775760405162461bcd60e51b815260206004820152602960248201527f455243313135353a206163636f756e747320616e6420696473206c656e677468604482015268040dad2e6dac2e8c6d60bb1b60648201526084016103ca565b600083516001600160401b0381111561069257610692611af8565b6040519080825280602002602001820160405280156106bb578160200160208202803683370190505b50905060005b8451811015610733576107068582815181106106df576106df612135565b60200260200101518583815181106106f9576106f9612135565b6020026020010151610363565b82828151811061071857610718612135565b602090810291909101015261072c81612161565b90506106c1565b509392505050565b6001600160a01b0383163314806107575750610757833361030f565b6107735760405162461bcd60e51b81526004016103ca906120e6565b61058f838383610d91565b6107a87f9f2df0fed2c77648de5860a4cc508cd0818c85b8b8a1ab4ceeef8d981c8956a633610818565b6107ed5760405162461bcd60e51b815260206004820152601660248201527529b2b73232b91034b9903737ba10309026b4b73a32b960511b60448201526064016103ca565b61051884848484610f1e565b60008281526097602052604081206108119083610ffa565b9392505050565b60009182526065602090815260408084206001600160a01b0393909316845291905290205460ff1690565b61060e338383611006565b60008181526097602052604081206103f8906110e6565b60008281526065602052604090206001015461088081610d43565b61058f8383610d6f565b6001600160a01b0385163314806108a657506108a6853361030f565b6108c25760405162461bcd60e51b81526004016103ca906120e6565b61056385858585856110f0565b6001600160a01b0383163314806108eb57506108eb833361030f565b6109075760405162461bcd60e51b81526004016103ca906120e6565b61058f83838361121e565b6001600160a01b03163b151590565b600054610100900460ff166109485760405162461bcd60e51b81526004016103ca9061217a565b565b600054610100900460ff166109715760405162461bcd60e51b81526004016103ca9061217a565b61097a81611325565b50565b6109878282610818565b61060e5760008281526065602090815260408083206001600160a01b03851684529091529020805460ff191660011790556109bf3390565b6001600160a01b0316816001600160a01b0316837f2f8788117e7eff1d82e926ec794901d17c78024a50270940304540a733656f0d60405160405180910390a45050565b6000610811836001600160a01b038416611355565b60006001600160e01b03198216636cdb3d1360e11b1480610a4957506001600160e01b031982166303a24d0760e21b145b806103f857506103f8826113a4565b6001600160a01b038416610a7e5760405162461bcd60e51b81526004016103ca906121c5565b8151835114610a9f5760405162461bcd60e51b81526004016103ca90612206565b3360005b8451811015610b3c57838181518110610abe57610abe612135565b602002602001015160c96000878481518110610adc57610adc612135565b602002602001015181526020019081526020016000206000886001600160a01b03166001600160a01b031681526020019081526020016000206000828254610b24919061224e565b90915550819050610b3481612161565b915050610aa3565b50846001600160a01b031660006001600160a01b0316826001600160a01b03167f4a39dc06d4c0dbc64b70af90fd698a233a518aa5d07e595d983b8c0526c8f7fb8787604051610b8d929190612261565b60405180910390a4610563816000878787876113c9565b8151835114610bc55760405162461bcd60e51b81526004016103ca90612206565b6001600160a01b038416610beb5760405162461bcd60e51b81526004016103ca9061228f565b3360005b8451811015610cd5576000858281518110610c0c57610c0c612135565b602002602001015190506000858381518110610c2a57610c2a612135565b602090810291909101810151600084815260c9835260408082206001600160a01b038e168352909352919091205490915081811015610c7b5760405162461bcd60e51b81526004016103ca906122d4565b600083815260c9602090815260408083206001600160a01b038e8116855292528083208585039055908b16825281208054849290610cba90849061224e565b9250508190555050505080610cce90612161565b9050610bef565b50846001600160a01b0316866001600160a01b0316826001600160a01b03167f4a39dc06d4c0dbc64b70af90fd698a233a518aa5d07e595d983b8c0526c8f7fb8787604051610d25929190612261565b60405180910390a4610d3b8187878787876113c9565b505050505050565b61097a8133611524565b610d57828261097d565b600082815260976020526040902061058f9082610a03565b610d798282611588565b600082815260976020526040902061058f90826115ef565b6001600160a01b038316610db75760405162461bcd60e51b81526004016103ca9061231e565b8051825114610dd85760405162461bcd60e51b81526004016103ca90612206565b604080516020810190915260009081905233905b8351811015610eb1576000848281518110610e0957610e09612135565b602002602001015190506000848381518110610e2757610e27612135565b602090810291909101810151600084815260c9835260408082206001600160a01b038c168352909352919091205490915081811015610e785760405162461bcd60e51b81526004016103ca90612361565b600092835260c9602090815260408085206001600160a01b038b1686529091529092209103905580610ea981612161565b915050610dec565b5060006001600160a01b0316846001600160a01b0316826001600160a01b03167f4a39dc06d4c0dbc64b70af90fd698a233a518aa5d07e595d983b8c0526c8f7fb8686604051610f02929190612261565b60405180910390a4604080516020810190915260009052610518565b6001600160a01b038416610f445760405162461bcd60e51b81526004016103ca906121c5565b336000610f5085611604565b90506000610f5d85611604565b9050600086815260c9602090815260408083206001600160a01b038b16845290915281208054879290610f9190849061224e565b909155505060408051878152602081018790526001600160a01b03808a1692600092918716917fc3d58168c5ae7397731d063d5bbf3d657854427343f4c083240f7aacaa2d0f62910160405180910390a4610ff18360008989898961164f565b50505050505050565b6000610811838361170a565b816001600160a01b0316836001600160a01b0316036110795760405162461bcd60e51b815260206004820152602960248201527f455243313135353a2073657474696e6720617070726f76616c20737461747573604482015268103337b91039b2b63360b91b60648201526084016103ca565b6001600160a01b03838116600081815260ca6020908152604080832094871680845294825291829020805460ff191686151590811790915591519182527f17307eab39ab6107e8899845ad3d59bd9653f200f220920489ca2b5937696c31910160405180910390a3505050565b60006103f8825490565b6001600160a01b0384166111165760405162461bcd60e51b81526004016103ca9061228f565b33600061112285611604565b9050600061112f85611604565b9050600086815260c9602090815260408083206001600160a01b038c168452909152902054858110156111745760405162461bcd60e51b81526004016103ca906122d4565b600087815260c9602090815260408083206001600160a01b038d8116855292528083208985039055908a168252812080548892906111b390849061224e565b909155505060408051888152602081018890526001600160a01b03808b16928c821692918816917fc3d58168c5ae7397731d063d5bbf3d657854427343f4c083240f7aacaa2d0f62910160405180910390a4611213848a8a8a8a8a61164f565b505050505050505050565b6001600160a01b0383166112445760405162461bcd60e51b81526004016103ca9061231e565b33600061125084611604565b9050600061125d84611604565b604080516020808201835260009182905288825260c981528282206001600160a01b038b16835290522054909150848110156112ab5760405162461bcd60e51b81526004016103ca90612361565b600086815260c9602090815260408083206001600160a01b038b81168086529184528285208a8703905582518b81529384018a90529092908816917fc3d58168c5ae7397731d063d5bbf3d657854427343f4c083240f7aacaa2d0f62910160405180910390a4604080516020810190915260009052610ff1565b600054610100900460ff1661134c5760405162461bcd60e51b81526004016103ca9061217a565b61097a81611734565b600081815260018301602052604081205461139c575081546001818101845560008481526020808220909301849055845484825282860190935260409020919091556103f8565b5060006103f8565b60006001600160e01b03198216635a05180f60e01b14806103f857506103f882611740565b6001600160a01b0384163b15610d3b5760405163bc197c8160e01b81526001600160a01b0385169063bc197c819061140d90899089908890889088906004016123a5565b6020604051808303816000875af1925050508015611448575060408051601f3d908101601f1916820190925261144591810190612403565b60015b6114f457611454612420565b806308c379a00361148d575061146861243c565b80611473575061148f565b8060405162461bcd60e51b81526004016103ca9190611ae5565b505b60405162461bcd60e51b815260206004820152603460248201527f455243313135353a207472616e7366657220746f206e6f6e20455243313135356044820152732932b1b2b4bb32b91034b6b83632b6b2b73a32b960611b60648201526084016103ca565b6001600160e01b0319811663bc197c8160e01b14610ff15760405162461bcd60e51b81526004016103ca906124c5565b61152e8282610818565b61060e57611546816001600160a01b03166014611775565b611551836020611775565b60405160200161156292919061250d565b60408051601f198184030181529082905262461bcd60e51b82526103ca91600401611ae5565b6115928282610818565b1561060e5760008281526065602090815260408083206001600160a01b0385168085529252808320805460ff1916905551339285917ff6391f5c32d9c69d2a47ea670b442974b53935d1edc7fd64eb21e047a839171b9190a45050565b6000610811836001600160a01b038416611910565b6040805160018082528183019092526060916000919060208083019080368337019050509050828160008151811061163e5761163e612135565b602090810291909101015292915050565b6001600160a01b0384163b15610d3b5760405163f23a6e6160e01b81526001600160a01b0385169063f23a6e61906116939089908990889088908890600401612582565b6020604051808303816000875af19250505080156116ce575060408051601f3d908101601f191682019092526116cb91810190612403565b60015b6116da57611454612420565b6001600160e01b0319811663f23a6e6160e01b14610ff15760405162461bcd60e51b81526004016103ca906124c5565b600082600001828154811061172157611721612135565b9060005260206000200154905092915050565b60cb61060e828261260d565b60006001600160e01b03198216637965db0b60e01b14806103f857506301ffc9a760e01b6001600160e01b03198316146103f8565b606060006117848360026126cc565b61178f90600261224e565b6001600160401b038111156117a6576117a6611af8565b6040519080825280601f01601f1916602001820160405280156117d0576020820181803683370190505b509050600360fc1b816000815181106117eb576117eb612135565b60200101906001600160f81b031916908160001a905350600f60fb1b8160018151811061181a5761181a612135565b60200101906001600160f81b031916908160001a905350600061183e8460026126cc565b61184990600161224e565b90505b60018111156118c1576f181899199a1a9b1b9c1cb0b131b232b360811b85600f166010811061187d5761187d612135565b1a60f81b82828151811061189357611893612135565b60200101906001600160f81b031916908160001a90535060049490941c936118ba816126eb565b905061184c565b5083156108115760405162461bcd60e51b815260206004820181905260248201527f537472696e67733a20686578206c656e67746820696e73756666696369656e7460448201526064016103ca565b600081815260018301602052604081205480156119f9576000611934600183612702565b855490915060009061194890600190612702565b90508181146119ad57600086600001828154811061196857611968612135565b906000526020600020015490508087600001848154811061198b5761198b612135565b6000918252602080832090910192909255918252600188019052604090208390555b85548690806119be576119be612715565b6001900381819060005260206000200160009055905585600101600086815260200190815260200160002060009055600193505050506103f8565b60009150506103f8565b80356001600160a01b0381168114611a1a57600080fd5b919050565b60008060408385031215611a3257600080fd5b611a3b83611a03565b946020939093013593505050565b6001600160e01b03198116811461097a57600080fd5b600060208284031215611a7157600080fd5b813561081181611a49565b600060208284031215611a8e57600080fd5b5035919050565b60005b83811015611ab0578181015183820152602001611a98565b50506000910152565b60008151808452611ad1816020860160208601611a95565b601f01601f19169290920160200192915050565b6020815260006108116020830184611ab9565b634e487b7160e01b600052604160045260246000fd5b601f8201601f191681016001600160401b0381118282101715611b3357611b33611af8565b6040525050565b60006001600160401b03821115611b5357611b53611af8565b5060051b60200190565b600082601f830112611b6e57600080fd5b81356020611b7b82611b3a565b604051611b888282611b0e565b83815260059390931b8501820192828101915086841115611ba857600080fd5b8286015b84811015611bc35780358352918301918301611bac565b509695505050505050565b600082601f830112611bdf57600080fd5b81356001600160401b03811115611bf857611bf8611af8565b604051611c0f601f8301601f191660200182611b0e565b818152846020838601011115611c2457600080fd5b816020850160208301376000918101602001919091529392505050565b60008060008060808587031215611c5757600080fd5b611c6085611a03565b935060208501356001600160401b0380821115611c7c57600080fd5b611c8888838901611b5d565b94506040870135915080821115611c9e57600080fd5b611caa88838901611b5d565b93506060870135915080821115611cc057600080fd5b50611ccd87828801611bce565b91505092959194509250565b600080600080600060a08688031215611cf157600080fd5b611cfa86611a03565b9450611d0860208701611a03565b935060408601356001600160401b0380821115611d2457600080fd5b611d3089838a01611b5d565b94506060880135915080821115611d4657600080fd5b611d5289838a01611b5d565b93506080880135915080821115611d6857600080fd5b50611d7588828901611bce565b9150509295509295909350565b60008060408385031215611d9557600080fd5b82359150611da560208401611a03565b90509250929050565b60008060408385031215611dc157600080fd5b82356001600160401b0380821115611dd857600080fd5b818501915085601f830112611dec57600080fd5b81356020611df982611b3a565b604051611e068282611b0e565b83815260059390931b8501820192828101915089841115611e2657600080fd5b948201945b83861015611e4b57611e3c86611a03565b82529482019490820190611e2b565b96505086013592505080821115611e6157600080fd5b50611e6e85828601611b5d565b9150509250929050565b600081518084526020808501945080840160005b83811015611ea857815187529582019590820190600101611e8c565b509495945050505050565b6020815260006108116020830184611e78565b600080600060608486031215611edb57600080fd5b611ee484611a03565b925060208401356001600160401b0380821115611f0057600080fd5b611f0c87838801611b5d565b93506040860135915080821115611f2257600080fd5b50611f2f86828701611b5d565b9150509250925092565b60008060008060808587031215611f4f57600080fd5b611f5885611a03565b9350602085013592506040850135915060608501356001600160401b03811115611f8157600080fd5b611ccd87828801611bce565b60008060408385031215611fa057600080fd5b50508035926020909101359150565b60008060408385031215611fc257600080fd5b611fcb83611a03565b915060208301358015158114611fe057600080fd5b809150509250929050565b60008060408385031215611ffe57600080fd5b61200783611a03565b9150611da560208401611a03565b600080600080600060a0868803121561202d57600080fd5b61203686611a03565b945061204460208701611a03565b9350604086013592506060860135915060808601356001600160401b0381111561206d57600080fd5b611d7588828901611bce565b60008060006060848603121561208e57600080fd5b61209784611a03565b95602085013595506040909401359392505050565b600181811c908216806120c057607f821691505b6020821081036120e057634e487b7160e01b600052602260045260246000fd5b50919050565b6020808252602f908201527f455243313135353a2063616c6c6572206973206e6f7420746f6b656e206f776e60408201526e195c881b9bdc88185c1c1c9bdd9959608a1b606082015260800190565b634e487b7160e01b600052603260045260246000fd5b634e487b7160e01b600052601160045260246000fd5b6000600182016121735761217361214b565b5060010190565b6020808252602b908201527f496e697469616c697a61626c653a20636f6e7472616374206973206e6f74206960408201526a6e697469616c697a696e6760a81b606082015260800190565b60208082526021908201527f455243313135353a206d696e7420746f20746865207a65726f206164647265736040820152607360f81b606082015260800190565b60208082526028908201527f455243313135353a2069647320616e6420616d6f756e7473206c656e677468206040820152670dad2e6dac2e8c6d60c31b606082015260800190565b808201808211156103f8576103f861214b565b6040815260006122746040830185611e78565b82810360208401526122868185611e78565b95945050505050565b60208082526025908201527f455243313135353a207472616e7366657220746f20746865207a65726f206164604082015264647265737360d81b606082015260800190565b6020808252602a908201527f455243313135353a20696e73756666696369656e742062616c616e636520666f60408201526939103a3930b739b332b960b11b606082015260800190565b60208082526023908201527f455243313135353a206275726e2066726f6d20746865207a65726f206164647260408201526265737360e81b606082015260800190565b60208082526024908201527f455243313135353a206275726e20616d6f756e7420657863656564732062616c604082015263616e636560e01b606082015260800190565b6001600160a01b0386811682528516602082015260a0604082018190526000906123d190830186611e78565b82810360608401526123e38186611e78565b905082810360808401526123f78185611ab9565b98975050505050505050565b60006020828403121561241557600080fd5b815161081181611a49565b600060033d11156124395760046000803e5060005160e01c5b90565b600060443d101561244a5790565b6040516003193d81016004833e81513d6001600160401b03816024840111818411171561247957505050505090565b82850191508151818111156124915750505050505090565b843d87010160208285010111156124ab5750505050505090565b6124ba60208286010187611b0e565b509095945050505050565b60208082526028908201527f455243313135353a204552433131353552656365697665722072656a656374656040820152676420746f6b656e7360c01b606082015260800190565b7f416363657373436f6e74726f6c3a206163636f756e7420000000000000000000815260008351612545816017850160208801611a95565b7001034b99036b4b9b9b4b733903937b6329607d1b6017918401918201528351612576816028840160208801611a95565b01602801949350505050565b6001600160a01b03868116825285166020820152604081018490526060810183905260a0608082018190526000906125bc90830184611ab9565b979650505050505050565b601f82111561058f57600081815260208120601f850160051c810160208610156125ee5750805b601f850160051c820191505b81811015610d3b578281556001016125fa565b81516001600160401b0381111561262657612626611af8565b61263a8161263484546120ac565b846125c7565b602080601f83116001811461266f57600084156126575750858301515b600019600386901b1c1916600185901b178555610d3b565b600085815260208120601f198616915b8281101561269e5788860151825594840194600190910190840161267f565b50858210156126bc5787850151600019600388901b60f8161c191681555b5050505050600190811b01905550565b60008160001904831182151516156126e6576126e661214b565b500290565b6000816126fa576126fa61214b565b506000190190565b818103818111156103f8576103f861214b565b634e487b7160e01b600052603160045260246000fdfea2646970667358221220d84f746f173a737e6816e4123648488df6b8e119ec4b4fc93237fc9c098d976b64736f6c63430008100033496e697469616c697a61626c653a20636f6e7472616374206973206e6f7420699f2df0fed2c77648de5860a4cc508cd0818c85b8b8a1ab4ceeef8d981c8956a6",
  "linkReferences": {},
  "deployedLinkReferences": {}
}