{
  "_format": "hh-sol-artifact-1",
  "contractName": "ERC721OnChain",
  "sourceName": "contracts/schain/tokens/ERC721OnChain.sol",
  "abi": [
    {
      "inputs": [
        {
          "internalType": "string",
          "name": "contractName",
          "type": "string"
        },
        {
          "internalType": "string",
          "name": "contractSymbol",
          "type": "string"
        }
      ],
      "stateMutability": "nonpayable",
      "type": "constructor"
    },
    {
      "anonymous": false,
      "inputs": [
        {
          "indexed": true,
          "internalType": "address",
          "name": "owner",
          "type": "address"
        },
        {
          "indexed": true,
          "internalType": "address",
          "name": "approved",
          "type": "address"
        },
        {
          "indexed": true,
          "internalType": "uint256",
          "name": "tokenId",
          "type": "uint256"
        }
      ],
      "name": "Approval",
      "type": "event"
    },
    {
      "anonymous": false,
      "inputs": [
        {
          "indexed": true,
          "internalType": "address",
          "name": "owner",
          "type": "address"
        },
        {
          "indexed": true,
          "internalType": "address",
          "name": "operator",
          "type": "address"
        },
        {
          "indexed": false,
          "internalType": "bool",
          "name": "approved",
          "type": "bool"
        }
      ],
      "name": "ApprovalForAll",
      "type": "event"
    },
    {
      "anonymous": false,
      "inputs": [
        {
          "indexed": false,
          "internalType": "uint8",
          "name": "version",
          "type": "uint8"
        }
      ],
      "name": "Initialized",
      "type": "event"
    },
    {
      "anonymous": false,
      "inputs": [
        {
          "indexed": true,
          "internalType": "bytes32",
          "name": "role",
          "type": "bytes32"
        },
        {
          "indexed": true,
          "internalType": "bytes32",
          "name": "previousAdminRole",
          "type": "bytes32"
        },
        {
          "indexed": true,
          "internalType": "bytes32",
          "name": "newAdminRole",
          "type": "bytes32"
        }
      ],
      "name": "RoleAdminChanged",
      "type": "event"
    },
    {
      "anonymous": false,
      "inputs": [
        {
          "indexed": true,
          "internalType": "bytes32",
          "name": "role",
          "type": "bytes32"
        },
        {
          "indexed": true,
          "internalType": "address",
          "name": "account",
          "type": "address"
        },
        {
          "indexed": true,
          "internalType": "address",
          "name": "sender",
          "type": "address"
        }
      ],
      "name": "RoleGranted",
      "type": "event"
    },
    {
      "anonymous": false,
      "inputs": [
        {
          "indexed": true,
          "internalType": "bytes32",
          "name": "role",
          "type": "bytes32"
        },
        {
          "indexed": true,
          "internalType": "address",
          "name": "account",
          "type": "address"
        },
        {
          "indexed": true,
          "internalType": "address",
          "name": "sender",
          "type": "address"
        }
      ],
      "name": "RoleRevoked",
      "type": "event"
    },
    {
      "anonymous": false,
      "inputs": [
        {
          "indexed": true,
          "internalType": "address",
          "name": "from",
          "type": "address"
        },
        {
          "indexed": true,
          "internalType": "address",
          "name": "to",
          "type": "address"
        },
        {
          "indexed": true,
          "internalType": "uint256",
          "name": "tokenId",
          "type": "uint256"
        }
      ],
      "name": "Transfer",
      "type": "event"
    },
    {
      "inputs": [],
      "name": "DEFAULT_ADMIN_ROLE",
      "outputs": [
        {
          "internalType": "bytes32",
          "name": "",
          "type": "bytes32"
        }
      ],
      "stateMutability": "view",
      "type": "function"
    },
    {
      "inputs": [],
      "name": "MINTER_ROLE",
      "outputs": [
        {
          "internalType": "bytes32",
          "name": "",
          "type": "bytes32"
        }
      ],
      "stateMutability": "view",
      "type": "function"
    },
    {
      "inputs": [
        {
          "internalType": "address",
          "name": "to",
          "type": "address"
        },
        {
          "internalType": "uint256",
          "name": "tokenId",
          "type": "uint256"
        }
      ],
      "name": "approve",
      "outputs": [],
      "stateMutability": "nonpayable",
      "type": "function"
    },
    {
      "inputs": [
        {
          "internalType": "address",
          "name": "owner",
          "type": "address"
        }
      ],
      "name": "balanceOf",
      "outputs": [
        {
          "internalType": "uint256",
          "name": "",
          "type": "uint256"
        }
      ],
      "stateMutability": "view",
      "type": "function"
    },
    {
      "inputs": [
        {
          "internalType": "uint256",
          "name": "tokenId",
          "type": "uint256"
        }
      ],
      "name": "burn",
      "outputs": [],
      "stateMutability": "nonpayable",
      "type": "function"
    },
    {
      "inputs": [
        {
          "internalType": "uint256",
          "name": "tokenId",
          "type": "uint256"
        }
      ],
      "name": "getApproved",
      "outputs": [
        {
          "internalType": "address",
          "name": "",
          "type": "address"
        }
      ],
      "stateMutability": "view",
      "type": "function"
    },
    {
      "inputs": [
        {
          "internalType": "bytes32",
          "name": "role",
          "type": "bytes32"
        }
      ],
      "name": "getRoleAdmin",
      "outputs": [
        {
          "internalType": "bytes32",
          "name": "",
          "type": "bytes32"
        }
      ],
      "stateMutability": "view",
      "type": "function"
    },
    {
      "inputs": [
        {
          "internalType": "bytes32",
          "name": "role",
          "type": "bytes32"
        },
        {
          "internalType": "uint256",
          "name": "index",
          "type": "uint256"
        }
      ],
      "name": "getRoleMember",
      "outputs": [
        {
          "internalType": "address",
          "name": "",
          "type": "address"
        }
      ],
      "stateMutability": "view",
      "type": "function"
    },
    {
      "inputs": [
        {
          "internalType": "bytes32",
          "name": "role",
          "type": "bytes32"
        }
      ],
      "name": "getRoleMemberCount",
      "outputs": [
        {
          "internalType": "uint256",
          "name": "",
          "type": "uint256"
        }
      ],
      "stateMutability": "view",
      "type": "function"
    },
    {
      "inputs": [
        {
          "internalType": "bytes32",
          "name": "role",
          "type": "bytes32"
        },
        {
          "internalType": "address",
          "name": "account",
          "type": "address"
        }
      ],
      "name": "grantRole",
      "outputs": [],
      "stateMutability": "nonpayable",
      "type": "function"
    },
    {
      "inputs": [
        {
          "internalType": "bytes32",
          "name": "role",
          "type": "bytes32"
        },
        {
          "internalType": "address",
          "name": "account",
          "type": "address"
        }
      ],
      "name": "hasRole",
      "outputs": [
        {
          "internalType": "bool",
          "name": "",
          "type": "bool"
        }
      ],
      "stateMutability": "view",
      "type": "function"
    },
    {
      "inputs": [
        {
          "internalType": "address",
          "name": "owner",
          "type": "address"
        },
        {
          "internalType": "address",
          "name": "operator",
          "type": "address"
        }
      ],
      "name": "isApprovedForAll",
      "outputs": [
        {
          "internalType": "bool",
          "name": "",
          "type": "bool"
        }
      ],
      "stateMutability": "view",
      "type": "function"
    },
    {
      "inputs": [
        {
          "internalType": "address",
          "name": "account",
          "type": "address"
        },
        {
          "internalType": "uint256",
          "name": "tokenId",
          "type": "uint256"
        }
      ],
      "name": "mint",
      "outputs": [],
      "stateMutability": "nonpayable",
      "type": "function"
    },
    {
      "inputs": [],
      "name": "name",
      "outputs": [
        {
          "internalType": "string",
          "name": "",
          "type": "string"
        }
      ],
      "stateMutability": "view",
      "type": "function"
    },
    {
      "inputs": [
        {
          "internalType": "uint256",
          "name": "tokenId",
          "type": "uint256"
        }
      ],
      "name": "ownerOf",
      "outputs": [
        {
          "internalType": "address",
          "name": "",
          "type": "address"
        }
      ],
      "stateMutability": "view",
      "type": "function"
    },
    {
      "inputs": [
        {
          "internalType": "bytes32",
          "name": "role",
          "type": "bytes32"
        },
        {
          "internalType": "address",
          "name": "account",
          "type": "address"
        }
      ],
      "name": "renounceRole",
      "outputs": [],
      "stateMutability": "nonpayable",
      "type": "function"
    },
    {
      "inputs": [
        {
          "internalType": "bytes32",
          "name": "role",
          "type": "bytes32"
        },
        {
          "internalType": "address",
          "name": "account",
          "type": "address"
        }
      ],
      "name": "revokeRole",
      "outputs": [],
      "stateMutability": "nonpayable",
      "type": "function"
    },
    {
      "inputs": [
        {
          "internalType": "address",
          "name": "from",
          "type": "address"
        },
        {
          "internalType": "address",
          "name": "to",
          "type": "address"
        },
        {
          "internalType": "uint256",
          "name": "tokenId",
          "type": "uint256"
        }
      ],
      "name": "safeTransferFrom",
      "outputs": [],
      "stateMutability": "nonpayable",
      "type": "function"
    },
    {
      "inputs": [
        {
          "internalType": "address",
          "name": "from",
          "type": "address"
        },
        {
          "internalType": "address",
          "name": "to",
          "type": "address"
        },
        {
          "internalType": "uint256",
          "name": "tokenId",
          "type": "uint256"
        },
        {
          "internalType": "bytes",
          "name": "data",
          "type": "bytes"
        }
      ],
      "name": "safeTransferFrom",
      "outputs": [],
      "stateMutability": "nonpayable",
      "type": "function"
    },
    {
      "inputs": [
        {
          "internalType": "address",
          "name": "operator",
          "type": "address"
        },
        {
          "internalType": "bool",
          "name": "approved",
          "type": "bool"
        }
      ],
      "name": "setApprovalForAll",
      "outputs": [],
      "stateMutability": "nonpayable",
      "type": "function"
    },
    {
      "inputs": [
        {
          "internalType": "uint256",
          "name": "tokenId",
          "type": "uint256"
        },
        {
          "internalType": "string",
          "name": "tokenUri",
          "type": "string"
        }
      ],
      "name": "setTokenURI",
      "outputs": [
        {
          "internalType": "bool",
          "name": "",
          "type": "bool"
        }
      ],
      "stateMutability": "nonpayable",
      "type": "function"
    },
    {
      "inputs": [
        {
          "internalType": "bytes4",
          "name": "interfaceId",
          "type": "bytes4"
        }
      ],
      "name": "supportsInterface",
      "outputs": [
        {
          "internalType": "bool",
          "name": "",
          "type": "bool"
        }
      ],
      "stateMutability": "view",
      "type": "function"
    },
    {
      "inputs": [],
      "name": "symbol",
      "outputs": [
        {
          "internalType": "string",
          "name": "",
          "type": "string"
        }
      ],
      "stateMutability": "view",
      "type": "function"
    },
    {
      "inputs": [
        {
          "internalType": "uint256",
          "name": "tokenId",
          "type": "uint256"
        }
      ],
      "name": "tokenURI",
      "outputs": [
        {
          "internalType": "string",
          "name": "",
          "type": "string"
        }
      ],
      "stateMutability": "view",
      "type": "function"
    },
    {
      "inputs": [
        {
          "internalType": "address",
          "name": "from",
          "type": "address"
        },
        {
          "internalType": "address",
          "name": "to",
          "type": "address"
        },
        {
          "internalType": "uint256",
          "name": "tokenId",
          "type": "uint256"
        }
      ],
      "name": "transferFrom",
      "outputs": [],
      "stateMutability": "nonpayable",
      "type": "function"
    }
  ],
  "bytecode": "0x60806040523480156200001157600080fd5b5060405162002a5538038062002a558339810160408190526200003491620005a0565b600054610100900460ff1615808015620000555750600054600160ff909116105b806200008557506200007230620001d960201b62000a3c1760201c565b15801562000085575060005460ff166001145b620000ee5760405162461bcd60e51b815260206004820152602e60248201527f496e697469616c697a61626c653a20636f6e747261637420697320616c72656160448201526d191e481a5b9a5d1a585b1a5e995960921b60648201526084015b60405180910390fd5b6000805460ff19166001179055801562000112576000805461ff0019166101001790555b62000127620001e860201b62000a4b1760201c565b6200013e83836200024660201b62000a741760201c565b62000153620001e860201b62000a4b1760201c565b6200016e60008051602062002a3583398151915280620002b2565b6200018960008051602062002a3583398151915233620002fd565b8015620001d0576000805461ff0019169055604051600181527f7f26b83ff96e1f2b6a682f133852f6798a09c465da95921460cefb38474024989060200160405180910390a15b50505062000764565b6001600160a01b03163b151590565b600054610100900460ff16620002445760405162461bcd60e51b815260206004820152602b602482015260008051602062002a1583398151915260448201526a6e697469616c697a696e6760a81b6064820152608401620000e5565b565b600054610100900460ff16620002a25760405162461bcd60e51b815260206004820152602b602482015260008051602062002a1583398151915260448201526a6e697469616c697a696e6760a81b6064820152608401620000e5565b620002ae828262000309565b5050565b600082815260656020526040808220600101805490849055905190918391839186917fbd79b86ffe0ab8e8776151514217cd7cacd52c909f66475c3af44e129f0b00ff9190a4505050565b620002ae828262000387565b600054610100900460ff16620003655760405162461bcd60e51b815260206004820152602b602482015260008051602062002a1583398151915260448201526a6e697469616c697a696e6760a81b6064820152608401620000e5565b60c962000373838262000698565b5060ca62000382828262000698565b505050565b6200039e8282620003c560201b62000aa51760201c565b60008281526097602090815260409091206200038291839062000b2b62000469821b17901c565b60008281526065602090815260408083206001600160a01b038516845290915290205460ff16620002ae5760008281526065602090815260408083206001600160a01b03851684529091529020805460ff19166001179055620004253390565b6001600160a01b0316816001600160a01b0316837f2f8788117e7eff1d82e926ec794901d17c78024a50270940304540a733656f0d60405160405180910390a45050565b600062000480836001600160a01b03841662000489565b90505b92915050565b6000818152600183016020526040812054620004d25750815460018181018455600084815260208082209093018490558454848252828601909352604090209190915562000483565b50600062000483565b634e487b7160e01b600052604160045260246000fd5b600082601f8301126200050357600080fd5b81516001600160401b0380821115620005205762000520620004db565b604051601f8301601f19908116603f011681019082821181831017156200054b576200054b620004db565b816040528381526020925086838588010111156200056857600080fd5b600091505b838210156200058c57858201830151818301840152908201906200056d565b600093810190920192909252949350505050565b60008060408385031215620005b457600080fd5b82516001600160401b0380821115620005cc57600080fd5b620005da86838701620004f1565b93506020850151915080821115620005f157600080fd5b506200060085828601620004f1565b9150509250929050565b600181811c908216806200061f57607f821691505b6020821081036200064057634e487b7160e01b600052602260045260246000fd5b50919050565b601f8211156200038257600081815260208120601f850160051c810160208610156200066f5750805b601f850160051c820191505b8181101562000690578281556001016200067b565b505050505050565b81516001600160401b03811115620006b457620006b4620004db565b620006cc81620006c584546200060a565b8462000646565b602080601f831160018114620007045760008415620006eb5750858301515b600019600386901b1c1916600185901b17855562000690565b600085815260208120601f198616915b82811015620007355788860151825594840194600190910190840162000714565b5085821015620007545787850151600019600388901b60f8161c191681555b5050505050600190811b01905550565b6122a180620007746000396000f3fe608060405234801561001057600080fd5b50600436106101735760003560e01c80636352211e116100de578063a22cb46511610097578063ca15c87311610071578063ca15c87314610340578063d539139314610353578063d547741f1461037a578063e985e9c51461038d57600080fd5b8063a22cb46514610307578063b88d4fde1461031a578063c87b56dd1461032d57600080fd5b80636352211e146102ab57806370a08231146102be5780639010d07c146102d157806391d14854146102e457806395d89b41146102f7578063a217fddf146102ff57600080fd5b8063248a9ca311610130578063248a9ca31461021b5780632f2ff15d1461024c57806336568abe1461025f57806340c10f191461027257806342842e0e1461028557806342966c681461029857600080fd5b806301ffc9a71461017857806306fdde03146101a0578063081812fc146101b5578063095ea7b3146101e0578063162094c4146101f557806323b872dd14610208575b600080fd5b61018b610186366004611aed565b6103c9565b60405190151581526020015b60405180910390f35b6101a86103da565b6040516101979190611b5a565b6101c86101c3366004611b6d565b61046c565b6040516001600160a01b039091168152602001610197565b6101f36101ee366004611ba2565b610493565b005b61018b610203366004611bcc565b6105ad565b6101f3610216366004611c48565b6106d9565b61023e610229366004611b6d565b60009081526065602052604090206001015490565b604051908152602001610197565b6101f361025a366004611c84565b61070b565b6101f361026d366004611c84565b610730565b6101f3610280366004611ba2565b6107ae565b6101f3610293366004611c48565b610827565b6101f36102a6366004611b6d565b610842565b6101c86102b9366004611b6d565b610873565b61023e6102cc366004611cb0565b6108d3565b6101c86102df366004611ccb565b610959565b61018b6102f2366004611c84565b610978565b6101a86109a3565b61023e600081565b6101f3610315366004611ced565b6109b2565b6101f3610328366004611d3f565b6109bd565b6101a861033b366004611b6d565b6109f5565b61023e61034e366004611b6d565b610a00565b61023e7f9f2df0fed2c77648de5860a4cc508cd0818c85b8b8a1ab4ceeef8d981c8956a681565b6101f3610388366004611c84565b610a17565b61018b61039b366004611e1b565b6001600160a01b03918216600090815260ce6020908152604080832093909416825291909152205460ff1690565b60006103d482610b40565b92915050565b606060c980546103e990611e45565b80601f016020809104026020016040519081016040528092919081815260200182805461041590611e45565b80156104625780601f1061043757610100808354040283529160200191610462565b820191906000526020600020905b81548152906001019060200180831161044557829003601f168201915b5050505050905090565b600061047782610b80565b50600090815260cd60205260409020546001600160a01b031690565b600061049e82610873565b9050806001600160a01b0316836001600160a01b0316036105105760405162461bcd60e51b815260206004820152602160248201527f4552433732313a20617070726f76616c20746f2063757272656e74206f776e656044820152603960f91b60648201526084015b60405180910390fd5b336001600160a01b038216148061052c575061052c813361039b565b61059e5760405162461bcd60e51b815260206004820152603e60248201527f4552433732313a20617070726f76652063616c6c6572206973206e6f7420746f60448201527f6b656e206f776e6572206e6f7220617070726f76656420666f7220616c6c00006064820152608401610507565b6105a88383610bdf565b505050565b600083815260cb60205260408120546001600160a01b03166106095760405162461bcd60e51b8152602060048201526015602482015274546f6b656e20646f6573206e6f742065786973747360581b6044820152606401610507565b6106133385610c4d565b8061064357506106437f9f2df0fed2c77648de5860a4cc508cd0818c85b8b8a1ab4ceeef8d981c8956a633610978565b61068f5760405162461bcd60e51b815260206004820152601c60248201527f53656e6465722063616e206e6f742073657420746f6b656e20555249000000006044820152606401610507565b6106cf8484848080601f016020809104026020016040519081016040528093929190818152602001838380828437600092019190915250610ccc92505050565b5060019392505050565b6106e4335b82610c4d565b6107005760405162461bcd60e51b815260040161050790611e7f565b6105a8838383610d60565b60008281526065602052604090206001015461072681610efc565b6105a88383610f06565b6001600160a01b03811633146107a05760405162461bcd60e51b815260206004820152602f60248201527f416363657373436f6e74726f6c3a2063616e206f6e6c792072656e6f756e636560448201526e103937b632b9903337b91039b2b63360891b6064820152608401610507565b6107aa8282610f28565b5050565b6107d87f9f2df0fed2c77648de5860a4cc508cd0818c85b8b8a1ab4ceeef8d981c8956a633610978565b61081d5760405162461bcd60e51b815260206004820152601660248201527529b2b73232b91034b9903737ba10309026b4b73a32b960511b6044820152606401610507565b6107aa8282610f4a565b6105a8838383604051806020016040528060008152506109bd565b61084b336106de565b6108675760405162461bcd60e51b815260040161050790611e7f565b6108708161108c565b50565b600081815260cb60205260408120546001600160a01b0316806103d45760405162461bcd60e51b8152602060048201526018602482015277115490cdcc8c4e881a5b9d985b1a59081d1bdad95b88125160421b6044820152606401610507565b60006001600160a01b03821661093d5760405162461bcd60e51b815260206004820152602960248201527f4552433732313a2061646472657373207a65726f206973206e6f7420612076616044820152683634b21037bbb732b960b91b6064820152608401610507565b506001600160a01b0316600090815260cc602052604090205490565b60008281526097602052604081206109719083611095565b9392505050565b60009182526065602090815260408084206001600160a01b0393909316845291905290205460ff1690565b606060ca80546103e990611e45565b6107aa3383836110a1565b6109c73383610c4d565b6109e35760405162461bcd60e51b815260040161050790611e7f565b6109ef8484848461116f565b50505050565b60606103d4826111a2565b60008181526097602052604081206103d4906112ab565b600082815260656020526040902060010154610a3281610efc565b6105a88383610f28565b6001600160a01b03163b151590565b600054610100900460ff16610a725760405162461bcd60e51b815260040161050790611ecd565b565b600054610100900460ff16610a9b5760405162461bcd60e51b815260040161050790611ecd565b6107aa82826112b5565b610aaf8282610978565b6107aa5760008281526065602090815260408083206001600160a01b03851684529091529020805460ff19166001179055610ae73390565b6001600160a01b0316816001600160a01b0316837f2f8788117e7eff1d82e926ec794901d17c78024a50270940304540a733656f0d60405160405180910390a45050565b6000610971836001600160a01b0384166112f5565b60006001600160e01b031982166380ac58cd60e01b1480610b7157506001600160e01b03198216635b5e139f60e01b145b806103d457506103d482611344565b600081815260cb60205260409020546001600160a01b03166108705760405162461bcd60e51b8152602060048201526018602482015277115490cdcc8c4e881a5b9d985b1a59081d1bdad95b88125160421b6044820152606401610507565b600081815260cd6020526040902080546001600160a01b0319166001600160a01b0384169081179091558190610c1482610873565b6001600160a01b03167f8c5be1e5ebec7d5bd14f71427d1e84f3dd0314c0f7b2291e5b200ac8c7c3b92560405160405180910390a45050565b600080610c5983610873565b9050806001600160a01b0316846001600160a01b03161480610ca057506001600160a01b03808216600090815260ce602090815260408083209388168352929052205460ff165b80610cc45750836001600160a01b0316610cb98461046c565b6001600160a01b0316145b949350505050565b600082815260cb60205260409020546001600160a01b0316610d475760405162461bcd60e51b815260206004820152602e60248201527f45524337323155524953746f726167653a2055524920736574206f66206e6f6e60448201526d32bc34b9ba32b73a103a37b5b2b760911b6064820152608401610507565b600082815261012d602052604090206105a88282611f66565b826001600160a01b0316610d7382610873565b6001600160a01b031614610dd75760405162461bcd60e51b815260206004820152602560248201527f4552433732313a207472616e736665722066726f6d20696e636f72726563742060448201526437bbb732b960d91b6064820152608401610507565b6001600160a01b038216610e395760405162461bcd60e51b8152602060048201526024808201527f4552433732313a207472616e7366657220746f20746865207a65726f206164646044820152637265737360e01b6064820152608401610507565b610e44600082610bdf565b6001600160a01b038316600090815260cc60205260408120805460019290610e6d90849061203c565b90915550506001600160a01b038216600090815260cc60205260408120805460019290610e9b90849061204f565b9091555050600081815260cb602052604080822080546001600160a01b0319166001600160a01b0386811691821790925591518493918716917fddf252ad1be2c89b69c2b068fc378daa952ba7f163c4a11628f55a4df523b3ef91a4505050565b6108708133611369565b610f108282610aa5565b60008281526097602052604090206105a89082610b2b565b610f3282826113cd565b60008281526097602052604090206105a89082611434565b6001600160a01b038216610fa05760405162461bcd60e51b815260206004820181905260248201527f4552433732313a206d696e7420746f20746865207a65726f20616464726573736044820152606401610507565b600081815260cb60205260409020546001600160a01b0316156110055760405162461bcd60e51b815260206004820152601c60248201527f4552433732313a20746f6b656e20616c7265616479206d696e746564000000006044820152606401610507565b6001600160a01b038216600090815260cc6020526040812080546001929061102e90849061204f565b9091555050600081815260cb602052604080822080546001600160a01b0319166001600160a01b03861690811790915590518392907fddf252ad1be2c89b69c2b068fc378daa952ba7f163c4a11628f55a4df523b3ef908290a45050565b61087081611449565b6000610971838361148b565b816001600160a01b0316836001600160a01b0316036111025760405162461bcd60e51b815260206004820152601960248201527f4552433732313a20617070726f766520746f2063616c6c6572000000000000006044820152606401610507565b6001600160a01b03838116600081815260ce6020908152604080832094871680845294825291829020805460ff191686151590811790915591519182527f17307eab39ab6107e8899845ad3d59bd9653f200f220920489ca2b5937696c31910160405180910390a3505050565b61117a848484610d60565b611186848484846114b5565b6109ef5760405162461bcd60e51b815260040161050790612062565b60606111ad82610b80565b600082815261012d6020526040812080546111c790611e45565b80601f01602080910402602001604051908101604052809291908181526020018280546111f390611e45565b80156112405780601f1061121557610100808354040283529160200191611240565b820191906000526020600020905b81548152906001019060200180831161122357829003601f168201915b50505050509050600061125e60408051602081019091526000815290565b90508051600003611270575092915050565b8151156112a257808260405160200161128a9291906120b4565b60405160208183030381529060405292505050919050565b610cc4846115b6565b60006103d4825490565b600054610100900460ff166112dc5760405162461bcd60e51b815260040161050790611ecd565b60c96112e88382611f66565b5060ca6105a88282611f66565b600081815260018301602052604081205461133c575081546001818101845560008481526020808220909301849055845484825282860190935260409020919091556103d4565b5060006103d4565b60006001600160e01b03198216635a05180f60e01b14806103d457506103d482611629565b6113738282610978565b6107aa5761138b816001600160a01b0316601461165e565b61139683602061165e565b6040516020016113a79291906120e3565b60408051601f198184030181529082905262461bcd60e51b825261050791600401611b5a565b6113d78282610978565b156107aa5760008281526065602090815260408083206001600160a01b0385168085529252808320805460ff1916905551339285917ff6391f5c32d9c69d2a47ea670b442974b53935d1edc7fd64eb21e047a839171b9190a45050565b6000610971836001600160a01b0384166117fa565b611452816118ed565b600081815261012d60205260409020805461146c90611e45565b15905061087057600081815261012d6020526040812061087091611a89565b60008260000182815481106114a2576114a2612158565b9060005260206000200154905092915050565b60006001600160a01b0384163b156115ab57604051630a85bd0160e11b81526001600160a01b0385169063150b7a02906114f990339089908890889060040161216e565b6020604051808303816000875af1925050508015611534575060408051601f3d908101601f19168201909252611531918101906121ab565b60015b611591573d808015611562576040519150601f19603f3d011682016040523d82523d6000602084013e611567565b606091505b5080516000036115895760405162461bcd60e51b815260040161050790612062565b805181602001fd5b6001600160e01b031916630a85bd0160e11b149050610cc4565b506001949350505050565b60606115c182610b80565b60006115d860408051602081019091526000815290565b905060008151116115f85760405180602001604052806000815250610971565b8061160284611988565b6040516020016116139291906120b4565b6040516020818303038152906040529392505050565b60006001600160e01b03198216637965db0b60e01b14806103d457506301ffc9a760e01b6001600160e01b03198316146103d4565b6060600061166d8360026121c8565b61167890600261204f565b67ffffffffffffffff81111561169057611690611d29565b6040519080825280601f01601f1916602001820160405280156116ba576020820181803683370190505b509050600360fc1b816000815181106116d5576116d5612158565b60200101906001600160f81b031916908160001a905350600f60fb1b8160018151811061170457611704612158565b60200101906001600160f81b031916908160001a90535060006117288460026121c8565b61173390600161204f565b90505b60018111156117ab576f181899199a1a9b1b9c1cb0b131b232b360811b85600f166010811061176757611767612158565b1a60f81b82828151811061177d5761177d612158565b60200101906001600160f81b031916908160001a90535060049490941c936117a4816121e7565b9050611736565b5083156109715760405162461bcd60e51b815260206004820181905260248201527f537472696e67733a20686578206c656e67746820696e73756666696369656e746044820152606401610507565b600081815260018301602052604081205480156118e357600061181e60018361203c565b85549091506000906118329060019061203c565b905081811461189757600086600001828154811061185257611852612158565b906000526020600020015490508087600001848154811061187557611875612158565b6000918252602080832090910192909255918252600188019052604090208390555b85548690806118a8576118a86121fe565b6001900381819060005260206000200160009055905585600101600086815260200190815260200160002060009055600193505050506103d4565b60009150506103d4565b60006118f882610873565b9050611905600083610bdf565b6001600160a01b038116600090815260cc6020526040812080546001929061192e90849061203c565b9091555050600082815260cb602052604080822080546001600160a01b0319169055518391906001600160a01b038416907fddf252ad1be2c89b69c2b068fc378daa952ba7f163c4a11628f55a4df523b3ef908390a45050565b6060816000036119af5750506040805180820190915260018152600360fc1b602082015290565b8160005b81156119d957806119c381612214565b91506119d29050600a83612243565b91506119b3565b60008167ffffffffffffffff8111156119f4576119f4611d29565b6040519080825280601f01601f191660200182016040528015611a1e576020820181803683370190505b5090505b8415610cc457611a3360018361203c565b9150611a40600a86612257565b611a4b90603061204f565b60f81b818381518110611a6057611a60612158565b60200101906001600160f81b031916908160001a905350611a82600a86612243565b9450611a22565b508054611a9590611e45565b6000825580601f10611aa5575050565b601f01602090049060005260206000209081019061087091905b80821115611ad35760008155600101611abf565b5090565b6001600160e01b03198116811461087057600080fd5b600060208284031215611aff57600080fd5b813561097181611ad7565b60005b83811015611b25578181015183820152602001611b0d565b50506000910152565b60008151808452611b46816020860160208601611b0a565b601f01601f19169290920160200192915050565b6020815260006109716020830184611b2e565b600060208284031215611b7f57600080fd5b5035919050565b80356001600160a01b0381168114611b9d57600080fd5b919050565b60008060408385031215611bb557600080fd5b611bbe83611b86565b946020939093013593505050565b600080600060408486031215611be157600080fd5b83359250602084013567ffffffffffffffff80821115611c0057600080fd5b818601915086601f830112611c1457600080fd5b813581811115611c2357600080fd5b876020828501011115611c3557600080fd5b6020830194508093505050509250925092565b600080600060608486031215611c5d57600080fd5b611c6684611b86565b9250611c7460208501611b86565b9150604084013590509250925092565b60008060408385031215611c9757600080fd5b82359150611ca760208401611b86565b90509250929050565b600060208284031215611cc257600080fd5b61097182611b86565b60008060408385031215611cde57600080fd5b50508035926020909101359150565b60008060408385031215611d0057600080fd5b611d0983611b86565b915060208301358015158114611d1e57600080fd5b809150509250929050565b634e487b7160e01b600052604160045260246000fd5b60008060008060808587031215611d5557600080fd5b611d5e85611b86565b9350611d6c60208601611b86565b925060408501359150606085013567ffffffffffffffff80821115611d9057600080fd5b818701915087601f830112611da457600080fd5b813581811115611db657611db6611d29565b604051601f8201601f19908116603f01168101908382118183101715611dde57611dde611d29565b816040528281528a6020848701011115611df757600080fd5b82602086016020830137600060208483010152809550505050505092959194509250565b60008060408385031215611e2e57600080fd5b611e3783611b86565b9150611ca760208401611b86565b600181811c90821680611e5957607f821691505b602082108103611e7957634e487b7160e01b600052602260045260246000fd5b50919050565b6020808252602e908201527f4552433732313a2063616c6c6572206973206e6f7420746f6b656e206f776e6560408201526d1c881b9bdc88185c1c1c9bdd995960921b606082015260800190565b6020808252602b908201527f496e697469616c697a61626c653a20636f6e7472616374206973206e6f74206960408201526a6e697469616c697a696e6760a81b606082015260800190565b601f8211156105a857600081815260208120601f850160051c81016020861015611f3f5750805b601f850160051c820191505b81811015611f5e57828155600101611f4b565b505050505050565b815167ffffffffffffffff811115611f8057611f80611d29565b611f9481611f8e8454611e45565b84611f18565b602080601f831160018114611fc95760008415611fb15750858301515b600019600386901b1c1916600185901b178555611f5e565b600085815260208120601f198616915b82811015611ff857888601518255948401946001909101908401611fd9565b50858210156120165787850151600019600388901b60f8161c191681555b5050505050600190811b01905550565b634e487b7160e01b600052601160045260246000fd5b818103818111156103d4576103d4612026565b808201808211156103d4576103d4612026565b60208082526032908201527f4552433732313a207472616e7366657220746f206e6f6e20455243373231526560408201527131b2b4bb32b91034b6b83632b6b2b73a32b960711b606082015260800190565b600083516120c6818460208801611b0a565b8351908301906120da818360208801611b0a565b01949350505050565b7f416363657373436f6e74726f6c3a206163636f756e742000000000000000000081526000835161211b816017850160208801611b0a565b7001034b99036b4b9b9b4b733903937b6329607d1b601791840191820152835161214c816028840160208801611b0a565b01602801949350505050565b634e487b7160e01b600052603260045260246000fd5b6001600160a01b03858116825284166020820152604081018390526080606082018190526000906121a190830184611b2e565b9695505050505050565b6000602082840312156121bd57600080fd5b815161097181611ad7565b60008160001904831182151516156121e2576121e2612026565b500290565b6000816121f6576121f6612026565b506000190190565b634e487b7160e01b600052603160045260246000fd5b60006001820161222657612226612026565b5060010190565b634e487b7160e01b600052601260045260246000fd5b6000826122525761225261222d565b500490565b6000826122665761226661222d565b50069056fea2646970667358221220bb44f536146db5420851b152450b1223d86620092917329913619d017d6b2d0264736f6c63430008100033496e697469616c697a61626c653a20636f6e7472616374206973206e6f7420699f2df0fed2c77648de5860a4cc508cd0818c85b8b8a1ab4ceeef8d981c8956a6",
  "linkReferences": {},
  "deployedLinkReferences": {}
}