{
  "_format": "hh-sol-artifact-1",
  "contractName": "EthErc20",
  "sourceName": "contracts/schain/tokens/EthErc20.sol",
  "abi": [
    {
      "anonymous": false,
      "inputs": [
        {
          "indexed": true,
          "internalType": "address",
          "name": "owner",
          "type": "address"
        },
        {
          "indexed": true,
          "internalType": "address",
          "name": "spender",
          "type": "address"
        },
        {
          "indexed": false,
          "internalType": "uint256",
          "name": "value",
          "type": "uint256"
        }
      ],
      "name": "Approval",
      "type": "event"
    },
    {
      "anonymous": false,
      "inputs": [
        {
          "indexed": false,
          "internalType": "uint8",
          "name": "version",
          "type": "uint8"
        }
      ],
      "name": "Initialized",
      "type": "event"
    },
    {
      "anonymous": false,
      "inputs": [
        {
          "indexed": true,
          "internalType": "bytes32",
          "name": "role",
          "type": "bytes32"
        },
        {
          "indexed": true,
          "internalType": "bytes32",
          "name": "previousAdminRole",
          "type": "bytes32"
        },
        {
          "indexed": true,
          "internalType": "bytes32",
          "name": "newAdminRole",
          "type": "bytes32"
        }
      ],
      "name": "RoleAdminChanged",
      "type": "event"
    },
    {
      "anonymous": false,
      "inputs": [
        {
          "indexed": true,
          "internalType": "bytes32",
          "name": "role",
          "type": "bytes32"
        },
        {
          "indexed": true,
          "internalType": "address",
          "name": "account",
          "type": "address"
        },
        {
          "indexed": true,
          "internalType": "address",
          "name": "sender",
          "type": "address"
        }
      ],
      "name": "RoleGranted",
      "type": "event"
    },
    {
      "anonymous": false,
      "inputs": [
        {
          "indexed": true,
          "internalType": "bytes32",
          "name": "role",
          "type": "bytes32"
        },
        {
          "indexed": true,
          "internalType": "address",
          "name": "account",
          "type": "address"
        },
        {
          "indexed": true,
          "internalType": "address",
          "name": "sender",
          "type": "address"
        }
      ],
      "name": "RoleRevoked",
      "type": "event"
    },
    {
      "anonymous": false,
      "inputs": [
        {
          "indexed": true,
          "internalType": "address",
          "name": "from",
          "type": "address"
        },
        {
          "indexed": true,
          "internalType": "address",
          "name": "to",
          "type": "address"
        },
        {
          "indexed": false,
          "internalType": "uint256",
          "name": "value",
          "type": "uint256"
        }
      ],
      "name": "Transfer",
      "type": "event"
    },
    {
      "inputs": [],
      "name": "BURNER_ROLE",
      "outputs": [
        {
          "internalType": "bytes32",
          "name": "",
          "type": "bytes32"
        }
      ],
      "stateMutability": "view",
      "type": "function"
    },
    {
      "inputs": [],
      "name": "DEFAULT_ADMIN_ROLE",
      "outputs": [
        {
          "internalType": "bytes32",
          "name": "",
          "type": "bytes32"
        }
      ],
      "stateMutability": "view",
      "type": "function"
    },
    {
      "inputs": [],
      "name": "MINTER_ROLE",
      "outputs": [
        {
          "internalType": "bytes32",
          "name": "",
          "type": "bytes32"
        }
      ],
      "stateMutability": "view",
      "type": "function"
    },
    {
      "inputs": [
        {
          "internalType": "address",
          "name": "owner",
          "type": "address"
        },
        {
          "internalType": "address",
          "name": "spender",
          "type": "address"
        }
      ],
      "name": "allowance",
      "outputs": [
        {
          "internalType": "uint256",
          "name": "",
          "type": "uint256"
        }
      ],
      "stateMutability": "view",
      "type": "function"
    },
    {
      "inputs": [
        {
          "internalType": "address",
          "name": "spender",
          "type": "address"
        },
        {
          "internalType": "uint256",
          "name": "amount",
          "type": "uint256"
        }
      ],
      "name": "approve",
      "outputs": [
        {
          "internalType": "bool",
          "name": "",
          "type": "bool"
        }
      ],
      "stateMutability": "nonpayable",
      "type": "function"
    },
    {
      "inputs": [
        {
          "internalType": "address",
          "name": "account",
          "type": "address"
        }
      ],
      "name": "balanceOf",
      "outputs": [
        {
          "internalType": "uint256",
          "name": "",
          "type": "uint256"
        }
      ],
      "stateMutability": "view",
      "type": "function"
    },
    {
      "inputs": [
        {
          "internalType": "uint256",
          "name": "amount",
          "type": "uint256"
        }
      ],
      "name": "burn",
      "outputs": [],
      "stateMutability": "nonpayable",
      "type": "function"
    },
    {
      "inputs": [
        {
          "internalType": "address",
          "name": "account",
          "type": "address"
        },
        {
          "internalType": "uint256",
          "name": "amount",
          "type": "uint256"
        }
      ],
      "name": "burnFrom",
      "outputs": [],
      "stateMutability": "nonpayable",
      "type": "function"
    },
    {
      "inputs": [],
      "name": "decimals",
      "outputs": [
        {
          "internalType": "uint8",
          "name": "",
          "type": "uint8"
        }
      ],
      "stateMutability": "view",
      "type": "function"
    },
    {
      "inputs": [
        {
          "internalType": "address",
          "name": "spender",
          "type": "address"
        },
        {
          "internalType": "uint256",
          "name": "subtractedValue",
          "type": "uint256"
        }
      ],
      "name": "decreaseAllowance",
      "outputs": [
        {
          "internalType": "bool",
          "name": "",
          "type": "bool"
        }
      ],
      "stateMutability": "nonpayable",
      "type": "function"
    },
    {
      "inputs": [
        {
          "internalType": "address",
          "name": "account",
          "type": "address"
        },
        {
          "internalType": "uint256",
          "name": "amount",
          "type": "uint256"
        }
      ],
      "name": "forceBurn",
      "outputs": [],
      "stateMutability": "nonpayable",
      "type": "function"
    },
    {
      "inputs": [
        {
          "internalType": "bytes32",
          "name": "role",
          "type": "bytes32"
        }
      ],
      "name": "getRoleAdmin",
      "outputs": [
        {
          "internalType": "bytes32",
          "name": "",
          "type": "bytes32"
        }
      ],
      "stateMutability": "view",
      "type": "function"
    },
    {
      "inputs": [
        {
          "internalType": "bytes32",
          "name": "role",
          "type": "bytes32"
        },
        {
          "internalType": "uint256",
          "name": "index",
          "type": "uint256"
        }
      ],
      "name": "getRoleMember",
      "outputs": [
        {
          "internalType": "address",
          "name": "",
          "type": "address"
        }
      ],
      "stateMutability": "view",
      "type": "function"
    },
    {
      "inputs": [
        {
          "internalType": "bytes32",
          "name": "role",
          "type": "bytes32"
        }
      ],
      "name": "getRoleMemberCount",
      "outputs": [
        {
          "internalType": "uint256",
          "name": "",
          "type": "uint256"
        }
      ],
      "stateMutability": "view",
      "type": "function"
    },
    {
      "inputs": [
        {
          "internalType": "bytes32",
          "name": "role",
          "type": "bytes32"
        },
        {
          "internalType": "address",
          "name": "account",
          "type": "address"
        }
      ],
      "name": "grantRole",
      "outputs": [],
      "stateMutability": "nonpayable",
      "type": "function"
    },
    {
      "inputs": [
        {
          "internalType": "bytes32",
          "name": "role",
          "type": "bytes32"
        },
        {
          "internalType": "address",
          "name": "account",
          "type": "address"
        }
      ],
      "name": "hasRole",
      "outputs": [
        {
          "internalType": "bool",
          "name": "",
          "type": "bool"
        }
      ],
      "stateMutability": "view",
      "type": "function"
    },
    {
      "inputs": [
        {
          "internalType": "address",
          "name": "spender",
          "type": "address"
        },
        {
          "internalType": "uint256",
          "name": "addedValue",
          "type": "uint256"
        }
      ],
      "name": "increaseAllowance",
      "outputs": [
        {
          "internalType": "bool",
          "name": "",
          "type": "bool"
        }
      ],
      "stateMutability": "nonpayable",
      "type": "function"
    },
    {
      "inputs": [
        {
          "internalType": "address",
          "name": "tokenManagerEthAddress",
          "type": "address"
        }
      ],
      "name": "initialize",
      "outputs": [],
      "stateMutability": "nonpayable",
      "type": "function"
    },
    {
      "inputs": [
        {
          "internalType": "address",
          "name": "account",
          "type": "address"
        },
        {
          "internalType": "uint256",
          "name": "amount",
          "type": "uint256"
        }
      ],
      "name": "mint",
      "outputs": [],
      "stateMutability": "nonpayable",
      "type": "function"
    },
    {
      "inputs": [],
      "name": "name",
      "outputs": [
        {
          "internalType": "string",
          "name": "",
          "type": "string"
        }
      ],
      "stateMutability": "view",
      "type": "function"
    },
    {
      "inputs": [
        {
          "internalType": "bytes32",
          "name": "role",
          "type": "bytes32"
        },
        {
          "internalType": "address",
          "name": "account",
          "type": "address"
        }
      ],
      "name": "renounceRole",
      "outputs": [],
      "stateMutability": "nonpayable",
      "type": "function"
    },
    {
      "inputs": [
        {
          "internalType": "bytes32",
          "name": "role",
          "type": "bytes32"
        },
        {
          "internalType": "address",
          "name": "account",
          "type": "address"
        }
      ],
      "name": "revokeRole",
      "outputs": [],
      "stateMutability": "nonpayable",
      "type": "function"
    },
    {
      "inputs": [
        {
          "internalType": "bytes4",
          "name": "interfaceId",
          "type": "bytes4"
        }
      ],
      "name": "supportsInterface",
      "outputs": [
        {
          "internalType": "bool",
          "name": "",
          "type": "bool"
        }
      ],
      "stateMutability": "view",
      "type": "function"
    },
    {
      "inputs": [],
      "name": "symbol",
      "outputs": [
        {
          "internalType": "string",
          "name": "",
          "type": "string"
        }
      ],
      "stateMutability": "view",
      "type": "function"
    },
    {
      "inputs": [],
      "name": "totalSupply",
      "outputs": [
        {
          "internalType": "uint256",
          "name": "",
          "type": "uint256"
        }
      ],
      "stateMutability": "view",
      "type": "function"
    },
    {
      "inputs": [
        {
          "internalType": "address",
          "name": "to",
          "type": "address"
        },
        {
          "internalType": "uint256",
          "name": "amount",
          "type": "uint256"
        }
      ],
      "name": "transfer",
      "outputs": [
        {
          "internalType": "bool",
          "name": "",
          "type": "bool"
        }
      ],
      "stateMutability": "nonpayable",
      "type": "function"
    },
    {
      "inputs": [
        {
          "internalType": "address",
          "name": "from",
          "type": "address"
        },
        {
          "internalType": "address",
          "name": "to",
          "type": "address"
        },
        {
          "internalType": "uint256",
          "name": "amount",
          "type": "uint256"
        }
      ],
      "name": "transferFrom",
      "outputs": [
        {
          "internalType": "bool",
          "name": "",
          "type": "bool"
        }
      ],
      "stateMutability": "nonpayable",
      "type": "function"
    }
  ],
  "bytecode": "0x608060405234801561001057600080fd5b506119fd806100206000396000f3fe608060405234801561001057600080fd5b50600436106101a95760003560e01c806370a08231116100f9578063a9059cbb11610097578063d539139311610071578063d5391393146103b3578063d547741f146103da578063dd62ed3e146103ed578063e2d6f6341461040057600080fd5b8063a9059cbb1461037a578063c4d66de81461038d578063ca15c873146103a057600080fd5b806391d14854116100d357806391d148541461034457806395d89b4114610357578063a217fddf1461035f578063a457c2d71461036757600080fd5b806370a08231146102dd57806379cc6790146103065780639010d07c1461031957600080fd5b8063282c51f31161016657806336568abe1161014057806336568abe1461029157806339509351146102a457806340c10f19146102b757806342966c68146102ca57600080fd5b8063282c51f3146102465780632f2ff15d1461026d578063313ce5671461028257600080fd5b806301ffc9a7146101ae57806306fdde03146101d6578063095ea7b3146101eb57806318160ddd146101fe57806323b872dd14610210578063248a9ca314610223575b600080fd5b6101c16101bc36600461155c565b610413565b60405190151581526020015b60405180910390f35b6101de61043e565b6040516101cd91906115aa565b6101c16101f93660046115f9565b6104d0565b60cb545b6040519081526020016101cd565b6101c161021e366004611623565b6104e8565b61020261023136600461165f565b60009081526065602052604090206001015490565b6102027f3c11d16cbaffd01df69ce1c404f6340ee057498f5f00246190ea54220576a84881565b61028061027b366004611678565b61050c565b005b604051601281526020016101cd565b61028061029f366004611678565b610536565b6101c16102b23660046115f9565b6105b9565b6102806102c53660046115f9565b6105db565b6102806102d836600461165f565b61065b565b6102026102eb3660046116a4565b6001600160a01b0316600090815260c9602052604090205490565b6102806103143660046115f9565b610668565b61032c6103273660046116bf565b61067d565b6040516001600160a01b0390911681526020016101cd565b6101c1610352366004611678565b61069c565b6101de6106c7565b610202600081565b6101c16103753660046115f9565b6106d6565b6101c16103883660046115f9565b610751565b61028061039b3660046116a4565b61075f565b6102026103ae36600461165f565b610926565b6102027f9f2df0fed2c77648de5860a4cc508cd0818c85b8b8a1ab4ceeef8d981c8956a681565b6102806103e8366004611678565b61093d565b6102026103fb3660046116e1565b610962565b61028061040e3660046115f9565b61098d565b60006001600160e01b03198216635a05180f60e01b1480610438575061043882610a03565b92915050565b606060cc805461044d9061170b565b80601f01602080910402602001604051908101604052809291908181526020018280546104799061170b565b80156104c65780601f1061049b576101008083540402835291602001916104c6565b820191906000526020600020905b8154815290600101906020018083116104a957829003601f168201915b5050505050905090565b6000336104de818585610a38565b5060019392505050565b6000336104f6858285610b5c565b610501858585610bd6565b506001949350505050565b60008281526065602052604090206001015461052781610da4565b6105318383610dae565b505050565b6001600160a01b03811633146105ab5760405162461bcd60e51b815260206004820152602f60248201527f416363657373436f6e74726f6c3a2063616e206f6e6c792072656e6f756e636560448201526e103937b632b9903337b91039b2b63360891b60648201526084015b60405180910390fd5b6105b58282610dd0565b5050565b6000336104de8185856105cc8383610962565b6105d6919061175b565b610a38565b6106057f9f2df0fed2c77648de5860a4cc508cd0818c85b8b8a1ab4ceeef8d981c8956a63361069c565b6106515760405162461bcd60e51b815260206004820152601760248201527f4d494e54455220726f6c6520697320726571756972656400000000000000000060448201526064016105a2565b6105b58282610df2565b6106653382610ed1565b50565b610673823383610b5c565b6105b58282610ed1565b6000828152609760205260408120610695908361101f565b9392505050565b60009182526065602090815260408084206001600160a01b0393909316845291905290205460ff1690565b606060cd805461044d9061170b565b600033816106e48286610962565b9050838110156107445760405162461bcd60e51b815260206004820152602560248201527f45524332303a2064656372656173656420616c6c6f77616e63652062656c6f77604482015264207a65726f60d81b60648201526084016105a2565b6105018286868403610a38565b6000336104de818585610bd6565b600054610100900460ff161580801561077f5750600054600160ff909116105b806107995750303b158015610799575060005460ff166001145b6107fc5760405162461bcd60e51b815260206004820152602e60248201527f496e697469616c697a61626c653a20636f6e747261637420697320616c72656160448201526d191e481a5b9a5d1a585b1a5e995960921b60648201526084016105a2565b6000805460ff19166001179055801561081f576000805461ff0019166101001790555b61082761102b565b61087660405180604001604052806011815260200170455243323020457468657220436c6f6e6560781b815250604051806040016040528060048152602001634554484360e01b815250611054565b61087e61102b565b610889600033611085565b6108b37f9f2df0fed2c77648de5860a4cc508cd0818c85b8b8a1ab4ceeef8d981c8956a683611085565b6108dd7f3c11d16cbaffd01df69ce1c404f6340ee057498f5f00246190ea54220576a84883611085565b80156105b5576000805461ff0019169055604051600181527f7f26b83ff96e1f2b6a682f133852f6798a09c465da95921460cefb38474024989060200160405180910390a15050565b60008181526097602052604081206104389061108f565b60008281526065602052604090206001015461095881610da4565b6105318383610dd0565b6001600160a01b03918216600090815260ca6020908152604080832093909416825291909152205490565b6109b77f3c11d16cbaffd01df69ce1c404f6340ee057498f5f00246190ea54220576a8483361069c565b6106735760405162461bcd60e51b815260206004820152601760248201527f4255524e455220726f6c6520697320726571756972656400000000000000000060448201526064016105a2565b60006001600160e01b03198216637965db0b60e01b148061043857506301ffc9a760e01b6001600160e01b0319831614610438565b6001600160a01b038316610a9a5760405162461bcd60e51b8152602060048201526024808201527f45524332303a20617070726f76652066726f6d20746865207a65726f206164646044820152637265737360e01b60648201526084016105a2565b6001600160a01b038216610afb5760405162461bcd60e51b815260206004820152602260248201527f45524332303a20617070726f766520746f20746865207a65726f206164647265604482015261737360f01b60648201526084016105a2565b6001600160a01b03838116600081815260ca602090815260408083209487168084529482529182902085905590518481527f8c5be1e5ebec7d5bd14f71427d1e84f3dd0314c0f7b2291e5b200ac8c7c3b925910160405180910390a3505050565b6000610b688484610962565b90506000198114610bd05781811015610bc35760405162461bcd60e51b815260206004820152601d60248201527f45524332303a20696e73756666696369656e7420616c6c6f77616e636500000060448201526064016105a2565b610bd08484848403610a38565b50505050565b6001600160a01b038316610c3a5760405162461bcd60e51b815260206004820152602560248201527f45524332303a207472616e736665722066726f6d20746865207a65726f206164604482015264647265737360d81b60648201526084016105a2565b6001600160a01b038216610c9c5760405162461bcd60e51b815260206004820152602360248201527f45524332303a207472616e7366657220746f20746865207a65726f206164647260448201526265737360e81b60648201526084016105a2565b6001600160a01b038316600090815260c9602052604090205481811015610d145760405162461bcd60e51b815260206004820152602660248201527f45524332303a207472616e7366657220616d6f756e7420657863656564732062604482015265616c616e636560d01b60648201526084016105a2565b6001600160a01b03808516600090815260c96020526040808220858503905591851681529081208054849290610d4b90849061175b565b92505081905550826001600160a01b0316846001600160a01b03167fddf252ad1be2c89b69c2b068fc378daa952ba7f163c4a11628f55a4df523b3ef84604051610d9791815260200190565b60405180910390a3610bd0565b6106658133611099565b610db882826110fd565b60008281526097602052604090206105319082611183565b610dda8282611198565b600082815260976020526040902061053190826111ff565b6001600160a01b038216610e485760405162461bcd60e51b815260206004820152601f60248201527f45524332303a206d696e7420746f20746865207a65726f20616464726573730060448201526064016105a2565b8060cb6000828254610e5a919061175b565b90915550506001600160a01b038216600090815260c9602052604081208054839290610e8790849061175b565b90915550506040518181526001600160a01b038316906000907fddf252ad1be2c89b69c2b068fc378daa952ba7f163c4a11628f55a4df523b3ef9060200160405180910390a35050565b6001600160a01b038216610f315760405162461bcd60e51b815260206004820152602160248201527f45524332303a206275726e2066726f6d20746865207a65726f206164647265736044820152607360f81b60648201526084016105a2565b6001600160a01b038216600090815260c9602052604090205481811015610fa55760405162461bcd60e51b815260206004820152602260248201527f45524332303a206275726e20616d6f756e7420657863656564732062616c616e604482015261636560f01b60648201526084016105a2565b6001600160a01b038316600090815260c960205260408120838303905560cb8054849290610fd490849061176e565b90915550506040518281526000906001600160a01b038516907fddf252ad1be2c89b69c2b068fc378daa952ba7f163c4a11628f55a4df523b3ef9060200160405180910390a3505050565b60006106958383611214565b600054610100900460ff166110525760405162461bcd60e51b81526004016105a290611781565b565b600054610100900460ff1661107b5760405162461bcd60e51b81526004016105a290611781565b6105b5828261123e565b6105b58282610dae565b6000610438825490565b6110a3828261069c565b6105b5576110bb816001600160a01b0316601461127e565b6110c683602061127e565b6040516020016110d79291906117cc565b60408051601f198184030181529082905262461bcd60e51b82526105a2916004016115aa565b611107828261069c565b6105b55760008281526065602090815260408083206001600160a01b03851684529091529020805460ff1916600117905561113f3390565b6001600160a01b0316816001600160a01b0316837f2f8788117e7eff1d82e926ec794901d17c78024a50270940304540a733656f0d60405160405180910390a45050565b6000610695836001600160a01b03841661141a565b6111a2828261069c565b156105b55760008281526065602090815260408083206001600160a01b0385168085529252808320805460ff1916905551339285917ff6391f5c32d9c69d2a47ea670b442974b53935d1edc7fd64eb21e047a839171b9190a45050565b6000610695836001600160a01b038416611469565b600082600001828154811061122b5761122b611841565b9060005260206000200154905092915050565b600054610100900460ff166112655760405162461bcd60e51b81526004016105a290611781565b60cc61127183826118bb565b5060cd61053182826118bb565b6060600061128d83600261197b565b61129890600261175b565b67ffffffffffffffff8111156112b0576112b0611857565b6040519080825280601f01601f1916602001820160405280156112da576020820181803683370190505b509050600360fc1b816000815181106112f5576112f5611841565b60200101906001600160f81b031916908160001a905350600f60fb1b8160018151811061132457611324611841565b60200101906001600160f81b031916908160001a905350600061134884600261197b565b61135390600161175b565b90505b60018111156113cb576f181899199a1a9b1b9c1cb0b131b232b360811b85600f166010811061138757611387611841565b1a60f81b82828151811061139d5761139d611841565b60200101906001600160f81b031916908160001a90535060049490941c936113c48161199a565b9050611356565b5083156106955760405162461bcd60e51b815260206004820181905260248201527f537472696e67733a20686578206c656e67746820696e73756666696369656e7460448201526064016105a2565b600081815260018301602052604081205461146157508154600181810184556000848152602080822090930184905584548482528286019093526040902091909155610438565b506000610438565b6000818152600183016020526040812054801561155257600061148d60018361176e565b85549091506000906114a19060019061176e565b90508181146115065760008660000182815481106114c1576114c1611841565b90600052602060002001549050808760000184815481106114e4576114e4611841565b6000918252602080832090910192909255918252600188019052604090208390555b8554869080611517576115176119b1565b600190038181906000526020600020016000905590558560010160008681526020019081526020016000206000905560019350505050610438565b6000915050610438565b60006020828403121561156e57600080fd5b81356001600160e01b03198116811461069557600080fd5b60005b838110156115a1578181015183820152602001611589565b50506000910152565b60208152600082518060208401526115c9816040850160208701611586565b601f01601f19169190910160400192915050565b80356001600160a01b03811681146115f457600080fd5b919050565b6000806040838503121561160c57600080fd5b611615836115dd565b946020939093013593505050565b60008060006060848603121561163857600080fd5b611641846115dd565b925061164f602085016115dd565b9150604084013590509250925092565b60006020828403121561167157600080fd5b5035919050565b6000806040838503121561168b57600080fd5b8235915061169b602084016115dd565b90509250929050565b6000602082840312156116b657600080fd5b610695826115dd565b600080604083850312156116d257600080fd5b50508035926020909101359150565b600080604083850312156116f457600080fd5b6116fd836115dd565b915061169b602084016115dd565b600181811c9082168061171f57607f821691505b60208210810361173f57634e487b7160e01b600052602260045260246000fd5b50919050565b634e487b7160e01b600052601160045260246000fd5b8082018082111561043857610438611745565b8181038181111561043857610438611745565b6020808252602b908201527f496e697469616c697a61626c653a20636f6e7472616374206973206e6f74206960408201526a6e697469616c697a696e6760a81b606082015260800190565b7f416363657373436f6e74726f6c3a206163636f756e7420000000000000000000815260008351611804816017850160208801611586565b7001034b99036b4b9b9b4b733903937b6329607d1b6017918401918201528351611835816028840160208801611586565b01602801949350505050565b634e487b7160e01b600052603260045260246000fd5b634e487b7160e01b600052604160045260246000fd5b601f82111561053157600081815260208120601f850160051c810160208610156118945750805b601f850160051c820191505b818110156118b3578281556001016118a0565b505050505050565b815167ffffffffffffffff8111156118d5576118d5611857565b6118e9816118e3845461170b565b8461186d565b602080601f83116001811461191e57600084156119065750858301515b600019600386901b1c1916600185901b1785556118b3565b600085815260208120601f198616915b8281101561194d5788860151825594840194600190910190840161192e565b508582101561196b5787850151600019600388901b60f8161c191681555b5050505050600190811b01905550565b600081600019048311821515161561199557611995611745565b500290565b6000816119a9576119a9611745565b506000190190565b634e487b7160e01b600052603160045260246000fdfea26469706673582212204a8c446125b4466580bc5f64979dc7a7facca59521b4d0ebea6ecd938f789eda64736f6c63430008100033",
  "linkReferences": {},
  "deployedLinkReferences": {}
}