{
  "_format": "hh-sol-artifact-1",
  "contractName": "KeyStorage",
  "sourceName": "contracts/schain/KeyStorage.sol",
  "abi": [
    {
      "anonymous": false,
      "inputs": [
        {
          "indexed": false,
          "internalType": "uint8",
          "name": "version",
          "type": "uint8"
        }
      ],
      "name": "Initialized",
      "type": "event"
    },
    {
      "anonymous": false,
      "inputs": [
        {
          "indexed": true,
          "internalType": "bytes32",
          "name": "role",
          "type": "bytes32"
        },
        {
          "indexed": true,
          "internalType": "bytes32",
          "name": "previousAdminRole",
          "type": "bytes32"
        },
        {
          "indexed": true,
          "internalType": "bytes32",
          "name": "newAdminRole",
          "type": "bytes32"
        }
      ],
      "name": "RoleAdminChanged",
      "type": "event"
    },
    {
      "anonymous": false,
      "inputs": [
        {
          "indexed": true,
          "internalType": "bytes32",
          "name": "role",
          "type": "bytes32"
        },
        {
          "indexed": true,
          "internalType": "address",
          "name": "account",
          "type": "address"
        },
        {
          "indexed": true,
          "internalType": "address",
          "name": "sender",
          "type": "address"
        }
      ],
      "name": "RoleGranted",
      "type": "event"
    },
    {
      "anonymous": false,
      "inputs": [
        {
          "indexed": true,
          "internalType": "bytes32",
          "name": "role",
          "type": "bytes32"
        },
        {
          "indexed": true,
          "internalType": "address",
          "name": "account",
          "type": "address"
        },
        {
          "indexed": true,
          "internalType": "address",
          "name": "sender",
          "type": "address"
        }
      ],
      "name": "RoleRevoked",
      "type": "event"
    },
    {
      "inputs": [],
      "name": "DEFAULT_ADMIN_ROLE",
      "outputs": [
        {
          "internalType": "bytes32",
          "name": "",
          "type": "bytes32"
        }
      ],
      "stateMutability": "view",
      "type": "function"
    },
    {
      "inputs": [],
      "name": "FN_NUM_GET_CONFIG_VARIABLE_UINT256",
      "outputs": [
        {
          "internalType": "uint256",
          "name": "",
          "type": "uint256"
        }
      ],
      "stateMutability": "view",
      "type": "function"
    },
    {
      "inputs": [],
      "name": "FN_NUM_GET_CURRENT_BLS_PUBLIC_KEY",
      "outputs": [
        {
          "internalType": "uint256",
          "name": "",
          "type": "uint256"
        }
      ],
      "stateMutability": "view",
      "type": "function"
    },
    {
      "inputs": [],
      "name": "FREE_MEM_PTR",
      "outputs": [
        {
          "internalType": "uint256",
          "name": "",
          "type": "uint256"
        }
      ],
      "stateMutability": "view",
      "type": "function"
    },
    {
      "inputs": [],
      "name": "getBlsCommonPublicKey",
      "outputs": [
        {
          "components": [
            {
              "components": [
                {
                  "internalType": "uint256",
                  "name": "a",
                  "type": "uint256"
                },
                {
                  "internalType": "uint256",
                  "name": "b",
                  "type": "uint256"
                }
              ],
              "internalType": "struct IFieldOperations.Fp2Point",
              "name": "x",
              "type": "tuple"
            },
            {
              "components": [
                {
                  "internalType": "uint256",
                  "name": "a",
                  "type": "uint256"
                },
                {
                  "internalType": "uint256",
                  "name": "b",
                  "type": "uint256"
                }
              ],
              "internalType": "struct IFieldOperations.Fp2Point",
              "name": "y",
              "type": "tuple"
            }
          ],
          "internalType": "struct IFieldOperations.G2Point",
          "name": "",
          "type": "tuple"
        }
      ],
      "stateMutability": "view",
      "type": "function"
    },
    {
      "inputs": [
        {
          "internalType": "bytes32",
          "name": "role",
          "type": "bytes32"
        }
      ],
      "name": "getRoleAdmin",
      "outputs": [
        {
          "internalType": "bytes32",
          "name": "",
          "type": "bytes32"
        }
      ],
      "stateMutability": "view",
      "type": "function"
    },
    {
      "inputs": [
        {
          "internalType": "bytes32",
          "name": "role",
          "type": "bytes32"
        },
        {
          "internalType": "uint256",
          "name": "index",
          "type": "uint256"
        }
      ],
      "name": "getRoleMember",
      "outputs": [
        {
          "internalType": "address",
          "name": "",
          "type": "address"
        }
      ],
      "stateMutability": "view",
      "type": "function"
    },
    {
      "inputs": [
        {
          "internalType": "bytes32",
          "name": "role",
          "type": "bytes32"
        }
      ],
      "name": "getRoleMemberCount",
      "outputs": [
        {
          "internalType": "uint256",
          "name": "",
          "type": "uint256"
        }
      ],
      "stateMutability": "view",
      "type": "function"
    },
    {
      "inputs": [
        {
          "internalType": "bytes32",
          "name": "role",
          "type": "bytes32"
        },
        {
          "internalType": "address",
          "name": "account",
          "type": "address"
        }
      ],
      "name": "grantRole",
      "outputs": [],
      "stateMutability": "nonpayable",
      "type": "function"
    },
    {
      "inputs": [
        {
          "internalType": "bytes32",
          "name": "role",
          "type": "bytes32"
        },
        {
          "internalType": "address",
          "name": "account",
          "type": "address"
        }
      ],
      "name": "hasRole",
      "outputs": [
        {
          "internalType": "bool",
          "name": "",
          "type": "bool"
        }
      ],
      "stateMutability": "view",
      "type": "function"
    },
    {
      "inputs": [],
      "name": "initialize",
      "outputs": [],
      "stateMutability": "nonpayable",
      "type": "function"
    },
    {
      "inputs": [
        {
          "internalType": "bytes32",
          "name": "role",
          "type": "bytes32"
        },
        {
          "internalType": "address",
          "name": "account",
          "type": "address"
        }
      ],
      "name": "renounceRole",
      "outputs": [],
      "stateMutability": "nonpayable",
      "type": "function"
    },
    {
      "inputs": [
        {
          "internalType": "bytes32",
          "name": "role",
          "type": "bytes32"
        },
        {
          "internalType": "address",
          "name": "account",
          "type": "address"
        }
      ],
      "name": "revokeRole",
      "outputs": [],
      "stateMutability": "nonpayable",
      "type": "function"
    },
    {
      "inputs": [
        {
          "internalType": "bytes4",
          "name": "interfaceId",
          "type": "bytes4"
        }
      ],
      "name": "supportsInterface",
      "outputs": [
        {
          "internalType": "bool",
          "name": "",
          "type": "bool"
        }
      ],
      "stateMutability": "view",
      "type": "function"
    }
  ],
  "bytecode": "0x608060405234801561001057600080fd5b50610dc4806100206000396000f3fe608060405234801561001057600080fd5b50600436106100ea5760003560e01c80639010d07c1161008c578063ab2a585311610066578063ab2a5853146101db578063ca15c873146101e3578063d547741f146101f6578063ecfc7efe1461020957600080fd5b80639010d07c1461019557806391d14854146101c0578063a217fddf146101d357600080fd5b806336568abe116100c857806336568abe1461015d578063554ef7a614610170578063573c8aba146101855780638129fc1c1461018d57600080fd5b806301ffc9a7146100ef578063248a9ca3146101175780632f2ff15d14610148575b600080fd5b6101026100fd366004610b3e565b610211565b60405190151581526020015b60405180910390f35b61013a610125366004610b68565b60009081526065602052604090206001015490565b60405190815260200161010e565b61015b610156366004610b81565b61023c565b005b61015b61016b366004610b81565b610266565b6101786102e9565b60405161010e9190610bbd565b61013a604081565b61015b6102fe565b6101a86101a3366004610bec565b61041a565b6040516001600160a01b03909116815260200161010e565b6101026101ce366004610b81565b610439565b61013a600081565b61013a601381565b61013a6101f1366004610b68565b610464565b61015b610204366004610b81565b61047b565b61013a601981565b60006001600160e01b03198216635a05180f60e01b14806102365750610236826104a0565b92915050565b600082815260656020526040902060010154610257816104d5565b61026183836104df565b505050565b6001600160a01b03811633146102db5760405162461bcd60e51b815260206004820152602f60248201527f416363657373436f6e74726f6c3a2063616e206f6e6c792072656e6f756e636560448201526e103937b632b9903337b91039b2b63360891b60648201526084015b60405180910390fd5b6102e58282610501565b5050565b6102f1610afa565b6102f9610523565b905090565b600054610100900460ff161580801561031e5750600054600160ff909116105b806103385750303b158015610338575060005460ff166001145b61039b5760405162461bcd60e51b815260206004820152602e60248201527f496e697469616c697a61626c653a20636f6e747261637420697320616c72656160448201526d191e481a5b9a5d1a585b1a5e995960921b60648201526084016102d2565b6000805460ff1916600117905580156103be576000805461ff0019166101001790555b6103c66105e3565b6103d1600033610650565b8015610417576000805461ff0019169055604051600181527f7f26b83ff96e1f2b6a682f133852f6798a09c465da95921460cefb38474024989060200160405180910390a15b50565b6000828152609760205260408120610432908361065a565b9392505050565b60009182526065602090815260408084206001600160a01b0393909316845291905290205460ff1690565b600081815260976020526040812061023690610666565b600082815260656020526040902060010154610496816104d5565b6102618383610501565b60006001600160e01b03198216637965db0b60e01b148061023657506301ffc9a760e01b6001600160e01b0319831614610236565b6104178133610670565b6104e982826106d4565b6000828152609760205260409020610261908261075a565b61050b828261076f565b600082815260976020526040902061026190826107d6565b61052b610afa565b600060409050600080600080600085516080816000836019600019fa815160208084015160408501516060909501518c518490528c5183018290528c83018051879052519092018290529298509096509094509092509050846105da5760405162461bcd60e51b815260206004820152602160248201527f4765742063757272656e7420424c53207075626c6963206b6579206661696c656044820152601960fa1b60648201526084016102d2565b50505050505090565b600054610100900460ff1661064e5760405162461bcd60e51b815260206004820152602b60248201527f496e697469616c697a61626c653a20636f6e7472616374206973206e6f74206960448201526a6e697469616c697a696e6760a81b60648201526084016102d2565b565b6102e582826104df565b600061043283836107eb565b6000610236825490565b61067a8282610439565b6102e557610692816001600160a01b03166014610815565b61069d836020610815565b6040516020016106ae929190610c32565b60408051601f198184030181529082905262461bcd60e51b82526102d291600401610ca7565b6106de8282610439565b6102e55760008281526065602090815260408083206001600160a01b03851684529091529020805460ff191660011790556107163390565b6001600160a01b0316816001600160a01b0316837f2f8788117e7eff1d82e926ec794901d17c78024a50270940304540a733656f0d60405160405180910390a45050565b6000610432836001600160a01b0384166109b1565b6107798282610439565b156102e55760008281526065602090815260408083206001600160a01b0385168085529252808320805460ff1916905551339285917ff6391f5c32d9c69d2a47ea670b442974b53935d1edc7fd64eb21e047a839171b9190a45050565b6000610432836001600160a01b038416610a00565b600082600001828154811061080257610802610cda565b9060005260206000200154905092915050565b60606000610824836002610d06565b61082f906002610d25565b67ffffffffffffffff81111561084757610847610d38565b6040519080825280601f01601f191660200182016040528015610871576020820181803683370190505b509050600360fc1b8160008151811061088c5761088c610cda565b60200101906001600160f81b031916908160001a905350600f60fb1b816001815181106108bb576108bb610cda565b60200101906001600160f81b031916908160001a90535060006108df846002610d06565b6108ea906001610d25565b90505b6001811115610962576f181899199a1a9b1b9c1cb0b131b232b360811b85600f166010811061091e5761091e610cda565b1a60f81b82828151811061093457610934610cda565b60200101906001600160f81b031916908160001a90535060049490941c9361095b81610d4e565b90506108ed565b5083156104325760405162461bcd60e51b815260206004820181905260248201527f537472696e67733a20686578206c656e67746820696e73756666696369656e7460448201526064016102d2565b60008181526001830160205260408120546109f857508154600181810184556000848152602080822090930184905584548482528286019093526040902091909155610236565b506000610236565b60008181526001830160205260408120548015610ae9576000610a24600183610d65565b8554909150600090610a3890600190610d65565b9050818114610a9d576000866000018281548110610a5857610a58610cda565b9060005260206000200154905080876000018481548110610a7b57610a7b610cda565b6000918252602080832090910192909255918252600188019052604090208390555b8554869080610aae57610aae610d78565b600190038181906000526020600020016000905590558560010160008681526020019081526020016000206000905560019350505050610236565b6000915050610236565b5092915050565b60408051608081018252600091810182815260608201929092529081908152602001610b39604051806040016040528060008152602001600081525090565b905290565b600060208284031215610b5057600080fd5b81356001600160e01b03198116811461043257600080fd5b600060208284031215610b7a57600080fd5b5035919050565b60008060408385031215610b9457600080fd5b8235915060208301356001600160a01b0381168114610bb257600080fd5b809150509250929050565b815180518252602090810151908201526080810160208381015180516040850152908101516060840152610af3565b60008060408385031215610bff57600080fd5b50508035926020909101359150565b60005b83811015610c29578181015183820152602001610c11565b50506000910152565b7f416363657373436f6e74726f6c3a206163636f756e7420000000000000000000815260008351610c6a816017850160208801610c0e565b7001034b99036b4b9b9b4b733903937b6329607d1b6017918401918201528351610c9b816028840160208801610c0e565b01602801949350505050565b6020815260008251806020840152610cc6816040850160208701610c0e565b601f01601f19169190910160400192915050565b634e487b7160e01b600052603260045260246000fd5b634e487b7160e01b600052601160045260246000fd5b6000816000190483118215151615610d2057610d20610cf0565b500290565b8082018082111561023657610236610cf0565b634e487b7160e01b600052604160045260246000fd5b600081610d5d57610d5d610cf0565b506000190190565b8181038181111561023657610236610cf0565b634e487b7160e01b600052603160045260246000fdfea26469706673582212209eb591a65bac8d1c788efa82781806a242f292ebf8c3827b20d69ee3868daec864736f6c63430008100033",
  "linkReferences": {},
  "deployedLinkReferences": {}
}