{
  "_format": "hh-sol-artifact-1",
  "contractName": "MessageProxyForSchain",
  "sourceName": "contracts/schain/MessageProxyForSchain.sol",
  "abi": [
    {
      "anonymous": false,
      "inputs": [
        {
          "indexed": true,
          "internalType": "bytes32",
          "name": "chainHash",
          "type": "bytes32"
        },
        {
          "indexed": false,
          "internalType": "address",
          "name": "contractAddress",
          "type": "address"
        }
      ],
      "name": "ExtraContractRegistered",
      "type": "event"
    },
    {
      "anonymous": false,
      "inputs": [
        {
          "indexed": true,
          "internalType": "bytes32",
          "name": "chainHash",
          "type": "bytes32"
        },
        {
          "indexed": false,
          "internalType": "address",
          "name": "contractAddress",
          "type": "address"
        }
      ],
      "name": "ExtraContractRemoved",
      "type": "event"
    },
    {
      "anonymous": false,
      "inputs": [
        {
          "indexed": false,
          "internalType": "uint256",
          "name": "oldValue",
          "type": "uint256"
        },
        {
          "indexed": false,
          "internalType": "uint256",
          "name": "newValue",
          "type": "uint256"
        }
      ],
      "name": "GasLimitWasChanged",
      "type": "event"
    },
    {
      "anonymous": false,
      "inputs": [
        {
          "indexed": false,
          "internalType": "uint8",
          "name": "version",
          "type": "uint8"
        }
      ],
      "name": "Initialized",
      "type": "event"
    },
    {
      "anonymous": false,
      "inputs": [
        {
          "indexed": true,
          "internalType": "bytes32",
          "name": "dstChainHash",
          "type": "bytes32"
        },
        {
          "indexed": true,
          "internalType": "uint256",
          "name": "msgCounter",
          "type": "uint256"
        },
        {
          "indexed": true,
          "internalType": "address",
          "name": "srcContract",
          "type": "address"
        },
        {
          "indexed": false,
          "internalType": "address",
          "name": "dstContract",
          "type": "address"
        },
        {
          "indexed": false,
          "internalType": "bytes",
          "name": "data",
          "type": "bytes"
        }
      ],
      "name": "OutgoingMessage",
      "type": "event"
    },
    {
      "anonymous": false,
      "inputs": [
        {
          "indexed": true,
          "internalType": "uint256",
          "name": "msgCounter",
          "type": "uint256"
        },
        {
          "indexed": false,
          "internalType": "bytes",
          "name": "message",
          "type": "bytes"
        }
      ],
      "name": "PostMessageError",
      "type": "event"
    },
    {
      "anonymous": false,
      "inputs": [
        {
          "indexed": false,
          "internalType": "uint256",
          "name": "currentMessage",
          "type": "uint256"
        },
        {
          "indexed": false,
          "internalType": "uint256",
          "name": "previousOutgoingMessageBlockId",
          "type": "uint256"
        }
      ],
      "name": "PreviousMessageReference",
      "type": "event"
    },
    {
      "anonymous": false,
      "inputs": [
        {
          "indexed": true,
          "internalType": "bytes32",
          "name": "role",
          "type": "bytes32"
        },
        {
          "indexed": true,
          "internalType": "bytes32",
          "name": "previousAdminRole",
          "type": "bytes32"
        },
        {
          "indexed": true,
          "internalType": "bytes32",
          "name": "newAdminRole",
          "type": "bytes32"
        }
      ],
      "name": "RoleAdminChanged",
      "type": "event"
    },
    {
      "anonymous": false,
      "inputs": [
        {
          "indexed": true,
          "internalType": "bytes32",
          "name": "role",
          "type": "bytes32"
        },
        {
          "indexed": true,
          "internalType": "address",
          "name": "account",
          "type": "address"
        },
        {
          "indexed": true,
          "internalType": "address",
          "name": "sender",
          "type": "address"
        }
      ],
      "name": "RoleGranted",
      "type": "event"
    },
    {
      "anonymous": false,
      "inputs": [
        {
          "indexed": true,
          "internalType": "bytes32",
          "name": "role",
          "type": "bytes32"
        },
        {
          "indexed": true,
          "internalType": "address",
          "name": "account",
          "type": "address"
        },
        {
          "indexed": true,
          "internalType": "address",
          "name": "sender",
          "type": "address"
        }
      ],
      "name": "RoleRevoked",
      "type": "event"
    },
    {
      "anonymous": false,
      "inputs": [
        {
          "indexed": false,
          "internalType": "string",
          "name": "oldVersion",
          "type": "string"
        },
        {
          "indexed": false,
          "internalType": "string",
          "name": "newVersion",
          "type": "string"
        }
      ],
      "name": "VersionUpdated",
      "type": "event"
    },
    {
      "inputs": [],
      "name": "CHAIN_CONNECTOR_ROLE",
      "outputs": [
        {
          "internalType": "bytes32",
          "name": "",
          "type": "bytes32"
        }
      ],
      "stateMutability": "view",
      "type": "function"
    },
    {
      "inputs": [],
      "name": "CONSTANT_SETTER_ROLE",
      "outputs": [
        {
          "internalType": "bytes32",
          "name": "",
          "type": "bytes32"
        }
      ],
      "stateMutability": "view",
      "type": "function"
    },
    {
      "inputs": [],
      "name": "DEFAULT_ADMIN_ROLE",
      "outputs": [
        {
          "internalType": "bytes32",
          "name": "",
          "type": "bytes32"
        }
      ],
      "stateMutability": "view",
      "type": "function"
    },
    {
      "inputs": [],
      "name": "ETHERBASE",
      "outputs": [
        {
          "internalType": "contract IEtherbaseUpgradeable",
          "name": "",
          "type": "address"
        }
      ],
      "stateMutability": "view",
      "type": "function"
    },
    {
      "inputs": [],
      "name": "EXTRA_CONTRACT_REGISTRAR_ROLE",
      "outputs": [
        {
          "internalType": "bytes32",
          "name": "",
          "type": "bytes32"
        }
      ],
      "stateMutability": "view",
      "type": "function"
    },
    {
      "inputs": [],
      "name": "MAINNET_HASH",
      "outputs": [
        {
          "internalType": "bytes32",
          "name": "",
          "type": "bytes32"
        }
      ],
      "stateMutability": "view",
      "type": "function"
    },
    {
      "inputs": [],
      "name": "MESSAGES_LENGTH",
      "outputs": [
        {
          "internalType": "uint256",
          "name": "",
          "type": "uint256"
        }
      ],
      "stateMutability": "view",
      "type": "function"
    },
    {
      "inputs": [],
      "name": "MINIMUM_BALANCE",
      "outputs": [
        {
          "internalType": "uint256",
          "name": "",
          "type": "uint256"
        }
      ],
      "stateMutability": "view",
      "type": "function"
    },
    {
      "inputs": [],
      "name": "REVERT_REASON_LENGTH",
      "outputs": [
        {
          "internalType": "uint256",
          "name": "",
          "type": "uint256"
        }
      ],
      "stateMutability": "view",
      "type": "function"
    },
    {
      "inputs": [
        {
          "internalType": "string",
          "name": "chainName",
          "type": "string"
        }
      ],
      "name": "addConnectedChain",
      "outputs": [],
      "stateMutability": "nonpayable",
      "type": "function"
    },
    {
      "inputs": [
        {
          "internalType": "bytes32",
          "name": "",
          "type": "bytes32"
        }
      ],
      "name": "connectedChains",
      "outputs": [
        {
          "internalType": "uint256",
          "name": "incomingMessageCounter",
          "type": "uint256"
        },
        {
          "internalType": "uint256",
          "name": "outgoingMessageCounter",
          "type": "uint256"
        },
        {
          "internalType": "bool",
          "name": "inited",
          "type": "bool"
        },
        {
          "internalType": "uint256",
          "name": "lastOutgoingMessageBlockId",
          "type": "uint256"
        }
      ],
      "stateMutability": "view",
      "type": "function"
    },
    {
      "inputs": [],
      "name": "gasLimit",
      "outputs": [
        {
          "internalType": "uint256",
          "name": "",
          "type": "uint256"
        }
      ],
      "stateMutability": "view",
      "type": "function"
    },
    {
      "inputs": [
        {
          "internalType": "bytes32",
          "name": "schainHash",
          "type": "bytes32"
        }
      ],
      "name": "getContractRegisteredLength",
      "outputs": [
        {
          "internalType": "uint256",
          "name": "",
          "type": "uint256"
        }
      ],
      "stateMutability": "view",
      "type": "function"
    },
    {
      "inputs": [
        {
          "internalType": "bytes32",
          "name": "schainHash",
          "type": "bytes32"
        },
        {
          "internalType": "uint256",
          "name": "from",
          "type": "uint256"
        },
        {
          "internalType": "uint256",
          "name": "to",
          "type": "uint256"
        }
      ],
      "name": "getContractRegisteredRange",
      "outputs": [
        {
          "internalType": "address[]",
          "name": "contractsInRange",
          "type": "address[]"
        }
      ],
      "stateMutability": "view",
      "type": "function"
    },
    {
      "inputs": [
        {
          "internalType": "string",
          "name": "fromSchainName",
          "type": "string"
        }
      ],
      "name": "getIncomingMessagesCounter",
      "outputs": [
        {
          "internalType": "uint256",
          "name": "",
          "type": "uint256"
        }
      ],
      "stateMutability": "view",
      "type": "function"
    },
    {
      "inputs": [
        {
          "internalType": "string",
          "name": "targetSchainName",
          "type": "string"
        }
      ],
      "name": "getLastOutgoingMessageBlockId",
      "outputs": [
        {
          "internalType": "uint256",
          "name": "",
          "type": "uint256"
        }
      ],
      "stateMutability": "view",
      "type": "function"
    },
    {
      "inputs": [
        {
          "internalType": "string",
          "name": "targetSchainName",
          "type": "string"
        }
      ],
      "name": "getOutgoingMessagesCounter",
      "outputs": [
        {
          "internalType": "uint256",
          "name": "",
          "type": "uint256"
        }
      ],
      "stateMutability": "view",
      "type": "function"
    },
    {
      "inputs": [
        {
          "internalType": "bytes32",
          "name": "role",
          "type": "bytes32"
        }
      ],
      "name": "getRoleAdmin",
      "outputs": [
        {
          "internalType": "bytes32",
          "name": "",
          "type": "bytes32"
        }
      ],
      "stateMutability": "view",
      "type": "function"
    },
    {
      "inputs": [
        {
          "internalType": "bytes32",
          "name": "role",
          "type": "bytes32"
        },
        {
          "internalType": "uint256",
          "name": "index",
          "type": "uint256"
        }
      ],
      "name": "getRoleMember",
      "outputs": [
        {
          "internalType": "address",
          "name": "",
          "type": "address"
        }
      ],
      "stateMutability": "view",
      "type": "function"
    },
    {
      "inputs": [
        {
          "internalType": "bytes32",
          "name": "role",
          "type": "bytes32"
        }
      ],
      "name": "getRoleMemberCount",
      "outputs": [
        {
          "internalType": "uint256",
          "name": "",
          "type": "uint256"
        }
      ],
      "stateMutability": "view",
      "type": "function"
    },
    {
      "inputs": [
        {
          "internalType": "bytes32",
          "name": "role",
          "type": "bytes32"
        },
        {
          "internalType": "address",
          "name": "account",
          "type": "address"
        }
      ],
      "name": "grantRole",
      "outputs": [],
      "stateMutability": "nonpayable",
      "type": "function"
    },
    {
      "inputs": [
        {
          "internalType": "bytes32",
          "name": "role",
          "type": "bytes32"
        },
        {
          "internalType": "address",
          "name": "account",
          "type": "address"
        }
      ],
      "name": "hasRole",
      "outputs": [
        {
          "internalType": "bool",
          "name": "",
          "type": "bool"
        }
      ],
      "stateMutability": "view",
      "type": "function"
    },
    {
      "inputs": [
        {
          "internalType": "contract IKeyStorage",
          "name": "blsKeyStorage",
          "type": "address"
        },
        {
          "internalType": "string",
          "name": "schainName",
          "type": "string"
        }
      ],
      "name": "initialize",
      "outputs": [],
      "stateMutability": "nonpayable",
      "type": "function"
    },
    {
      "inputs": [
        {
          "internalType": "uint256",
          "name": "newGasLimit",
          "type": "uint256"
        }
      ],
      "name": "initializeMessageProxy",
      "outputs": [],
      "stateMutability": "nonpayable",
      "type": "function"
    },
    {
      "inputs": [
        {
          "internalType": "string",
          "name": "schainName",
          "type": "string"
        }
      ],
      "name": "isConnectedChain",
      "outputs": [
        {
          "internalType": "bool",
          "name": "",
          "type": "bool"
        }
      ],
      "stateMutability": "view",
      "type": "function"
    },
    {
      "inputs": [
        {
          "internalType": "bytes32",
          "name": "schainHash",
          "type": "bytes32"
        },
        {
          "internalType": "address",
          "name": "contractAddress",
          "type": "address"
        }
      ],
      "name": "isContractRegistered",
      "outputs": [
        {
          "internalType": "bool",
          "name": "",
          "type": "bool"
        }
      ],
      "stateMutability": "view",
      "type": "function"
    },
    {
      "inputs": [],
      "name": "keyStorage",
      "outputs": [
        {
          "internalType": "contract IKeyStorage",
          "name": "",
          "type": "address"
        }
      ],
      "stateMutability": "view",
      "type": "function"
    },
    {
      "inputs": [],
      "name": "messageInProgress",
      "outputs": [
        {
          "internalType": "bool",
          "name": "",
          "type": "bool"
        }
      ],
      "stateMutability": "view",
      "type": "function"
    },
    {
      "inputs": [
        {
          "internalType": "string",
          "name": "fromChainName",
          "type": "string"
        },
        {
          "internalType": "uint256",
          "name": "startingCounter",
          "type": "uint256"
        },
        {
          "components": [
            {
              "internalType": "address",
              "name": "sender",
              "type": "address"
            },
            {
              "internalType": "address",
              "name": "destinationContract",
              "type": "address"
            },
            {
              "internalType": "bytes",
              "name": "data",
              "type": "bytes"
            }
          ],
          "internalType": "struct IMessageProxy.Message[]",
          "name": "messages",
          "type": "tuple[]"
        },
        {
          "components": [
            {
              "internalType": "uint256[2]",
              "name": "blsSignature",
              "type": "uint256[2]"
            },
            {
              "internalType": "uint256",
              "name": "hashA",
              "type": "uint256"
            },
            {
              "internalType": "uint256",
              "name": "hashB",
              "type": "uint256"
            },
            {
              "internalType": "uint256",
              "name": "counter",
              "type": "uint256"
            }
          ],
          "internalType": "struct IMessageProxy.Signature",
          "name": "signature",
          "type": "tuple"
        }
      ],
      "name": "postIncomingMessages",
      "outputs": [],
      "stateMutability": "nonpayable",
      "type": "function"
    },
    {
      "inputs": [
        {
          "internalType": "bytes32",
          "name": "targetChainHash",
          "type": "bytes32"
        },
        {
          "internalType": "address",
          "name": "targetContract",
          "type": "address"
        },
        {
          "internalType": "bytes",
          "name": "data",
          "type": "bytes"
        }
      ],
      "name": "postOutgoingMessage",
      "outputs": [],
      "stateMutability": "nonpayable",
      "type": "function"
    },
    {
      "inputs": [
        {
          "internalType": "string",
          "name": "chainName",
          "type": "string"
        },
        {
          "internalType": "address",
          "name": "extraContract",
          "type": "address"
        }
      ],
      "name": "registerExtraContract",
      "outputs": [],
      "stateMutability": "nonpayable",
      "type": "function"
    },
    {
      "inputs": [
        {
          "internalType": "address",
          "name": "extraContract",
          "type": "address"
        }
      ],
      "name": "registerExtraContractForAll",
      "outputs": [],
      "stateMutability": "nonpayable",
      "type": "function"
    },
    {
      "inputs": [
        {
          "internalType": "string",
          "name": "chainName",
          "type": "string"
        }
      ],
      "name": "removeConnectedChain",
      "outputs": [],
      "stateMutability": "nonpayable",
      "type": "function"
    },
    {
      "inputs": [
        {
          "internalType": "string",
          "name": "chainName",
          "type": "string"
        },
        {
          "internalType": "address",
          "name": "extraContract",
          "type": "address"
        }
      ],
      "name": "removeExtraContract",
      "outputs": [],
      "stateMutability": "nonpayable",
      "type": "function"
    },
    {
      "inputs": [
        {
          "internalType": "address",
          "name": "extraContract",
          "type": "address"
        }
      ],
      "name": "removeExtraContractForAll",
      "outputs": [],
      "stateMutability": "nonpayable",
      "type": "function"
    },
    {
      "inputs": [
        {
          "internalType": "bytes32",
          "name": "role",
          "type": "bytes32"
        },
        {
          "internalType": "address",
          "name": "account",
          "type": "address"
        }
      ],
      "name": "renounceRole",
      "outputs": [],
      "stateMutability": "nonpayable",
      "type": "function"
    },
    {
      "inputs": [
        {
          "internalType": "bytes32",
          "name": "role",
          "type": "bytes32"
        },
        {
          "internalType": "address",
          "name": "account",
          "type": "address"
        }
      ],
      "name": "revokeRole",
      "outputs": [],
      "stateMutability": "nonpayable",
      "type": "function"
    },
    {
      "inputs": [],
      "name": "schainHash",
      "outputs": [
        {
          "internalType": "bytes32",
          "name": "",
          "type": "bytes32"
        }
      ],
      "stateMutability": "view",
      "type": "function"
    },
    {
      "inputs": [
        {
          "internalType": "uint256",
          "name": "newGasLimit",
          "type": "uint256"
        }
      ],
      "name": "setNewGasLimit",
      "outputs": [],
      "stateMutability": "nonpayable",
      "type": "function"
    },
    {
      "inputs": [
        {
          "internalType": "string",
          "name": "newVersion",
          "type": "string"
        }
      ],
      "name": "setVersion",
      "outputs": [],
      "stateMutability": "nonpayable",
      "type": "function"
    },
    {
      "inputs": [
        {
          "internalType": "bytes4",
          "name": "interfaceId",
          "type": "bytes4"
        }
      ],
      "name": "supportsInterface",
      "outputs": [
        {
          "internalType": "bool",
          "name": "",
          "type": "bool"
        }
      ],
      "stateMutability": "view",
      "type": "function"
    },
    {
      "inputs": [
        {
          "components": [
            {
              "internalType": "bytes32",
              "name": "dstChainHash",
              "type": "bytes32"
            },
            {
              "internalType": "uint256",
              "name": "msgCounter",
              "type": "uint256"
            },
            {
              "internalType": "address",
              "name": "srcContract",
              "type": "address"
            },
            {
              "internalType": "address",
              "name": "dstContract",
              "type": "address"
            },
            {
              "internalType": "bytes",
              "name": "data",
              "type": "bytes"
            }
          ],
          "internalType": "struct IMessageProxyForSchain.OutgoingMessageData",
          "name": "message",
          "type": "tuple"
        }
      ],
      "name": "verifyOutgoingMessageData",
      "outputs": [
        {
          "internalType": "bool",
          "name": "isValidMessage",
          "type": "bool"
        }
      ],
      "stateMutability": "view",
      "type": "function"
    },
    {
      "inputs": [
        {
          "internalType": "bytes32",
          "name": "hashedMessage",
          "type": "bytes32"
        },
        {
          "components": [
            {
              "internalType": "uint256[2]",
              "name": "blsSignature",
              "type": "uint256[2]"
            },
            {
              "internalType": "uint256",
              "name": "hashA",
              "type": "uint256"
            },
            {
              "internalType": "uint256",
              "name": "hashB",
              "type": "uint256"
            },
            {
              "internalType": "uint256",
              "name": "counter",
              "type": "uint256"
            }
          ],
          "internalType": "struct IMessageProxy.Signature",
          "name": "signature",
          "type": "tuple"
        }
      ],
      "name": "verifySignature",
      "outputs": [
        {
          "internalType": "bool",
          "name": "",
          "type": "bool"
        }
      ],
      "stateMutability": "view",
      "type": "function"
    },
    {
      "inputs": [],
      "name": "version",
      "outputs": [
        {
          "internalType": "string",
          "name": "",
          "type": "string"
        }
      ],
      "stateMutability": "view",
      "type": "function"
    }
  ],
  "bytecode": "0x608060405234801561001057600080fd5b5061424d806100206000396000f3fe608060405234801561001057600080fd5b50600436106102745760003560e01c80636a156b9a11610151578063bbc4e8c2116100c3578063e6ab840311610087578063e6ab8403146105a3578063f2f6360514610604578063f399e22e14610617578063f68016b71461062a578063f79f795414610633578063f8c88a161461064657600080fd5b8063bbc4e8c21461053b578063bdb40cb014610562578063ca15c8731461056a578063cab010c91461057d578063d547741f1461059057600080fd5b80639010d07c116101155780639010d07c146104d457806391d14854146104e757806394489202146104fa578063999ab9aa1461050d578063a217fddf14610520578063a8bb1b7d1461052857600080fd5b80636a156b9a146104635780636e2f37b01461048857806377fe0f311461049b578063788bc78c146104ae5780637aa38a7c146104c157600080fd5b80633b690b6b116101ea57806352dc24ee116101ae57806352dc24ee146103f357806353498cdd1461040657806354fd4d5014610415578063603e5d131461042a578063654d88281461043d57806367ec60201461045057600080fd5b80633b690b6b1461039c5780633bf2f737146103a55780633cdd2cc3146103b85780634d203859146103cb578063523c8ab6146103de57600080fd5b8063214883401161023c57806321488340146102ec578063248a9ca31461030c57806328c5e1821461032f5780632f2ff15d1461036157806336568abe146103765780633b597ffe1461038957600080fd5b806301ffc9a7146102795780630fc307a8146102a157806313c52260146102c2578063198e687c146102d75780631cf5379d146102df575b600080fd5b61028c6102873660046133eb565b610659565b60405190151581526020015b60405180910390f35b6102b46102af366004613415565b610684565b604051908152602001610298565b6102b46000805160206141d883398151915281565b6102b4604081565b60d35461028c9060ff1681565b6102ff6102fa36600461342e565b61069b565b604051610298919061345a565b6102b461031a366004613415565b60009081526065602052604090206001015490565b6102b46040516613585a5b9b995d60ca1b60208201526027016040516020818303038152906040528051906020012081565b61037461036f3660046134bc565b6107da565b005b6103746103843660046134bc565b610804565b610374610397366004613415565b610882565b6102b460cd5481565b6102b46103b33660046135e5565b610948565b6103746103c63660046135e5565b6109be565b6103746103d9366004613619565b610aa7565b6102b460008051602061419883398151915281565b61028c610401366004613648565b610be1565b6102b4670de0b6b3a764000081565b61041d610bf4565b60405161029891906136c5565b610374610438366004613720565b610c82565b61028c61044b3660046134bc565b610f25565b6102b461045e3660046137da565b610f3d565b61047062695d1f60891b81565b6040516001600160a01b039091168152602001610298565b610374610496366004613415565b610fb6565b6102b46104a93660046137da565b6110ea565b6103746104bc3660046137da565b611190565b61028c6104cf36600461381b565b611230565b6104706104e23660046138c5565b611269565b61028c6104f53660046134bc565b611281565b6103746105083660046138e7565b6112ac565b61028c61051b3660046135e5565b611362565b6102b4600081565b610374610536366004613619565b6113ab565b6102b47f96e3fc3be15159903e053027cff8a23f39a990e0194abcd8ac1cf1b355b8b93c81565b6102b4600a81565b6102b4610578366004613415565b6114a5565b61037461058b36600461393f565b6114bc565b61037461059e3660046134bc565b611546565b6105de6105b1366004613415565b60c96020526000908152604090208054600182015460028301546003909301549192909160ff9091169084565b604080519485526020850193909352901515918301919091526060820152608001610298565b6103746106123660046137da565b61156b565b610374610625366004613985565b6115f2565b6102b460cb5481565b60cc54610470906001600160a01b031681565b61037461065436600461393f565b6117a3565b60006001600160e01b03198216635a05180f60e01b148061067e575061067e8261182d565b92915050565b600081815260d16020526040812061067e90611862565b606081831080156106b65750600a6106b384846139ea565b11155b80156106d85750600084815260d1602052604090206106d490611862565b8211155b61071e5760405162461bcd60e51b815260206004820152601260248201527114985b99d9481a5cc81a5b98dbdc9c9958dd60721b60448201526064015b60405180910390fd5b61072883836139ea565b6001600160401b0381111561073f5761073f6134ec565b604051908082528060200260200182016040528015610768578160200160208202803683370190505b509050825b828110156107d257600085815260d16020526040902061078d908261186c565b8261079886846139ea565b815181106107a8576107a86139fd565b6001600160a01b0390921660209283029190910190910152806107ca81613a13565b91505061076d565b509392505050565b6000828152606560205260409020600101546107f581611878565b6107ff8383611885565b505050565b6001600160a01b03811633146108745760405162461bcd60e51b815260206004820152602f60248201527f416363657373436f6e74726f6c3a2063616e206f6e6c792072656e6f756e636560448201526e103937b632b9903337b91039b2b63360891b6064820152608401610715565b61087e82826118a7565b5050565b6108ac7f96e3fc3be15159903e053027cff8a23f39a990e0194abcd8ac1cf1b355b8b93c33611281565b6109075760405162461bcd60e51b815260206004820152602660248201527f4e6f7420656e6f756768207065726d697373696f6e7320746f2073657420636f6044820152651b9cdd185b9d60d21b6064820152608401610715565b60cb5460408051918252602082018390527f8abddb75fd50f7583079c0b550ec7a54fa3fd8d5dd1d2dfdc473f7ce27e3b9ac910160405180910390a160cb55565b6000808260405160200161095c9190613a2c565b60408051601f198184030181529181528151602092830120600081815260c990935291206002015490915060ff166109a65760405162461bcd60e51b815260040161071590613a48565b600090815260c9602052604090206003015492915050565b6109d66000805160206141d883398151915233611281565b6109f25760405162461bcd60e51b815260040161071590613a8c565b600081604051602001610a059190613a2c565b604051602081830303815290604052805190602001209050604051602001610a3a906613585a5b9b995d60ca1b815260070190565b604051602081830303815290604052805190602001208103610a9e5760405162461bcd60e51b815260206004820152601960248201527f4d61696e6e65742063616e6e6f742062652072656d6f766564000000000000006044820152606401610715565b61087e826118c9565b610abf60008051602061419883398151915233611281565b610adb5760405162461bcd60e51b815260040161071590613ac1565b6001600160a01b0381163b610b325760405162461bcd60e51b815260206004820152601f60248201527f476976656e2061646472657373206973206e6f74206120636f6e7472616374006044820152606401610715565b610b4e8160d15b600080805260209190915260409020906119b0565b15610b6b5760405162461bcd60e51b815260040161071590613b0a565b6000805260d1602052610b9d7efa5413e7b01fc543d01f0911de573ace463b956369df4472f39030e8d98b77826119d2565b506040516001600160a01b03821681526000907f03bcd152926369e3cf05cb7af471a15d680e8ec5d20b13705048d14e94679365906020015b60405180910390a250565b6000610bed83836119e7565b9392505050565b60d28054610c0190613b4e565b80601f0160208091040260200160405190810160405280929190818152602001828054610c2d90613b4e565b8015610c7a5780601f10610c4f57610100808354040283529160200191610c7a565b820191906000526020600020905b815481529060010190602001808311610c5d57829003601f168201915b505050505081565b60d35460ff1615610cce5760405162461bcd60e51b81526020600482015260166024820152754d65737361676520697320696e2070726f677265737360501b6044820152606401610715565b60d3805460ff19166001179055604051600090610cf19088908890602001613b82565b60408051601f198184030181529181528151602092830120600081815260c990935291206002015490915060ff16610d665760405162461bcd60e51b815260206004820152601860248201527710da185a5b881a5cc81b9bdd081a5b9a5d1a585b1a5e995960421b6044820152606401610715565b600a831115610dab5760405162461bcd60e51b8152602060048201526011602482015270546f6f206d616e79206d6573736167657360781b6044820152606401610715565b610dc1610dbb8585888b8b611a85565b836119e7565b610e0d5760405162461bcd60e51b815260206004820152601960248201527f5369676e6174757265206973206e6f74207665726966696564000000000000006044820152606401610715565b600081815260c960205260409020548514610e905760405162461bcd60e51b815260206004820152603860248201527f5374617274696e6720636f756e746572206973206e6f74207175616c20746f2060448201527f696e636f6d696e67206d65737361676520636f756e74657200000000000000006064820152608401610715565b600081815260c9602052604081208054859290610eae908490613b92565b90915550600090505b83811015610f0957610ef782868684818110610ed557610ed56139fd565b9050602002810190610ee79190613ba5565b610ef2896001613b92565b611c00565b80610f0181613a13565b915050610eb7565b50610f12611e23565b505060d3805460ff191690555050505050565b600082815260d160205260408120610bed90836119b0565b6000808383604051602001610f53929190613b82565b60408051601f198184030181529181528151602092830120600081815260c990935291206002015490915060ff16610f9d5760405162461bcd60e51b815260040161071590613a48565b600090815260c960205260409020600101549392505050565b600054610100900460ff1615808015610fd65750600054600160ff909116105b80610ff05750303b158015610ff0575060005460ff166001145b61100c5760405162461bcd60e51b815260040161071590613bbb565b6000805460ff19166001179055801561102f576000805461ff0019166101001790555b611037611ff9565b611042600033612066565b61105a6000805160206141d883398151915233612066565b61107260008051602061419883398151915233612066565b61109c7f96e3fc3be15159903e053027cff8a23f39a990e0194abcd8ac1cf1b355b8b93c33612066565b60cb829055801561087e576000805461ff0019169055604051600181527f7f26b83ff96e1f2b6a682f133852f6798a09c465da95921460cefb38474024989060200160405180910390a15050565b6000808383604051602001611100929190613b82565b60408051601f198184030181529181528151602092830120600081815260c990935291206002015490915060ff1661117a5760405162461bcd60e51b815260206004820152601f60248201527f536f7572636520636861696e206973206e6f7420696e697469616c697a6564006044820152606401610715565b600090815260c960205260409020549392505050565b61119b600033611281565b6111e75760405162461bcd60e51b815260206004820152601e60248201527f44454641554c545f41444d494e5f524f4c4520697320726571756972656400006044820152606401610715565b7f22efc5f993dce37856b77dd72d7d7661032380c9728c4133f3c071c591bc6ca760d2838360405161121b93929190613c32565b60405180910390a160d26107ff828483613d17565b8051600090815260ce6020908152604080832082850151845290915281205461125883612070565b810361126357600191505b50919050565b6000828152609760205260408120610bed908361186c565b60009182526065602090815260408084206001600160a01b0393909316845291905290205460ff1690565b6112b78383836120e6565b60006040518060a00160405280858152602001600160c96000888152602001908152602001600020600101546112ed91906139ea565b81523360208201526001600160a01b0385166040820152606001839052805190915061131882612070565b600082815260ce6020908152604080832060d08084528285208054865291845291842094909455848352905281546001929190611356908490613b92565b90915550505050505050565b600060c96000836040516020016113799190613a2c565b60408051601f198184030181529181528151602092830120835290820192909252016000206002015460ff1692915050565b6113c360008051602061419883398151915233611281565b6113df5760405162461bcd60e51b815260040161071590613ac1565b6113ea8160d1610b39565b6114365760405162461bcd60e51b815260206004820181905260248201527f457874726120636f6e7472616374206973206e6f7420726567697374657265646044820152606401610715565b6000805260d16020526114687efa5413e7b01fc543d01f0911de573ace463b956369df4472f39030e8d98b77826121f9565b506040516001600160a01b03821681526000907f4d393b64277bfc0b02e0459a74c316c7f22069352a678319fd8139ba4085e06190602001610bd6565b600081815260976020526040812061067e90611862565b6114d460008051602061419883398151915233611281565b6114f05760405162461bcd60e51b815260040161071590613ac1565b6000826040516020016115039190613a2c565b60405160208183030381529060405280519060200120905060cd54810361153c5760405162461bcd60e51b815260040161071590613dd7565b6107ff818361220e565b60008281526065602052604090206001015461156181611878565b6107ff83836118a7565b60008282604051602001611580929190613b82565b60405160208183030381529060405280519060200120905060cd5481036115e95760405162461bcd60e51b815260206004820152601c60248201527f53636861696e2063616e6e6f7420636f6e6e65637420697473656c66000000006044820152606401610715565b6107ff8161236e565b600054610100900460ff16158080156116125750600054600160ff909116105b8061162c5750303b15801561162c575060005460ff166001145b6116485760405162461bcd60e51b815260040161071590613bbb565b6000805460ff19166001179055801561166b576000805461ff0019166101001790555b611677622dc6c0610fb6565b60cc80546001600160a01b0385166001600160a01b03199091161790556040805160808101825260008082526020808301829052600183850152606083018290529251919260c9926116d791016613585a5b9b995d60ca1b815260070190565b60408051808303601f190181529181528151602092830120835282820193909352908201600020835181558382015160018201558383015160028201805460ff19169115159190911790556060909301516003909301929092555161173e91849101613a2c565b60408051601f19818403018152919052805160209091012060cd5580156107ff576000805461ff0019169055604051600181527f7f26b83ff96e1f2b6a682f133852f6798a09c465da95921460cefb38474024989060200160405180910390a1505050565b6117bb60008051602061419883398151915233611281565b6117d75760405162461bcd60e51b815260040161071590613ac1565b6000826040516020016117ea9190613a2c565b60405160208183030381529060405280519060200120905060cd5481036118235760405162461bcd60e51b815260040161071590613dd7565b6107ff8183612462565b60006001600160e01b03198216637965db0b60e01b148061067e57506301ffc9a760e01b6001600160e01b031983161461067e565b600061067e825490565b6000610bed838361250d565b6118828133612537565b50565b61188f828261259b565b60008281526097602052604090206107ff90826119d2565b6118b18282612621565b60008281526097602052604090206107ff90826121f9565b6118e16000805160206141d883398151915233611281565b6118fd5760405162461bcd60e51b815260040161071590613a8c565b6000816040516020016119109190613a2c565b60408051601f198184030181529181528151602092830120600081815260c990935291206002015490915060ff166119855760405162461bcd60e51b815260206004820152601860248201527710da185a5b881a5cc81b9bdd081a5b9a5d1a585b1a5e995960421b6044820152606401610715565b600090815260c9602052604081208181556001810182905560028101805460ff191690556003015550565b6001600160a01b03811660009081526001830160205260408120541515610bed565b6000610bed836001600160a01b038416612688565b604080518082018252823581526020808401359082015260cc548251632aa77bd360e11b81528351600094610bed949388936080808a013594938a01359360608b0135936001600160a01b03169263554ef7a69260048083019391928290030181865afa158015611a5c573d6000803e3d6000fd5b505050506040513d601f19601f82011682018060405250810190611a809190613e5d565b6126d7565b6000808383604051602001611a9b929190613b82565b60408051808303601f190181528282528051602091820120908301819052908201879052915060009060600160405160208183030381529060405280519060200120905060005b87811015611bf45781898983818110611afd57611afd6139fd565b9050602002810190611b0f9190613ba5565b611b1d906020810190613619565b8a8a84818110611b2f57611b2f6139fd565b9050602002810190611b419190613ba5565b611b52906040810190602001613619565b6040805160208101949094526001600160a01b0392831690840152166060820152608001604051602081830303815290604052898983818110611b9757611b976139fd565b9050602002810190611ba99190613ba5565b611bb7906040810190613ea0565b604051602001611bc993929190613ee6565b6040516020818303038152906040528051906020012091508080611bec90613a13565b915050611ae2565b50979650505050505050565b611c22611c136040840160208501613619565b6001600160a01b03163b151590565b611c9057806000805160206141f8833981519152604051611c839060208082526026908201527f44657374696e6174696f6e20636f6e7472616374206973206e6f74206120636f6040820152651b9d1c9858dd60d21b606082015260800190565b60405180910390a2505050565b611ca06040830160208401613619565b6001600160a01b031663884cee5a60cb5485856000016020810190611cc59190613619565b611cd26040880188613ea0565b6040518663ffffffff1660e01b8152600401611cf19493929190613f0e565b600060405180830381600088803b158015611d0b57600080fd5b5087f193505050508015611d1d575060015b6107ff57611d29613f39565b806308c379a003611d7e5750611d3d613f55565b80611d485750611dd8565b816000805160206141f8833981519152611d638360406128a1565b604051611d7091906136c5565b60405180910390a250505050565b634e487b7103611dd857611d90613fde565b90611d9b5750611dd8565b816000805160206141f883398151915282604051602001611dbe91815260200190565b60408051601f1981840301815290829052611d70916136c5565b3d808015611e02576040519150601f19603f3d011682016040523d82523d6000602084013e611e07565b606091505b50816000805160206141f8833981519152611d638360406128a1565b60003a5a611e319190613ffe565b611e3c903331613b92565b905062695d1f60891b803b15801590611f275750806001600160a01b03166391d14854826001600160a01b031663bc2a1e8d6040518163ffffffff1660e01b8152600401602060405180830381865afa158015611e9d573d6000803e3d6000fd5b505050506040513d601f19601f82011682018060405250810190611ec1919061401d565b6040516001600160e01b031960e084901b1681526004810191909152306024820152604401602060405180830381865afa158015611f03573d6000803e3d6000fd5b505050506040513d601f19601f82011682018060405250810190611f279190614036565b8015611f3a5750670de0b6b3a764000082105b1561087e576000611f5383670de0b6b3a76400006139ea565b9050816001600160a01b031631811015611fcd5760405163204a3e9360e01b8152336004820152602481018290526001600160a01b0383169063204a3e93906044015b600060405180830381600087803b158015611fb057600080fd5b505af1158015611fc4573d6000803e3d6000fd5b50505050505050565b604051630a79309b60e01b81523360048201526001600160a01b03831690630a79309b90602401611f96565b600054610100900460ff166120645760405162461bcd60e51b815260206004820152602b60248201527f496e697469616c697a61626c653a20636f6e7472616374206973206e6f74206960448201526a6e697469616c697a696e6760a81b6064820152608401610715565b565b61087e8282611885565b6000808260000151836020015160001b846040015160601b6bffffffffffffffffffffffff1916856060015160601b6bffffffffffffffffffffffff191686608001516040516020016120c7959493929190614058565b60408051601f1981840301815291905280516020909101209392505050565b600083815260c9602052604090206002015460ff166121175760405162461bcd60e51b815260040161071590613a48565b6121208361296b565b600083815260c96020526040908190206001015490513390829086907f803d7f3ca0e5f93fcce39fa29812ed57a95a151594966e17125220132741c6b09061216b9088908890614093565b60405180910390a4600084815260c96020908152604091829020600301548251848152918201527f64ab4eb9f2b913fd01467c69e91e32483420fab6be93c3a7559adbe1b0356845910160405180910390a1600084815260c9602052604081206001018054916121da83613a13565b9091555050506000928352505060c96020526040902043600390910155565b6000610bed836001600160a01b0384166129dc565b6001600160a01b0381163b6122655760405162461bcd60e51b815260206004820152601f60248201527f476976656e2061646472657373206973206e6f74206120636f6e7472616374006044820152606401610715565b6122818160d15b600085815260209190915260409020906119b0565b1561229e5760405162461bcd60e51b815260040161071590613b0a565b6122a98160d1610b39565b156123125760405162461bcd60e51b815260206004820152603360248201527f457874726120636f6e747261637420697320616c7265616479207265676973746044820152726572656420666f7220616c6c20636861696e7360681b6064820152608401610715565b600082815260d16020526040902061232a90826119d2565b506040516001600160a01b038216815282907f03bcd152926369e3cf05cb7af471a15d680e8ec5d20b13705048d14e94679365906020015b60405180910390a25050565b6123866000805160206141d883398151915233611281565b6123a25760405162461bcd60e51b815260040161071590613a8c565b600081815260c9602052604090206002015460ff16156124045760405162461bcd60e51b815260206004820152601a60248201527f436861696e20697320616c726561647920636f6e6e65637465640000000000006044820152606401610715565b604080516080810182526000808252602080830182815260018486018181526060860185815297855260c99093529490922092518355905192820192909255905160028201805460ff19169115159190911790559051600390910155565b61246d8160d161226c565b6124b95760405162461bcd60e51b815260206004820181905260248201527f457874726120636f6e7472616374206973206e6f7420726567697374657265646044820152606401610715565b600082815260d1602052604090206124d190826121f9565b506040516001600160a01b038216815282907f4d393b64277bfc0b02e0459a74c316c7f22069352a678319fd8139ba4085e06190602001612362565b6000826000018281548110612524576125246139fd565b9060005260206000200154905092915050565b6125418282611281565b61087e57612559816001600160a01b03166014612ad6565b612564836020612ad6565b6040516020016125759291906140b7565b60408051601f198184030181529082905262461bcd60e51b8252610715916004016136c5565b6125a58282611281565b61087e5760008281526065602090815260408083206001600160a01b03851684529091529020805460ff191660011790556125dd3390565b6001600160a01b0316816001600160a01b0316837f2f8788117e7eff1d82e926ec794901d17c78024a50270940304540a733656f0d60405160405180910390a45050565b61262b8282611281565b1561087e5760008281526065602090815260408083206001600160a01b0385168085529252808320805460ff1916905551339285917ff6391f5c32d9c69d2a47ea670b442974b53935d1edc7fd64eb21e047a839171b9190a45050565b60008181526001830160205260408120546126cf5750815460018181018455600084815260208082209093018490558454848252828601909352604090209190915561067e565b50600061067e565b60006126e287612c71565b6127275760405162461bcd60e51b815260206004820152601660248201527514da59db985d1d5c99481a5cc81b9bdd081d985b1a5960521b6044820152606401610715565b61273386868686612ca7565b61273f57506000612897565b600061274e8860200151612d95565b905061275e886000015182612dba565b61279b5760405162461bcd60e51b815260206004820152600e60248201526d5369676e206e6f7420696e20473160901b6044820152606401610715565b6127a58585612dba565b6127e25760405162461bcd60e51b815260206004820152600e60248201526d48617368206e6f7420696e20473160901b6044820152606401610715565b60006127ec612df0565b90506127f784612eb0565b61283a5760405162461bcd60e51b8152602060048201526014602482015273283ab13634b19025b2bc903737ba1034b710239960611b6044820152606401610715565b6128928960000151838360000151602001518460000151600001518560200151602001518660200151600001518c8c8c60000151602001518d60000151600001518e60200151602001518f6020015160000151612ec4565b925050505b9695505050505050565b60606000835183106128b45783516128b6565b825b90506000816001600160401b038111156128d2576128d26134ec565b6040519080825280601f01601f1916602001820160405280156128fc576020820181803683370190505b50905060005b828110156129625785818151811061291c5761291c6139fd565b602001015160f81c60f81b828281518110612939576129396139fd565b60200101906001600160f81b031916908160001a9053508061295a81613a13565b915050612902565b50949350505050565b612976600033610f25565b8061298657506129868133610f25565b6118825760405162461bcd60e51b815260206004820152602160248201527f53656e64657220636f6e7472616374206973206e6f74207265676973746572656044820152601960fa1b6064820152608401610715565b60008181526001830160205260408120548015612ac5576000612a006001836139ea565b8554909150600090612a14906001906139ea565b9050818114612a79576000866000018281548110612a3457612a346139fd565b9060005260206000200154905080876000018481548110612a5757612a576139fd565b6000918252602080832090910192909255918252600188019052604090208390555b8554869080612a8a57612a8a61412c565b60019003818190600052602060002001600090559055856001016000868152602001908152602001600020600090556001935050505061067e565b600091505061067e565b5092915050565b60606000612ae5836002613ffe565b612af0906002613b92565b6001600160401b03811115612b0757612b076134ec565b6040519080825280601f01601f191660200182016040528015612b31576020820181803683370190505b509050600360fc1b81600081518110612b4c57612b4c6139fd565b60200101906001600160f81b031916908160001a905350600f60fb1b81600181518110612b7b57612b7b6139fd565b60200101906001600160f81b031916908160001a9053506000612b9f846002613ffe565b612baa906001613b92565b90505b6001811115612c22576f181899199a1a9b1b9c1cb0b131b232b360811b85600f1660108110612bde57612bde6139fd565b1a60f81b828281518110612bf457612bf46139fd565b60200101906001600160f81b031916908160001a90535060049490941c93612c1b81614142565b9050612bad565b508315610bed5760405162461bcd60e51b815260206004820181905260248201527f537472696e67733a20686578206c656e67746820696e73756666696369656e746044820152606401610715565b60006000805160206141b8833981519152826000015110801561067e575050602001516000805160206141b88339815191521190565b60006064841115612cba57506000612d8d565b6000612cd46000805160206141b88339815191528761416f565b90506000805160206141b8833981519152612cef8683613b92565b612cf9919061416f565b905060006000805160206141b883398151915260036000805160206141b8833981519152846000805160206141b883398151915286870909089050612d4d60026000805160206141b8833981519152614183565b841080612d6b5750806000805160206141b883398151915285860914155b80612d765750848214155b15612d8657600092505050612d8d565b6001925050505b949350505050565b60006000805160206141b8833981519152612db083826139ea565b61067e919061416f565b60006000805160206141b883398151915280600381868188890909088180612de457612de4614159565b84850914949350505050565b612df861336a565b50604080516080810182527f1800deef121f1e76426a00665e5c4479674322d4f75edadd46debd5cd992f6ed8183019081527f198e9393920d483a7260bfb731fb5d25f1aa493335a9e71297e485b7aef312c26060830152815281518083019092527f12c85ea5db8c6deb4aab71808dcb408fe3d1e7690c43d37b4ce6cc0166fa7daa82527f090689d0585ff075ec9e99ad690c3395bc4b313370b38ef355acdadcd122975b60208381019190915281019190915290565b600061067e82600001518360200151612f94565b600080612ecf6133ae565b8e8152602081018e9052604081018d9052606081018c9052608081018b905260a081018a905260c0810189905260e081018890526101008101879052610120810186905261014081018590526101608101849052612f2b6133cd565b602081610180846008600019fa925082612f7e5760405162461bcd60e51b815260206004820152601460248201527314185a5c9a5b99c818da1958dac819985a5b195960621b6044820152606401610715565b5115159f9e505050505050505050505050505050565b6000612fa08383613068565b15612fad5750600161067e565b6000612fb88361309b565b9050600061304b613028604080518082018252600080825260209182015281518083019092527f2b149d40ceb8aaae81be18991be06ac3b5b4c5e559dbefa33267e6dc24a138e582527e9713b03af0fed4cd2cafadeed8fdf4a74fa084e52d1852e4a2bd0685c315d29082015290565b61304561303e886130388a61309b565b90613151565b8590613264565b90613264565b805190915015801561305f57506020810151155b95945050505050565b815160009015801561307c57506020830151155b8015613089575081516001145b8015610bed5750506020015115919050565b60408051808201909152600080825260208201526000805160206141b883398151915260008160208501518551099050600082806130db576130db614159565b83806130e9576130e9614159565b84806130f7576130f7614159565b60208801516131076001886139ea565b09875108848061311957613119614159565b60208801518851080990506040518060400160405280828152602001848061314357613143614159565b848508905295945050505050565b604080518082019091526000808252602082015260006000805160206141b8833981519152905060006040518060400160405280838061319357613193614159565b8651885109815260200183806131ab576131ab614159565b86602001518860200151099052905081806131c8576131c8614159565b82806131d6576131d6614159565b60208301516131e66001866139ea565b09825108835281806131fa576131fa614159565b828061320857613208614159565b602083015183510861321a90846139ea565b838061322857613228614159565b848061323657613236614159565b6020880151885108858061324c5761324c614159565b60208a01518a51080908602084015250909392505050565b6040805180820190915260008082526020820152815183516000805160206141b883398151915291116132b557808061329f5761329f614159565b83516132ab90836139ea565b85510882526132ea565b8081806132c4576132c4614159565b85516132d090846139ea565b8551086132dd90836139ea565b6132e7919061416f565b82525b826020015184602001511061332657808061330757613307614159565b602084015161331690836139ea565b8560200151086020830152612acf565b80818061333557613335614159565b602086015161334490846139ea565b85602001510861335490836139ea565b61335e919061416f565b60208301525092915050565b604080516080810182526000918101828152606082019290925290819081526020016133a9604051806040016040528060008152602001600081525090565b905290565b604051806101800160405280600c906020820280368337509192915050565b60405180602001604052806001906020820280368337509192915050565b6000602082840312156133fd57600080fd5b81356001600160e01b031981168114610bed57600080fd5b60006020828403121561342757600080fd5b5035919050565b60008060006060848603121561344357600080fd5b505081359360208301359350604090920135919050565b6020808252825182820181905260009190848201906040850190845b8181101561349b5783516001600160a01b031683529284019291840191600101613476565b50909695505050505050565b6001600160a01b038116811461188257600080fd5b600080604083850312156134cf57600080fd5b8235915060208301356134e1816134a7565b809150509250929050565b634e487b7160e01b600052604160045260246000fd5b60a081018181106001600160401b0382111715613521576135216134ec565b60405250565b604081018181106001600160401b0382111715613521576135216134ec565b601f8201601f191681016001600160401b038111828210171561356b5761356b6134ec565b6040525050565b600082601f83011261358357600080fd5b81356001600160401b0381111561359c5761359c6134ec565b6040516135b3601f8301601f191660200182613546565b8181528460208386010111156135c857600080fd5b816020850160208301376000918101602001919091529392505050565b6000602082840312156135f757600080fd5b81356001600160401b0381111561360d57600080fd5b612d8d84828501613572565b60006020828403121561362b57600080fd5b8135610bed816134a7565b600060a0828403121561126357600080fd5b60008060c0838503121561365b57600080fd5b8235915061366c8460208501613636565b90509250929050565b60005b83811015613690578181015183820152602001613678565b50506000910152565b600081518084526136b1816020860160208601613675565b601f01601f19169290920160200192915050565b602081526000610bed6020830184613699565b60008083601f8401126136ea57600080fd5b5081356001600160401b0381111561370157600080fd5b60208301915083602082850101111561371957600080fd5b9250929050565b600080600080600080610100878903121561373a57600080fd5b86356001600160401b038082111561375157600080fd5b61375d8a838b016136d8565b909850965060208901359550604089013591508082111561377d57600080fd5b818901915089601f83011261379157600080fd5b8135818111156137a057600080fd5b8a60208260051b85010111156137b557600080fd5b6020830195508094505050506137ce8860608901613636565b90509295509295509295565b600080602083850312156137ed57600080fd5b82356001600160401b0381111561380357600080fd5b61380f858286016136d8565b90969095509350505050565b60006020828403121561382d57600080fd5b81356001600160401b038082111561384457600080fd5b9083019060a0828603121561385857600080fd5b60405161386481613502565b82358152602083013560208201526040830135613880816134a7565b60408201526060830135613893816134a7565b60608201526080830135828111156138aa57600080fd5b6138b687828601613572565b60808301525095945050505050565b600080604083850312156138d857600080fd5b50508035926020909101359150565b6000806000606084860312156138fc57600080fd5b83359250602084013561390e816134a7565b915060408401356001600160401b0381111561392957600080fd5b61393586828701613572565b9150509250925092565b6000806040838503121561395257600080fd5b82356001600160401b0381111561396857600080fd5b61397485828601613572565b92505060208301356134e1816134a7565b6000806040838503121561399857600080fd5b82356139a3816134a7565b915060208301356001600160401b038111156139be57600080fd5b6139ca85828601613572565b9150509250929050565b634e487b7160e01b600052601160045260246000fd5b8181038181111561067e5761067e6139d4565b634e487b7160e01b600052603260045260246000fd5b600060018201613a2557613a256139d4565b5060010190565b60008251613a3e818460208701613675565b9190910192915050565b60208082526024908201527f44657374696e6174696f6e20636861696e206973206e6f7420696e697469616c6040820152631a5e995960e21b606082015260800190565b6020808252818101527f434841494e5f434f4e4e4543544f525f524f4c45206973207265717569726564604082015260600190565b60208082526029908201527f45585452415f434f4e54524143545f5245474953545241525f524f4c45206973604082015268081c995c5d5a5c995960ba1b606082015260800190565b60208082526024908201527f457874726120636f6e747261637420697320616c726561647920726567697374604082015263195c995960e21b606082015260800190565b600181811c90821680613b6257607f821691505b60208210810361126357634e487b7160e01b600052602260045260246000fd5b8183823760009101908152919050565b8082018082111561067e5761067e6139d4565b60008235605e19833603018112613a3e57600080fd5b6020808252602e908201527f496e697469616c697a61626c653a20636f6e747261637420697320616c72656160408201526d191e481a5b9a5d1a585b1a5e995960921b606082015260800190565b81835281816020850137506000828201602090810191909152601f909101601f19169091010190565b604081526000808554613c4481613b4e565b8060408601526060600180841660008114613c665760018114613c8057613cb1565b60ff1985168884015283151560051b880183019550613cb1565b8a60005260208060002060005b86811015613ca85781548b8201870152908401908201613c8d565b8a018501975050505b50505050508281036020840152612897818587613c09565b601f8211156107ff57600081815260208120601f850160051c81016020861015613cf05750805b601f850160051c820191505b81811015613d0f57828155600101613cfc565b505050505050565b6001600160401b03831115613d2e57613d2e6134ec565b613d4283613d3c8354613b4e565b83613cc9565b6000601f841160018114613d765760008515613d5e5750838201355b600019600387901b1c1916600186901b178355613dd0565b600083815260209020601f19861690835b82811015613da75786850135825560209485019460019092019101613d87565b5086821015613dc45760001960f88860031b161c19848701351681555b505060018560011b0183555b5050505050565b60208082526030908201527f44657374696e6174696f6e20636861696e20686173682063616e6e6f7420626560408201526f1032b8bab0b6103a379034ba39b2b63360811b606082015260800190565b600060408284031215613e3957600080fd5b604051613e4581613527565b80915082518152602083015160208201525092915050565b600060808284031215613e6f57600080fd5b604051613e7b81613527565b613e858484613e27565b8152613e948460408501613e27565b60208201529392505050565b6000808335601e19843603018112613eb757600080fd5b8301803591506001600160401b03821115613ed157600080fd5b60200191503681900382131561371957600080fd5b60008451613ef8818460208901613675565b8201838582376000930192835250909392505050565b8481526001600160a01b03841660208201526060604082018190526000906128979083018486613c09565b600060033d1115613f525760046000803e5060005160e01c5b90565b600060443d1015613f635790565b6040516003193d81016004833e81513d6001600160401b038160248401118184111715613f9257505050505090565b8285019150815181811115613faa5750505050505090565b843d8701016020828501011115613fc45750505050505090565b613fd360208286010187613546565b509095945050505050565b60008060233d1115613ffa576020600460003e50506000516001905b9091565b6000816000190483118215151615614018576140186139d4565b500290565b60006020828403121561402f57600080fd5b5051919050565b60006020828403121561404857600080fd5b81518015158114610bed57600080fd5b85815284602082015283604082015282606082015260008251614082816080850160208701613675565b919091016080019695505050505050565b6001600160a01b0383168152604060208201819052600090612d8d90830184613699565b7f416363657373436f6e74726f6c3a206163636f756e74200000000000000000008152600083516140ef816017850160208801613675565b7001034b99036b4b9b9b4b733903937b6329607d1b6017918401918201528351614120816028840160208801613675565b01602801949350505050565b634e487b7160e01b600052603160045260246000fd5b600081614151576141516139d4565b506000190190565b634e487b7160e01b600052601260045260246000fd5b60008261417e5761417e614159565b500690565b60008261419257614192614159565b50049056fe6155b5aac15ce9aa193c0527a6f43be0a36a7e2e7496c2b615c0e5f92284277330644e72e131a029b85045b68181585d97816a916871ca8d3c208c16d87cfd472785f35fe7d8743aa971942d8474737bb31895d396eff2cc688a481e0221e1914b7d3908626050c0d998d657e4e6f31cb43ed736bf2b9a1a0192494537ca0e59a26469706673582212202d276ec52211cb6b0422d5ff12645bf923438087729432e09c60f0ddc94bf80e64736f6c63430008100033",
  "linkReferences": {},
  "deployedLinkReferences": {}
}