{
  "_format": "hh-sol-artifact-1",
  "contractName": "TokenManagerERC721WithMetadata",
  "sourceName": "contracts/schain/TokenManagers/TokenManagerERC721WithMetadata.sol",
  "abi": [
    {
      "anonymous": false,
      "inputs": [
        {
          "indexed": false,
          "internalType": "address",
          "name": "oldValue",
          "type": "address"
        },
        {
          "indexed": false,
          "internalType": "address",
          "name": "newValue",
          "type": "address"
        }
      ],
      "name": "DepositBoxWasChanged",
      "type": "event"
    },
    {
      "anonymous": false,
      "inputs": [
        {
          "indexed": true,
          "internalType": "bytes32",
          "name": "chainHash",
          "type": "bytes32"
        },
        {
          "indexed": true,
          "internalType": "address",
          "name": "erc721OnMainChain",
          "type": "address"
        },
        {
          "indexed": true,
          "internalType": "address",
          "name": "erc721OnSchain",
          "type": "address"
        }
      ],
      "name": "ERC721TokenAdded",
      "type": "event"
    },
    {
      "anonymous": false,
      "inputs": [
        {
          "indexed": true,
          "internalType": "bytes32",
          "name": "chainHash",
          "type": "bytes32"
        },
        {
          "indexed": true,
          "internalType": "address",
          "name": "erc721OnMainChain",
          "type": "address"
        },
        {
          "indexed": true,
          "internalType": "address",
          "name": "erc721OnSchain",
          "type": "address"
        }
      ],
      "name": "ERC721TokenCreated",
      "type": "event"
    },
    {
      "anonymous": false,
      "inputs": [
        {
          "indexed": true,
          "internalType": "bytes32",
          "name": "chainHash",
          "type": "bytes32"
        },
        {
          "indexed": true,
          "internalType": "address",
          "name": "contractOnMainnet",
          "type": "address"
        },
        {
          "indexed": false,
          "internalType": "uint256",
          "name": "tokenId",
          "type": "uint256"
        }
      ],
      "name": "ERC721TokenReady",
      "type": "event"
    },
    {
      "anonymous": false,
      "inputs": [
        {
          "indexed": true,
          "internalType": "bytes32",
          "name": "chainHash",
          "type": "bytes32"
        },
        {
          "indexed": true,
          "internalType": "address",
          "name": "erc721OnMainChain",
          "type": "address"
        },
        {
          "indexed": true,
          "internalType": "address",
          "name": "erc721OnSchain",
          "type": "address"
        },
        {
          "indexed": false,
          "internalType": "uint256",
          "name": "tokenId",
          "type": "uint256"
        }
      ],
      "name": "ERC721TokenReceived",
      "type": "event"
    },
    {
      "anonymous": false,
      "inputs": [
        {
          "indexed": false,
          "internalType": "uint8",
          "name": "version",
          "type": "uint8"
        }
      ],
      "name": "Initialized",
      "type": "event"
    },
    {
      "anonymous": false,
      "inputs": [
        {
          "indexed": true,
          "internalType": "bytes32",
          "name": "role",
          "type": "bytes32"
        },
        {
          "indexed": true,
          "internalType": "bytes32",
          "name": "previousAdminRole",
          "type": "bytes32"
        },
        {
          "indexed": true,
          "internalType": "bytes32",
          "name": "newAdminRole",
          "type": "bytes32"
        }
      ],
      "name": "RoleAdminChanged",
      "type": "event"
    },
    {
      "anonymous": false,
      "inputs": [
        {
          "indexed": true,
          "internalType": "bytes32",
          "name": "role",
          "type": "bytes32"
        },
        {
          "indexed": true,
          "internalType": "address",
          "name": "account",
          "type": "address"
        },
        {
          "indexed": true,
          "internalType": "address",
          "name": "sender",
          "type": "address"
        }
      ],
      "name": "RoleGranted",
      "type": "event"
    },
    {
      "anonymous": false,
      "inputs": [
        {
          "indexed": true,
          "internalType": "bytes32",
          "name": "role",
          "type": "bytes32"
        },
        {
          "indexed": true,
          "internalType": "address",
          "name": "account",
          "type": "address"
        },
        {
          "indexed": true,
          "internalType": "address",
          "name": "sender",
          "type": "address"
        }
      ],
      "name": "RoleRevoked",
      "type": "event"
    },
    {
      "inputs": [],
      "name": "AUTOMATIC_DEPLOY_ROLE",
      "outputs": [
        {
          "internalType": "bytes32",
          "name": "",
          "type": "bytes32"
        }
      ],
      "stateMutability": "view",
      "type": "function"
    },
    {
      "inputs": [],
      "name": "DEFAULT_ADMIN_ROLE",
      "outputs": [
        {
          "internalType": "bytes32",
          "name": "",
          "type": "bytes32"
        }
      ],
      "stateMutability": "view",
      "type": "function"
    },
    {
      "inputs": [],
      "name": "MAINNET_HASH",
      "outputs": [
        {
          "internalType": "bytes32",
          "name": "",
          "type": "bytes32"
        }
      ],
      "stateMutability": "view",
      "type": "function"
    },
    {
      "inputs": [],
      "name": "MAINNET_NAME",
      "outputs": [
        {
          "internalType": "string",
          "name": "",
          "type": "string"
        }
      ],
      "stateMutability": "view",
      "type": "function"
    },
    {
      "inputs": [],
      "name": "TOKEN_REGISTRAR_ROLE",
      "outputs": [
        {
          "internalType": "bytes32",
          "name": "",
          "type": "bytes32"
        }
      ],
      "stateMutability": "view",
      "type": "function"
    },
    {
      "inputs": [
        {
          "internalType": "string",
          "name": "targetChainName",
          "type": "string"
        },
        {
          "internalType": "address",
          "name": "erc721OnMainChain",
          "type": "address"
        },
        {
          "internalType": "address",
          "name": "erc721OnSchain",
          "type": "address"
        }
      ],
      "name": "addERC721TokenByOwner",
      "outputs": [],
      "stateMutability": "nonpayable",
      "type": "function"
    },
    {
      "inputs": [
        {
          "internalType": "string",
          "name": "schainName",
          "type": "string"
        },
        {
          "internalType": "address",
          "name": "newTokenManager",
          "type": "address"
        }
      ],
      "name": "addTokenManager",
      "outputs": [],
      "stateMutability": "nonpayable",
      "type": "function"
    },
    {
      "inputs": [
        {
          "internalType": "contract ERC721OnChain",
          "name": "",
          "type": "address"
        }
      ],
      "name": "addedClones",
      "outputs": [
        {
          "internalType": "bool",
          "name": "",
          "type": "bool"
        }
      ],
      "stateMutability": "view",
      "type": "function"
    },
    {
      "inputs": [],
      "name": "automaticDeploy",
      "outputs": [
        {
          "internalType": "bool",
          "name": "",
          "type": "bool"
        }
      ],
      "stateMutability": "view",
      "type": "function"
    },
    {
      "inputs": [
        {
          "internalType": "address",
          "name": "newDepositBox",
          "type": "address"
        }
      ],
      "name": "changeDepositBoxAddress",
      "outputs": [],
      "stateMutability": "nonpayable",
      "type": "function"
    },
    {
      "inputs": [
        {
          "internalType": "bytes32",
          "name": "",
          "type": "bytes32"
        },
        {
          "internalType": "address",
          "name": "",
          "type": "address"
        }
      ],
      "name": "clonesErc721",
      "outputs": [
        {
          "internalType": "contract ERC721OnChain",
          "name": "",
          "type": "address"
        }
      ],
      "stateMutability": "view",
      "type": "function"
    },
    {
      "inputs": [],
      "name": "communityLocker",
      "outputs": [
        {
          "internalType": "contract ICommunityLocker",
          "name": "",
          "type": "address"
        }
      ],
      "stateMutability": "view",
      "type": "function"
    },
    {
      "inputs": [],
      "name": "depositBox",
      "outputs": [
        {
          "internalType": "address",
          "name": "",
          "type": "address"
        }
      ],
      "stateMutability": "view",
      "type": "function"
    },
    {
      "inputs": [
        {
          "internalType": "address",
          "name": "",
          "type": "address"
        }
      ],
      "name": "deprecatedClonesErc721",
      "outputs": [
        {
          "internalType": "contract ERC721OnChain",
          "name": "",
          "type": "address"
        }
      ],
      "stateMutability": "view",
      "type": "function"
    },
    {
      "inputs": [],
      "name": "disableAutomaticDeploy",
      "outputs": [],
      "stateMutability": "nonpayable",
      "type": "function"
    },
    {
      "inputs": [],
      "name": "enableAutomaticDeploy",
      "outputs": [],
      "stateMutability": "nonpayable",
      "type": "function"
    },
    {
      "inputs": [
        {
          "internalType": "address",
          "name": "contractOnMainnet",
          "type": "address"
        },
        {
          "internalType": "uint256",
          "name": "tokenId",
          "type": "uint256"
        }
      ],
      "name": "exitToMainERC721",
      "outputs": [],
      "stateMutability": "nonpayable",
      "type": "function"
    },
    {
      "inputs": [
        {
          "internalType": "bytes32",
          "name": "role",
          "type": "bytes32"
        }
      ],
      "name": "getRoleAdmin",
      "outputs": [
        {
          "internalType": "bytes32",
          "name": "",
          "type": "bytes32"
        }
      ],
      "stateMutability": "view",
      "type": "function"
    },
    {
      "inputs": [
        {
          "internalType": "bytes32",
          "name": "role",
          "type": "bytes32"
        },
        {
          "internalType": "uint256",
          "name": "index",
          "type": "uint256"
        }
      ],
      "name": "getRoleMember",
      "outputs": [
        {
          "internalType": "address",
          "name": "",
          "type": "address"
        }
      ],
      "stateMutability": "view",
      "type": "function"
    },
    {
      "inputs": [
        {
          "internalType": "bytes32",
          "name": "role",
          "type": "bytes32"
        }
      ],
      "name": "getRoleMemberCount",
      "outputs": [
        {
          "internalType": "uint256",
          "name": "",
          "type": "uint256"
        }
      ],
      "stateMutability": "view",
      "type": "function"
    },
    {
      "inputs": [
        {
          "internalType": "bytes32",
          "name": "role",
          "type": "bytes32"
        },
        {
          "internalType": "address",
          "name": "account",
          "type": "address"
        }
      ],
      "name": "grantRole",
      "outputs": [],
      "stateMutability": "nonpayable",
      "type": "function"
    },
    {
      "inputs": [
        {
          "internalType": "bytes32",
          "name": "role",
          "type": "bytes32"
        },
        {
          "internalType": "address",
          "name": "account",
          "type": "address"
        }
      ],
      "name": "hasRole",
      "outputs": [
        {
          "internalType": "bool",
          "name": "",
          "type": "bool"
        }
      ],
      "stateMutability": "view",
      "type": "function"
    },
    {
      "inputs": [
        {
          "internalType": "string",
          "name": "schainName",
          "type": "string"
        }
      ],
      "name": "hasTokenManager",
      "outputs": [
        {
          "internalType": "bool",
          "name": "",
          "type": "bool"
        }
      ],
      "stateMutability": "view",
      "type": "function"
    },
    {
      "inputs": [
        {
          "internalType": "string",
          "name": "newChainName",
          "type": "string"
        },
        {
          "internalType": "contract IMessageProxyForSchain",
          "name": "newMessageProxy",
          "type": "address"
        },
        {
          "internalType": "contract ITokenManagerLinker",
          "name": "newIMALinker",
          "type": "address"
        },
        {
          "internalType": "contract ICommunityLocker",
          "name": "newCommunityLocker",
          "type": "address"
        },
        {
          "internalType": "address",
          "name": "newDepositBox",
          "type": "address"
        }
      ],
      "name": "initialize",
      "outputs": [],
      "stateMutability": "nonpayable",
      "type": "function"
    },
    {
      "inputs": [
        {
          "internalType": "string",
          "name": "newSchainName",
          "type": "string"
        },
        {
          "internalType": "contract IMessageProxyForSchain",
          "name": "newMessageProxy",
          "type": "address"
        },
        {
          "internalType": "contract ITokenManagerLinker",
          "name": "newIMALinker",
          "type": "address"
        },
        {
          "internalType": "contract ICommunityLocker",
          "name": "newCommunityLocker",
          "type": "address"
        },
        {
          "internalType": "address",
          "name": "newDepositBox",
          "type": "address"
        }
      ],
      "name": "initializeTokenManager",
      "outputs": [],
      "stateMutability": "nonpayable",
      "type": "function"
    },
    {
      "inputs": [],
      "name": "messageProxy",
      "outputs": [
        {
          "internalType": "contract IMessageProxyForSchain",
          "name": "",
          "type": "address"
        }
      ],
      "stateMutability": "view",
      "type": "function"
    },
    {
      "inputs": [
        {
          "internalType": "bytes32",
          "name": "fromChainHash",
          "type": "bytes32"
        },
        {
          "internalType": "address",
          "name": "sender",
          "type": "address"
        },
        {
          "internalType": "bytes",
          "name": "data",
          "type": "bytes"
        }
      ],
      "name": "postMessage",
      "outputs": [],
      "stateMutability": "nonpayable",
      "type": "function"
    },
    {
      "inputs": [
        {
          "internalType": "string",
          "name": "schainName",
          "type": "string"
        }
      ],
      "name": "removeTokenManager",
      "outputs": [],
      "stateMutability": "nonpayable",
      "type": "function"
    },
    {
      "inputs": [
        {
          "internalType": "bytes32",
          "name": "role",
          "type": "bytes32"
        },
        {
          "internalType": "address",
          "name": "account",
          "type": "address"
        }
      ],
      "name": "renounceRole",
      "outputs": [],
      "stateMutability": "nonpayable",
      "type": "function"
    },
    {
      "inputs": [
        {
          "internalType": "bytes32",
          "name": "role",
          "type": "bytes32"
        },
        {
          "internalType": "address",
          "name": "account",
          "type": "address"
        }
      ],
      "name": "revokeRole",
      "outputs": [],
      "stateMutability": "nonpayable",
      "type": "function"
    },
    {
      "inputs": [],
      "name": "schainHash",
      "outputs": [
        {
          "internalType": "bytes32",
          "name": "",
          "type": "bytes32"
        }
      ],
      "stateMutability": "view",
      "type": "function"
    },
    {
      "inputs": [
        {
          "internalType": "bytes4",
          "name": "interfaceId",
          "type": "bytes4"
        }
      ],
      "name": "supportsInterface",
      "outputs": [
        {
          "internalType": "bool",
          "name": "",
          "type": "bool"
        }
      ],
      "stateMutability": "view",
      "type": "function"
    },
    {
      "inputs": [],
      "name": "tokenManagerLinker",
      "outputs": [
        {
          "internalType": "contract ITokenManagerLinker",
          "name": "",
          "type": "address"
        }
      ],
      "stateMutability": "view",
      "type": "function"
    },
    {
      "inputs": [
        {
          "internalType": "bytes32",
          "name": "",
          "type": "bytes32"
        }
      ],
      "name": "tokenManagers",
      "outputs": [
        {
          "internalType": "address",
          "name": "",
          "type": "address"
        }
      ],
      "stateMutability": "view",
      "type": "function"
    },
    {
      "inputs": [
        {
          "internalType": "string",
          "name": "targetSchainName",
          "type": "string"
        },
        {
          "internalType": "address",
          "name": "contractOnMainnet",
          "type": "address"
        },
        {
          "internalType": "uint256",
          "name": "tokenId",
          "type": "uint256"
        }
      ],
      "name": "transferToSchainERC721",
      "outputs": [],
      "stateMutability": "nonpayable",
      "type": "function"
    },
    {
      "inputs": [
        {
          "internalType": "address",
          "name": "",
          "type": "address"
        },
        {
          "internalType": "uint256",
          "name": "",
          "type": "uint256"
        }
      ],
      "name": "transferredAmount",
      "outputs": [
        {
          "internalType": "bytes32",
          "name": "",
          "type": "bytes32"
        }
      ],
      "stateMutability": "view",
      "type": "function"
    }
  ],
  "bytecode": "0x608060405234801561001057600080fd5b506166ba806100206000396000f3fe60806040523480156200001157600080fd5b5060043610620002495760003560e01c80636d611286116200013d578063b9581c5011620000bb578063cb703bff1162000086578063cb703bff14620005a6578063cc5b715b14620005bd578063d547741f14620005e5578063dec2deb614620005fc578063edcc12b5146200061157600080fd5b8063b9581c501462000537578063c0e312dc1462000541578063ca15c8731462000558578063ca99be02146200056f57600080fd5b80639010d07c11620001085780639010d07c14620004ae57806391d1485414620004c5578063a217fddf14620004dc578063aebaaca914620004e5578063b4a0522b146200050b57600080fd5b80636d61128614620004585780636d6c68e6146200046c5780636e81ae281462000480578063884cee5a146200049757600080fd5b80632f2ff15d11620001cb5780633fa194ce11620001965780633fa194ce14620003c957806350f4428014620003e05780635573b8b61462000416578063680ae2fe146200042a5780636ce681d2146200044157600080fd5b80632f2ff15d146200037a57806336568abe146200039157806339927cf914620003a85780633b690b6b14620003bf57600080fd5b80630f1a8f7411620002185780630f1a8f7414620002da5780631e0594e3146200031f578063248a9ca3146200033657806328c5e182146200035c5780632dc151de146200036657600080fd5b806301ffc9a7146200024e578063029996b8146200027a5780630b6c672314620002865780630b885ac314620002c3575b600080fd5b620002656200025f36600462003020565b62000628565b60405190151581526020015b60405180910390f35b6200028462000656565b005b620002b46200029736600462003062565b60d260209081526000928352604080842090915290825290205481565b60405190815260200162000271565b62000284620002d4366004620031d5565b620006ae565b62000306620002eb3660046200326a565b60ce602052600090815260409020546001600160a01b031681565b6040516001600160a01b03909116815260200162000271565b6200028462000330366004620032cf565b620006c4565b620002b4620003473660046200326a565b60009081526065602052604090206001015490565b620002b462000955565b60ca5462000306906001600160a01b031681565b620002846200038b36600462003331565b620009a0565b62000284620003a236600462003331565b620009ce565b62000265620003b936600462003364565b62000a50565b620002b460cc5481565b620002b46000805160206200666583398151915281565b620004076040518060400160405280600781526020016613585a5b9b995d60ca1b81525081565b604051620002719190620033fd565b60c95462000306906001600160a01b031681565b620002846200043b36600462003412565b62000aad565b6200028462000452366004620031d5565b62000dc6565b60cd5462000306906001600160a01b031681565b60cb5462000306906001600160a01b031681565b620002846200049136600462003062565b6200103a565b62000284620004a836600462003481565b6200114e565b62000306620004bf366004620034e2565b620012bb565b62000265620004d636600462003331565b620012dc565b620002b4600081565b62000265620004f636600462003505565b60d06020526000908152604090205460ff1681565b620003066200051c36600462003505565b60cf602052600090815260409020546001600160a01b031681565b6200028462001307565b620002846200055236600462003364565b62001350565b620002b4620005693660046200326a565b6200146e565b620003066200058036600462003331565b60d16020908152600092835260408084209091529082529020546001600160a01b031681565b62000284620005b736600462003525565b62001487565b620002b47ffda70c2cc66a36c14884ee85424961f51b1d92b4494751699b6d105b3bcbcba881565b62000284620005f636600462003331565b6200160e565b60cd546200026590600160a01b900460ff1681565b620002846200062236600462003505565b62001637565b60006001600160e01b03198216635a05180f60e01b1480620006505750620006508262001753565b92915050565b620006716000805160206200666583398151915233620012dc565b620006995760405162461bcd60e51b8152600401620006909062003581565b60405180910390fd5b60cd805460ff60a01b1916600160a01b179055565b620006bd858585858562000dc6565b5050505050565b83838080601f01602080910402602001604051908101604052809392919081815260200183838082843760009201829052506040513394509092506200071091508490602001620035c2565b60408051601f1981840301815282825280516020918201208383018352600784526613585a5b9b995d60ca1b84830152915191935062000752929101620035c2565b604051602081830303815290604052805190602001208103620007d15760405162461bcd60e51b815260206004820152603060248201527f546869732066756e6374696f6e206973206e6f7420666f72207472616e73666560448201526f1c9c9a5b99c81d1bc813585a5b9b995d60821b606482015260840162000690565b6001600160a01b038216620008295760405162461bcd60e51b815260206004820152601a60248201527f496e636f72726563742072656365697665722061646472657373000000000000604482015260640162000690565b600081815260ce60205260409020546001600160a01b03166200088f5760405162461bcd60e51b815260206004820152601f60248201527f496e636f727265637420546f6b656e204d616e61676572206164647265737300604482015260640162000690565b60008787604051602001620008a6929190620035e0565b60408051808303601f1901815290829052805160209091012060cb54632c98abc960e11b8352600483018290523360248401529092506001600160a01b031690635931579290604401600060405180830381600087803b1580156200090a57600080fd5b505af11580156200091f573d6000803e3d6000fd5b505050600082815260ce60205260409020546200094b915082906001600160a01b03168833896200178a565b5050505050505050565b6040518060400160405280600781526020016613585a5b9b995d60ca1b815250604051602001620009879190620035c2565b6040516020818303038152906040528051906020012081565b600082815260656020526040902060010154620009bd8162001be2565b620009c9838362001bf1565b505050565b6001600160a01b038116331462000a405760405162461bcd60e51b815260206004820152602f60248201527f416363657373436f6e74726f6c3a2063616e206f6e6c792072656e6f756e636560448201526e103937b632b9903337b91039b2b63360891b606482015260840162000690565b62000a4c828262001c17565b5050565b6000806001600160a01b031660ce6000858560405160200162000a75929190620035e0565b60408051808303601f19018152918152815160209283012083529082019290925201600020546001600160a01b031614159392505050565b62000ad97ffda70c2cc66a36c14884ee85424961f51b1d92b4494751699b6d105b3bcbcba833620012dc565b62000b275760405162461bcd60e51b815260206004820181905260248201527f544f4b454e5f5245474953545241525f524f4c45206973207265717569726564604482015260640162000690565b60c954604051634ccd5cd560e11b81526001600160a01b039091169063999ab9aa9062000b5b9087908790600401620035f0565b602060405180830381865afa15801562000b79573d6000803e3d6000fd5b505050506040513d601f19601f8201168201806040525081019062000b9f91906200361f565b62000be65760405162461bcd60e51b815260206004820152601660248201527510da185a5b881a5cc81b9bdd0818dbdb9b9958dd195960521b604482015260640162000690565b6001600160a01b0381163b62000c3f5760405162461bcd60e51b815260206004820152601f60248201527f476976656e2061646472657373206973206e6f74206120636f6e747261637400604482015260640162000690565b6000848460405160200162000c56929190620035e0565b60408051601f198184030181529181528151602092830120600081815260d184528281206001600160a01b03888116835294529190912054909250161562000cda5760405162461bcd60e51b8152602060048201526016602482015275436f756c64206e6f742072656c696e6b20636c6f6e6560501b604482015260640162000690565b6001600160a01b038216600090815260d0602052604090205460ff161562000d455760405162461bcd60e51b815260206004820152601760248201527f436c6f6e652077617320616c7265616479206164646564000000000000000000604482015260640162000690565b600081815260d1602090815260408083206001600160a01b0387811680865291845282852080546001600160a01b031916918816918217905580855260d0909352818420805460ff1916600117905590519192909184917f11bec40858c3e219ac2d82dd307a6989e3ea72d1c463dfce7376c149d5ccf30c91a45050505050565b600054610100900460ff161580801562000de75750600054600160ff909116105b8062000e035750303b15801562000e03575060005460ff166001145b62000e685760405162461bcd60e51b815260206004820152602e60248201527f496e697469616c697a61626c653a20636f6e747261637420697320616c72656160448201526d191e481a5b9a5d1a585b1a5e995960921b606482015260840162000690565b6000805460ff19166001179055801562000e8c576000805461ff0019166101001790555b6001600160a01b03821662000ee45760405162461bcd60e51b815260206004820181905260248201527f4465706f736974426f7820616464726573732068617320746f20626520736574604482015260640162000690565b62000eee62001c3d565b62000efb60003362001cac565b62000f16600080516020620066658339815191523362001cac565b62000f427ffda70c2cc66a36c14884ee85424961f51b1d92b4494751699b6d105b3bcbcba83362001cac565b8560405160200162000f559190620035c2565b60408051601f19818403018152828252805160209182012060cc5560c980546001600160a01b038a81166001600160a01b03199283161790925560ca80548a841690831617905560cb805489841690831617905560cd8054928816929091168217905560008452908301527fc968af77923193016f61d74ba6827296db5e1f37ec4fab3ad1ef20e193395e59910160405180910390a1801562001032576000805461ff0019169055604051600181527f7f26b83ff96e1f2b6a682f133852f6798a09c465da95921460cefb38474024989060200160405180910390a15b505050505050565b60cb54604080518082018252600781526613585a5b9b995d60ca1b60208083019190915291516001600160a01b03909316926359315792926200107f929101620035c2565b60408051601f198184030181529082905280516020909101206001600160e01b031960e084901b1682526004820152336024820152604401600060405180830381600087803b158015620010d257600080fd5b505af1158015620010e7573d6000803e3d6000fd5b5050505062000a4c6040518060400160405280600781526020016613585a5b9b995d60ca1b815250604051602001620011219190620035c2565b60408051601f19818403018152919052805160209091012060cd546001600160a01b03168433856200178a565b60c9546001600160a01b03163314620011aa5760405162461bcd60e51b815260206004820152601c60248201527f53656e646572206973206e6f742061204d65737361676550726f787900000000604482015260640162000690565b838360cc548214158015620011c65750620011c6828262001cb8565b620012145760405162461bcd60e51b815260206004820152601b60248201527f526563656976657220636861696e20697320696e636f72726563740000000000604482015260640162000690565b600062001222858562001d43565b90506000600e82600e8111156200123d576200123d62003643565b14806200125e5750600d82600e8111156200125c576200125c62003643565b145b1562001279576200127188878762001d9a565b90506200094b565b60405162461bcd60e51b815260206004820152601660248201527526b2b9b9b0b3b2aa3cb8329034b9903ab735b737bbb760511b604482015260640162000690565b6000828152609760205260408120620012d5908362002378565b9392505050565b60009182526065602090815260408084206001600160a01b0393909316845291905290205460ff1690565b620013226000805160206200666583398151915233620012dc565b620013415760405162461bcd60e51b8152600401620006909062003581565b60cd805460ff60a01b19169055565b60ca546001600160a01b031633148062001372575062001372600033620012dc565b620013b85760405162461bcd60e51b81526020600482015260156024820152742737ba1030baba3437b934bd32b21031b0b63632b960591b604482015260640162000690565b60008282604051602001620013cf929190620035e0565b60408051601f198184030181529181528151602092830120600081815260ce9093529120549091506001600160a01b03166200144e5760405162461bcd60e51b815260206004820152601860248201527f546f6b656e204d616e61676572206973206e6f74207365740000000000000000604482015260640162000690565b600090815260ce6020526040902080546001600160a01b03191690555050565b6000818152609760205260408120620006509062002386565b60ca546001600160a01b0316331480620014a95750620014a9600033620012dc565b620014ef5760405162461bcd60e51b81526020600482015260156024820152742737ba1030baba3437b934bd32b21031b0b63632b960591b604482015260640162000690565b6000838360405160200162001506929190620035e0565b60408051601f198184030181529181528151602092830120600081815260ce9093529120549091506001600160a01b031615620015865760405162461bcd60e51b815260206004820152601c60248201527f546f6b656e204d616e6167657220697320616c72656164792073657400000000604482015260640162000690565b6001600160a01b038216620015de5760405162461bcd60e51b815260206004820152601f60248201527f496e636f727265637420546f6b656e204d616e61676572206164647265737300604482015260640162000690565b600090815260ce6020526040902080546001600160a01b0319166001600160a01b03929092169190911790555050565b6000828152606560205260409020600101546200162b8162001be2565b620009c9838362001c17565b62001644600033620012dc565b620016925760405162461bcd60e51b815260206004820152601e60248201527f44454641554c545f41444d494e5f524f4c452069732072657175697265640000604482015260640162000690565b6001600160a01b038116620016ea5760405162461bcd60e51b815260206004820181905260248201527f4465706f736974426f7820616464726573732068617320746f20626520736574604482015260640162000690565b60cd54604080516001600160a01b03928316815291831660208301527fc968af77923193016f61d74ba6827296db5e1f37ec4fab3ad1ef20e193395e59910160405180910390a160cd80546001600160a01b0319166001600160a01b0392909216919091179055565b60006001600160e01b03198216637965db0b60e01b14806200065057506301ffc9a760e01b6001600160e01b031983161462000650565b600085815260d1602090815260408083206001600160a01b038088168552925282205416806200182757506001600160a01b038416600090815260d06020526040902054849060ff1615620018225760405162461bcd60e51b815260206004820152601a60248201527f496e636f7272656374206d61696e20636861696e20746f6b656e000000000000604482015260640162000690565b600191505b6001600160a01b0381163b620018805760405162461bcd60e51b815260206004820152601860248201527f4e6f20746f6b656e20636c6f6e65206f6e2073636861696e0000000000000000604482015260640162000690565b60405163020604bf60e21b81526004810184905230906001600160a01b0383169063081812fc90602401602060405180830381865afa158015620018c8573d6000803e3d6000fd5b505050506040513d601f19601f82011682018060405250810190620018ee919062003659565b6001600160a01b031614620019465760405162461bcd60e51b815260206004820152601860248201527f4e6f7420616c6c6f7765642045524337323120546f6b656e0000000000000000604482015260640162000690565b6000620019618686866200195b868962002391565b62002404565b9050821562001aa9576040518060400160405280600781526020016613585a5b9b995d60ca1b8152506040516020016200199c9190620035c2565b60405160208183030381529060405280519060200120880362001a1e5760405162461bcd60e51b815260206004820152603360248201527f4d61696e20636861696e20746f6b656e20636f756c64206e6f74206265207472604482015272185b9cd9995c9959081d1bc813585a5b9b995d606a1b606482015260840162000690565b62001a2c8883338762002477565b905062001a3b8883866200252b565b6040516323b872dd60e01b8152336004820152306024820152604481018590526001600160a01b038316906323b872dd90606401600060405180830381600087803b15801562001a8a57600080fd5b505af115801562001a9f573d6000803e3d6000fd5b5050505062001b6e565b6040516323b872dd60e01b8152336004820152306024820152604481018590526001600160a01b038316906323b872dd90606401600060405180830381600087803b15801562001af857600080fd5b505af115801562001b0d573d6000803e3d6000fd5b5050604051630852cd8d60e31b8152600481018790526001600160a01b03851692506342966c689150602401600060405180830381600087803b15801562001b5457600080fd5b505af115801562001b69573d6000803e3d6000fd5b505050505b60c954604051634a24490160e11b81526001600160a01b039091169063944892029062001ba4908b908b90869060040162003679565b600060405180830381600087803b15801562001bbf57600080fd5b505af115801562001bd4573d6000803e3d6000fd5b505050505050505050505050565b62001bee8133620025d3565b50565b62001bfd828262002642565b6000828152609760205260409020620009c99082620026cc565b62001c238282620026e3565b6000828152609760205260409020620009c990826200274d565b600054610100900460ff1662001caa5760405162461bcd60e51b815260206004820152602b60248201527f496e697469616c697a61626c653a20636f6e7472616374206973206e6f74206960448201526a6e697469616c697a696e6760a81b606482015260840162000690565b565b62000a4c828262001bf1565b60006040518060400160405280600781526020016613585a5b9b995d60ca1b81525060405160200162001cec9190620035c2565b60405160208183030381529060405280519060200120831462001d2c57600083815260ce60205260409020546001600160a01b03838116911614620012d5565b5060cd546001600160a01b03908116911614919050565b60008062001d54838501856200326a565b905062001d63602082620036ae565b60000362001d8c5762001d8362001d7d84838188620036d1565b62001d43565b91505062000650565b62001d838385018562003712565b60008062001da9848462001d43565b905060008080606081600d86600e81111562001dc95762001dc962003643565b0362001e5a57600062001ddd8a8a62002764565b90508060000151604001519550806000015160200151945080600001516060015193508060200151925060d160008c81526020019081526020016000206000866001600160a01b03166001600160a01b0316815260200190815260200160002060009054906101000a90046001600160a01b031691505062002029565b600062001e688a8a6200282f565b9050806000015160000151604001519550806000015160000151602001519450806000015160000151606001519350806000015160200151925060d160008c81526020019081526020016000206000866001600160a01b03166001600160a01b0316815260200190815260200160002060009054906101000a90046001600160a01b0316915060006001600160a01b0316826001600160a01b031603620020275760cd54600160a01b900460ff1662001f645760405162461bcd60e51b815260206004820152601c60248201527f4175746f6d61746963206465706c6f792069732064697361626c656400000000604482015260640162000690565b602080820151805191015160405162001f7d9062002fa9565b62001f8a92919062003730565b604051809103906000f08015801562001fa7573d6000803e3d6000fd5b5060008c815260d1602090815260408083206001600160a01b038a811680865291845282852080546001600160a01b031916918716918217905580855260d0909352818420805460ff191660011790559051939550909290918e917f3db9e29b45c5fe72aaa0bdc4514d68a645660185a44637e9bc6f0b805ea770459190a45b505b600d86600e81111562002040576200204062003643565b1480156200209557506040518060400160405280600781526020016613585a5b9b995d60ca1b8152506040516020016200207b9190620035c2565b604051602081830303815290604052805190602001208a14155b8015620020a95750620020a98a85620028d4565b156200223f576001600160a01b0384163b620021085760405162461bcd60e51b815260206004820152601a60248201527f496e636f7272656374206d61696e20636861696e20746f6b656e000000000000604482015260640162000690565b6040516331a9108f60e11b81526004810184905230906001600160a01b03861690636352211e90602401602060405180830381865afa15801562002150573d6000803e3d6000fd5b505050506040513d601f19601f8201168201806040525081019062002176919062003659565b6001600160a01b031614620021c25760405162461bcd60e51b8152602060048201526011602482015270125b98dbdc9c9958dd081d1bdad95b9259607a1b604482015260640162000690565b620021cf8a85856200290b565b6040516323b872dd60e01b81523060048201526001600160a01b038681166024830152604482018590528516906323b872dd90606401600060405180830381600087803b1580156200222057600080fd5b505af115801562002235573d6000803e3d6000fd5b505050506200231b565b6040516340c10f1960e01b81526001600160a01b038681166004830152602482018590528216906340c10f1990604401600060405180830381600087803b1580156200228a57600080fd5b505af11580156200229f573d6000803e3d6000fd5b5050604051630588253160e21b81526001600160a01b038416925063162094c49150620022d3908690869060040162003759565b6020604051808303816000875af1158015620022f3573d6000803e3d6000fd5b505050506040513d601f19601f820116820180604052508101906200231991906200361f565b505b806001600160a01b0316846001600160a01b03168b7f2735a548eee1cda16c2df4c1a546c0376f3b3bb2ceca4966ef9d251fcbdd3c45866040516200236291815260200190565b60405180910390a4509298975050505050505050565b6000620012d58383620029b9565b600062000650825490565b60405163c87b56dd60e01b8152600481018290526060906001600160a01b0384169063c87b56dd90602401600060405180830381865afa158015620023da573d6000803e3d6000fd5b505050506040513d6000823e601f3d908101601f19168201604052620012d591908101906200377c565b6040805160e081018252600d60c082019081528183019081526001600160a01b03808816606080850191909152908716608084015260a083018690529082526020808301859052925190926200245d9183910162003863565b604051602081830303815290604052915050949350505050565b60606000620024878686620028d4565b905080620024c7576200249b8686620029e6565b620024bf858585620024ae898862002391565b620024b98a62002b1c565b62002c1a565b9150620024dd565b620024da8585856200195b898862002391565b91505b846001600160a01b0316867fd0fe87fb12c7aa2b7f679256044123cb20de43059fb2ddbb4cc6556f217f29dc856040516200251a91815260200190565b60405180910390a350949350505050565b6001600160a01b038216600090815260d26020908152604080832084845290915290205415620025ad5760405162461bcd60e51b815260206004820152602660248201527f546f6b656e2077617320616c7265616479207472616e7366657272656420746f6044820152651031b430b4b760d11b606482015260840162000690565b6001600160a01b03909116600090815260d2602090815260408083209383529290522055565b620025df8282620012dc565b62000a4c57620025fa816001600160a01b0316601462002c9a565b6200260783602062002c9a565b6040516020016200261a92919062003878565b60408051601f198184030181529082905262461bcd60e51b82526200069091600401620033fd565b6200264e8282620012dc565b62000a4c5760008281526065602090815260408083206001600160a01b03851684529091529020805460ff19166001179055620026883390565b6001600160a01b0316816001600160a01b0316837f2f8788117e7eff1d82e926ec794901d17c78024a50270940304540a733656f0d60405160405180910390a45050565b6000620012d5836001600160a01b03841662002e53565b620026ef8282620012dc565b1562000a4c5760008281526065602090815260408083206001600160a01b0385168085529252808320805460ff1916905551339285917ff6391f5c32d9c69d2a47ea670b442974b53935d1edc7fd64eb21e047a839171b9190a45050565b6000620012d5836001600160a01b03841662002ea5565b620027a46040805160e081018252600060c08201818152928201928352606082018190526080820181905260a08201529081908152602001606081525090565b600d620027b2848462001d43565b600e811115620027c657620027c662003643565b14620028215760405162461bcd60e51b815260206004820152602360248201527f4d6573736167652074797065206973206e6f7420455243373231207472616e736044820152623332b960e91b606482015260840162000690565b620012d582840184620039c7565b6200283962002fb7565b600e62002847848462001d43565b600e8111156200285b576200285b62003643565b14620028c65760405162461bcd60e51b815260206004820152603360248201527f4d6573736167652074797065206973206e6f7420455243373231207472616e73604482015272666572207769746820746f6b656e20696e666f60681b606482015260840162000690565b620012d582840184620039ff565b600082815260d360205260408120620012d590836001600160a01b03811660009081526001830160205260408120541515620012d5565b6001600160a01b038216600090815260d2602090815260408083208484529091529020548314620029905760405162461bcd60e51b815260206004820152602860248201527f546f6b656e2077617320616c7265616479207472616e7366657272656420667260448201526737b69031b430b4b760c11b606482015260840162000690565b6001600160a01b03909116600090815260d2602090815260408083209383529290529081205550565b6000826000018281548110620029d357620029d362003af8565b9060005260206000200154905092915050565b6001600160a01b0381163b62002a3f5760405162461bcd60e51b815260206004820152601f60248201527f476976656e2061646472657373206973206e6f74206120636f6e747261637400604482015260640162000690565b600082815260d36020526040902062002a7690826001600160a01b03811660009081526001830160205260408120541515620012d5565b1562002ac55760405162461bcd60e51b815260206004820152601e60248201527f45524337323120546f6b656e2077617320616c72656164792061646465640000604482015260640162000690565b600082815260d36020526040902062002adf9082620026cc565b506040516000906001600160a01b0383169084907f11bec40858c3e219ac2d82dd307a6989e3ea72d1c463dfce7376c149d5ccf30c908490a45050565b60408051808201909152606080825260208201526040518060400160405280836001600160a01b03166306fdde036040518163ffffffff1660e01b8152600401600060405180830381865afa15801562002b7a573d6000803e3d6000fd5b505050506040513d6000823e601f3d908101601f1916820160405262002ba491908101906200377c565b8152602001836001600160a01b03166395d89b416040518163ffffffff1660e01b8152600401600060405180830381865afa15801562002be8573d6000803e3d6000fd5b505050506040513d6000823e601f3d908101601f1916820160405262002c1291908101906200377c565b905292915050565b6040805161012081018252600e6101008201908152608082019081526001600160a01b0380891660a0840152871660c083015260e08201869052818301908152606080830186905290825260208083018590529251909262002c7f9183910162003b0e565b60405160208183030381529060405291505095945050505050565b6060600062002cab83600262003b91565b62002cb890600262003bb3565b6001600160401b0381111562002cd25762002cd262003091565b6040519080825280601f01601f19166020018201604052801562002cfd576020820181803683370190505b509050600360fc1b8160008151811062002d1b5762002d1b62003af8565b60200101906001600160f81b031916908160001a905350600f60fb1b8160018151811062002d4d5762002d4d62003af8565b60200101906001600160f81b031916908160001a905350600062002d7384600262003b91565b62002d8090600162003bb3565b90505b600181111562002e02576f181899199a1a9b1b9c1cb0b131b232b360811b85600f166010811062002db85762002db862003af8565b1a60f81b82828151811062002dd15762002dd162003af8565b60200101906001600160f81b031916908160001a90535060049490941c9362002dfa8162003bc9565b905062002d83565b508315620012d55760405162461bcd60e51b815260206004820181905260248201527f537472696e67733a20686578206c656e67746820696e73756666696369656e74604482015260640162000690565b600081815260018301602052604081205462002e9c5750815460018181018455600084815260208082209093018490558454848252828601909352604090209190915562000650565b50600062000650565b6000818152600183016020526040812054801562002f9e57600062002ecc60018362003be3565b855490915060009062002ee29060019062003be3565b905081811462002f4e57600086600001828154811062002f065762002f0662003af8565b906000526020600020015490508087600001848154811062002f2c5762002f2c62003af8565b6000918252602080832090910192909255918252600188019052604090208390555b855486908062002f625762002f6262003bf9565b60019003818190600052602060002001600090559055856001016000868152602001908152602001600020600090556001935050505062000650565b600091505062000650565b612a558062003c1083390190565b6040805161012081018252600061010082018181526080830190815260a0830182905260c0830182905260e083019190915291810191825260608082015290819081526020016200301b604051806040016040528060608152602001606081525090565b905290565b6000602082840312156200303357600080fd5b81356001600160e01b031981168114620012d557600080fd5b6001600160a01b038116811462001bee57600080fd5b600080604083850312156200307657600080fd5b823562003083816200304c565b946020939093013593505050565b634e487b7160e01b600052604160045260246000fd5b604080519081016001600160401b0381118282101715620030cc57620030cc62003091565b60405290565b604051608081016001600160401b0381118282101715620030cc57620030cc62003091565b604051602081016001600160401b0381118282101715620030cc57620030cc62003091565b604051601f8201601f191681016001600160401b038111828210171562003147576200314762003091565b604052919050565b60006001600160401b038211156200316b576200316b62003091565b50601f01601f191660200190565b600082601f8301126200318b57600080fd5b8135620031a26200319c826200314f565b6200311c565b818152846020838601011115620031b857600080fd5b816020850160208301376000918101602001919091529392505050565b600080600080600060a08688031215620031ee57600080fd5b85356001600160401b038111156200320557600080fd5b620032138882890162003179565b955050602086013562003226816200304c565b9350604086013562003238816200304c565b925060608601356200324a816200304c565b915060808601356200325c816200304c565b809150509295509295909350565b6000602082840312156200327d57600080fd5b5035919050565b60008083601f8401126200329757600080fd5b5081356001600160401b03811115620032af57600080fd5b602083019150836020828501011115620032c857600080fd5b9250929050565b60008060008060608587031215620032e657600080fd5b84356001600160401b03811115620032fd57600080fd5b6200330b8782880162003284565b909550935050602085013562003321816200304c565b9396929550929360400135925050565b600080604083850312156200334557600080fd5b82359150602083013562003359816200304c565b809150509250929050565b600080602083850312156200337857600080fd5b82356001600160401b038111156200338f57600080fd5b6200339d8582860162003284565b90969095509350505050565b60005b83811015620033c6578181015183820152602001620033ac565b50506000910152565b60008151808452620033e9816020860160208601620033a9565b601f01601f19169290920160200192915050565b602081526000620012d56020830184620033cf565b600080600080606085870312156200342957600080fd5b84356001600160401b038111156200344057600080fd5b6200344e8782880162003284565b909550935050602085013562003464816200304c565b9150604085013562003476816200304c565b939692955090935050565b600080600080606085870312156200349857600080fd5b843593506020850135620034ac816200304c565b925060408501356001600160401b03811115620034c857600080fd5b620034d68782880162003284565b95989497509550505050565b60008060408385031215620034f657600080fd5b50508035926020909101359150565b6000602082840312156200351857600080fd5b8135620012d5816200304c565b6000806000604084860312156200353b57600080fd5b83356001600160401b038111156200355257600080fd5b620035608682870162003284565b909450925050602084013562003576816200304c565b809150509250925092565b60208082526021908201527f4155544f4d415449435f4445504c4f595f524f4c4520697320726571756972656040820152601960fa1b606082015260800190565b60008251620035d6818460208701620033a9565b9190910192915050565b8183823760009101908152919050565b60208152816020820152818360408301376000818301604090810191909152601f909201601f19160101919050565b6000602082840312156200363257600080fd5b81518015158114620012d557600080fd5b634e487b7160e01b600052602160045260246000fd5b6000602082840312156200366c57600080fd5b8151620012d5816200304c565b8381526001600160a01b0383166020820152606060408201819052600090620036a590830184620033cf565b95945050505050565b600082620036cc57634e487b7160e01b600052601260045260246000fd5b500690565b60008085851115620036e257600080fd5b83861115620036f057600080fd5b5050820193919092039150565b8035600f81106200370d57600080fd5b919050565b6000602082840312156200372557600080fd5b620012d582620036fd565b604081526000620037456040830185620033cf565b8281036020840152620036a58185620033cf565b828152604060208201526000620037746040830184620033cf565b949350505050565b6000602082840312156200378f57600080fd5b81516001600160401b03811115620037a657600080fd5b8201601f81018413620037b857600080fd5b8051620037c96200319c826200314f565b818152856020838501011115620037df57600080fd5b620036a5826020830160208601620033a9565b60008151805151600f81106200381857634e487b7160e01b600052602160045260246000fd5b84526020818101516001600160a01b0390811682870152604080840151909116908601526060918201519185019190915282015160a0608085018190526200377490850182620033cf565b602081526000620012d56020830184620037f2565b7f416363657373436f6e74726f6c3a206163636f756e7420000000000000000000815260008351620038b2816017850160208801620033a9565b7001034b99036b4b9b9b4b733903937b6329607d1b6017918401918201528351620038e5816028840160208801620033a9565b01602801949350505050565b600081830360a08112156200390557600080fd5b6200390f620030a7565b915060808112156200392057600080fd5b6200392a620030d2565b60208212156200393957600080fd5b62003943620030f7565b91506200395084620036fd565b825290815260208301359062003966826200304c565b816020820152604084013591506200397e826200304c565b81604082015260608401356060820152808352505060808201356001600160401b03811115620039ad57600080fd5b620039bb8482850162003179565b60208301525092915050565b600060208284031215620039da57600080fd5b81356001600160401b03811115620039f157600080fd5b6200377484828501620038f1565b60006020828403121562003a1257600080fd5b81356001600160401b038082111562003a2a57600080fd5b908301906040828603121562003a3f57600080fd5b62003a49620030a7565b82358281111562003a5957600080fd5b62003a6787828601620038f1565b82525060208301358281111562003a7d57600080fd5b92909201916040838703121562003a9357600080fd5b62003a9d620030a7565b83358381111562003aad57600080fd5b62003abb8882870162003179565b82525060208401358381111562003ad157600080fd5b62003adf8882870162003179565b6020830152508060208301525080935050505092915050565b634e487b7160e01b600052603260045260246000fd5b60208152600082516040602084015262003b2c6060840182620037f2565b90506020840151601f1984830301604085015280516040835262003b546040840182620033cf565b905060208201519150828103602084015262003b718183620033cf565b9695505050505050565b634e487b7160e01b600052601160045260246000fd5b600081600019048311821515161562003bae5762003bae62003b7b565b500290565b8082018082111562000650576200065062003b7b565b60008162003bdb5762003bdb62003b7b565b506000190190565b8181038181111562000650576200065062003b7b565b634e487b7160e01b600052603160045260246000fdfe60806040523480156200001157600080fd5b5060405162002a5538038062002a558339810160408190526200003491620005a0565b600054610100900460ff1615808015620000555750600054600160ff909116105b806200008557506200007230620001d960201b62000a3c1760201c565b15801562000085575060005460ff166001145b620000ee5760405162461bcd60e51b815260206004820152602e60248201527f496e697469616c697a61626c653a20636f6e747261637420697320616c72656160448201526d191e481a5b9a5d1a585b1a5e995960921b60648201526084015b60405180910390fd5b6000805460ff19166001179055801562000112576000805461ff0019166101001790555b62000127620001e860201b62000a4b1760201c565b6200013e83836200024660201b62000a741760201c565b62000153620001e860201b62000a4b1760201c565b6200016e60008051602062002a3583398151915280620002b2565b6200018960008051602062002a3583398151915233620002fd565b8015620001d0576000805461ff0019169055604051600181527f7f26b83ff96e1f2b6a682f133852f6798a09c465da95921460cefb38474024989060200160405180910390a15b50505062000764565b6001600160a01b03163b151590565b600054610100900460ff16620002445760405162461bcd60e51b815260206004820152602b602482015260008051602062002a1583398151915260448201526a6e697469616c697a696e6760a81b6064820152608401620000e5565b565b600054610100900460ff16620002a25760405162461bcd60e51b815260206004820152602b602482015260008051602062002a1583398151915260448201526a6e697469616c697a696e6760a81b6064820152608401620000e5565b620002ae828262000309565b5050565b600082815260656020526040808220600101805490849055905190918391839186917fbd79b86ffe0ab8e8776151514217cd7cacd52c909f66475c3af44e129f0b00ff9190a4505050565b620002ae828262000387565b600054610100900460ff16620003655760405162461bcd60e51b815260206004820152602b602482015260008051602062002a1583398151915260448201526a6e697469616c697a696e6760a81b6064820152608401620000e5565b60c962000373838262000698565b5060ca62000382828262000698565b505050565b6200039e8282620003c560201b62000aa51760201c565b60008281526097602090815260409091206200038291839062000b2b62000469821b17901c565b60008281526065602090815260408083206001600160a01b038516845290915290205460ff16620002ae5760008281526065602090815260408083206001600160a01b03851684529091529020805460ff19166001179055620004253390565b6001600160a01b0316816001600160a01b0316837f2f8788117e7eff1d82e926ec794901d17c78024a50270940304540a733656f0d60405160405180910390a45050565b600062000480836001600160a01b03841662000489565b90505b92915050565b6000818152600183016020526040812054620004d25750815460018181018455600084815260208082209093018490558454848252828601909352604090209190915562000483565b50600062000483565b634e487b7160e01b600052604160045260246000fd5b600082601f8301126200050357600080fd5b81516001600160401b0380821115620005205762000520620004db565b604051601f8301601f19908116603f011681019082821181831017156200054b576200054b620004db565b816040528381526020925086838588010111156200056857600080fd5b600091505b838210156200058c57858201830151818301840152908201906200056d565b600093810190920192909252949350505050565b60008060408385031215620005b457600080fd5b82516001600160401b0380821115620005cc57600080fd5b620005da86838701620004f1565b93506020850151915080821115620005f157600080fd5b506200060085828601620004f1565b9150509250929050565b600181811c908216806200061f57607f821691505b6020821081036200064057634e487b7160e01b600052602260045260246000fd5b50919050565b601f8211156200038257600081815260208120601f850160051c810160208610156200066f5750805b601f850160051c820191505b8181101562000690578281556001016200067b565b505050505050565b81516001600160401b03811115620006b457620006b4620004db565b620006cc81620006c584546200060a565b8462000646565b602080601f831160018114620007045760008415620006eb5750858301515b600019600386901b1c1916600185901b17855562000690565b600085815260208120601f198616915b82811015620007355788860151825594840194600190910190840162000714565b5085821015620007545787850151600019600388901b60f8161c191681555b5050505050600190811b01905550565b6122a180620007746000396000f3fe608060405234801561001057600080fd5b50600436106101735760003560e01c80636352211e116100de578063a22cb46511610097578063ca15c87311610071578063ca15c87314610340578063d539139314610353578063d547741f1461037a578063e985e9c51461038d57600080fd5b8063a22cb46514610307578063b88d4fde1461031a578063c87b56dd1461032d57600080fd5b80636352211e146102ab57806370a08231146102be5780639010d07c146102d157806391d14854146102e457806395d89b41146102f7578063a217fddf146102ff57600080fd5b8063248a9ca311610130578063248a9ca31461021b5780632f2ff15d1461024c57806336568abe1461025f57806340c10f191461027257806342842e0e1461028557806342966c681461029857600080fd5b806301ffc9a71461017857806306fdde03146101a0578063081812fc146101b5578063095ea7b3146101e0578063162094c4146101f557806323b872dd14610208575b600080fd5b61018b610186366004611aed565b6103c9565b60405190151581526020015b60405180910390f35b6101a86103da565b6040516101979190611b5a565b6101c86101c3366004611b6d565b61046c565b6040516001600160a01b039091168152602001610197565b6101f36101ee366004611ba2565b610493565b005b61018b610203366004611bcc565b6105ad565b6101f3610216366004611c48565b6106d9565b61023e610229366004611b6d565b60009081526065602052604090206001015490565b604051908152602001610197565b6101f361025a366004611c84565b61070b565b6101f361026d366004611c84565b610730565b6101f3610280366004611ba2565b6107ae565b6101f3610293366004611c48565b610827565b6101f36102a6366004611b6d565b610842565b6101c86102b9366004611b6d565b610873565b61023e6102cc366004611cb0565b6108d3565b6101c86102df366004611ccb565b610959565b61018b6102f2366004611c84565b610978565b6101a86109a3565b61023e600081565b6101f3610315366004611ced565b6109b2565b6101f3610328366004611d3f565b6109bd565b6101a861033b366004611b6d565b6109f5565b61023e61034e366004611b6d565b610a00565b61023e7f9f2df0fed2c77648de5860a4cc508cd0818c85b8b8a1ab4ceeef8d981c8956a681565b6101f3610388366004611c84565b610a17565b61018b61039b366004611e1b565b6001600160a01b03918216600090815260ce6020908152604080832093909416825291909152205460ff1690565b60006103d482610b40565b92915050565b606060c980546103e990611e45565b80601f016020809104026020016040519081016040528092919081815260200182805461041590611e45565b80156104625780601f1061043757610100808354040283529160200191610462565b820191906000526020600020905b81548152906001019060200180831161044557829003601f168201915b5050505050905090565b600061047782610b80565b50600090815260cd60205260409020546001600160a01b031690565b600061049e82610873565b9050806001600160a01b0316836001600160a01b0316036105105760405162461bcd60e51b815260206004820152602160248201527f4552433732313a20617070726f76616c20746f2063757272656e74206f776e656044820152603960f91b60648201526084015b60405180910390fd5b336001600160a01b038216148061052c575061052c813361039b565b61059e5760405162461bcd60e51b815260206004820152603e60248201527f4552433732313a20617070726f76652063616c6c6572206973206e6f7420746f60448201527f6b656e206f776e6572206e6f7220617070726f76656420666f7220616c6c00006064820152608401610507565b6105a88383610bdf565b505050565b600083815260cb60205260408120546001600160a01b03166106095760405162461bcd60e51b8152602060048201526015602482015274546f6b656e20646f6573206e6f742065786973747360581b6044820152606401610507565b6106133385610c4d565b8061064357506106437f9f2df0fed2c77648de5860a4cc508cd0818c85b8b8a1ab4ceeef8d981c8956a633610978565b61068f5760405162461bcd60e51b815260206004820152601c60248201527f53656e6465722063616e206e6f742073657420746f6b656e20555249000000006044820152606401610507565b6106cf8484848080601f016020809104026020016040519081016040528093929190818152602001838380828437600092019190915250610ccc92505050565b5060019392505050565b6106e4335b82610c4d565b6107005760405162461bcd60e51b815260040161050790611e7f565b6105a8838383610d60565b60008281526065602052604090206001015461072681610efc565b6105a88383610f06565b6001600160a01b03811633146107a05760405162461bcd60e51b815260206004820152602f60248201527f416363657373436f6e74726f6c3a2063616e206f6e6c792072656e6f756e636560448201526e103937b632b9903337b91039b2b63360891b6064820152608401610507565b6107aa8282610f28565b5050565b6107d87f9f2df0fed2c77648de5860a4cc508cd0818c85b8b8a1ab4ceeef8d981c8956a633610978565b61081d5760405162461bcd60e51b815260206004820152601660248201527529b2b73232b91034b9903737ba10309026b4b73a32b960511b6044820152606401610507565b6107aa8282610f4a565b6105a8838383604051806020016040528060008152506109bd565b61084b336106de565b6108675760405162461bcd60e51b815260040161050790611e7f565b6108708161108c565b50565b600081815260cb60205260408120546001600160a01b0316806103d45760405162461bcd60e51b8152602060048201526018602482015277115490cdcc8c4e881a5b9d985b1a59081d1bdad95b88125160421b6044820152606401610507565b60006001600160a01b03821661093d5760405162461bcd60e51b815260206004820152602960248201527f4552433732313a2061646472657373207a65726f206973206e6f7420612076616044820152683634b21037bbb732b960b91b6064820152608401610507565b506001600160a01b0316600090815260cc602052604090205490565b60008281526097602052604081206109719083611095565b9392505050565b60009182526065602090815260408084206001600160a01b0393909316845291905290205460ff1690565b606060ca80546103e990611e45565b6107aa3383836110a1565b6109c73383610c4d565b6109e35760405162461bcd60e51b815260040161050790611e7f565b6109ef8484848461116f565b50505050565b60606103d4826111a2565b60008181526097602052604081206103d4906112ab565b600082815260656020526040902060010154610a3281610efc565b6105a88383610f28565b6001600160a01b03163b151590565b600054610100900460ff16610a725760405162461bcd60e51b815260040161050790611ecd565b565b600054610100900460ff16610a9b5760405162461bcd60e51b815260040161050790611ecd565b6107aa82826112b5565b610aaf8282610978565b6107aa5760008281526065602090815260408083206001600160a01b03851684529091529020805460ff19166001179055610ae73390565b6001600160a01b0316816001600160a01b0316837f2f8788117e7eff1d82e926ec794901d17c78024a50270940304540a733656f0d60405160405180910390a45050565b6000610971836001600160a01b0384166112f5565b60006001600160e01b031982166380ac58cd60e01b1480610b7157506001600160e01b03198216635b5e139f60e01b145b806103d457506103d482611344565b600081815260cb60205260409020546001600160a01b03166108705760405162461bcd60e51b8152602060048201526018602482015277115490cdcc8c4e881a5b9d985b1a59081d1bdad95b88125160421b6044820152606401610507565b600081815260cd6020526040902080546001600160a01b0319166001600160a01b0384169081179091558190610c1482610873565b6001600160a01b03167f8c5be1e5ebec7d5bd14f71427d1e84f3dd0314c0f7b2291e5b200ac8c7c3b92560405160405180910390a45050565b600080610c5983610873565b9050806001600160a01b0316846001600160a01b03161480610ca057506001600160a01b03808216600090815260ce602090815260408083209388168352929052205460ff165b80610cc45750836001600160a01b0316610cb98461046c565b6001600160a01b0316145b949350505050565b600082815260cb60205260409020546001600160a01b0316610d475760405162461bcd60e51b815260206004820152602e60248201527f45524337323155524953746f726167653a2055524920736574206f66206e6f6e60448201526d32bc34b9ba32b73a103a37b5b2b760911b6064820152608401610507565b600082815261012d602052604090206105a88282611f66565b826001600160a01b0316610d7382610873565b6001600160a01b031614610dd75760405162461bcd60e51b815260206004820152602560248201527f4552433732313a207472616e736665722066726f6d20696e636f72726563742060448201526437bbb732b960d91b6064820152608401610507565b6001600160a01b038216610e395760405162461bcd60e51b8152602060048201526024808201527f4552433732313a207472616e7366657220746f20746865207a65726f206164646044820152637265737360e01b6064820152608401610507565b610e44600082610bdf565b6001600160a01b038316600090815260cc60205260408120805460019290610e6d90849061203c565b90915550506001600160a01b038216600090815260cc60205260408120805460019290610e9b90849061204f565b9091555050600081815260cb602052604080822080546001600160a01b0319166001600160a01b0386811691821790925591518493918716917fddf252ad1be2c89b69c2b068fc378daa952ba7f163c4a11628f55a4df523b3ef91a4505050565b6108708133611369565b610f108282610aa5565b60008281526097602052604090206105a89082610b2b565b610f3282826113cd565b60008281526097602052604090206105a89082611434565b6001600160a01b038216610fa05760405162461bcd60e51b815260206004820181905260248201527f4552433732313a206d696e7420746f20746865207a65726f20616464726573736044820152606401610507565b600081815260cb60205260409020546001600160a01b0316156110055760405162461bcd60e51b815260206004820152601c60248201527f4552433732313a20746f6b656e20616c7265616479206d696e746564000000006044820152606401610507565b6001600160a01b038216600090815260cc6020526040812080546001929061102e90849061204f565b9091555050600081815260cb602052604080822080546001600160a01b0319166001600160a01b03861690811790915590518392907fddf252ad1be2c89b69c2b068fc378daa952ba7f163c4a11628f55a4df523b3ef908290a45050565b61087081611449565b6000610971838361148b565b816001600160a01b0316836001600160a01b0316036111025760405162461bcd60e51b815260206004820152601960248201527f4552433732313a20617070726f766520746f2063616c6c6572000000000000006044820152606401610507565b6001600160a01b03838116600081815260ce6020908152604080832094871680845294825291829020805460ff191686151590811790915591519182527f17307eab39ab6107e8899845ad3d59bd9653f200f220920489ca2b5937696c31910160405180910390a3505050565b61117a848484610d60565b611186848484846114b5565b6109ef5760405162461bcd60e51b815260040161050790612062565b60606111ad82610b80565b600082815261012d6020526040812080546111c790611e45565b80601f01602080910402602001604051908101604052809291908181526020018280546111f390611e45565b80156112405780601f1061121557610100808354040283529160200191611240565b820191906000526020600020905b81548152906001019060200180831161122357829003601f168201915b50505050509050600061125e60408051602081019091526000815290565b90508051600003611270575092915050565b8151156112a257808260405160200161128a9291906120b4565b60405160208183030381529060405292505050919050565b610cc4846115b6565b60006103d4825490565b600054610100900460ff166112dc5760405162461bcd60e51b815260040161050790611ecd565b60c96112e88382611f66565b5060ca6105a88282611f66565b600081815260018301602052604081205461133c575081546001818101845560008481526020808220909301849055845484825282860190935260409020919091556103d4565b5060006103d4565b60006001600160e01b03198216635a05180f60e01b14806103d457506103d482611629565b6113738282610978565b6107aa5761138b816001600160a01b0316601461165e565b61139683602061165e565b6040516020016113a79291906120e3565b60408051601f198184030181529082905262461bcd60e51b825261050791600401611b5a565b6113d78282610978565b156107aa5760008281526065602090815260408083206001600160a01b0385168085529252808320805460ff1916905551339285917ff6391f5c32d9c69d2a47ea670b442974b53935d1edc7fd64eb21e047a839171b9190a45050565b6000610971836001600160a01b0384166117fa565b611452816118ed565b600081815261012d60205260409020805461146c90611e45565b15905061087057600081815261012d6020526040812061087091611a89565b60008260000182815481106114a2576114a2612158565b9060005260206000200154905092915050565b60006001600160a01b0384163b156115ab57604051630a85bd0160e11b81526001600160a01b0385169063150b7a02906114f990339089908890889060040161216e565b6020604051808303816000875af1925050508015611534575060408051601f3d908101601f19168201909252611531918101906121ab565b60015b611591573d808015611562576040519150601f19603f3d011682016040523d82523d6000602084013e611567565b606091505b5080516000036115895760405162461bcd60e51b815260040161050790612062565b805181602001fd5b6001600160e01b031916630a85bd0160e11b149050610cc4565b506001949350505050565b60606115c182610b80565b60006115d860408051602081019091526000815290565b905060008151116115f85760405180602001604052806000815250610971565b8061160284611988565b6040516020016116139291906120b4565b6040516020818303038152906040529392505050565b60006001600160e01b03198216637965db0b60e01b14806103d457506301ffc9a760e01b6001600160e01b03198316146103d4565b6060600061166d8360026121c8565b61167890600261204f565b67ffffffffffffffff81111561169057611690611d29565b6040519080825280601f01601f1916602001820160405280156116ba576020820181803683370190505b509050600360fc1b816000815181106116d5576116d5612158565b60200101906001600160f81b031916908160001a905350600f60fb1b8160018151811061170457611704612158565b60200101906001600160f81b031916908160001a90535060006117288460026121c8565b61173390600161204f565b90505b60018111156117ab576f181899199a1a9b1b9c1cb0b131b232b360811b85600f166010811061176757611767612158565b1a60f81b82828151811061177d5761177d612158565b60200101906001600160f81b031916908160001a90535060049490941c936117a4816121e7565b9050611736565b5083156109715760405162461bcd60e51b815260206004820181905260248201527f537472696e67733a20686578206c656e67746820696e73756666696369656e746044820152606401610507565b600081815260018301602052604081205480156118e357600061181e60018361203c565b85549091506000906118329060019061203c565b905081811461189757600086600001828154811061185257611852612158565b906000526020600020015490508087600001848154811061187557611875612158565b6000918252602080832090910192909255918252600188019052604090208390555b85548690806118a8576118a86121fe565b6001900381819060005260206000200160009055905585600101600086815260200190815260200160002060009055600193505050506103d4565b60009150506103d4565b60006118f882610873565b9050611905600083610bdf565b6001600160a01b038116600090815260cc6020526040812080546001929061192e90849061203c565b9091555050600082815260cb602052604080822080546001600160a01b0319169055518391906001600160a01b038416907fddf252ad1be2c89b69c2b068fc378daa952ba7f163c4a11628f55a4df523b3ef908390a45050565b6060816000036119af5750506040805180820190915260018152600360fc1b602082015290565b8160005b81156119d957806119c381612214565b91506119d29050600a83612243565b91506119b3565b60008167ffffffffffffffff8111156119f4576119f4611d29565b6040519080825280601f01601f191660200182016040528015611a1e576020820181803683370190505b5090505b8415610cc457611a3360018361203c565b9150611a40600a86612257565b611a4b90603061204f565b60f81b818381518110611a6057611a60612158565b60200101906001600160f81b031916908160001a905350611a82600a86612243565b9450611a22565b508054611a9590611e45565b6000825580601f10611aa5575050565b601f01602090049060005260206000209081019061087091905b80821115611ad35760008155600101611abf565b5090565b6001600160e01b03198116811461087057600080fd5b600060208284031215611aff57600080fd5b813561097181611ad7565b60005b83811015611b25578181015183820152602001611b0d565b50506000910152565b60008151808452611b46816020860160208601611b0a565b601f01601f19169290920160200192915050565b6020815260006109716020830184611b2e565b600060208284031215611b7f57600080fd5b5035919050565b80356001600160a01b0381168114611b9d57600080fd5b919050565b60008060408385031215611bb557600080fd5b611bbe83611b86565b946020939093013593505050565b600080600060408486031215611be157600080fd5b83359250602084013567ffffffffffffffff80821115611c0057600080fd5b818601915086601f830112611c1457600080fd5b813581811115611c2357600080fd5b876020828501011115611c3557600080fd5b6020830194508093505050509250925092565b600080600060608486031215611c5d57600080fd5b611c6684611b86565b9250611c7460208501611b86565b9150604084013590509250925092565b60008060408385031215611c9757600080fd5b82359150611ca760208401611b86565b90509250929050565b600060208284031215611cc257600080fd5b61097182611b86565b60008060408385031215611cde57600080fd5b50508035926020909101359150565b60008060408385031215611d0057600080fd5b611d0983611b86565b915060208301358015158114611d1e57600080fd5b809150509250929050565b634e487b7160e01b600052604160045260246000fd5b60008060008060808587031215611d5557600080fd5b611d5e85611b86565b9350611d6c60208601611b86565b925060408501359150606085013567ffffffffffffffff80821115611d9057600080fd5b818701915087601f830112611da457600080fd5b813581811115611db657611db6611d29565b604051601f8201601f19908116603f01168101908382118183101715611dde57611dde611d29565b816040528281528a6020848701011115611df757600080fd5b82602086016020830137600060208483010152809550505050505092959194509250565b60008060408385031215611e2e57600080fd5b611e3783611b86565b9150611ca760208401611b86565b600181811c90821680611e5957607f821691505b602082108103611e7957634e487b7160e01b600052602260045260246000fd5b50919050565b6020808252602e908201527f4552433732313a2063616c6c6572206973206e6f7420746f6b656e206f776e6560408201526d1c881b9bdc88185c1c1c9bdd995960921b606082015260800190565b6020808252602b908201527f496e697469616c697a61626c653a20636f6e7472616374206973206e6f74206960408201526a6e697469616c697a696e6760a81b606082015260800190565b601f8211156105a857600081815260208120601f850160051c81016020861015611f3f5750805b601f850160051c820191505b81811015611f5e57828155600101611f4b565b505050505050565b815167ffffffffffffffff811115611f8057611f80611d29565b611f9481611f8e8454611e45565b84611f18565b602080601f831160018114611fc95760008415611fb15750858301515b600019600386901b1c1916600185901b178555611f5e565b600085815260208120601f198616915b82811015611ff857888601518255948401946001909101908401611fd9565b50858210156120165787850151600019600388901b60f8161c191681555b5050505050600190811b01905550565b634e487b7160e01b600052601160045260246000fd5b818103818111156103d4576103d4612026565b808201808211156103d4576103d4612026565b60208082526032908201527f4552433732313a207472616e7366657220746f206e6f6e20455243373231526560408201527131b2b4bb32b91034b6b83632b6b2b73a32b960711b606082015260800190565b600083516120c6818460208801611b0a565b8351908301906120da818360208801611b0a565b01949350505050565b7f416363657373436f6e74726f6c3a206163636f756e742000000000000000000081526000835161211b816017850160208801611b0a565b7001034b99036b4b9b9b4b733903937b6329607d1b601791840191820152835161214c816028840160208801611b0a565b01602801949350505050565b634e487b7160e01b600052603260045260246000fd5b6001600160a01b03858116825284166020820152604081018390526080606082018190526000906121a190830184611b2e565b9695505050505050565b6000602082840312156121bd57600080fd5b815161097181611ad7565b60008160001904831182151516156121e2576121e2612026565b500290565b6000816121f6576121f6612026565b506000190190565b634e487b7160e01b600052603160045260246000fd5b60006001820161222657612226612026565b5060010190565b634e487b7160e01b600052601260045260246000fd5b6000826122525761225261222d565b500490565b6000826122665761226661222d565b50069056fea2646970667358221220bb44f536146db5420851b152450b1223d86620092917329913619d017d6b2d0264736f6c63430008100033496e697469616c697a61626c653a20636f6e7472616374206973206e6f7420699f2df0fed2c77648de5860a4cc508cd0818c85b8b8a1ab4ceeef8d981c8956a67164765a3c8bd2513bdfa0c90f1bee9606e920fbf2c9071f310263fbd818684ba2646970667358221220f4b1a553d0216fad85e7fc3c0111d94167f74f5dbb1455424ba58f7cf0009cba64736f6c63430008100033",
  "linkReferences": {},
  "deployedLinkReferences": {}
}