{
  "_format": "hh-sol-artifact-1",
  "contractName": "TokenManagerLinker",
  "sourceName": "contracts/schain/TokenManagerLinker.sol",
  "abi": [
    {
      "anonymous": false,
      "inputs": [
        {
          "indexed": false,
          "internalType": "uint8",
          "name": "version",
          "type": "uint8"
        }
      ],
      "name": "Initialized",
      "type": "event"
    },
    {
      "anonymous": false,
      "inputs": [
        {
          "indexed": true,
          "internalType": "bytes32",
          "name": "role",
          "type": "bytes32"
        },
        {
          "indexed": true,
          "internalType": "bytes32",
          "name": "previousAdminRole",
          "type": "bytes32"
        },
        {
          "indexed": true,
          "internalType": "bytes32",
          "name": "newAdminRole",
          "type": "bytes32"
        }
      ],
      "name": "RoleAdminChanged",
      "type": "event"
    },
    {
      "anonymous": false,
      "inputs": [
        {
          "indexed": true,
          "internalType": "bytes32",
          "name": "role",
          "type": "bytes32"
        },
        {
          "indexed": true,
          "internalType": "address",
          "name": "account",
          "type": "address"
        },
        {
          "indexed": true,
          "internalType": "address",
          "name": "sender",
          "type": "address"
        }
      ],
      "name": "RoleGranted",
      "type": "event"
    },
    {
      "anonymous": false,
      "inputs": [
        {
          "indexed": true,
          "internalType": "bytes32",
          "name": "role",
          "type": "bytes32"
        },
        {
          "indexed": true,
          "internalType": "address",
          "name": "account",
          "type": "address"
        },
        {
          "indexed": true,
          "internalType": "address",
          "name": "sender",
          "type": "address"
        }
      ],
      "name": "RoleRevoked",
      "type": "event"
    },
    {
      "inputs": [],
      "name": "DEFAULT_ADMIN_ROLE",
      "outputs": [
        {
          "internalType": "bytes32",
          "name": "",
          "type": "bytes32"
        }
      ],
      "stateMutability": "view",
      "type": "function"
    },
    {
      "inputs": [],
      "name": "MAINNET_HASH",
      "outputs": [
        {
          "internalType": "bytes32",
          "name": "",
          "type": "bytes32"
        }
      ],
      "stateMutability": "view",
      "type": "function"
    },
    {
      "inputs": [],
      "name": "MAINNET_NAME",
      "outputs": [
        {
          "internalType": "string",
          "name": "",
          "type": "string"
        }
      ],
      "stateMutability": "view",
      "type": "function"
    },
    {
      "inputs": [],
      "name": "REGISTRAR_ROLE",
      "outputs": [
        {
          "internalType": "bytes32",
          "name": "",
          "type": "bytes32"
        }
      ],
      "stateMutability": "view",
      "type": "function"
    },
    {
      "inputs": [
        {
          "internalType": "string",
          "name": "schainName",
          "type": "string"
        }
      ],
      "name": "connectSchain",
      "outputs": [],
      "stateMutability": "nonpayable",
      "type": "function"
    },
    {
      "inputs": [
        {
          "internalType": "string",
          "name": "schainName",
          "type": "string"
        }
      ],
      "name": "disconnectSchain",
      "outputs": [],
      "stateMutability": "nonpayable",
      "type": "function"
    },
    {
      "inputs": [
        {
          "internalType": "bytes32",
          "name": "role",
          "type": "bytes32"
        }
      ],
      "name": "getRoleAdmin",
      "outputs": [
        {
          "internalType": "bytes32",
          "name": "",
          "type": "bytes32"
        }
      ],
      "stateMutability": "view",
      "type": "function"
    },
    {
      "inputs": [
        {
          "internalType": "bytes32",
          "name": "role",
          "type": "bytes32"
        },
        {
          "internalType": "uint256",
          "name": "index",
          "type": "uint256"
        }
      ],
      "name": "getRoleMember",
      "outputs": [
        {
          "internalType": "address",
          "name": "",
          "type": "address"
        }
      ],
      "stateMutability": "view",
      "type": "function"
    },
    {
      "inputs": [
        {
          "internalType": "bytes32",
          "name": "role",
          "type": "bytes32"
        }
      ],
      "name": "getRoleMemberCount",
      "outputs": [
        {
          "internalType": "uint256",
          "name": "",
          "type": "uint256"
        }
      ],
      "stateMutability": "view",
      "type": "function"
    },
    {
      "inputs": [
        {
          "internalType": "bytes32",
          "name": "role",
          "type": "bytes32"
        },
        {
          "internalType": "address",
          "name": "account",
          "type": "address"
        }
      ],
      "name": "grantRole",
      "outputs": [],
      "stateMutability": "nonpayable",
      "type": "function"
    },
    {
      "inputs": [
        {
          "internalType": "bytes32",
          "name": "role",
          "type": "bytes32"
        },
        {
          "internalType": "address",
          "name": "account",
          "type": "address"
        }
      ],
      "name": "hasRole",
      "outputs": [
        {
          "internalType": "bool",
          "name": "",
          "type": "bool"
        }
      ],
      "stateMutability": "view",
      "type": "function"
    },
    {
      "inputs": [
        {
          "internalType": "string",
          "name": "schainName",
          "type": "string"
        }
      ],
      "name": "hasSchain",
      "outputs": [
        {
          "internalType": "bool",
          "name": "connected",
          "type": "bool"
        }
      ],
      "stateMutability": "view",
      "type": "function"
    },
    {
      "inputs": [
        {
          "internalType": "contract ITokenManager",
          "name": "tokenManager",
          "type": "address"
        }
      ],
      "name": "hasTokenManager",
      "outputs": [
        {
          "internalType": "bool",
          "name": "",
          "type": "bool"
        }
      ],
      "stateMutability": "view",
      "type": "function"
    },
    {
      "inputs": [
        {
          "internalType": "contract IMessageProxyForSchain",
          "name": "newMessageProxyAddress",
          "type": "address"
        },
        {
          "internalType": "address",
          "name": "linker",
          "type": "address"
        }
      ],
      "name": "initialize",
      "outputs": [],
      "stateMutability": "nonpayable",
      "type": "function"
    },
    {
      "inputs": [],
      "name": "linkerAddress",
      "outputs": [
        {
          "internalType": "address",
          "name": "",
          "type": "address"
        }
      ],
      "stateMutability": "view",
      "type": "function"
    },
    {
      "inputs": [],
      "name": "messageProxy",
      "outputs": [
        {
          "internalType": "contract IMessageProxyForSchain",
          "name": "",
          "type": "address"
        }
      ],
      "stateMutability": "view",
      "type": "function"
    },
    {
      "inputs": [
        {
          "internalType": "contract ITokenManager",
          "name": "newTokenManager",
          "type": "address"
        }
      ],
      "name": "registerTokenManager",
      "outputs": [],
      "stateMutability": "nonpayable",
      "type": "function"
    },
    {
      "inputs": [
        {
          "internalType": "contract ITokenManager",
          "name": "tokenManagerAddress",
          "type": "address"
        }
      ],
      "name": "removeTokenManager",
      "outputs": [],
      "stateMutability": "nonpayable",
      "type": "function"
    },
    {
      "inputs": [
        {
          "internalType": "bytes32",
          "name": "role",
          "type": "bytes32"
        },
        {
          "internalType": "address",
          "name": "account",
          "type": "address"
        }
      ],
      "name": "renounceRole",
      "outputs": [],
      "stateMutability": "nonpayable",
      "type": "function"
    },
    {
      "inputs": [
        {
          "internalType": "bytes32",
          "name": "role",
          "type": "bytes32"
        },
        {
          "internalType": "address",
          "name": "account",
          "type": "address"
        }
      ],
      "name": "revokeRole",
      "outputs": [],
      "stateMutability": "nonpayable",
      "type": "function"
    },
    {
      "inputs": [
        {
          "internalType": "bytes4",
          "name": "interfaceId",
          "type": "bytes4"
        }
      ],
      "name": "supportsInterface",
      "outputs": [
        {
          "internalType": "bool",
          "name": "",
          "type": "bool"
        }
      ],
      "stateMutability": "view",
      "type": "function"
    },
    {
      "inputs": [
        {
          "internalType": "uint256",
          "name": "",
          "type": "uint256"
        }
      ],
      "name": "tokenManagers",
      "outputs": [
        {
          "internalType": "contract ITokenManager",
          "name": "",
          "type": "address"
        }
      ],
      "stateMutability": "view",
      "type": "function"
    }
  ],
  "bytecode": "0x608060405234801561001057600080fd5b506116ea806100206000396000f3fe608060405234801561001057600080fd5b50600436106101425760003560e01c80635573b8b6116100b8578063a217fddf1161007c578063a217fddf146102d9578063b9727f96146102e1578063ca15c873146102f4578063d547741f14610307578063e953c9921461031a578063f68e95531461032d57600080fd5b80635573b8b61461027a57806364a5142f1461028d5780639010d07c146102a057806391d14854146102b3578063990c85e6146102c657600080fd5b8063291f60d31161010a578063291f60d3146101d05780632f2ff15d146101e357806336568abe146101f657806341ecadf914610209578063485cc9551461023457806350f442801461024757600080fd5b806301ffc9a714610147578063041f4c9b1461016f578063173df64b14610182578063248a9ca31461019757806328c5e182146101c8575b600080fd5b61015a6101553660046112b6565b610342565b60405190151581526020015b60405180910390f35b61015a61017d3660046112e0565b61036d565b6101956101903660046112e0565b6104ad565b005b6101ba6101a5366004611352565b60009081526065602052604090206001015490565b604051908152602001610166565b6101ba6105f5565b6101956101de366004611380565b61063e565b6101956101f136600461139d565b6106c4565b61019561020436600461139d565b6106ee565b61021c610217366004611352565b61076c565b6040516001600160a01b039091168152602001610166565b6101956102423660046113cd565b610796565b61026d6040518060400160405280600781526020016613585a5b9b995d60ca1b81525081565b604051610166919061141f565b60c95461021c906001600160a01b031681565b60ca5461021c906001600160a01b031681565b61021c6102ae366004611452565b61095b565b61015a6102c136600461139d565b61097a565b6101956102d43660046112e0565b6109a5565b6101ba600081565b6101956102ef366004611380565b610b20565b6101ba610302366004611352565b610c76565b61019561031536600461139d565b610c8d565b61015a610328366004611380565b610cb2565b6101ba60008051602061169583398151915281565b60006001600160e01b03198216635a05180f60e01b1480610367575061036782610d20565b92915050565b60cb5460019060005b8181101561042957828015610415575060cb818154811061039957610399611474565b6000918252602090912001546040516339927cf960e01b81526001600160a01b03909116906339927cf9906103d490889088906004016114b3565b602060405180830381865afa1580156103f1573d6000803e3d6000fd5b505050506040513d601f19601f8201168201806040525081019061041591906114c7565b925080610421816114ff565b915050610376565b508180156104a5575060c954604051634ccd5cd560e11b81526001600160a01b039091169063999ab9aa9061046490879087906004016114b3565b602060405180830381865afa158015610481573d6000803e3d6000fd5b505050506040513d601f19601f820116820180604052508101906104a591906114c7565b949350505050565b6104c56000805160206116958339815191523361097a565b6104ea5760405162461bcd60e51b81526004016104e190611518565b60405180910390fd5b60cb5460005b8181101561058b5760cb818154811061050b5761050b611474565b600091825260209091200154604051633038c4b760e21b81526001600160a01b039091169063c0e312dc9061054690879087906004016114b3565b600060405180830381600087803b15801561056057600080fd5b505af1158015610574573d6000803e3d6000fd5b505050508080610583906114ff565b9150506104f0565b5060c954604051633cdd2cc360e01b81526001600160a01b0390911690633cdd2cc3906105be90869086906004016114b3565b600060405180830381600087803b1580156105d857600080fd5b505af11580156105ec573d6000803e3d6000fd5b50505050505050565b6040518060400160405280600781526020016613585a5b9b995d60ca1b815250604051602001610625919061154f565b6040516020818303038152906040528051906020012081565b6106566000805160206116958339815191523361097a565b6106725760405162461bcd60e51b81526004016104e190611518565b60cb80546001810182556000919091527fa7ce836d032b2bf62b7e2097a8e0a6d8aeb35405ad15271e96d3b0188a1d06fb0180546001600160a01b0319166001600160a01b0392909216919091179055565b6000828152606560205260409020600101546106df81610d55565b6106e98383610d62565b505050565b6001600160a01b038116331461075e5760405162461bcd60e51b815260206004820152602f60248201527f416363657373436f6e74726f6c3a2063616e206f6e6c792072656e6f756e636560448201526e103937b632b9903337b91039b2b63360891b60648201526084016104e1565b6107688282610d84565b5050565b60cb818154811061077c57600080fd5b6000918252602090912001546001600160a01b0316905081565b600054610100900460ff16158080156107b65750600054600160ff909116105b806107d05750303b1580156107d0575060005460ff166001145b6108335760405162461bcd60e51b815260206004820152602e60248201527f496e697469616c697a61626c653a20636f6e747261637420697320616c72656160448201526d191e481a5b9a5d1a585b1a5e995960921b60648201526084016104e1565b6000805460ff191660011790558015610856576000805461ff0019166101001790555b6001600160a01b0382166108ac5760405162461bcd60e51b815260206004820152601c60248201527f4c696e6b657220616464726573732068617320746f206265207365740000000060448201526064016104e1565b6108b4610da6565b6108bf600033610e13565b6108d760008051602061169583398151915233610e13565b60c980546001600160a01b038086166001600160a01b03199283161790925560ca80549285169290911691909117905560cc805460ff1916905580156106e9576000805461ff0019169055604051600181527f7f26b83ff96e1f2b6a682f133852f6798a09c465da95921460cefb38474024989060200160405180910390a1505050565b60008281526097602052604081206109739083610e1d565b9392505050565b60009182526065602090815260408084206001600160a01b0393909316845291905290205460ff1690565b6109bd6000805160206116958339815191523361097a565b6109d95760405162461bcd60e51b81526004016104e190611518565b60005b60cb54811015610ab75760cb81815481106109f9576109f9611474565b9060005260206000200160009054906101000a90046001600160a01b03166001600160a01b031663cb703bff848460cb8581548110610a3a57610a3a611474565b6000918252602090912001546040516001600160e01b031960e086901b168152610a729392916001600160a01b03169060040161156b565b600060405180830381600087803b158015610a8c57600080fd5b505af1158015610aa0573d6000803e3d6000fd5b505050508080610aaf906114ff565b9150506109dc565b5060c95460405163f2f6360560e01b81526001600160a01b039091169063f2f6360590610aea90859085906004016114b3565b600060405180830381600087803b158015610b0457600080fd5b505af1158015610b18573d6000803e3d6000fd5b505050505050565b610b386000805160206116958339815191523361097a565b610b545760405162461bcd60e51b81526004016104e190611518565b60cb546000905b80821015610bac57826001600160a01b031660cb8381548110610b8057610b80611474565b6000918252602090912001546001600160a01b031614610bac5781610ba4816114ff565b925050610b5b565b808210156106e957610bbf600182611597565b821015610c3e5760cb610bd3600183611597565b81548110610be357610be3611474565b60009182526020909120015460cb80546001600160a01b039092169184908110610c0f57610c0f611474565b9060005260206000200160006101000a8154816001600160a01b0302191690836001600160a01b031602179055505b60cb805480610c4f57610c4f6115aa565b600082815260209020810160001990810180546001600160a01b0319169055019055505050565b600081815260976020526040812061036790610e29565b600082815260656020526040902060010154610ca881610d55565b6106e98383610d84565b60cb5460009081905b80821015610d1657836001600160a01b031660cb8381548110610ce057610ce0611474565b6000918252602090912001546001600160a01b031603610d04575060019392505050565b81610d0e816114ff565b925050610cbb565b5060009392505050565b60006001600160e01b03198216637965db0b60e01b148061036757506301ffc9a760e01b6001600160e01b0319831614610367565b610d5f8133610e33565b50565b610d6c8282610e97565b60008281526097602052604090206106e99082610f1d565b610d8e8282610f32565b60008281526097602052604090206106e99082610f99565b600054610100900460ff16610e115760405162461bcd60e51b815260206004820152602b60248201527f496e697469616c697a61626c653a20636f6e7472616374206973206e6f74206960448201526a6e697469616c697a696e6760a81b60648201526084016104e1565b565b6107688282610d62565b60006109738383610fae565b6000610367825490565b610e3d828261097a565b61076857610e55816001600160a01b03166014610fd8565b610e60836020610fd8565b604051602001610e719291906115c0565b60408051601f198184030181529082905262461bcd60e51b82526104e19160040161141f565b610ea1828261097a565b6107685760008281526065602090815260408083206001600160a01b03851684529091529020805460ff19166001179055610ed93390565b6001600160a01b0316816001600160a01b0316837f2f8788117e7eff1d82e926ec794901d17c78024a50270940304540a733656f0d60405160405180910390a45050565b6000610973836001600160a01b038416611174565b610f3c828261097a565b156107685760008281526065602090815260408083206001600160a01b0385168085529252808320805460ff1916905551339285917ff6391f5c32d9c69d2a47ea670b442974b53935d1edc7fd64eb21e047a839171b9190a45050565b6000610973836001600160a01b0384166111c3565b6000826000018281548110610fc557610fc5611474565b9060005260206000200154905092915050565b60606000610fe7836002611635565b610ff2906002611654565b67ffffffffffffffff81111561100a5761100a611667565b6040519080825280601f01601f191660200182016040528015611034576020820181803683370190505b509050600360fc1b8160008151811061104f5761104f611474565b60200101906001600160f81b031916908160001a905350600f60fb1b8160018151811061107e5761107e611474565b60200101906001600160f81b031916908160001a90535060006110a2846002611635565b6110ad906001611654565b90505b6001811115611125576f181899199a1a9b1b9c1cb0b131b232b360811b85600f16601081106110e1576110e1611474565b1a60f81b8282815181106110f7576110f7611474565b60200101906001600160f81b031916908160001a90535060049490941c9361111e8161167d565b90506110b0565b5083156109735760405162461bcd60e51b815260206004820181905260248201527f537472696e67733a20686578206c656e67746820696e73756666696369656e7460448201526064016104e1565b60008181526001830160205260408120546111bb57508154600181810184556000848152602080822090930184905584548482528286019093526040902091909155610367565b506000610367565b600081815260018301602052604081205480156112ac5760006111e7600183611597565b85549091506000906111fb90600190611597565b905081811461126057600086600001828154811061121b5761121b611474565b906000526020600020015490508087600001848154811061123e5761123e611474565b6000918252602080832090910192909255918252600188019052604090208390555b8554869080611271576112716115aa565b600190038181906000526020600020016000905590558560010160008681526020019081526020016000206000905560019350505050610367565b6000915050610367565b6000602082840312156112c857600080fd5b81356001600160e01b03198116811461097357600080fd5b600080602083850312156112f357600080fd5b823567ffffffffffffffff8082111561130b57600080fd5b818501915085601f83011261131f57600080fd5b81358181111561132e57600080fd5b86602082850101111561134057600080fd5b60209290920196919550909350505050565b60006020828403121561136457600080fd5b5035919050565b6001600160a01b0381168114610d5f57600080fd5b60006020828403121561139257600080fd5b81356109738161136b565b600080604083850312156113b057600080fd5b8235915060208301356113c28161136b565b809150509250929050565b600080604083850312156113e057600080fd5b82356113eb8161136b565b915060208301356113c28161136b565b60005b838110156114165781810151838201526020016113fe565b50506000910152565b602081526000825180602084015261143e8160408501602087016113fb565b601f01601f19169190910160400192915050565b6000806040838503121561146557600080fd5b50508035926020909101359150565b634e487b7160e01b600052603260045260246000fd5b81835281816020850137506000828201602090810191909152601f909101601f19169091010190565b6020815260006104a560208301848661148a565b6000602082840312156114d957600080fd5b8151801515811461097357600080fd5b634e487b7160e01b600052601160045260246000fd5b600060018201611511576115116114e9565b5060010190565b6020808252601a908201527f5245474953545241525f524f4c45206973207265717569726564000000000000604082015260600190565b600082516115618184602087016113fb565b9190910192915050565b60408152600061157f60408301858761148a565b905060018060a01b0383166020830152949350505050565b81810381811115610367576103676114e9565b634e487b7160e01b600052603160045260246000fd5b7f416363657373436f6e74726f6c3a206163636f756e74200000000000000000008152600083516115f88160178501602088016113fb565b7001034b99036b4b9b9b4b733903937b6329607d1b60179184019182015283516116298160288401602088016113fb565b01602801949350505050565b600081600019048311821515161561164f5761164f6114e9565b500290565b80820180821115610367576103676114e9565b634e487b7160e01b600052604160045260246000fd5b60008161168c5761168c6114e9565b50600019019056feedcc084d3dcd65a1f7f23c65c46722faca6953d28e43150a467cf43e5c309238a26469706673582212205c3ac6ab85f1fd2aa105748f1966cb6a752e6f4f19ee82ab54ceea3706fb192a64736f6c63430008100033",
  "linkReferences": {},
  "deployedLinkReferences": {}
}