{
  "contractName": "DepositBox",
  "abi": [
    {
      "constant": true,
      "inputs": [],
      "name": "GAS_AMOUNT_POST_MESSAGE",
      "outputs": [
        {
          "name": "",
          "type": "uint256"
        }
      ],
      "payable": false,
      "stateMutability": "view",
      "type": "function"
    },
    {
      "constant": true,
      "inputs": [
        {
          "name": "",
          "type": "bytes32"
        }
      ],
      "name": "tokenManagerAddresses",
      "outputs": [
        {
          "name": "",
          "type": "address"
        }
      ],
      "payable": false,
      "stateMutability": "view",
      "type": "function"
    },
    {
      "constant": true,
      "inputs": [],
      "name": "proxyAddress",
      "outputs": [
        {
          "name": "",
          "type": "address"
        }
      ],
      "payable": false,
      "stateMutability": "view",
      "type": "function"
    },
    {
      "constant": true,
      "inputs": [],
      "name": "owner",
      "outputs": [
        {
          "name": "",
          "type": "address"
        }
      ],
      "payable": false,
      "stateMutability": "view",
      "type": "function"
    },
    {
      "constant": false,
      "inputs": [
        {
          "name": "newOwner",
          "type": "address"
        }
      ],
      "name": "transferOwnership",
      "outputs": [],
      "payable": false,
      "stateMutability": "nonpayable",
      "type": "function"
    },
    {
      "inputs": [
        {
          "name": "newProxyAddress",
          "type": "address"
        }
      ],
      "payable": false,
      "stateMutability": "nonpayable",
      "type": "constructor"
    },
    {
      "payable": false,
      "stateMutability": "nonpayable",
      "type": "fallback"
    },
    {
      "anonymous": false,
      "inputs": [
        {
          "indexed": false,
          "name": "sender",
          "type": "address"
        },
        {
          "indexed": false,
          "name": "FromSchainID",
          "type": "string"
        },
        {
          "indexed": false,
          "name": "to",
          "type": "address"
        },
        {
          "indexed": false,
          "name": "amount",
          "type": "uint256"
        }
      ],
      "name": "MoneyReceivedMessage",
      "type": "event"
    },
    {
      "constant": false,
      "inputs": [
        {
          "name": "schainID",
          "type": "string"
        },
        {
          "name": "tokenManagerAddress",
          "type": "address"
        }
      ],
      "name": "addSchain",
      "outputs": [],
      "payable": false,
      "stateMutability": "nonpayable",
      "type": "function"
    },
    {
      "constant": false,
      "inputs": [
        {
          "name": "schainID",
          "type": "string"
        },
        {
          "name": "to",
          "type": "address"
        }
      ],
      "name": "deposit",
      "outputs": [],
      "payable": true,
      "stateMutability": "payable",
      "type": "function"
    },
    {
      "constant": false,
      "inputs": [
        {
          "name": "sender",
          "type": "address"
        },
        {
          "name": "fromSchainID",
          "type": "string"
        },
        {
          "name": "to",
          "type": "address"
        },
        {
          "name": "amount",
          "type": "uint256"
        }
      ],
      "name": "postMessage",
      "outputs": [],
      "payable": false,
      "stateMutability": "nonpayable",
      "type": "function"
    }
  ],
  "bytecode": "0x608060405234801561001057600080fd5b5060405160208061137483398101806040528101908080519060200190929190505050336000806101000a81548173ffffffffffffffffffffffffffffffffffffffff021916908373ffffffffffffffffffffffffffffffffffffffff16021790555080600160006101000a81548173ffffffffffffffffffffffffffffffffffffffff021916908373ffffffffffffffffffffffffffffffffffffffff160217905550506112b0806100c46000396000f30060806040526004361061008e576000357c0100000000000000000000000000000000000000000000000000000000900463ffffffff168063037489c0146100a057806310f01f4e146100cb57806323f5c02d1461013c5780638da5cb5b146101935780638de73f8b146101ea5780639be37a971461029d578063b4e91a3214610319578063f2fde38b146103a2575b34801561009a57600080fd5b50600080fd5b3480156100ac57600080fd5b506100b56103e5565b6040518082815260200191505060405180910390f35b3480156100d757600080fd5b506100fa60048036038101908080356000191690602001909291905050506103eb565b604051808273ffffffffffffffffffffffffffffffffffffffff1673ffffffffffffffffffffffffffffffffffffffff16815260200191505060405180910390f35b34801561014857600080fd5b5061015161041e565b604051808273ffffffffffffffffffffffffffffffffffffffff1673ffffffffffffffffffffffffffffffffffffffff16815260200191505060405180910390f35b34801561019f57600080fd5b506101a8610444565b604051808273ffffffffffffffffffffffffffffffffffffffff1673ffffffffffffffffffffffffffffffffffffffff16815260200191505060405180910390f35b3480156101f657600080fd5b5061029b600480360381019080803573ffffffffffffffffffffffffffffffffffffffff169060200190929190803590602001908201803590602001908080601f0160208091040260200160405190810160405280939291908181526020018383808284378201915050505050509192919290803573ffffffffffffffffffffffffffffffffffffffff16906020019092919080359060200190929190505050610469565b005b610317600480360381019080803590602001908201803590602001908080601f0160208091040260200160405190810160405280939291908181526020018383808284378201915050505050509192919290803573ffffffffffffffffffffffffffffffffffffffff169060200190929190505050610999565b005b34801561032557600080fd5b506103a0600480360381019080803590602001908201803590602001908080601f0160208091040260200160405190810160405280939291908181526020018383808284378201915050505050509192919290803573ffffffffffffffffffffffffffffffffffffffff169060200190929190505050610efe565b005b3480156103ae57600080fd5b506103e3600480360381019080803573ffffffffffffffffffffffffffffffffffffffff1690602001909291905050506111aa565b005b61d6d881565b60026020528060005260406000206000915054906101000a900473ffffffffffffffffffffffffffffffffffffffff1681565b600160009054906101000a900473ffffffffffffffffffffffffffffffffffffffff1681565b6000809054906101000a900473ffffffffffffffffffffffffffffffffffffffff1681565b600160009054906101000a900473ffffffffffffffffffffffffffffffffffffffff1673ffffffffffffffffffffffffffffffffffffffff163373ffffffffffffffffffffffffffffffffffffffff161415156104c557600080fd5b60405160200180807f4d61696e6e65740000000000000000000000000000000000000000000000000081525060070190506040516020818303038152906040526040518082805190602001908083835b60208310151561053a5780518252602082019150602081019050602083039250610515565b6001836020036101000a038019825116818451168082178552505050505050905001915050604051809103902060001916836040516020018082805190602001908083835b6020831015156105a4578051825260208201915060208101905060208303925061057f565b6001836020036101000a0380198251168184511680821785525050505050509050019150506040516020818303038152906040526040518082805190602001908083835b60208310151561060d57805182526020820191506020810190506020830392506105e8565b6001836020036101000a0380198251168184511680821785525050505050509050019150506040518091039020600019161415151561064b57600080fd5b60026000846040516020018082805190602001908083835b6020831015156106885780518252602082019150602081019050602083039250610663565b6001836020036101000a0380198251168184511680821785525050505050509050019150506040516020818303038152906040526040518082805190602001908083835b6020831015156106f157805182526020820191506020810190506020830392506106cc565b6001836020036101000a03801982511681845116808217855250505050505090500191505060405180910390206000191660001916815260200190815260200160002060009054906101000a900473ffffffffffffffffffffffffffffffffffffffff1673ffffffffffffffffffffffffffffffffffffffff168473ffffffffffffffffffffffffffffffffffffffff1614151561078e57600080fd5b600073ffffffffffffffffffffffffffffffffffffffff168273ffffffffffffffffffffffffffffffffffffffff16141515156107ca57600080fd5b3a61d6d802811115156107dc57600080fd5b7f4c3076be8657a1b34c0622f8de677972389e896e3172457451ce078ecf8a44f484848484604051808573ffffffffffffffffffffffffffffffffffffffff1673ffffffffffffffffffffffffffffffffffffffff168152602001806020018473ffffffffffffffffffffffffffffffffffffffff1673ffffffffffffffffffffffffffffffffffffffff168152602001838152602001828103825285818151815260200191508051906020019080838360005b838110156108ab578082015181840152602081019050610890565b50505050905090810190601f1680156108d85780820380516001836020036101000a031916815260200191505b509550505050505060405180910390a18173ffffffffffffffffffffffffffffffffffffffff166108fc3a61d6d80283039081150290604051600060405180830381858888f19350505050151561092e57600080fd5b6000809054906101000a900473ffffffffffffffffffffffffffffffffffffffff1673ffffffffffffffffffffffffffffffffffffffff166108fc3a61d6d8029081150290604051600060405180830381858888f19350505050151561099357600080fd5b50505050565b60405160200180807f4d61696e6e65740000000000000000000000000000000000000000000000000081525060070190506040516020818303038152906040526040518082805190602001908083835b602083101515610a0e57805182526020820191506020810190506020830392506109e9565b6001836020036101000a038019825116818451168082178552505050505050905001915050604051809103902060001916826040516020018082805190602001908083835b602083101515610a785780518252602082019150602081019050602083039250610a53565b6001836020036101000a0380198251168184511680821785525050505050509050019150506040516020818303038152906040526040518082805190602001908083835b602083101515610ae15780518252602082019150602081019050602083039250610abc565b6001836020036101000a03801982511681845116808217855250505050505090500191505060405180910390206000191614151515610b1f57600080fd5b600073ffffffffffffffffffffffffffffffffffffffff1660026000846040516020018082805190602001908083835b602083101515610b745780518252602082019150602081019050602083039250610b4f565b6001836020036101000a0380198251168184511680821785525050505050509050019150506040516020818303038152906040526040518082805190602001908083835b602083101515610bdd5780518252602082019150602081019050602083039250610bb8565b6001836020036101000a03801982511681845116808217855250505050505090500191505060405180910390206000191660001916815260200190815260200160002060009054906101000a900473ffffffffffffffffffffffffffffffffffffffff1673ffffffffffffffffffffffffffffffffffffffff1614151515610c6457600080fd5b600034111515610c7357600080fd5b600160009054906101000a900473ffffffffffffffffffffffffffffffffffffffff1673ffffffffffffffffffffffffffffffffffffffff16635acbb72b8360026000866040516020018082805190602001908083835b602083101515610cef5780518252602082019150602081019050602083039250610cca565b6001836020036101000a0380198251168184511680821785525050505050509050019150506040516020818303038152906040526040518082805190602001908083835b602083101515610d585780518252602082019150602081019050602083039250610d33565b6001836020036101000a03801982511681845116808217855250505050505090500191505060405180910390206000191660001916815260200190815260200160002060009054906101000a900473ffffffffffffffffffffffffffffffffffffffff1634856040518563ffffffff167c010000000000000000000000000000000000000000000000000000000002815260040180806020018573ffffffffffffffffffffffffffffffffffffffff1673ffffffffffffffffffffffffffffffffffffffff1681526020018481526020018373ffffffffffffffffffffffffffffffffffffffff1673ffffffffffffffffffffffffffffffffffffffff168152602001828103825286818151815260200191508051906020019080838360005b83811015610e93578082015181840152602081019050610e78565b50505050905090810190601f168015610ec05780820380516001836020036101000a031916815260200191505b5095505050505050600060405180830381600087803b158015610ee257600080fd5b505af1158015610ef6573d6000803e3d6000fd5b505050505050565b600073ffffffffffffffffffffffffffffffffffffffff1660026000846040516020018082805190602001908083835b602083101515610f535780518252602082019150602081019050602083039250610f2e565b6001836020036101000a0380198251168184511680821785525050505050509050019150506040516020818303038152906040526040518082805190602001908083835b602083101515610fbc5780518252602082019150602081019050602083039250610f97565b6001836020036101000a03801982511681845116808217855250505050505090500191505060405180910390206000191660001916815260200190815260200160002060009054906101000a900473ffffffffffffffffffffffffffffffffffffffff1673ffffffffffffffffffffffffffffffffffffffff1614151561104257600080fd5b600073ffffffffffffffffffffffffffffffffffffffff168173ffffffffffffffffffffffffffffffffffffffff161415151561107e57600080fd5b8060026000846040516020018082805190602001908083835b6020831015156110bc5780518252602082019150602081019050602083039250611097565b6001836020036101000a0380198251168184511680821785525050505050509050019150506040516020818303038152906040526040518082805190602001908083835b6020831015156111255780518252602082019150602081019050602083039250611100565b6001836020036101000a03801982511681845116808217855250505050505090500191505060405180910390206000191660001916815260200190815260200160002060006101000a81548173ffffffffffffffffffffffffffffffffffffffff021916908373ffffffffffffffffffffffffffffffffffffffff1602179055505050565b6000809054906101000a900473ffffffffffffffffffffffffffffffffffffffff1673ffffffffffffffffffffffffffffffffffffffff163373ffffffffffffffffffffffffffffffffffffffff1614151561120557600080fd5b600073ffffffffffffffffffffffffffffffffffffffff168173ffffffffffffffffffffffffffffffffffffffff161415151561124157600080fd5b806000806101000a81548173ffffffffffffffffffffffffffffffffffffffff021916908373ffffffffffffffffffffffffffffffffffffffff160217905550505600a165627a7a72305820552398470d414fde6d91c03bdb7ed8a03ef18903c4079039342a930266652aa60029",
  "source": "pragma solidity ^0.4.24;\n\nimport \"./Ownable.sol\";\n\ninterface Proxy {\n    function postOutgoingMessage(string dstChainID, address dstContract, uint amount, address to) external;\n}\n\n// This contract runs on the main net and accepts deposits\n\ncontract DepositBox is Ownable {\n\n    //address public skaleManagerAddress;\n\n    address public proxyAddress;\n\n    mapping(bytes32 => address) public tokenManagerAddresses;\n\n    uint public constant GAS_AMOUNT_POST_MESSAGE = 55000; // 0;\n\n    //mapping(address => uint) public etherBox;\n\n    //mapping(address => mapping(address => uint)) public allowed;\n\n    event MoneyReceivedMessage(address sender, string FromSchainID, address to, uint amount);\n\n    /// Create a new deposit box\n    constructor(address newProxyAddress) public {\n        proxyAddress = newProxyAddress;\n    }\n\n    function() public {\n        revert();\n    }\n\n    function addSchain(string schainID, address tokenManagerAddress) public {\n        //require(msg.sender == owner);\n        require(tokenManagerAddresses[keccak256(abi.encodePacked(schainID))] == address(0));\n        require(tokenManagerAddress != address(0));\n        tokenManagerAddresses[keccak256(abi.encodePacked(schainID))] = tokenManagerAddress;\n    }\n\n    function deposit(string schainID, address to) public payable {\n        require(keccak256(abi.encodePacked(schainID)) != keccak256(abi.encodePacked(\"Mainnet\")));\n        require(tokenManagerAddresses[keccak256(abi.encodePacked(schainID))] != address(0));\n        require(msg.value > 0);\n        Proxy(proxyAddress).postOutgoingMessage(schainID, tokenManagerAddresses[keccak256(abi.encodePacked(schainID))], msg.value, to);\n    }\n\n    function postMessage(address sender, string fromSchainID, address to, uint amount) public {\n        require(msg.sender == proxyAddress);\n        require(keccak256(abi.encodePacked(fromSchainID)) != keccak256(abi.encodePacked(\"Mainnet\")));\n        require(sender == tokenManagerAddresses[keccak256(abi.encodePacked(fromSchainID))]);\n        require(to != address(0));\n        require(amount > GAS_AMOUNT_POST_MESSAGE * tx.gasprice);\n        emit MoneyReceivedMessage(sender, fromSchainID, to, amount);\n        //\n        //require(address(to).send(amount));\n        require(address(to).send(amount - GAS_AMOUNT_POST_MESSAGE * tx.gasprice));\n        require(address(owner).send(GAS_AMOUNT_POST_MESSAGE * tx.gasprice));\n    }\n}\n",
  "sourcePath": "/home/dmitry/projects/KTM/proxy/contracts/DepositBox.sol",
  "compiler": {
    "name": "solc",
    "version": "0.4.24+commit.e67f0147.Emscripten.clang"
  },
  "schemaVersion": "2.0.1",
  "updatedAt": "2019-02-03T10:59:05.661Z"
}