{
  "contractName": "MessageProxy",
  "abi": [
    {
      "constant": true,
      "inputs": [],
      "name": "owner",
      "outputs": [
        {
          "name": "",
          "type": "address"
        }
      ],
      "payable": false,
      "stateMutability": "view",
      "type": "function",
      "signature": "0x8da5cb5b"
    },
    {
      "constant": true,
      "inputs": [],
      "name": "chainID",
      "outputs": [
        {
          "name": "",
          "type": "string"
        }
      ],
      "payable": false,
      "stateMutability": "view",
      "type": "function",
      "signature": "0xadc879e9"
    },
    {
      "constant": true,
      "inputs": [
        {
          "name": "",
          "type": "bytes32"
        }
      ],
      "name": "connectedChains",
      "outputs": [
        {
          "name": "incomingMessageCounter",
          "type": "uint64"
        },
        {
          "name": "outgoingMessageCounter",
          "type": "uint64"
        },
        {
          "name": "inited",
          "type": "bool"
        }
      ],
      "payable": false,
      "stateMutability": "view",
      "type": "function",
      "signature": "0xe6ab8403"
    },
    {
      "inputs": [
        {
          "name": "newChainID",
          "type": "string"
        }
      ],
      "payable": false,
      "stateMutability": "nonpayable",
      "type": "constructor",
      "signature": "constructor"
    },
    {
      "anonymous": false,
      "inputs": [
        {
          "indexed": false,
          "name": "dstChain",
          "type": "string"
        },
        {
          "indexed": true,
          "name": "msgCounter",
          "type": "uint64"
        },
        {
          "indexed": true,
          "name": "srcContract",
          "type": "address"
        },
        {
          "indexed": false,
          "name": "dstContract",
          "type": "address"
        },
        {
          "indexed": false,
          "name": "to",
          "type": "address"
        },
        {
          "indexed": false,
          "name": "amount",
          "type": "uint256"
        }
      ],
      "name": "OutgoingMessage",
      "type": "event",
      "signature": "0x6d729d0c9e6523c4bb81ae9a08e6ffa441142c48febdd3493103cdee520c2680"
    },
    {
      "constant": false,
      "inputs": [
        {
          "name": "newChainID",
          "type": "string"
        },
        {
          "name": "newPublicKey",
          "type": "uint256[4]"
        }
      ],
      "name": "addConnectedChain",
      "outputs": [],
      "payable": false,
      "stateMutability": "nonpayable",
      "type": "function",
      "signature": "0x14b32bde"
    },
    {
      "constant": false,
      "inputs": [
        {
          "name": "newChainID",
          "type": "string"
        }
      ],
      "name": "removeConnectedChain",
      "outputs": [],
      "payable": false,
      "stateMutability": "nonpayable",
      "type": "function",
      "signature": "0x3cdd2cc3"
    },
    {
      "constant": false,
      "inputs": [
        {
          "name": "dstChainID",
          "type": "string"
        },
        {
          "name": "dstContract",
          "type": "address"
        },
        {
          "name": "amount",
          "type": "uint256"
        },
        {
          "name": "to",
          "type": "address"
        }
      ],
      "name": "postOutgoingMessage",
      "outputs": [],
      "payable": false,
      "stateMutability": "nonpayable",
      "type": "function",
      "signature": "0x5acbb72b"
    },
    {
      "constant": false,
      "inputs": [
        {
          "name": "srcChainID",
          "type": "string"
        },
        {
          "name": "startingCounter",
          "type": "uint64"
        },
        {
          "name": "senders",
          "type": "address[]"
        },
        {
          "name": "dstContracts",
          "type": "address[]"
        },
        {
          "name": "to",
          "type": "address[]"
        },
        {
          "name": "amount",
          "type": "uint256[]"
        }
      ],
      "name": "postIncomingMessages",
      "outputs": [],
      "payable": false,
      "stateMutability": "nonpayable",
      "type": "function",
      "signature": "0x8c319fbc"
    },
    {
      "constant": true,
      "inputs": [
        {
          "name": "dstChainID",
          "type": "string"
        }
      ],
      "name": "getOutgoingMessagesCounter",
      "outputs": [
        {
          "name": "",
          "type": "uint64"
        }
      ],
      "payable": false,
      "stateMutability": "view",
      "type": "function",
      "signature": "0x67ec6020"
    },
    {
      "constant": true,
      "inputs": [
        {
          "name": "srcChainID",
          "type": "string"
        }
      ],
      "name": "getIncomingMessagesCounter",
      "outputs": [
        {
          "name": "",
          "type": "uint64"
        }
      ],
      "payable": false,
      "stateMutability": "view",
      "type": "function",
      "signature": "0x77fe0f31"
    }
  ],
  "bytecode": "0x60806040523480156200001157600080fd5b50604051620023dc380380620023dc8339810180604052810190808051820192919050505062000040620003be565b33600160006101000a81548173ffffffffffffffffffffffffffffffffffffffff021916908373ffffffffffffffffffffffffffffffffffffffff160217905550816000908051906020019062000099929190620003e1565b5060405160200180807f4d61696e6e65740000000000000000000000000000000000000000000000000081525060070190506040516020818303038152906040526040518082805190602001908083835b602083101515620001115780518252602082019150602081019050602083039250620000ea565b6001836020036101000a038019825116818451168082178552505050505050905001915050604051809103902060001916826040516020018082805190602001908083835b6020831015156200017d578051825260208201915060208101905060208303925062000156565b6001836020036101000a0380198251168184511680821785525050505050509050019150506040516020818303038152906040526040518082805190602001908083835b602083101515620001e85780518252602082019150602081019050602083039250620001c1565b6001836020036101000a038019825116818451168082178552505050505050905001915050604051809103902060001916141515620003b657608060405190810160405280828152602001600067ffffffffffffffff168152602001600067ffffffffffffffff168152602001600115158152506002600060405160200180807f4d61696e6e65740000000000000000000000000000000000000000000000000081525060070190506040516020818303038152906040526040518082805190602001908083835b602083101515620002d75780518252602082019150602081019050602083039250620002b0565b6001836020036101000a0380198251168184511680821785525050505050509050019150506040518091039020600019166000191681526020019081526020016000206000820151816000019060046200033392919062000468565b5060208201518160040160006101000a81548167ffffffffffffffff021916908367ffffffffffffffff16021790555060408201518160040160086101000a81548167ffffffffffffffff021916908367ffffffffffffffff16021790555060608201518160040160106101000a81548160ff0219169083151502179055509050505b5050620004d5565b608060405190810160405280600490602082028038833980820191505090505090565b828054600181600116156101000203166002900490600052602060002090601f016020900481019282601f106200042457805160ff191683800117855562000455565b8280016001018555821562000455579182015b828111156200045457825182559160200191906001019062000437565b5b509050620004649190620004ad565b5090565b82600481019282156200049a579160200282015b82811115620004995782518255916020019190600101906200047c565b5b509050620004a99190620004ad565b5090565b620004d291905b80821115620004ce576000816000905550600101620004b4565b5090565b90565b611ef780620004e56000396000f300608060405260043610610099576000357c0100000000000000000000000000000000000000000000000000000000900463ffffffff16806314b32bde1461009e5780633cdd2cc3146101365780635acbb72b1461019f57806367ec60201461025257806377fe0f31146102e35780638c319fbc146103745780638da5cb5b146104fd578063adc879e914610554578063e6ab8403146105e4575b600080fd5b3480156100aa57600080fd5b50610134600480360381019080803590602001908201803590602001908080601f01602080910402602001604051908101604052809392919081815260200183838082843782019150505050505091929192908060800190600480602002604051908101604052809291908260046020028082843782019150505050509192919290505050610663565b005b34801561014257600080fd5b5061019d600480360381019080803590602001908201803590602001908080601f0160208091040260200160405190810160405280939291908181526020018383808284378201915050505050509192919290505050610b0c565b005b3480156101ab57600080fd5b50610250600480360381019080803590602001908201803590602001908080601f0160208091040260200160405190810160405280939291908181526020018383808284378201915050505050509192919290803573ffffffffffffffffffffffffffffffffffffffff16906020019092919080359060200190929190803573ffffffffffffffffffffffffffffffffffffffff169060200190929190505050610f3c565b005b34801561025e57600080fd5b506102b9600480360381019080803590602001908201803590602001908080601f01602080910402602001604051908101604052809392919081815260200183838082843782019150505050505091929192905050506113a9565b604051808267ffffffffffffffff1667ffffffffffffffff16815260200191505060405180910390f35b3480156102ef57600080fd5b5061034a600480360381019080803590602001908201803590602001908080601f01602080910402602001604051908101604052809392919081815260200183838082843782019150505050505091929192905050506115b8565b604051808267ffffffffffffffff1667ffffffffffffffff16815260200191505060405180910390f35b34801561038057600080fd5b506104fb600480360381019080803590602001908201803590602001908080601f0160208091040260200160405190810160405280939291908181526020018383808284378201915050505050509192919290803567ffffffffffffffff169060200190929190803590602001908201803590602001908080602002602001604051908101604052809392919081815260200183836020028082843782019150505050505091929192908035906020019082018035906020019080806020026020016040519081016040528093929190818152602001838360200280828437820191505050505050919291929080359060200190820180359060200190808060200260200160405190810160405280939291908181526020018383602002808284378201915050505050509192919290803590602001908201803590602001908080602002602001604051908101604052809392919081815260200183836020028082843782019150505050505091929192905050506117c7565b005b34801561050957600080fd5b50610512611d27565b604051808273ffffffffffffffffffffffffffffffffffffffff1673ffffffffffffffffffffffffffffffffffffffff16815260200191505060405180910390f35b34801561056057600080fd5b50610569611d4d565b6040518080602001828103825283818151815260200191508051906020019080838360005b838110156105a957808201518184015260208101905061058e565b50505050905090810190601f1680156105d65780820380516001836020036101000a031916815260200191505b509250505060405180910390f35b3480156105f057600080fd5b506106136004803603810190808035600019169060200190929190505050611deb565b604051808467ffffffffffffffff1667ffffffffffffffff1681526020018367ffffffffffffffff1667ffffffffffffffff16815260200182151515158152602001935050505060405180910390f35b600160009054906101000a900473ffffffffffffffffffffffffffffffffffffffff1673ffffffffffffffffffffffffffffffffffffffff163373ffffffffffffffffffffffffffffffffffffffff161415156106bf57600080fd5b60405160200180807f4d61696e6e65740000000000000000000000000000000000000000000000000081525060070190506040516020818303038152906040526040518082805190602001908083835b602083101515610734578051825260208201915060208101905060208303925061070f565b6001836020036101000a038019825116818451168082178552505050505050905001915050604051809103902060001916826040516020018082805190602001908083835b60208310151561079e5780518252602082019150602081019050602083039250610779565b6001836020036101000a0380198251168184511680821785525050505050509050019150506040516020818303038152906040526040518082805190602001908083835b60208310151561080757805182526020820191506020810190506020830392506107e2565b6001836020036101000a0380198251168184511680821785525050505050509050019150506040518091039020600019161415151561084557600080fd5b60026000836040516020018082805190602001908083835b602083101515610882578051825260208201915060208101905060208303925061085d565b6001836020036101000a0380198251168184511680821785525050505050509050019150506040516020818303038152906040526040518082805190602001908083835b6020831015156108eb57805182526020820191506020810190506020830392506108c6565b6001836020036101000a03801982511681845116808217855250505050505090500191505060405180910390206000191660001916815260200190815260200160002060040160109054906101000a900460ff1615151561094b57600080fd5b608060405190810160405280828152602001600067ffffffffffffffff168152602001600067ffffffffffffffff1681526020016001151581525060026000846040516020018082805190602001908083835b6020831015156109c3578051825260208201915060208101905060208303925061099e565b6001836020036101000a0380198251168184511680821785525050505050509050019150506040516020818303038152906040526040518082805190602001908083835b602083101515610a2c5780518252602082019150602081019050602083039250610a07565b6001836020036101000a038019825116818451168082178552505050505050905001915050604051809103902060001916600019168152602001908152602001600020600082015181600001906004610a86929190611e4a565b5060208201518160040160006101000a81548167ffffffffffffffff021916908367ffffffffffffffff16021790555060408201518160040160086101000a81548167ffffffffffffffff021916908367ffffffffffffffff16021790555060608201518160040160106101000a81548160ff0219169083151502179055509050505050565b600160009054906101000a900473ffffffffffffffffffffffffffffffffffffffff1673ffffffffffffffffffffffffffffffffffffffff163373ffffffffffffffffffffffffffffffffffffffff16141515610b6857600080fd5b60405160200180807f4d61696e6e65740000000000000000000000000000000000000000000000000081525060070190506040516020818303038152906040526040518082805190602001908083835b602083101515610bdd5780518252602082019150602081019050602083039250610bb8565b6001836020036101000a038019825116818451168082178552505050505050905001915050604051809103902060001916816040516020018082805190602001908083835b602083101515610c475780518252602082019150602081019050602083039250610c22565b6001836020036101000a0380198251168184511680821785525050505050509050019150506040516020818303038152906040526040518082805190602001908083835b602083101515610cb05780518252602082019150602081019050602083039250610c8b565b6001836020036101000a03801982511681845116808217855250505050505090500191505060405180910390206000191614151515610cee57600080fd5b60026000826040516020018082805190602001908083835b602083101515610d2b5780518252602082019150602081019050602083039250610d06565b6001836020036101000a0380198251168184511680821785525050505050509050019150506040516020818303038152906040526040518082805190602001908083835b602083101515610d945780518252602082019150602081019050602083039250610d6f565b6001836020036101000a03801982511681845116808217855250505050505090500191505060405180910390206000191660001916815260200190815260200160002060040160109054906101000a900460ff161515610df357600080fd5b60026000826040516020018082805190602001908083835b602083101515610e305780518252602082019150602081019050602083039250610e0b565b6001836020036101000a0380198251168184511680821785525050505050509050019150506040516020818303038152906040526040518082805190602001908083835b602083101515610e995780518252602082019150602081019050602083039250610e74565b6001836020036101000a03801982511681845116808217855250505050505090500191505060405180910390206000191660001916815260200190815260200160002060008082016000610eed9190611e8a565b6004820160006101000a81549067ffffffffffffffff02191690556004820160086101000a81549067ffffffffffffffff02191690556004820160106101000a81549060ff0219169055505050565b60026000856040516020018082805190602001908083835b602083101515610f795780518252602082019150602081019050602083039250610f54565b6001836020036101000a0380198251168184511680821785525050505050509050019150506040516020818303038152906040526040518082805190602001908083835b602083101515610fe25780518252602082019150602081019050602083039250610fbd565b6001836020036101000a03801982511681845116808217855250505050505090500191505060405180910390206000191660001916815260200190815260200160002060040160109054906101000a900460ff16151561104157600080fd5b60026000856040516020018082805190602001908083835b60208310151561107e5780518252602082019150602081019050602083039250611059565b6001836020036101000a0380198251168184511680821785525050505050509050019150506040516020818303038152906040526040518082805190602001908083835b6020831015156110e757805182526020820191506020810190506020830392506110c2565b6001836020036101000a038019825116818451168082178552505050505050905001915050604051809103902060001916600019168152602001908152602001600020600401600881819054906101000a900467ffffffffffffffff168092919060010191906101000a81548167ffffffffffffffff021916908367ffffffffffffffff160217905550503373ffffffffffffffffffffffffffffffffffffffff16600160026000876040516020018082805190602001908083835b6020831015156111c857805182526020820191506020810190506020830392506111a3565b6001836020036101000a0380198251168184511680821785525050505050509050019150506040516020818303038152906040526040518082805190602001908083835b602083101515611231578051825260208201915060208101905060208303925061120c565b6001836020036101000a03801982511681845116808217855250505050505090500191505060405180910390206000191660001916815260200190815260200160002060040160089054906101000a900467ffffffffffffffff160367ffffffffffffffff167f6d729d0c9e6523c4bb81ae9a08e6ffa441142c48febdd3493103cdee520c26808686858760405180806020018573ffffffffffffffffffffffffffffffffffffffff1673ffffffffffffffffffffffffffffffffffffffff1681526020018473ffffffffffffffffffffffffffffffffffffffff1673ffffffffffffffffffffffffffffffffffffffff168152602001838152602001828103825286818151815260200191508051906020019080838360005b8381101561136657808201518184015260208101905061134b565b50505050905090810190601f1680156113935780820380516001836020036101000a031916815260200191505b509550505050505060405180910390a350505050565b600060026000836040516020018082805190602001908083835b6020831015156113e857805182526020820191506020810190506020830392506113c3565b6001836020036101000a0380198251168184511680821785525050505050509050019150506040516020818303038152906040526040518082805190602001908083835b602083101515611451578051825260208201915060208101905060208303925061142c565b6001836020036101000a03801982511681845116808217855250505050505090500191505060405180910390206000191660001916815260200190815260200160002060040160109054906101000a900460ff1615156114b057600080fd5b60026000836040516020018082805190602001908083835b6020831015156114ed57805182526020820191506020810190506020830392506114c8565b6001836020036101000a0380198251168184511680821785525050505050509050019150506040516020818303038152906040526040518082805190602001908083835b6020831015156115565780518252602082019150602081019050602083039250611531565b6001836020036101000a03801982511681845116808217855250505050505090500191505060405180910390206000191660001916815260200190815260200160002060040160089054906101000a900467ffffffffffffffff169050919050565b600060026000836040516020018082805190602001908083835b6020831015156115f757805182526020820191506020810190506020830392506115d2565b6001836020036101000a0380198251168184511680821785525050505050509050019150506040516020818303038152906040526040518082805190602001908083835b602083101515611660578051825260208201915060208101905060208303925061163b565b6001836020036101000a03801982511681845116808217855250505050505090500191505060405180910390206000191660001916815260200190815260200160002060040160109054906101000a900460ff1615156116bf57600080fd5b60026000836040516020018082805190602001908083835b6020831015156116fc57805182526020820191506020810190506020830392506116d7565b6001836020036101000a0380198251168184511680821785525050505050509050019150506040516020818303038152906040526040518082805190602001908083835b6020831015156117655780518252602082019150602081019050602083039250611740565b6001836020036101000a03801982511681845116808217855250505050505090500191505060405180910390206000191660001916815260200190815260200160002060040160009054906101000a900467ffffffffffffffff169050919050565b600060026000886040516020018082805190602001908083835b60208310151561180657805182526020820191506020810190506020830392506117e1565b6001836020036101000a0380198251168184511680821785525050505050509050019150506040516020818303038152906040526040518082805190602001908083835b60208310151561186f578051825260208201915060208101905060208303925061184a565b6001836020036101000a03801982511681845116808217855250505050505090500191505060405180910390206000191660001916815260200190815260200160002060040160109054906101000a900460ff1615156118ce57600080fd5b835185511415156118de57600080fd5b60026000886040516020018082805190602001908083835b60208310151561191b57805182526020820191506020810190506020830392506118f6565b6001836020036101000a0380198251168184511680821785525050505050509050019150506040516020818303038152906040526040518082805190602001908083835b602083101515611984578051825260208201915060208101905060208303925061195f565b6001836020036101000a03801982511681845116808217855250505050505090500191505060405180910390206000191660001916815260200190815260200160002060040160009054906101000a900467ffffffffffffffff1667ffffffffffffffff168667ffffffffffffffff16141515611a0057600080fd5b600090505b84518163ffffffff161015611bf157838163ffffffff16815181101515611a2857fe5b9060200190602002015173ffffffffffffffffffffffffffffffffffffffff16638de73f8b868363ffffffff16815181101515611a6157fe5b9060200190602002015189868563ffffffff16815181101515611a8057fe5b90602001906020020151868663ffffffff16815181101515611a9e57fe5b906020019060200201516040518563ffffffff167c0100000000000000000000000000000000000000000000000000000000028152600401808573ffffffffffffffffffffffffffffffffffffffff1673ffffffffffffffffffffffffffffffffffffffff168152602001806020018473ffffffffffffffffffffffffffffffffffffffff1673ffffffffffffffffffffffffffffffffffffffff168152602001838152602001828103825285818151815260200191508051906020019080838360005b83811015611b7d578082015181840152602081019050611b62565b50505050905090810190601f168015611baa5780820380516001836020036101000a031916815260200191505b5095505050505050600060405180830381600087803b158015611bcc57600080fd5b505af1158015611be0573d6000803e3d6000fd5b505050508080600101915050611a05565b845160026000896040516020018082805190602001908083835b602083101515611c305780518252602082019150602081019050602083039250611c0b565b6001836020036101000a0380198251168184511680821785525050505050509050019150506040516020818303038152906040526040518082805190602001908083835b602083101515611c995780518252602082019150602081019050602083039250611c74565b6001836020036101000a03801982511681845116808217855250505050505090500191505060405180910390206000191660001916815260200190815260200160002060040160008282829054906101000a900467ffffffffffffffff160192506101000a81548167ffffffffffffffff021916908367ffffffffffffffff16021790555050505050505050565b600160009054906101000a900473ffffffffffffffffffffffffffffffffffffffff1681565b60008054600181600116156101000203166002900480601f016020809104026020016040519081016040528092919081815260200182805460018160011615610100020316600290048015611de35780601f10611db857610100808354040283529160200191611de3565b820191906000526020600020905b815481529060010190602001808311611dc657829003601f168201915b505050505081565b60026020528060005260406000206000915090508060040160009054906101000a900467ffffffffffffffff16908060040160089054906101000a900467ffffffffffffffff16908060040160109054906101000a900460ff16905083565b8260048101928215611e79579160200282015b82811115611e78578251825591602001919060010190611e5d565b5b509050611e869190611ea6565b5090565b5060008155600101600081556001016000815560010160009055565b611ec891905b80821115611ec4576000816000905550600101611eac565b5090565b905600a165627a7a72305820ceece42229c0ff46325bbab9b9dace0d6d8ca6f3fc55c3fc1be827d1b9ecb9cf0029",
  "source": "pragma solidity 0.4.24;\n\ninterface ContractReceiver {\n    function postMessage(address sender, string schainID, address to, uint amount) external;\n}\n\ncontract MessageProxy {\n\n    // Note: this uses assembly example from\n\n    // https://ethereum.stackexchange.com/questions/6354/how-do-i-construct-a-call-to-another-contract-using-inline-assembly\n\n    // 16 Agents\n    // Synchronize time with time.nist.gov\n    // Every agent checks if it is his time slot\n    // Time slots are in increments of 10 seconds\n    // At the start of his slot each agent:\n    // For each connected schain:\n    // Read incoming counter on the dst chain\n    // Read outgoing counter on the src chain\n    // Calculate the difference outgoing - incoming\n    // Call postIncomingMessages function passing (un)signed message array\n\n    // ID of this schain, Chain 0 represents ETH mainnet,\n    string public chainID;\n    // Owner of this chain. For mainnet, the owner is SkaleManager\n    address public owner;\n\n    event OutgoingMessage(\n        string dstChain,\n        uint64 indexed msgCounter,\n        address indexed srcContract,\n        address dstContract,\n        //bytes4 functionSignature,\n        //uint32  maxGas,\n        //bytes32[] concatenatedParameters\n        address to,\n        uint amount\n    );\n\n    struct ConnectedChainInfo {\n        // BLS key is null for main chain, and not null for schains\n        uint[4] publicKey;\n        // message counters start with 0\n        uint64 incomingMessageCounter;\n        uint64 outgoingMessageCounter;\n        bool inited;\n    }\n\n    mapping(bytes32 => ConnectedChainInfo) public connectedChains;\n\n    /// Create a new message proxy\n\n    constructor(string newChainID) public {\n        owner = msg.sender;\n        chainID = newChainID;\n        if (keccak256(abi.encodePacked(newChainID)) != keccak256(abi.encodePacked(\"Mainnet\"))) {\n            // connect to mainnet by default\n            // Mainnet does not have a public key\n            uint[4] memory empty;\n            connectedChains[keccak256(abi.encodePacked(\"Mainnet\"))] = ConnectedChainInfo(empty, 0, 0, true);\n        }\n    }\n\n    // This is called by  schain owner.\n    // On mainnet, SkaleManager will call it every time an\n    // schain is created.  Therefore, any schain is always connected to the main chain.\n    // To connect to other chains, the owner needs to explicitely call this function\n    function addConnectedChain(string newChainID, uint[4] memory newPublicKey)  public {\n        require(msg.sender == owner);\n        require(keccak256(abi.encodePacked(newChainID)) != keccak256(abi.encodePacked(\"Mainnet\"))); // main net does not have a public key and is implicitely connected\n        require(!connectedChains[keccak256(abi.encodePacked(newChainID))].inited);\n        connectedChains[keccak256(abi.encodePacked(newChainID))] = ConnectedChainInfo({\n            publicKey: newPublicKey,\n            incomingMessageCounter: 0,\n            outgoingMessageCounter: 0,\n            inited: true\n        });\n    }\n\n    function removeConnectedChain(string newChainID) public {\n        require(msg.sender == owner);\n        require(keccak256(abi.encodePacked(newChainID)) != keccak256(abi.encodePacked(\"Mainnet\"))); // you cant remove a connection to main net\n        require(connectedChains[keccak256(abi.encodePacked(newChainID))].inited);\n        delete connectedChains[keccak256(abi.encodePacked(newChainID))];\n    }\n\n    // This is called by a smart contract that wants to make a cross-chain call\n    function postOutgoingMessage(string dstChainID, address dstContract, uint amount, address to) public {\n        //require(msg.sender == depositBoxAddress); TODO: know a bank address on THIS Schain\n        require(connectedChains[keccak256(abi.encodePacked(dstChainID))].inited);\n        connectedChains[keccak256(abi.encodePacked(dstChainID))].outgoingMessageCounter++;\n        emit OutgoingMessage(dstChainID, connectedChains[keccak256(abi.encodePacked(dstChainID))].outgoingMessageCounter - 1, msg.sender, dstContract, to, amount);\n    }\n\n    function postIncomingMessages(string srcChainID, uint64 startingCounter, address[] memory senders, address[] memory dstContracts, address[] memory to, uint[] memory amount/*uint[2] memory blsSignature*/) public {\n        //require(msg.sender == owner);\n        require(connectedChains[keccak256(abi.encodePacked(srcChainID))].inited);\n        require(senders.length == dstContracts.length);\n        require(startingCounter == connectedChains[keccak256(abi.encodePacked(srcChainID))].incomingMessageCounter);\n\n        // TODO: Calculate hash and verify BLS signature on hash\n\n        for (uint32 i = 0; i < senders.length; i++) {\n            ContractReceiver(dstContracts[i]).postMessage(senders[i], srcChainID, to[i], amount[i]);\n        }\n        connectedChains[keccak256(abi.encodePacked(srcChainID))].incomingMessageCounter += uint64(senders.length);\n    }\n\n    function getOutgoingMessagesCounter(string dstChainID) public view returns (uint64) {\n        require(connectedChains[keccak256(abi.encodePacked(dstChainID))].inited);\n        return connectedChains[keccak256(abi.encodePacked(dstChainID))].outgoingMessageCounter;\n    }\n\n    function getIncomingMessagesCounter(string srcChainID) public view returns (uint64) {\n        require(connectedChains[keccak256(abi.encodePacked(srcChainID))].inited);\n        return connectedChains[keccak256(abi.encodePacked(srcChainID))].incomingMessageCounter;\n    }\n}\n",
  "sourcePath": "/home/dmitry/projects/KTM/proxy/contracts/MessageProxy.sol",
  "compiler": {
    "name": "solc",
    "version": "0.4.24+commit.e67f0147.Emscripten.clang"
  },
  "schemaVersion": "2.0.1",
  "updatedAt": "2019-02-03T10:59:05.670Z"
}