{
  "contractName": "TokenManager",
  "abi": [
    {
      "constant": true,
      "inputs": [],
      "name": "proxyForSchainAddress",
      "outputs": [
        {
          "name": "",
          "type": "address"
        }
      ],
      "payable": false,
      "stateMutability": "view",
      "type": "function"
    },
    {
      "constant": true,
      "inputs": [
        {
          "name": "",
          "type": "bytes32"
        }
      ],
      "name": "tokenManagerAddresses",
      "outputs": [
        {
          "name": "",
          "type": "address"
        }
      ],
      "payable": false,
      "stateMutability": "view",
      "type": "function"
    },
    {
      "constant": true,
      "inputs": [],
      "name": "owner",
      "outputs": [
        {
          "name": "",
          "type": "address"
        }
      ],
      "payable": false,
      "stateMutability": "view",
      "type": "function"
    },
    {
      "constant": true,
      "inputs": [],
      "name": "chainID",
      "outputs": [
        {
          "name": "",
          "type": "string"
        }
      ],
      "payable": false,
      "stateMutability": "view",
      "type": "function"
    },
    {
      "constant": true,
      "inputs": [],
      "name": "TOKEN_RESERVE",
      "outputs": [
        {
          "name": "",
          "type": "uint256"
        }
      ],
      "payable": false,
      "stateMutability": "view",
      "type": "function"
    },
    {
      "constant": false,
      "inputs": [
        {
          "name": "newOwner",
          "type": "address"
        }
      ],
      "name": "transferOwnership",
      "outputs": [],
      "payable": false,
      "stateMutability": "nonpayable",
      "type": "function"
    },
    {
      "inputs": [
        {
          "name": "newChainID",
          "type": "string"
        },
        {
          "name": "depositBox",
          "type": "address"
        },
        {
          "name": "newProxyAddress",
          "type": "address"
        }
      ],
      "payable": true,
      "stateMutability": "payable",
      "type": "constructor"
    },
    {
      "payable": false,
      "stateMutability": "nonpayable",
      "type": "fallback"
    },
    {
      "anonymous": false,
      "inputs": [
        {
          "indexed": false,
          "name": "sender",
          "type": "address"
        },
        {
          "indexed": false,
          "name": "FromSchainID",
          "type": "string"
        },
        {
          "indexed": false,
          "name": "to",
          "type": "address"
        },
        {
          "indexed": false,
          "name": "amount",
          "type": "uint256"
        }
      ],
      "name": "MoneyReceivedMessage",
      "type": "event"
    },
    {
      "constant": false,
      "inputs": [
        {
          "name": "schainID",
          "type": "string"
        },
        {
          "name": "tokenManagerAddress",
          "type": "address"
        }
      ],
      "name": "addSchain",
      "outputs": [],
      "payable": false,
      "stateMutability": "nonpayable",
      "type": "function"
    },
    {
      "constant": false,
      "inputs": [
        {
          "name": "depositBoxAddress",
          "type": "address"
        }
      ],
      "name": "addDepositBox",
      "outputs": [],
      "payable": false,
      "stateMutability": "nonpayable",
      "type": "function"
    },
    {
      "constant": false,
      "inputs": [
        {
          "name": "to",
          "type": "address"
        }
      ],
      "name": "exitToMain",
      "outputs": [],
      "payable": true,
      "stateMutability": "payable",
      "type": "function"
    },
    {
      "constant": false,
      "inputs": [
        {
          "name": "schainID",
          "type": "string"
        },
        {
          "name": "to",
          "type": "address"
        }
      ],
      "name": "transferToSchain",
      "outputs": [],
      "payable": true,
      "stateMutability": "payable",
      "type": "function"
    },
    {
      "constant": false,
      "inputs": [
        {
          "name": "sender",
          "type": "address"
        },
        {
          "name": "fromSchainID",
          "type": "string"
        },
        {
          "name": "to",
          "type": "address"
        },
        {
          "name": "amount",
          "type": "uint256"
        }
      ],
      "name": "postMessage",
      "outputs": [],
      "payable": false,
      "stateMutability": "nonpayable",
      "type": "function"
    }
  ],
  "bytecode": "0x608060405268056bc75e2d6310000060045560405162001b1838038062001b18833981018060405281019080805182019291906020018051906020019092919080519060200190929190505050336000806101000a81548173ffffffffffffffffffffffffffffffffffffffff021916908373ffffffffffffffffffffffffffffffffffffffff160217905550600454341415156200009d57600080fd5b8260019080519060200190620000b5929190620001fd565b50816003600060405160200180807f4d61696e6e65740000000000000000000000000000000000000000000000000081525060070190506040516020818303038152906040526040518082805190602001908083835b6020831015156200013257805182526020820191506020810190506020830392506200010b565b6001836020036101000a03801982511681845116808217855250505050505090500191505060405180910390206000191660001916815260200190815260200160002060006101000a81548173ffffffffffffffffffffffffffffffffffffffff021916908373ffffffffffffffffffffffffffffffffffffffff16021790555080600260006101000a81548173ffffffffffffffffffffffffffffffffffffffff021916908373ffffffffffffffffffffffffffffffffffffffff160217905550505050620002ac565b828054600181600116156101000203166002900490600052602060002090601f016020900481019282601f106200024057805160ff191683800117855562000271565b8280016001018555821562000271579182015b828111156200027057825182559160200191906001019062000253565b5b50905062000280919062000284565b5090565b620002a991905b80821115620002a55760008160009055506001016200028b565b5090565b90565b61185c80620002bc6000396000f3006080604052600436106100af576000357c0100000000000000000000000000000000000000000000000000000000900463ffffffff1680630aaadd85146100c15780630d49d67d1461013d57806310f01f4e146101945780637d5069a7146102055780638da5cb5b146102485780638de73f8b1461029f578063a1a00dbe14610352578063adc879e914610388578063b4e91a3214610418578063e5dec552146104a1578063f2fde38b146104cc575b3480156100bb57600080fd5b50600080fd5b61013b600480360381019080803590602001908201803590602001908080601f0160208091040260200160405190810160405280939291908181526020018383808284378201915050505050509192919290803573ffffffffffffffffffffffffffffffffffffffff16906020019092919050505061050f565b005b34801561014957600080fd5b50610152610a74565b604051808273ffffffffffffffffffffffffffffffffffffffff1673ffffffffffffffffffffffffffffffffffffffff16815260200191505060405180910390f35b3480156101a057600080fd5b506101c36004803603810190808035600019169060200190929190505050610a9a565b604051808273ffffffffffffffffffffffffffffffffffffffff1673ffffffffffffffffffffffffffffffffffffffff16815260200191505060405180910390f35b34801561021157600080fd5b50610246600480360381019080803573ffffffffffffffffffffffffffffffffffffffff169060200190929190505050610acd565b005b34801561025457600080fd5b5061025d610d1e565b604051808273ffffffffffffffffffffffffffffffffffffffff1673ffffffffffffffffffffffffffffffffffffffff16815260200191505060405180910390f35b3480156102ab57600080fd5b50610350600480360381019080803573ffffffffffffffffffffffffffffffffffffffff169060200190929190803590602001908201803590602001908080601f0160208091040260200160405190810160405280939291908181526020018383808284378201915050505050509192919290803573ffffffffffffffffffffffffffffffffffffffff16906020019092919080359060200190929190505050610d43565b005b610386600480360381019080803573ffffffffffffffffffffffffffffffffffffffff1690602001909291905050506111ce565b005b34801561039457600080fd5b5061039d611406565b6040518080602001828103825283818151815260200191508051906020019080838360005b838110156103dd5780820151818401526020810190506103c2565b50505050905090810190601f16801561040a5780820380516001836020036101000a031916815260200191505b509250505060405180910390f35b34801561042457600080fd5b5061049f600480360381019080803590602001908201803590602001908080601f0160208091040260200160405190810160405280939291908181526020018383808284378201915050505050509192919290803573ffffffffffffffffffffffffffffffffffffffff1690602001909291905050506114a4565b005b3480156104ad57600080fd5b506104b6611750565b6040518082815260200191505060405180910390f35b3480156104d857600080fd5b5061050d600480360381019080803573ffffffffffffffffffffffffffffffffffffffff169060200190929190505050611756565b005b60405160200180807f4d61696e6e65740000000000000000000000000000000000000000000000000081525060070190506040516020818303038152906040526040518082805190602001908083835b602083101515610584578051825260208201915060208101905060208303925061055f565b6001836020036101000a038019825116818451168082178552505050505050905001915050604051809103902060001916826040516020018082805190602001908083835b6020831015156105ee57805182526020820191506020810190506020830392506105c9565b6001836020036101000a0380198251168184511680821785525050505050509050019150506040516020818303038152906040526040518082805190602001908083835b6020831015156106575780518252602082019150602081019050602083039250610632565b6001836020036101000a0380198251168184511680821785525050505050509050019150506040518091039020600019161415151561069557600080fd5b600073ffffffffffffffffffffffffffffffffffffffff1660036000846040516020018082805190602001908083835b6020831015156106ea57805182526020820191506020810190506020830392506106c5565b6001836020036101000a0380198251168184511680821785525050505050509050019150506040516020818303038152906040526040518082805190602001908083835b602083101515610753578051825260208201915060208101905060208303925061072e565b6001836020036101000a03801982511681845116808217855250505050505090500191505060405180910390206000191660001916815260200190815260200160002060009054906101000a900473ffffffffffffffffffffffffffffffffffffffff1673ffffffffffffffffffffffffffffffffffffffff16141515156107da57600080fd5b6000341115156107e957600080fd5b600260009054906101000a900473ffffffffffffffffffffffffffffffffffffffff1673ffffffffffffffffffffffffffffffffffffffff16635acbb72b8360036000866040516020018082805190602001908083835b6020831015156108655780518252602082019150602081019050602083039250610840565b6001836020036101000a0380198251168184511680821785525050505050509050019150506040516020818303038152906040526040518082805190602001908083835b6020831015156108ce57805182526020820191506020810190506020830392506108a9565b6001836020036101000a03801982511681845116808217855250505050505090500191505060405180910390206000191660001916815260200190815260200160002060009054906101000a900473ffffffffffffffffffffffffffffffffffffffff1634856040518563ffffffff167c010000000000000000000000000000000000000000000000000000000002815260040180806020018573ffffffffffffffffffffffffffffffffffffffff1673ffffffffffffffffffffffffffffffffffffffff1681526020018481526020018373ffffffffffffffffffffffffffffffffffffffff1673ffffffffffffffffffffffffffffffffffffffff168152602001828103825286818151815260200191508051906020019080838360005b83811015610a095780820151818401526020810190506109ee565b50505050905090810190601f168015610a365780820380516001836020036101000a031916815260200191505b5095505050505050600060405180830381600087803b158015610a5857600080fd5b505af1158015610a6c573d6000803e3d6000fd5b505050505050565b600260009054906101000a900473ffffffffffffffffffffffffffffffffffffffff1681565b60036020528060005260406000206000915054906101000a900473ffffffffffffffffffffffffffffffffffffffff1681565b600073ffffffffffffffffffffffffffffffffffffffff168173ffffffffffffffffffffffffffffffffffffffff1614151515610b0957600080fd5b8073ffffffffffffffffffffffffffffffffffffffff166003600060405160200180807f4d61696e6e65740000000000000000000000000000000000000000000000000081525060070190506040516020818303038152906040526040518082805190602001908083835b602083101515610b995780518252602082019150602081019050602083039250610b74565b6001836020036101000a03801982511681845116808217855250505050505090500191505060405180910390206000191660001916815260200190815260200160002060009054906101000a900473ffffffffffffffffffffffffffffffffffffffff1673ffffffffffffffffffffffffffffffffffffffff1614151515610c2057600080fd5b806003600060405160200180807f4d61696e6e65740000000000000000000000000000000000000000000000000081525060070190506040516020818303038152906040526040518082805190602001908083835b602083101515610c9a5780518252602082019150602081019050602083039250610c75565b6001836020036101000a03801982511681845116808217855250505050505090500191505060405180910390206000191660001916815260200190815260200160002060006101000a81548173ffffffffffffffffffffffffffffffffffffffff021916908373ffffffffffffffffffffffffffffffffffffffff16021790555050565b6000809054906101000a900473ffffffffffffffffffffffffffffffffffffffff1681565b60016040516020018082805460018160011615610100020316600290048015610da35780601f10610d81576101008083540402835291820191610da3565b820191906000526020600020905b815481529060010190602001808311610d8f575b50509150506040516020818303038152906040526040518082805190602001908083835b602083101515610dec5780518252602082019150602081019050602083039250610dc7565b6001836020036101000a038019825116818451168082178552505050505050905001915050604051809103902060001916836040516020018082805190602001908083835b602083101515610e565780518252602082019150602081019050602083039250610e31565b6001836020036101000a0380198251168184511680821785525050505050509050019150506040516020818303038152906040526040518082805190602001908083835b602083101515610ebf5780518252602082019150602081019050602083039250610e9a565b6001836020036101000a03801982511681845116808217855250505050505090500191505060405180910390206000191614151515610efd57600080fd5b60036000846040516020018082805190602001908083835b602083101515610f3a5780518252602082019150602081019050602083039250610f15565b6001836020036101000a0380198251168184511680821785525050505050509050019150506040516020818303038152906040526040518082805190602001908083835b602083101515610fa35780518252602082019150602081019050602083039250610f7e565b6001836020036101000a03801982511681845116808217855250505050505090500191505060405180910390206000191660001916815260200190815260200160002060009054906101000a900473ffffffffffffffffffffffffffffffffffffffff1673ffffffffffffffffffffffffffffffffffffffff168473ffffffffffffffffffffffffffffffffffffffff1614151561104057600080fd5b600073ffffffffffffffffffffffffffffffffffffffff168273ffffffffffffffffffffffffffffffffffffffff161415151561107c57600080fd5b7f4c3076be8657a1b34c0622f8de677972389e896e3172457451ce078ecf8a44f484848484604051808573ffffffffffffffffffffffffffffffffffffffff1673ffffffffffffffffffffffffffffffffffffffff168152602001806020018473ffffffffffffffffffffffffffffffffffffffff1673ffffffffffffffffffffffffffffffffffffffff168152602001838152602001828103825285818151815260200191508051906020019080838360005b8381101561114b578082015181840152602081019050611130565b50505050905090810190601f1680156111785780820380516001836020036101000a031916815260200191505b509550505050505060405180910390a18173ffffffffffffffffffffffffffffffffffffffff166108fc829081150290604051600060405180830381858888f1935050505015156111c857600080fd5b50505050565b6000341115156111dd57600080fd5b600260009054906101000a900473ffffffffffffffffffffffffffffffffffffffff1673ffffffffffffffffffffffffffffffffffffffff16635acbb72b6003600060405160200180807f4d61696e6e65740000000000000000000000000000000000000000000000000081525060070190506040516020818303038152906040526040518082805190602001908083835b602083101515611294578051825260208201915060208101905060208303925061126f565b6001836020036101000a03801982511681845116808217855250505050505090500191505060405180910390206000191660001916815260200190815260200160002060009054906101000a900473ffffffffffffffffffffffffffffffffffffffff1634846040518463ffffffff167c010000000000000000000000000000000000000000000000000000000002815260040180806020018573ffffffffffffffffffffffffffffffffffffffff1673ffffffffffffffffffffffffffffffffffffffff1681526020018481526020018373ffffffffffffffffffffffffffffffffffffffff1673ffffffffffffffffffffffffffffffffffffffff168152602001828103825260078152602001807f4d61696e6e657400000000000000000000000000000000000000000000000000815250602001945050505050600060405180830381600087803b1580156113eb57600080fd5b505af11580156113ff573d6000803e3d6000fd5b5050505050565b60018054600181600116156101000203166002900480601f01602080910402602001604051908101604052809291908181526020018280546001816001161561010002031660029004801561149c5780601f106114715761010080835404028352916020019161149c565b820191906000526020600020905b81548152906001019060200180831161147f57829003601f168201915b505050505081565b600073ffffffffffffffffffffffffffffffffffffffff1660036000846040516020018082805190602001908083835b6020831015156114f957805182526020820191506020810190506020830392506114d4565b6001836020036101000a0380198251168184511680821785525050505050509050019150506040516020818303038152906040526040518082805190602001908083835b602083101515611562578051825260208201915060208101905060208303925061153d565b6001836020036101000a03801982511681845116808217855250505050505090500191505060405180910390206000191660001916815260200190815260200160002060009054906101000a900473ffffffffffffffffffffffffffffffffffffffff1673ffffffffffffffffffffffffffffffffffffffff161415156115e857600080fd5b600073ffffffffffffffffffffffffffffffffffffffff168173ffffffffffffffffffffffffffffffffffffffff161415151561162457600080fd5b8060036000846040516020018082805190602001908083835b602083101515611662578051825260208201915060208101905060208303925061163d565b6001836020036101000a0380198251168184511680821785525050505050509050019150506040516020818303038152906040526040518082805190602001908083835b6020831015156116cb57805182526020820191506020810190506020830392506116a6565b6001836020036101000a03801982511681845116808217855250505050505090500191505060405180910390206000191660001916815260200190815260200160002060006101000a81548173ffffffffffffffffffffffffffffffffffffffff021916908373ffffffffffffffffffffffffffffffffffffffff1602179055505050565b60045481565b6000809054906101000a900473ffffffffffffffffffffffffffffffffffffffff1673ffffffffffffffffffffffffffffffffffffffff163373ffffffffffffffffffffffffffffffffffffffff161415156117b157600080fd5b600073ffffffffffffffffffffffffffffffffffffffff168173ffffffffffffffffffffffffffffffffffffffff16141515156117ed57600080fd5b806000806101000a81548173ffffffffffffffffffffffffffffffffffffffff021916908373ffffffffffffffffffffffffffffffffffffffff160217905550505600a165627a7a72305820429a6cc3bb01e65cd353db45434c5409fa92b74d158676c9162d4af60cfec44a0029",
  "source": "pragma solidity ^0.4.24;\n\nimport \"./Ownable.sol\";\n\ninterface ProxyForSchain {\n    function postOutgoingMessage(string dstChainID, address dstContract, uint amount, address to) external;\n}\n\n// This contract runs on schains and accepts messages from main net creates ETH clones.\n// When the user exits, it burns them\n\ncontract TokenManager is Ownable {\n\n    // ID of this schain,\n    string public chainID;\n\n    address public proxyForSchainAddress;\n\n    mapping(bytes32 => address) public tokenManagerAddresses;\n\n    // The maximum amount of ETH clones this contract can create\n    // It is 102000000 which is the current total ETH supply\n\n    // TODO: TOKEN_RESERVE = 102000000 * (10 ** 18);\n\n    //uint public TOKEN_RESERVE = 102000000 * (10 ** 18); //ether\n    uint public TOKEN_RESERVE = 100 * (10 ** 18); //ether\n\n    // Owner of this schain. For mainnet\n    //address public owner;\n\n\n    event MoneyReceivedMessage(address sender, string FromSchainID, address to, uint amount);\n\n\n    /// Create a new token manager\n\n    constructor(string newChainID, address depositBox, address newProxyAddress) public payable {\n        require(msg.value == TOKEN_RESERVE);\n        //require(address(this).balance < TOKEN_RESERVE + 0.01 ether);\n        chainID = newChainID;\n        tokenManagerAddresses[keccak256(abi.encodePacked(\"Mainnet\"))] = depositBox;\n        proxyForSchainAddress = newProxyAddress;\n    }\n\n    function() public {\n        revert();\n    }\n\n    function addSchain(string schainID, address tokenManagerAddress) public {\n        require(tokenManagerAddresses[keccak256(abi.encodePacked(schainID))] == address(0));\n        require(tokenManagerAddress != address(0));\n        tokenManagerAddresses[keccak256(abi.encodePacked(schainID))] = tokenManagerAddress;\n    }\n\n    function addDepositBox(address depositBoxAddress) public {\n        require(depositBoxAddress != address(0));\n        require(tokenManagerAddresses[keccak256(abi.encodePacked(\"Mainnet\"))] != depositBoxAddress);\n        tokenManagerAddresses[keccak256(abi.encodePacked(\"Mainnet\"))] = depositBoxAddress;\n    }\n\n    // This is called by  schain owner.\n    // Exit to main net\n    function exitToMain(address to) public payable {\n        require(msg.value > 0);\n        ProxyForSchain(proxyForSchainAddress).postOutgoingMessage(\"Mainnet\", tokenManagerAddresses[keccak256(abi.encodePacked(\"Mainnet\"))], msg.value, to);\n    }\n\n    function transferToSchain(string schainID, address to) public payable {\n        require(keccak256(abi.encodePacked(schainID)) != keccak256(abi.encodePacked(\"Mainnet\")));\n        require(tokenManagerAddresses[keccak256(abi.encodePacked(schainID))] != address(0));\n        require(msg.value > 0);\n        ProxyForSchain(proxyForSchainAddress).postOutgoingMessage(schainID, tokenManagerAddresses[keccak256(abi.encodePacked(schainID))], msg.value, to);\n    }\n\n    // Receive money from main net and Schain\n\n    function postMessage(address sender, string fromSchainID, address to, uint amount) public {\n        require(keccak256(abi.encodePacked(fromSchainID)) != keccak256(abi.encodePacked(chainID)));\n        require(sender == tokenManagerAddresses[keccak256(abi.encodePacked(fromSchainID))]);\n        //require(msg.sender == owner);\n        require(to != address(0));\n        emit MoneyReceivedMessage(sender, fromSchainID, to, amount);\n        require(address(to).send(amount));\n    }\n}\n",
  "sourcePath": "/home/dmitry/projects/KTM/proxy/contracts/TokenManager.sol",
  "compiler": {
    "name": "solc",
    "version": "0.4.24+commit.e67f0147.Emscripten.clang"
  },
  "schemaVersion": "2.0.1",
  "updatedAt": "2019-02-03T10:59:05.665Z"
}