{
  "contractName": "VASYA721",
  "abi": [
    {
      "constant": true,
      "inputs": [
        {
          "internalType": "bytes4",
          "name": "interfaceId",
          "type": "bytes4"
        }
      ],
      "name": "supportsInterface",
      "outputs": [
        {
          "internalType": "bool",
          "name": "",
          "type": "bool"
        }
      ],
      "payable": false,
      "stateMutability": "view",
      "type": "function"
    },
    {
      "constant": true,
      "inputs": [],
      "name": "name",
      "outputs": [
        {
          "internalType": "string",
          "name": "",
          "type": "string"
        }
      ],
      "payable": false,
      "stateMutability": "view",
      "type": "function"
    },
    {
      "constant": true,
      "inputs": [
        {
          "internalType": "uint256",
          "name": "tokenId",
          "type": "uint256"
        }
      ],
      "name": "getApproved",
      "outputs": [
        {
          "internalType": "address",
          "name": "",
          "type": "address"
        }
      ],
      "payable": false,
      "stateMutability": "view",
      "type": "function"
    },
    {
      "constant": false,
      "inputs": [
        {
          "internalType": "address",
          "name": "to",
          "type": "address"
        },
        {
          "internalType": "uint256",
          "name": "tokenId",
          "type": "uint256"
        }
      ],
      "name": "approve",
      "outputs": [],
      "payable": false,
      "stateMutability": "nonpayable",
      "type": "function"
    },
    {
      "constant": true,
      "inputs": [],
      "name": "totalSupply",
      "outputs": [
        {
          "internalType": "uint256",
          "name": "",
          "type": "uint256"
        }
      ],
      "payable": false,
      "stateMutability": "view",
      "type": "function"
    },
    {
      "constant": false,
      "inputs": [
        {
          "internalType": "address",
          "name": "from",
          "type": "address"
        },
        {
          "internalType": "address",
          "name": "to",
          "type": "address"
        },
        {
          "internalType": "uint256",
          "name": "tokenId",
          "type": "uint256"
        }
      ],
      "name": "transferFrom",
      "outputs": [],
      "payable": false,
      "stateMutability": "nonpayable",
      "type": "function"
    },
    {
      "constant": true,
      "inputs": [
        {
          "internalType": "address",
          "name": "owner",
          "type": "address"
        },
        {
          "internalType": "uint256",
          "name": "index",
          "type": "uint256"
        }
      ],
      "name": "tokenOfOwnerByIndex",
      "outputs": [
        {
          "internalType": "uint256",
          "name": "",
          "type": "uint256"
        }
      ],
      "payable": false,
      "stateMutability": "view",
      "type": "function"
    },
    {
      "constant": false,
      "inputs": [
        {
          "internalType": "address",
          "name": "from",
          "type": "address"
        },
        {
          "internalType": "address",
          "name": "to",
          "type": "address"
        },
        {
          "internalType": "uint256",
          "name": "tokenId",
          "type": "uint256"
        }
      ],
      "name": "safeTransferFrom",
      "outputs": [],
      "payable": false,
      "stateMutability": "nonpayable",
      "type": "function"
    },
    {
      "constant": true,
      "inputs": [
        {
          "internalType": "uint256",
          "name": "index",
          "type": "uint256"
        }
      ],
      "name": "tokenByIndex",
      "outputs": [
        {
          "internalType": "uint256",
          "name": "",
          "type": "uint256"
        }
      ],
      "payable": false,
      "stateMutability": "view",
      "type": "function"
    },
    {
      "constant": false,
      "inputs": [
        {
          "internalType": "address",
          "name": "to",
          "type": "address"
        },
        {
          "internalType": "uint256",
          "name": "tokenId",
          "type": "uint256"
        },
        {
          "internalType": "string",
          "name": "tokenURI",
          "type": "string"
        }
      ],
      "name": "mintWithTokenURI",
      "outputs": [
        {
          "internalType": "bool",
          "name": "",
          "type": "bool"
        }
      ],
      "payable": false,
      "stateMutability": "nonpayable",
      "type": "function"
    },
    {
      "constant": true,
      "inputs": [
        {
          "internalType": "uint256",
          "name": "tokenId",
          "type": "uint256"
        }
      ],
      "name": "ownerOf",
      "outputs": [
        {
          "internalType": "address",
          "name": "",
          "type": "address"
        }
      ],
      "payable": false,
      "stateMutability": "view",
      "type": "function"
    },
    {
      "constant": true,
      "inputs": [
        {
          "internalType": "address",
          "name": "owner",
          "type": "address"
        }
      ],
      "name": "balanceOf",
      "outputs": [
        {
          "internalType": "uint256",
          "name": "",
          "type": "uint256"
        }
      ],
      "payable": false,
      "stateMutability": "view",
      "type": "function"
    },
    {
      "constant": true,
      "inputs": [],
      "name": "symbol",
      "outputs": [
        {
          "internalType": "string",
          "name": "",
          "type": "string"
        }
      ],
      "payable": false,
      "stateMutability": "view",
      "type": "function"
    },
    {
      "constant": false,
      "inputs": [
        {
          "internalType": "address",
          "name": "account",
          "type": "address"
        }
      ],
      "name": "addMinter",
      "outputs": [],
      "payable": false,
      "stateMutability": "nonpayable",
      "type": "function"
    },
    {
      "constant": false,
      "inputs": [],
      "name": "renounceMinter",
      "outputs": [],
      "payable": false,
      "stateMutability": "nonpayable",
      "type": "function"
    },
    {
      "constant": false,
      "inputs": [
        {
          "internalType": "address",
          "name": "to",
          "type": "address"
        },
        {
          "internalType": "bool",
          "name": "approved",
          "type": "bool"
        }
      ],
      "name": "setApprovalForAll",
      "outputs": [],
      "payable": false,
      "stateMutability": "nonpayable",
      "type": "function"
    },
    {
      "constant": true,
      "inputs": [
        {
          "internalType": "address",
          "name": "account",
          "type": "address"
        }
      ],
      "name": "isMinter",
      "outputs": [
        {
          "internalType": "bool",
          "name": "",
          "type": "bool"
        }
      ],
      "payable": false,
      "stateMutability": "view",
      "type": "function"
    },
    {
      "constant": false,
      "inputs": [
        {
          "internalType": "address",
          "name": "from",
          "type": "address"
        },
        {
          "internalType": "address",
          "name": "to",
          "type": "address"
        },
        {
          "internalType": "uint256",
          "name": "tokenId",
          "type": "uint256"
        },
        {
          "internalType": "bytes",
          "name": "_data",
          "type": "bytes"
        }
      ],
      "name": "safeTransferFrom",
      "outputs": [],
      "payable": false,
      "stateMutability": "nonpayable",
      "type": "function"
    },
    {
      "constant": true,
      "inputs": [
        {
          "internalType": "uint256",
          "name": "tokenId",
          "type": "uint256"
        }
      ],
      "name": "tokenURI",
      "outputs": [
        {
          "internalType": "string",
          "name": "",
          "type": "string"
        }
      ],
      "payable": false,
      "stateMutability": "view",
      "type": "function"
    },
    {
      "constant": true,
      "inputs": [
        {
          "internalType": "address",
          "name": "owner",
          "type": "address"
        },
        {
          "internalType": "address",
          "name": "operator",
          "type": "address"
        }
      ],
      "name": "isApprovedForAll",
      "outputs": [
        {
          "internalType": "bool",
          "name": "",
          "type": "bool"
        }
      ],
      "payable": false,
      "stateMutability": "view",
      "type": "function"
    },
    {
      "inputs": [
        {
          "internalType": "string",
          "name": "name",
          "type": "string"
        },
        {
          "internalType": "string",
          "name": "symbol",
          "type": "string"
        }
      ],
      "payable": false,
      "stateMutability": "nonpayable",
      "type": "constructor"
    },
    {
      "anonymous": false,
      "inputs": [
        {
          "indexed": true,
          "internalType": "address",
          "name": "account",
          "type": "address"
        }
      ],
      "name": "MinterAdded",
      "type": "event"
    },
    {
      "anonymous": false,
      "inputs": [
        {
          "indexed": true,
          "internalType": "address",
          "name": "account",
          "type": "address"
        }
      ],
      "name": "MinterRemoved",
      "type": "event"
    },
    {
      "anonymous": false,
      "inputs": [
        {
          "indexed": true,
          "internalType": "address",
          "name": "from",
          "type": "address"
        },
        {
          "indexed": true,
          "internalType": "address",
          "name": "to",
          "type": "address"
        },
        {
          "indexed": true,
          "internalType": "uint256",
          "name": "tokenId",
          "type": "uint256"
        }
      ],
      "name": "Transfer",
      "type": "event"
    },
    {
      "anonymous": false,
      "inputs": [
        {
          "indexed": true,
          "internalType": "address",
          "name": "owner",
          "type": "address"
        },
        {
          "indexed": true,
          "internalType": "address",
          "name": "approved",
          "type": "address"
        },
        {
          "indexed": true,
          "internalType": "uint256",
          "name": "tokenId",
          "type": "uint256"
        }
      ],
      "name": "Approval",
      "type": "event"
    },
    {
      "anonymous": false,
      "inputs": [
        {
          "indexed": true,
          "internalType": "address",
          "name": "owner",
          "type": "address"
        },
        {
          "indexed": true,
          "internalType": "address",
          "name": "operator",
          "type": "address"
        },
        {
          "indexed": false,
          "internalType": "bool",
          "name": "approved",
          "type": "bool"
        }
      ],
      "name": "ApprovalForAll",
      "type": "event"
    },
    {
      "constant": false,
      "inputs": [
        {
          "internalType": "address",
          "name": "to",
          "type": "address"
        },
        {
          "internalType": "uint256",
          "name": "tokenId",
          "type": "uint256"
        }
      ],
      "name": "mint",
      "outputs": [
        {
          "internalType": "bool",
          "name": "",
          "type": "bool"
        }
      ],
      "payable": false,
      "stateMutability": "nonpayable",
      "type": "function"
    },
    {
      "constant": false,
      "inputs": [
        {
          "internalType": "uint256",
          "name": "tokenId",
          "type": "uint256"
        }
      ],
      "name": "burn",
      "outputs": [],
      "payable": false,
      "stateMutability": "nonpayable",
      "type": "function"
    },
    {
      "constant": false,
      "inputs": [
        {
          "internalType": "uint256",
          "name": "tokenId",
          "type": "uint256"
        },
        {
          "internalType": "string",
          "name": "tokenURI",
          "type": "string"
        }
      ],
      "name": "setTokenURI",
      "outputs": [
        {
          "internalType": "bool",
          "name": "",
          "type": "bool"
        }
      ],
      "payable": false,
      "stateMutability": "nonpayable",
      "type": "function"
    }
  ],
  "bytecode": "0x60806040523480156200001157600080fd5b50604051620025d9380380620025d9833981810160405260408110156200003757600080fd5b81019080805160405193929190846401000000008211156200005857600080fd5b9083019060208201858111156200006e57600080fd5b82516401000000008111828201881017156200008957600080fd5b82525081516020918201929091019080838360005b83811015620000b85781810151838201526020016200009e565b50505050905090810190601f168015620000e65780820380516001836020036101000a031916815260200191505b50604052602001805160405193929190846401000000008211156200010a57600080fd5b9083019060208201858111156200012057600080fd5b82516401000000008111828201881017156200013b57600080fd5b82525081516020918201929091019080838360005b838110156200016a57818101518382015260200162000150565b50505050905090810190601f168015620001985780820380516001836020036101000a031916815260200191505b50604052508391508290508181620001d97f01ffc9a700000000000000000000000000000000000000000000000000000000640100000000620002c7810204565b6200020d7f80ac58cd00000000000000000000000000000000000000000000000000000000640100000000620002c7810204565b620002417f780e9d6300000000000000000000000000000000000000000000000000000000640100000000620002c7810204565b81516200025690600990602085019062000512565b5080516200026c90600a90602084019062000512565b50620002a17f5b5e139f00000000000000000000000000000000000000000000000000000000640100000000620002c7810204565b50505050620002bf3362000396640100000000026401000000009004565b5050620005b7565b7fffffffff0000000000000000000000000000000000000000000000000000000080821614156200035957604080517f08c379a000000000000000000000000000000000000000000000000000000000815260206004820152601c60248201527f4552433136353a20696e76616c696420696e7465726661636520696400000000604482015290519081900360640190fd5b7fffffffff00000000000000000000000000000000000000000000000000000000166000908152602081905260409020805460ff19166001179055565b620003b1600c8264010000000062001826620003e882021704565b604051600160a060020a038216907f6ae172837ea30b801fbfcdd4108aa1d5bf8ff775444fd70256b44e6bf3dfc3f690600090a250565b620003fd82826401000000006200048f810204565b156200046a57604080517f08c379a000000000000000000000000000000000000000000000000000000000815260206004820152601f60248201527f526f6c65733a206163636f756e7420616c72656164792068617320726f6c6500604482015290519081900360640190fd5b600160a060020a0316600090815260209190915260409020805460ff19166001179055565b6000600160a060020a038216620004f2576040517f08c379a0000000000000000000000000000000000000000000000000000000008152600401808060200182810382526022815260200180620025b76022913960400191505060405180910390fd5b50600160a060020a03166000908152602091909152604090205460ff1690565b828054600181600116156101000203166002900490600052602060002090601f016020900481019282601f106200055557805160ff191683800117855562000585565b8280016001018555821562000585579182015b828111156200058557825182559160200191906001019062000568565b506200059392915062000597565b5090565b620005b491905b808211156200059357600081556001016200059e565b90565b611ff080620005c76000396000f3fe608060405234801561001057600080fd5b506004361061016a576000357c0100000000000000000000000000000000000000000000000000000000900480634f6ccce7116100e057806398650275116100995780639865027514610594578063a22cb4651461059c578063aa271e1a146105ca578063b88d4fde146105f0578063c87b56dd146106b6578063e985e9c5146106d35761016a565b80634f6ccce71461044b57806350bb4e7f146104685780636352211e1461052357806370a082311461054057806395d89b4114610566578063983b2d561461056e5761016a565b806318160ddd1161013257806318160ddd1461035057806323b872dd1461036a5780632f745c59146103a057806340c10f19146103cc57806342842e0e146103f857806342966c681461042e5761016a565b806301ffc9a71461016f57806306fdde03146101bf578063081812fc1461023c578063095ea7b314610275578063162094c4146102a3575b600080fd5b6101ab6004803603602081101561018557600080fd5b50357bffffffffffffffffffffffffffffffffffffffffffffffffffffffff1916610701565b604080519115158252519081900360200190f35b6101c7610735565b6040805160208082528351818301528351919283929083019185019080838360005b838110156102015781810151838201526020016101e9565b50505050905090810190601f16801561022e5780820380516001836020036101000a031916815260200191505b509250505060405180910390f35b6102596004803603602081101561025257600080fd5b50356107cc565b60408051600160a060020a039092168252519081900360200190f35b6102a16004803603604081101561028b57600080fd5b50600160a060020a038135169060200135610831565b005b6101ab600480360360408110156102b957600080fd5b813591908101906040810160208201356401000000008111156102db57600080fd5b8201836020820111156102ed57600080fd5b8035906020019184600183028401116401000000008311171561030f57600080fd5b91908080601f016020809104026020016040519081016040528093929190818152602001838380828437600092019190915250929550610955945050505050565b61035861098f565b60408051918252519081900360200190f35b6102a16004803603606081101561038057600080fd5b50600160a060020a03813581169160208101359091169060400135610995565b610358600480360360408110156103b657600080fd5b50600160a060020a0381351690602001356109ed565b6101ab600480360360408110156103e257600080fd5b50600160a060020a038135169060200135610a6f565b6102a16004803603606081101561040e57600080fd5b50600160a060020a03813581169160208101359091169060400135610ac2565b6102a16004803603602081101561044457600080fd5b5035610add565b6103586004803603602081101561046157600080fd5b5035610b31565b6101ab6004803603606081101561047e57600080fd5b600160a060020a03823516916020810135918101906060810160408201356401000000008111156104ae57600080fd5b8201836020820111156104c057600080fd5b803590602001918460018302840111640100000000831117156104e257600080fd5b91908080601f016020809104026020016040519081016040528093929190818152602001838380828437600092019190915250929550610b9a945050505050565b6102596004803603602081101561053957600080fd5b5035610c01565b6103586004803603602081101561055657600080fd5b5035600160a060020a0316610c5e565b6101c7610cc9565b6102a16004803603602081101561058457600080fd5b5035600160a060020a0316610d2a565b6102a1610d7a565b6102a1600480360360408110156105b257600080fd5b50600160a060020a0381351690602001351515610d85565b6101ab600480360360208110156105e057600080fd5b5035600160a060020a0316610e54565b6102a16004803603608081101561060657600080fd5b600160a060020a0382358116926020810135909116916040820135919081019060808101606082013564010000000081111561064157600080fd5b82018360208201111561065357600080fd5b8035906020019184600183028401116401000000008311171561067557600080fd5b91908080601f016020809104026020016040519081016040528093929190818152602001838380828437600092019190915250929550610e67945050505050565b6101c7600480360360208110156106cc57600080fd5b5035610ec2565b6101ab600480360360408110156106e957600080fd5b50600160a060020a0381358116916020013516610faa565b7bffffffffffffffffffffffffffffffffffffffffffffffffffffffff191660009081526020819052604090205460ff1690565b60098054604080516020601f60026000196101006001881615020190951694909404938401819004810282018101909252828152606093909290918301828280156107c15780601f10610796576101008083540402835291602001916107c1565b820191906000526020600020905b8154815290600101906020018083116107a457829003601f168201915b505050505090505b90565b60006107d782610fd8565b6108155760405160e560020a62461bcd02815260040180806020018281038252602c815260200180611e17602c913960400191505060405180910390fd5b50600090815260026020526040902054600160a060020a031690565b600061083c82610c01565b905080600160a060020a031683600160a060020a031614156108925760405160e560020a62461bcd028152600401808060200182810382526021815260200180611ee96021913960400191505060405180910390fd5b33600160a060020a03821614806108ae57506108ae8133610faa565b6108ec5760405160e560020a62461bcd028152600401808060200182810382526038815260200180611d3b6038913960400191505060405180910390fd5b600082815260026020526040808220805473ffffffffffffffffffffffffffffffffffffffff1916600160a060020a0387811691821790925591518593918516917f8c5be1e5ebec7d5bd14f71427d1e84f3dd0314c0f7b2291e5b200ac8c7c3b92591a4505050565b600061096083610fd8565b61096957600080fd5b6109733384610ff5565b61097c57600080fd5b610986838361109c565b50600192915050565b60075490565b61099f3382610ff5565b6109dd5760405160e560020a62461bcd028152600401808060200182810382526031815260200180611f0a6031913960400191505060405180910390fd5b6109e8838383611102565b505050565b60006109f883610c5e565b8210610a385760405160e560020a62461bcd02815260040180806020018281038252602b815260200180611c8e602b913960400191505060405180910390fd5b600160a060020a0383166000908152600560205260409020805483908110610a5c57fe5b9060005260206000200154905092915050565b6000610a7a33610e54565b610ab85760405160e560020a62461bcd028152600401808060200182810382526030815260200180611dc66030913960400191505060405180910390fd5b6109868383611121565b6109e883838360405180602001604052806000815250610e67565b610ae73382610ff5565b610b255760405160e560020a62461bcd028152600401808060200182810382526030815260200180611f8c6030913960400191505060405180910390fd5b610b2e81611142565b50565b6000610b3b61098f565b8210610b7b5760405160e560020a62461bcd02815260040180806020018281038252602c815260200180611f3b602c913960400191505060405180910390fd5b60078281548110610b8857fe5b90600052602060002001549050919050565b6000610ba533610e54565b610be35760405160e560020a62461bcd028152600401808060200182810382526030815260200180611dc66030913960400191505060405180910390fd5b610bed8484611121565b610bf7838361109c565b5060019392505050565b600081815260016020526040812054600160a060020a031680610c585760405160e560020a62461bcd028152600401808060200182810382526029815260200180611d9d6029913960400191505060405180910390fd5b92915050565b6000600160a060020a038216610ca85760405160e560020a62461bcd02815260040180806020018281038252602a815260200180611d73602a913960400191505060405180910390fd5b600160a060020a0382166000908152600360205260409020610c5890611154565b600a8054604080516020601f60026000196101006001881615020190951694909404938401819004810282018101909252828152606093909290918301828280156107c15780601f10610796576101008083540402835291602001916107c1565b610d3333610e54565b610d715760405160e560020a62461bcd028152600401808060200182810382526030815260200180611dc66030913960400191505060405180910390fd5b610b2e81611158565b610d83336111a0565b565b600160a060020a038216331415610de6576040805160e560020a62461bcd02815260206004820152601960248201527f4552433732313a20617070726f766520746f2063616c6c657200000000000000604482015290519081900360640190fd5b336000818152600460209081526040808320600160a060020a03871680855290835292819020805460ff1916861515908117909155815190815290519293927f17307eab39ab6107e8899845ad3d59bd9653f200f220920489ca2b5937696c31929181900390910190a35050565b6000610c58600c8363ffffffff6111e816565b610e72848484610995565b610e7e84848484611252565b610ebc5760405160e560020a62461bcd028152600401808060200182810382526032815260200180611cb96032913960400191505060405180910390fd5b50505050565b6060610ecd82610fd8565b610f0b5760405160e560020a62461bcd02815260040180806020018281038252602f815260200180611eba602f913960400191505060405180910390fd5b6000828152600b602090815260409182902080548351601f600260001961010060018616150201909316929092049182018490048402810184019094528084529091830182828015610f9e5780601f10610f7357610100808354040283529160200191610f9e565b820191906000526020600020905b815481529060010190602001808311610f8157829003601f168201915b50505050509050919050565b600160a060020a03918216600090815260046020908152604080832093909416825291909152205460ff1690565b600090815260016020526040902054600160a060020a0316151590565b600061100082610fd8565b61103e5760405160e560020a62461bcd02815260040180806020018281038252602c815260200180611d0f602c913960400191505060405180910390fd5b600061104983610c01565b905080600160a060020a031684600160a060020a03161480611084575083600160a060020a0316611079846107cc565b600160a060020a0316145b8061109457506110948185610faa565b949350505050565b6110a582610fd8565b6110e35760405160e560020a62461bcd02815260040180806020018281038252602c815260200180611e43602c913960400191505060405180910390fd5b6000828152600b6020908152604090912082516109e892840190611b91565b61110d8383836113cc565b6111178382611523565b6109e88282611618565b61112b8282611656565b6111358282611618565b61113e8161179a565b5050565b610b2e61114e82610c01565b826117de565b5490565b611169600c8263ffffffff61182616565b604051600160a060020a038216907f6ae172837ea30b801fbfcdd4108aa1d5bf8ff775444fd70256b44e6bf3dfc3f690600090a250565b6111b1600c8263ffffffff6118aa16565b604051600160a060020a038216907fe94479a9f7e1952cc78f2d6baab678adc1b772d936c6583def489e524cb6669290600090a250565b6000600160a060020a0382166112325760405160e560020a62461bcd028152600401808060200182810382526022815260200180611e6f6022913960400191505060405180910390fd5b50600160a060020a03166000908152602091909152604090205460ff1690565b600061126684600160a060020a0316611914565b61127257506001611094565b6040517f150b7a020000000000000000000000000000000000000000000000000000000081523360048201818152600160a060020a03888116602485015260448401879052608060648501908152865160848601528651600095928a169463150b7a029490938c938b938b939260a4019060208501908083838e5b838110156113055781810151838201526020016112ed565b50505050905090810190601f1680156113325780820380516001836020036101000a031916815260200191505b5095505050505050602060405180830381600087803b15801561135457600080fd5b505af1158015611368573d6000803e3d6000fd5b505050506040513d602081101561137e57600080fd5b50517bffffffffffffffffffffffffffffffffffffffffffffffffffffffff19167f150b7a020000000000000000000000000000000000000000000000000000000014915050949350505050565b82600160a060020a03166113df82610c01565b600160a060020a0316146114275760405160e560020a62461bcd028152600401808060200182810382526029815260200180611e916029913960400191505060405180910390fd5b600160a060020a03821661146f5760405160e560020a62461bcd028152600401808060200182810382526024815260200180611ceb6024913960400191505060405180910390fd5b6114788161191a565b600160a060020a038316600090815260036020526040902061149990611962565b600160a060020a03821660009081526003602052604090206114ba90611979565b600081815260016020526040808220805473ffffffffffffffffffffffffffffffffffffffff1916600160a060020a0386811691821790925591518493918716917fddf252ad1be2c89b69c2b068fc378daa952ba7f163c4a11628f55a4df523b3ef91a4505050565b600160a060020a03821660009081526005602052604081205461154d90600163ffffffff61198216565b6000838152600660205260409020549091508082146115e857600160a060020a038416600090815260056020526040812080548490811061158a57fe5b90600052602060002001549050806005600087600160a060020a0316600160a060020a0316815260200190815260200160002083815481106115c857fe5b600091825260208083209091019290925591825260069052604090208190555b600160a060020a0384166000908152600560205260409020805490611611906000198301611c0f565b5050505050565b600160a060020a0390911660009081526005602081815260408084208054868652600684529185208290559282526001810183559183529091200155565b600160a060020a0382166116b4576040805160e560020a62461bcd02815260206004820181905260248201527f4552433732313a206d696e7420746f20746865207a65726f2061646472657373604482015290519081900360640190fd5b6116bd81610fd8565b15611712576040805160e560020a62461bcd02815260206004820152601c60248201527f4552433732313a20746f6b656e20616c7265616479206d696e74656400000000604482015290519081900360640190fd5b6000818152600160209081526040808320805473ffffffffffffffffffffffffffffffffffffffff1916600160a060020a03871690811790915583526003909152902061175e90611979565b6040518190600160a060020a038416906000907fddf252ad1be2c89b69c2b068fc378daa952ba7f163c4a11628f55a4df523b3ef908290a45050565b600780546000838152600860205260408120829055600182018355919091527fa66cc928b5edb82af9bd49922954155ab7b0942694bea4ce44661d9a8736c6880155565b6117e882826119e2565b6000818152600b6020526040902054600260001961010060018416150201909116041561113e576000818152600b6020526040812061113e91611c33565b61183082826111e8565b15611885576040805160e560020a62461bcd02815260206004820152601f60248201527f526f6c65733a206163636f756e7420616c72656164792068617320726f6c6500604482015290519081900360640190fd5b600160a060020a0316600090815260209190915260409020805460ff19166001179055565b6118b482826111e8565b6118f25760405160e560020a62461bcd028152600401808060200182810382526021815260200180611df66021913960400191505060405180910390fd5b600160a060020a0316600090815260209190915260409020805460ff19169055565b3b151590565b600081815260026020526040902054600160a060020a031615610b2e576000908152600260205260409020805473ffffffffffffffffffffffffffffffffffffffff19169055565b805461197590600163ffffffff61198216565b9055565b80546001019055565b6000828211156119dc576040805160e560020a62461bcd02815260206004820152601e60248201527f536166654d6174683a207375627472616374696f6e206f766572666c6f770000604482015290519081900360640190fd5b50900390565b6119ec8282611a0e565b6119f68282611523565b60008181526006602052604081205561113e81611af5565b81600160a060020a0316611a2182610c01565b600160a060020a031614611a695760405160e560020a62461bcd028152600401808060200182810382526025815260200180611f676025913960400191505060405180910390fd5b611a728161191a565b600160a060020a0382166000908152600360205260409020611a9390611962565b600081815260016020526040808220805473ffffffffffffffffffffffffffffffffffffffff1916905551829190600160a060020a038516907fddf252ad1be2c89b69c2b068fc378daa952ba7f163c4a11628f55a4df523b3ef908390a45050565b600754600090611b0c90600163ffffffff61198216565b60008381526008602052604081205460078054939450909284908110611b2e57fe5b906000526020600020015490508060078381548110611b4957fe5b60009182526020808320909101929092558281526008909152604090208290556007805490611b7c906000198301611c0f565b50505060009182525060086020526040812055565b828054600181600116156101000203166002900490600052602060002090601f016020900481019282601f10611bd257805160ff1916838001178555611bff565b82800160010185558215611bff579182015b82811115611bff578251825591602001919060010190611be4565b50611c0b929150611c73565b5090565b8154818355818111156109e8576000838152602090206109e8918101908301611c73565b50805460018160011615610100020316600290046000825580601f10611c595750610b2e565b601f016020900490600052602060002090810190610b2e91905b6107c991905b80821115611c0b5760008155600101611c7956fe455243373231456e756d657261626c653a206f776e657220696e646578206f7574206f6620626f756e64734552433732313a207472616e7366657220746f206e6f6e20455243373231526563656976657220696d706c656d656e7465724552433732313a207472616e7366657220746f20746865207a65726f20616464726573734552433732313a206f70657261746f7220717565727920666f72206e6f6e6578697374656e7420746f6b656e4552433732313a20617070726f76652063616c6c6572206973206e6f74206f776e6572206e6f7220617070726f76656420666f7220616c6c4552433732313a2062616c616e636520717565727920666f7220746865207a65726f20616464726573734552433732313a206f776e657220717565727920666f72206e6f6e6578697374656e7420746f6b656e4d696e746572526f6c653a2063616c6c657220646f6573206e6f74206861766520746865204d696e74657220726f6c65526f6c65733a206163636f756e7420646f6573206e6f74206861766520726f6c654552433732313a20617070726f76656420717565727920666f72206e6f6e6578697374656e7420746f6b656e4552433732314d657461646174613a2055524920736574206f66206e6f6e6578697374656e7420746f6b656e526f6c65733a206163636f756e7420697320746865207a65726f20616464726573734552433732313a207472616e73666572206f6620746f6b656e2074686174206973206e6f74206f776e4552433732314d657461646174613a2055524920717565727920666f72206e6f6e6578697374656e7420746f6b656e4552433732313a20617070726f76616c20746f2063757272656e74206f776e65724552433732313a207472616e736665722063616c6c6572206973206e6f74206f776e6572206e6f7220617070726f766564455243373231456e756d657261626c653a20676c6f62616c20696e646578206f7574206f6620626f756e64734552433732313a206275726e206f6620746f6b656e2074686174206973206e6f74206f776e4552433732314275726e61626c653a2063616c6c6572206973206e6f74206f776e6572206e6f7220617070726f766564a265627a7a7231582024f3bd283d7604a1e2e6e190364fd0d97fa60330667855a543ae95fcdb5ef16d64736f6c634300050b0032526f6c65733a206163636f756e7420697320746865207a65726f2061646472657373",
  "source": "pragma solidity ^0.5.0;\n\nimport 'openzeppelin-solidity/contracts/token/ERC721/ERC721Full.sol';\nimport 'openzeppelin-solidity/contracts/token/ERC721/ERC721MetadataMintable.sol';\n\ncontract VASYA721 is ERC721Full, ERC721MetadataMintable {\n    constructor(\n        string memory name,\n        string memory symbol\n        )\n        ERC721Full(name, symbol)\n        public\n    {\n        // solium-disable-previous-line no-empty-blocks\n    }\n\n    function mint(address to, uint256 tokenId)\n        public\n        onlyMinter\n        returns (bool)\n    {\n        _mint(to, tokenId);\n        return true;\n    }\n\n    function burn(uint256 tokenId) public {\n        require(_isApprovedOrOwner(msg.sender, tokenId), \"ERC721Burnable: caller is not owner nor approved\");\n        _burn(tokenId);\n    }\n\n    function setTokenURI(uint256 tokenId, string memory tokenURI)\n        public\n        returns (bool)\n    {\n        require(_exists(tokenId));\n        require(_isApprovedOrOwner(msg.sender, tokenId));\n        _setTokenURI(tokenId, tokenURI);\n        return true;\n    }\n}",
  "sourcePath": "/home/elvis/work/d2/erc721/contracts/VASYA721.sol",
  "compiler": {
    "name": "solc",
    "version": "0.5.11+commit.c082d0b4.Emscripten.clang"
  },
  "schemaVersion": "3.0.11",
  "updatedAt": "2019-09-06T10:41:38.933Z",
  "devdoc": {
    "methods": {
      "approve(address,uint256)": {
        "details": "Approves another address to transfer the given token ID The zero address indicates there is no approved address. There can only be one approved address per token at a given time. Can only be called by the token owner or an approved operator.",
        "params": {
          "to": "address to be approved for the given token ID",
          "tokenId": "uint256 ID of the token to be approved"
        }
      },
      "balanceOf(address)": {
        "details": "Gets the balance of the specified address.",
        "params": {
          "owner": "address to query the balance of"
        },
        "return": "uint256 representing the amount owned by the passed address"
      },
      "getApproved(uint256)": {
        "details": "Gets the approved address for a token ID, or zero if no address set Reverts if the token ID does not exist.",
        "params": {
          "tokenId": "uint256 ID of the token to query the approval of"
        },
        "return": "address currently approved for the given token ID"
      },
      "isApprovedForAll(address,address)": {
        "details": "Tells whether an operator is approved by a given owner.",
        "params": {
          "operator": "operator address which you want to query the approval of",
          "owner": "owner address which you want to query the approval of"
        },
        "return": "bool whether the given operator is approved by the given owner"
      },
      "mintWithTokenURI(address,uint256,string)": {
        "details": "Function to mint tokens.",
        "params": {
          "to": "The address that will receive the minted tokens.",
          "tokenId": "The token id to mint.",
          "tokenURI": "The token URI of the minted token."
        },
        "return": "A boolean that indicates if the operation was successful."
      },
      "name()": {
        "details": "Gets the token name.",
        "return": "string representing the token name"
      },
      "ownerOf(uint256)": {
        "details": "Gets the owner of the specified token ID.",
        "params": {
          "tokenId": "uint256 ID of the token to query the owner of"
        },
        "return": "address currently marked as the owner of the given token ID"
      },
      "safeTransferFrom(address,address,uint256)": {
        "details": "Safely transfers the ownership of a given token ID to another address If the target address is a contract, it must implement `onERC721Received`, which is called upon a safe transfer, and return the magic value `bytes4(keccak256(\"onERC721Received(address,address,uint256,bytes)\"))`; otherwise, the transfer is reverted. Requires the msg.sender to be the owner, approved, or operator",
        "params": {
          "from": "current owner of the token",
          "to": "address to receive the ownership of the given token ID",
          "tokenId": "uint256 ID of the token to be transferred"
        }
      },
      "safeTransferFrom(address,address,uint256,bytes)": {
        "details": "Safely transfers the ownership of a given token ID to another address If the target address is a contract, it must implement `onERC721Received`, which is called upon a safe transfer, and return the magic value `bytes4(keccak256(\"onERC721Received(address,address,uint256,bytes)\"))`; otherwise, the transfer is reverted. Requires the msg.sender to be the owner, approved, or operator",
        "params": {
          "_data": "bytes data to send along with a safe transfer check",
          "from": "current owner of the token",
          "to": "address to receive the ownership of the given token ID",
          "tokenId": "uint256 ID of the token to be transferred"
        }
      },
      "setApprovalForAll(address,bool)": {
        "details": "Sets or unsets the approval of a given operator An operator is allowed to transfer all tokens of the sender on their behalf.",
        "params": {
          "approved": "representing the status of the approval to be set",
          "to": "operator address to set the approval"
        }
      },
      "supportsInterface(bytes4)": {
        "details": "See `IERC165.supportsInterface`.     * Time complexity O(1), guaranteed to always use less than 30 000 gas."
      },
      "symbol()": {
        "details": "Gets the token symbol.",
        "return": "string representing the token symbol"
      },
      "tokenByIndex(uint256)": {
        "details": "Gets the token ID at a given index of all the tokens in this contract Reverts if the index is greater or equal to the total number of tokens.",
        "params": {
          "index": "uint256 representing the index to be accessed of the tokens list"
        },
        "return": "uint256 token ID at the given index of the tokens list"
      },
      "tokenOfOwnerByIndex(address,uint256)": {
        "details": "Gets the token ID at a given index of the tokens list of the requested owner.",
        "params": {
          "index": "uint256 representing the index to be accessed of the requested tokens list",
          "owner": "address owning the tokens list to be accessed"
        },
        "return": "uint256 token ID at the given index of the tokens list owned by the requested address"
      },
      "tokenURI(uint256)": {
        "details": "Returns an URI for a given token ID. Throws if the token ID does not exist. May return an empty string.",
        "params": {
          "tokenId": "uint256 ID of the token to query"
        }
      },
      "totalSupply()": {
        "details": "Gets the total amount of tokens stored by the contract.",
        "return": "uint256 representing the total amount of tokens"
      },
      "transferFrom(address,address,uint256)": {
        "details": "Transfers the ownership of a given token ID to another address. Usage of this method is discouraged, use `safeTransferFrom` whenever possible. Requires the msg.sender to be the owner, approved, or operator.",
        "params": {
          "from": "current owner of the token",
          "to": "address to receive the ownership of the given token ID",
          "tokenId": "uint256 ID of the token to be transferred"
        }
      }
    }
  },
  "userdoc": {
    "methods": {}
  }
}