{
  "_format": "hh-sol-artifact-1",
  "contractName": "CommunityLocker",
  "sourceName": "contracts/schain/CommunityLocker.sol",
  "abi": [
    {
      "anonymous": false,
      "inputs": [
        {
          "indexed": true,
          "internalType": "bytes32",
          "name": "role",
          "type": "bytes32"
        },
        {
          "indexed": true,
          "internalType": "bytes32",
          "name": "previousAdminRole",
          "type": "bytes32"
        },
        {
          "indexed": true,
          "internalType": "bytes32",
          "name": "newAdminRole",
          "type": "bytes32"
        }
      ],
      "name": "RoleAdminChanged",
      "type": "event"
    },
    {
      "anonymous": false,
      "inputs": [
        {
          "indexed": true,
          "internalType": "bytes32",
          "name": "role",
          "type": "bytes32"
        },
        {
          "indexed": true,
          "internalType": "address",
          "name": "account",
          "type": "address"
        },
        {
          "indexed": true,
          "internalType": "address",
          "name": "sender",
          "type": "address"
        }
      ],
      "name": "RoleGranted",
      "type": "event"
    },
    {
      "anonymous": false,
      "inputs": [
        {
          "indexed": true,
          "internalType": "bytes32",
          "name": "role",
          "type": "bytes32"
        },
        {
          "indexed": true,
          "internalType": "address",
          "name": "account",
          "type": "address"
        },
        {
          "indexed": true,
          "internalType": "address",
          "name": "sender",
          "type": "address"
        }
      ],
      "name": "RoleRevoked",
      "type": "event"
    },
    {
      "anonymous": false,
      "inputs": [
        {
          "indexed": false,
          "internalType": "bytes32",
          "name": "schainHash",
          "type": "bytes32"
        },
        {
          "indexed": false,
          "internalType": "address",
          "name": "user",
          "type": "address"
        }
      ],
      "name": "UserUnfrozed",
      "type": "event"
    },
    {
      "inputs": [],
      "name": "DEFAULT_ADMIN_ROLE",
      "outputs": [
        {
          "internalType": "bytes32",
          "name": "",
          "type": "bytes32"
        }
      ],
      "stateMutability": "view",
      "type": "function"
    },
    {
      "inputs": [],
      "name": "MAINNET_HASH",
      "outputs": [
        {
          "internalType": "bytes32",
          "name": "",
          "type": "bytes32"
        }
      ],
      "stateMutability": "view",
      "type": "function"
    },
    {
      "inputs": [],
      "name": "MAINNET_NAME",
      "outputs": [
        {
          "internalType": "string",
          "name": "",
          "type": "string"
        }
      ],
      "stateMutability": "view",
      "type": "function"
    },
    {
      "inputs": [
        {
          "internalType": "address",
          "name": "receiver",
          "type": "address"
        }
      ],
      "name": "checkAllowedToSendMessage",
      "outputs": [],
      "stateMutability": "nonpayable",
      "type": "function"
    },
    {
      "inputs": [],
      "name": "communityPool",
      "outputs": [
        {
          "internalType": "address",
          "name": "",
          "type": "address"
        }
      ],
      "stateMutability": "view",
      "type": "function"
    },
    {
      "inputs": [
        {
          "internalType": "bytes32",
          "name": "role",
          "type": "bytes32"
        }
      ],
      "name": "getRoleAdmin",
      "outputs": [
        {
          "internalType": "bytes32",
          "name": "",
          "type": "bytes32"
        }
      ],
      "stateMutability": "view",
      "type": "function"
    },
    {
      "inputs": [
        {
          "internalType": "bytes32",
          "name": "role",
          "type": "bytes32"
        },
        {
          "internalType": "uint256",
          "name": "index",
          "type": "uint256"
        }
      ],
      "name": "getRoleMember",
      "outputs": [
        {
          "internalType": "address",
          "name": "",
          "type": "address"
        }
      ],
      "stateMutability": "view",
      "type": "function"
    },
    {
      "inputs": [
        {
          "internalType": "bytes32",
          "name": "role",
          "type": "bytes32"
        }
      ],
      "name": "getRoleMemberCount",
      "outputs": [
        {
          "internalType": "uint256",
          "name": "",
          "type": "uint256"
        }
      ],
      "stateMutability": "view",
      "type": "function"
    },
    {
      "inputs": [
        {
          "internalType": "bytes32",
          "name": "role",
          "type": "bytes32"
        },
        {
          "internalType": "address",
          "name": "account",
          "type": "address"
        }
      ],
      "name": "grantRole",
      "outputs": [],
      "stateMutability": "nonpayable",
      "type": "function"
    },
    {
      "inputs": [
        {
          "internalType": "bytes32",
          "name": "role",
          "type": "bytes32"
        },
        {
          "internalType": "address",
          "name": "account",
          "type": "address"
        }
      ],
      "name": "hasRole",
      "outputs": [
        {
          "internalType": "bool",
          "name": "",
          "type": "bool"
        }
      ],
      "stateMutability": "view",
      "type": "function"
    },
    {
      "inputs": [
        {
          "internalType": "string",
          "name": "newSchainName",
          "type": "string"
        },
        {
          "internalType": "contract MessageProxyForSchain",
          "name": "newMessageProxy",
          "type": "address"
        },
        {
          "internalType": "contract TokenManagerLinker",
          "name": "newTokenManagerLinker",
          "type": "address"
        },
        {
          "internalType": "address",
          "name": "newCommunityPool",
          "type": "address"
        }
      ],
      "name": "initialize",
      "outputs": [],
      "stateMutability": "nonpayable",
      "type": "function"
    },
    {
      "inputs": [],
      "name": "messageProxy",
      "outputs": [
        {
          "internalType": "contract MessageProxyForSchain",
          "name": "",
          "type": "address"
        }
      ],
      "stateMutability": "view",
      "type": "function"
    },
    {
      "inputs": [
        {
          "internalType": "bytes32",
          "name": "fromChainHash",
          "type": "bytes32"
        },
        {
          "internalType": "address",
          "name": "sender",
          "type": "address"
        },
        {
          "internalType": "bytes",
          "name": "data",
          "type": "bytes"
        }
      ],
      "name": "postMessage",
      "outputs": [
        {
          "internalType": "bool",
          "name": "",
          "type": "bool"
        }
      ],
      "stateMutability": "nonpayable",
      "type": "function"
    },
    {
      "inputs": [
        {
          "internalType": "bytes32",
          "name": "role",
          "type": "bytes32"
        },
        {
          "internalType": "address",
          "name": "account",
          "type": "address"
        }
      ],
      "name": "renounceRole",
      "outputs": [],
      "stateMutability": "nonpayable",
      "type": "function"
    },
    {
      "inputs": [
        {
          "internalType": "bytes32",
          "name": "role",
          "type": "bytes32"
        },
        {
          "internalType": "address",
          "name": "account",
          "type": "address"
        }
      ],
      "name": "revokeRole",
      "outputs": [],
      "stateMutability": "nonpayable",
      "type": "function"
    },
    {
      "inputs": [],
      "name": "schainHash",
      "outputs": [
        {
          "internalType": "bytes32",
          "name": "",
          "type": "bytes32"
        }
      ],
      "stateMutability": "view",
      "type": "function"
    },
    {
      "inputs": [
        {
          "internalType": "uint256",
          "name": "newTimeLimitPerMessage",
          "type": "uint256"
        }
      ],
      "name": "setTimeLimitPerMessage",
      "outputs": [],
      "stateMutability": "nonpayable",
      "type": "function"
    },
    {
      "inputs": [],
      "name": "timeLimitPerMessage",
      "outputs": [
        {
          "internalType": "uint256",
          "name": "",
          "type": "uint256"
        }
      ],
      "stateMutability": "view",
      "type": "function"
    },
    {
      "inputs": [],
      "name": "tokenManagerLinker",
      "outputs": [
        {
          "internalType": "contract TokenManagerLinker",
          "name": "",
          "type": "address"
        }
      ],
      "stateMutability": "view",
      "type": "function"
    }
  ],
  "bytecode": "0x608060405234801561001057600080fd5b50611494806100206000396000f3fe608060405234801561001057600080fd5b50600436106101215760003560e01c806350f44280116100ad57806391d148541161007157806391d1485414610222578063a217fddf14610235578063ca15c8731461023d578063d547741f14610250578063f34822b41461026357610121565b806350f44280146101ca5780635573b8b6146101df57806382fd8c96146101e7578063884cee5a146101ef5780639010d07c1461020f57610121565b80632dc151de116100f45780632dc151de146101815780632f2ff15d1461018957806336568abe1461019c5780633b690b6b146101af57806348ed32ef146101b757610121565b806314d140b014610126578063237c667a14610144578063248a9ca31461015957806328c5e18214610179575b600080fd5b61012e610276565b60405161013b9190610fb5565b60405180910390f35b610157610152366004610d1d565b610285565b005b61016c610167366004610d5c565b61039f565b60405161013b9190610fd4565b61016c6103b4565b61012e6103fd565b610157610197366004610d74565b61040c565b6101576101aa366004610d74565b610454565b61016c610496565b6101576101c5366004610d5c565b61049c565b6101d26104c8565b60405161013b9190610ff4565b61012e6104eb565b61016c6104fa565b6102026101fd366004610da3565b610500565b60405161013b9190610fc9565b61012e61021d366004610e27565b6106d3565b610202610230366004610d74565b6106f4565b61016c61070c565b61016c61024b366004610d5c565b610711565b61015761025e366004610d74565b610728565b610157610271366004610e63565b610762565b6067546001600160a01b031681565b6066546040516374a9e4c960e11b81526001600160a01b039091169063e953c992906102b5903390600401610fb5565b60206040518083038186803b1580156102cd57600080fd5b505afa1580156102e1573d6000803e3d6000fd5b505050506040513d601f19601f820116820180604052508101906103059190610d40565b506001600160a01b0381166000908152606a602052604090205460ff166103475760405162461bcd60e51b815260040161033e90611171565b60405180910390fd5b6069546001600160a01b0382166000908152606b6020526040902054429101106103835760405162461bcd60e51b815260040161033e906112c6565b6001600160a01b03166000908152606b60205260409020429055565b60009081526033602052604090206002015490565b6040518060400160405280600781526020016613585a5b9b995d60ca1b8152506040516020016103e49190610f99565b6040516020818303038152906040528051906020012081565b6066546001600160a01b031681565b60008281526033602052604090206002015461042a90610230610879565b6104465760405162461bcd60e51b815260040161033e90611069565b610450828261087d565b5050565b61045c610879565b6001600160a01b0316816001600160a01b03161461048c5760405162461bcd60e51b815260040161033e9061136d565b61045082826108e6565b60685481565b6104a76000336106f4565b6104c35760405162461bcd60e51b815260040161033e90611307565b606955565b6040518060400160405280600781526020016613585a5b9b995d60ca1b81525081565b6065546001600160a01b031681565b60695481565b6065546000906001600160a01b0316331461052d5760405162461bcd60e51b815260040161033e90611336565b6067546001600160a01b0385811691161461055a5760405162461bcd60e51b815260040161033e906111a8565b6040518060400160405280600781526020016613585a5b9b995d60ca1b81525060405160200161058a9190610f99565b6040516020818303038152906040528051906020012085146105be5760405162461bcd60e51b815260040161033e906110f9565b60006105ca848461094f565b9050600781600c8111156105da57fe5b146105f75760405162461bcd60e51b815260040161033e906111df565b6105ff610cca565b6106098585610990565b6040818101516020808401516001600160a01b03166000908152606a9091529190912054919250151560ff909116151514156106575760405162461bcd60e51b815260040161033e906110b8565b604081810151602080840180516001600160a01b03166000908152606a90925290839020805460ff191692151592909217909155606854905191517f9b5ddb8096e31e93e8cd35890fad3bf2e0f04807e5dfc83591847d5f08ffe1ce926106be9291610fdd565b60405180910390a15060019695505050505050565b60008281526033602052604081206106eb90836109d8565b90505b92915050565b60008281526033602052604081206106eb90836109e4565b600081565b60008181526033602052604081206106ee906109f9565b60008281526033602052604090206002015461074690610230610879565b61048c5760405162461bcd60e51b815260040161033e90611228565b600054610100900460ff168061077b575061077b610a04565b80610789575060005460ff16155b6107a55760405162461bcd60e51b815260040161033e90611278565b600054610100900460ff161580156107d0576000805460ff1961ff0019909116610100171660011790555b6107d8610a15565b6107e3600033610446565b606580546001600160a01b038087166001600160a01b0319928316179092556066805492861692909116919091179055604051610824908690602001610f99565b60408051808303601f19018152919052805160209091012060685561012c606955606780546001600160a01b0319166001600160a01b0384161790558015610872576000805461ff00191690555b5050505050565b3390565b60008281526033602052604090206108959082610aa8565b15610450576108a2610879565b6001600160a01b0316816001600160a01b0316837f2f8788117e7eff1d82e926ec794901d17c78024a50270940304540a733656f0d60405160405180910390a45050565b60008281526033602052604090206108fe9082610abd565b156104505761090b610879565b6001600160a01b0316816001600160a01b0316837ff6391f5c32d9c69d2a47ea670b442974b53935d1edc7fd64eb21e047a839171b60405160405180910390a45050565b60008061095e83850185610d5c565b9050602081066109845761097c610977848381886113e3565b61094f565b9150506106ee565b61097c83850185610e48565b610998610cca565b60076109a4848461094f565b600c8111156109af57fe5b146109cc5760405162461bcd60e51b815260040161033e9061113a565b6106eb82840184610f21565b60006106eb8383610ad2565b60006106eb836001600160a01b038416610b17565b60006106ee82610b2f565b6000610a0f30610b33565b15905090565b600054610100900460ff1680610a2e5750610a2e610a04565b80610a3c575060005460ff16155b610a585760405162461bcd60e51b815260040161033e90611278565b600054610100900460ff16158015610a83576000805460ff1961ff0019909116610100171660011790555b610a8b610b39565b610a93610b39565b8015610aa5576000805461ff00191690555b50565b60006106eb836001600160a01b038416610bba565b60006106eb836001600160a01b038416610c04565b81546000908210610af55760405162461bcd60e51b815260040161033e90611027565b826000018281548110610b0457fe5b9060005260206000200154905092915050565b60009081526001919091016020526040902054151590565b5490565b3b151590565b600054610100900460ff1680610b525750610b52610a04565b80610b60575060005460ff16155b610b7c5760405162461bcd60e51b815260040161033e90611278565b600054610100900460ff16158015610a93576000805460ff1961ff0019909116610100171660011790558015610aa5576000805461ff001916905550565b6000610bc68383610b17565b610bfc575081546001818101845560008481526020808220909301849055845484825282860190935260409020919091556106ee565b5060006106ee565b60008181526001830160205260408120548015610cc05783546000198083019190810190600090879083908110610c3757fe5b9060005260206000200154905080876000018481548110610c5457fe5b600091825260208083209091019290925582815260018981019092526040902090840190558654879080610c8457fe5b600190038181906000526020600020016000905590558660010160008781526020019081526020016000206000905560019450505050506106ee565b60009150506106ee565b6040518060600160405280610cdd610cf1565b815260006020820181905260409091015290565b60408051602081019091526000815290565b80356106ee8161143b565b8035600d81106106ee57600080fd5b600060208284031215610d2e578081fd5b8135610d398161143b565b9392505050565b600060208284031215610d51578081fd5b8151610d3981611450565b600060208284031215610d6d578081fd5b5035919050565b60008060408385031215610d86578081fd5b823591506020830135610d988161143b565b809150509250929050565b60008060008060608587031215610db8578182fd5b843593506020850135610dca8161143b565b9250604085013567ffffffffffffffff80821115610de6578384fd5b818701915087601f830112610df9578384fd5b813581811115610e07578485fd5b886020828501011115610e18578485fd5b95989497505060200194505050565b60008060408385031215610e39578182fd5b50508035926020909101359150565b600060208284031215610e59578081fd5b6106eb8383610d0e565b60008060008060808587031215610e78578384fd5b843567ffffffffffffffff80821115610e8f578586fd5b818701915087601f830112610ea2578586fd5b813581811115610eb0578687fd5b60209150610ec6601f8201601f191683016113bc565b8181528983838601011115610ed9578788fd5b8183850184830137908101820196909652610ef688888301610d03565b94505050610f078660408701610d03565b9150610f168660608701610d03565b905092959194509250565b60008183036060811215610f33578182fd5b610f3d60606113bc565b6020821215610f4a578283fd5b610f5460206113bc565b9150610f608585610d0e565b8252908152602083013590610f748261143b565b81602082015260408401359150610f8a82611450565b60408101919091529392505050565b60008251610fab81846020870161140b565b9190910192915050565b6001600160a01b0391909116815260200190565b901515815260200190565b90815260200190565b9182526001600160a01b0316602082015260400190565b600060208252825180602084015261101381604085016020870161140b565b601f01601f19169190910160400192915050565b60208082526022908201527f456e756d657261626c655365743a20696e646578206f7574206f6620626f756e604082015261647360f01b606082015260800190565b6020808252602f908201527f416363657373436f6e74726f6c3a2073656e646572206d75737420626520616e60408201526e0818591b5a5b881d1bc819dc985b9d608a1b606082015260800190565b60208082526021908201527f467265657a696e6720737461746573206d75737420626520646966666572656e6040820152601d60fa1b606082015260800190565b60208082526021908201527f536f7572636520636861696e206e616d65206d757374206265204d61696e6e656040820152601d60fa1b606082015260800190565b6020808252601f908201527f4d6573736167652074797065206973206e6f7420467265657a65205573657200604082015260600190565b6020808252601a908201527f526563697069656e74206d75737420626520756e66726f7a656e000000000000604082015260600190565b6020808252601c908201527f53656e646572206d75737420626520436f6d6d756e697479506f6f6c00000000604082015260600190565b60208082526029908201527f546865206d6573736167652073686f756c6420636f6e7461696e20612066726f6040820152687a656e20737461746560b81b606082015260800190565b60208082526030908201527f416363657373436f6e74726f6c3a2073656e646572206d75737420626520616e60408201526f2061646d696e20746f207265766f6b6560801b606082015260800190565b6020808252602e908201527f496e697469616c697a61626c653a20636f6e747261637420697320616c72656160408201526d191e481a5b9a5d1a585b1a5e995960921b606082015260800190565b60208082526021908201527f547279696e6720746f2073656e64206d6573736167657320746f6f206f6674656040820152603760f91b606082015260800190565b6020808252601590820152742737ba1030baba3437b934bd32b21031b0b63632b960591b604082015260600190565b6020808252601d908201527f53656e646572206973206e6f742061206d6573736167652070726f7879000000604082015260600190565b6020808252602f908201527f416363657373436f6e74726f6c3a2063616e206f6e6c792072656e6f756e636560408201526e103937b632b9903337b91039b2b63360891b606082015260800190565b60405181810167ffffffffffffffff811182821017156113db57600080fd5b604052919050565b600080858511156113f2578182fd5b838611156113fe578182fd5b5050820193919092039150565b60005b8381101561142657818101518382015260200161140e565b83811115611435576000848401525b50505050565b6001600160a01b0381168114610aa557600080fd5b8015158114610aa557600080fdfea2646970667358221220a16be2dcea165d37c26d9bebb8c6ad17976baccf1a7ed1cbd6dc1de613a875bf64736f6c634300060c0033",
  "linkReferences": {},
  "deployedLinkReferences": {}
}