{
  "_format": "hh-sol-artifact-1",
  "contractName": "ERC1155OnChain",
  "sourceName": "contracts/schain/tokens/ERC1155OnChain.sol",
  "abi": [
    {
      "inputs": [
        {
          "internalType": "string",
          "name": "uri",
          "type": "string"
        }
      ],
      "stateMutability": "nonpayable",
      "type": "constructor"
    },
    {
      "anonymous": false,
      "inputs": [
        {
          "indexed": true,
          "internalType": "address",
          "name": "account",
          "type": "address"
        },
        {
          "indexed": true,
          "internalType": "address",
          "name": "operator",
          "type": "address"
        },
        {
          "indexed": false,
          "internalType": "bool",
          "name": "approved",
          "type": "bool"
        }
      ],
      "name": "ApprovalForAll",
      "type": "event"
    },
    {
      "anonymous": false,
      "inputs": [
        {
          "indexed": true,
          "internalType": "bytes32",
          "name": "role",
          "type": "bytes32"
        },
        {
          "indexed": true,
          "internalType": "bytes32",
          "name": "previousAdminRole",
          "type": "bytes32"
        },
        {
          "indexed": true,
          "internalType": "bytes32",
          "name": "newAdminRole",
          "type": "bytes32"
        }
      ],
      "name": "RoleAdminChanged",
      "type": "event"
    },
    {
      "anonymous": false,
      "inputs": [
        {
          "indexed": true,
          "internalType": "bytes32",
          "name": "role",
          "type": "bytes32"
        },
        {
          "indexed": true,
          "internalType": "address",
          "name": "account",
          "type": "address"
        },
        {
          "indexed": true,
          "internalType": "address",
          "name": "sender",
          "type": "address"
        }
      ],
      "name": "RoleGranted",
      "type": "event"
    },
    {
      "anonymous": false,
      "inputs": [
        {
          "indexed": true,
          "internalType": "bytes32",
          "name": "role",
          "type": "bytes32"
        },
        {
          "indexed": true,
          "internalType": "address",
          "name": "account",
          "type": "address"
        },
        {
          "indexed": true,
          "internalType": "address",
          "name": "sender",
          "type": "address"
        }
      ],
      "name": "RoleRevoked",
      "type": "event"
    },
    {
      "anonymous": false,
      "inputs": [
        {
          "indexed": true,
          "internalType": "address",
          "name": "operator",
          "type": "address"
        },
        {
          "indexed": true,
          "internalType": "address",
          "name": "from",
          "type": "address"
        },
        {
          "indexed": true,
          "internalType": "address",
          "name": "to",
          "type": "address"
        },
        {
          "indexed": false,
          "internalType": "uint256[]",
          "name": "ids",
          "type": "uint256[]"
        },
        {
          "indexed": false,
          "internalType": "uint256[]",
          "name": "values",
          "type": "uint256[]"
        }
      ],
      "name": "TransferBatch",
      "type": "event"
    },
    {
      "anonymous": false,
      "inputs": [
        {
          "indexed": true,
          "internalType": "address",
          "name": "operator",
          "type": "address"
        },
        {
          "indexed": true,
          "internalType": "address",
          "name": "from",
          "type": "address"
        },
        {
          "indexed": true,
          "internalType": "address",
          "name": "to",
          "type": "address"
        },
        {
          "indexed": false,
          "internalType": "uint256",
          "name": "id",
          "type": "uint256"
        },
        {
          "indexed": false,
          "internalType": "uint256",
          "name": "value",
          "type": "uint256"
        }
      ],
      "name": "TransferSingle",
      "type": "event"
    },
    {
      "anonymous": false,
      "inputs": [
        {
          "indexed": false,
          "internalType": "string",
          "name": "value",
          "type": "string"
        },
        {
          "indexed": true,
          "internalType": "uint256",
          "name": "id",
          "type": "uint256"
        }
      ],
      "name": "URI",
      "type": "event"
    },
    {
      "inputs": [],
      "name": "DEFAULT_ADMIN_ROLE",
      "outputs": [
        {
          "internalType": "bytes32",
          "name": "",
          "type": "bytes32"
        }
      ],
      "stateMutability": "view",
      "type": "function"
    },
    {
      "inputs": [],
      "name": "MINTER_ROLE",
      "outputs": [
        {
          "internalType": "bytes32",
          "name": "",
          "type": "bytes32"
        }
      ],
      "stateMutability": "view",
      "type": "function"
    },
    {
      "inputs": [
        {
          "internalType": "address",
          "name": "account",
          "type": "address"
        },
        {
          "internalType": "uint256",
          "name": "id",
          "type": "uint256"
        }
      ],
      "name": "balanceOf",
      "outputs": [
        {
          "internalType": "uint256",
          "name": "",
          "type": "uint256"
        }
      ],
      "stateMutability": "view",
      "type": "function"
    },
    {
      "inputs": [
        {
          "internalType": "address[]",
          "name": "accounts",
          "type": "address[]"
        },
        {
          "internalType": "uint256[]",
          "name": "ids",
          "type": "uint256[]"
        }
      ],
      "name": "balanceOfBatch",
      "outputs": [
        {
          "internalType": "uint256[]",
          "name": "",
          "type": "uint256[]"
        }
      ],
      "stateMutability": "view",
      "type": "function"
    },
    {
      "inputs": [
        {
          "internalType": "address",
          "name": "account",
          "type": "address"
        },
        {
          "internalType": "uint256",
          "name": "id",
          "type": "uint256"
        },
        {
          "internalType": "uint256",
          "name": "value",
          "type": "uint256"
        }
      ],
      "name": "burn",
      "outputs": [],
      "stateMutability": "nonpayable",
      "type": "function"
    },
    {
      "inputs": [
        {
          "internalType": "address",
          "name": "account",
          "type": "address"
        },
        {
          "internalType": "uint256[]",
          "name": "ids",
          "type": "uint256[]"
        },
        {
          "internalType": "uint256[]",
          "name": "values",
          "type": "uint256[]"
        }
      ],
      "name": "burnBatch",
      "outputs": [],
      "stateMutability": "nonpayable",
      "type": "function"
    },
    {
      "inputs": [
        {
          "internalType": "bytes32",
          "name": "role",
          "type": "bytes32"
        }
      ],
      "name": "getRoleAdmin",
      "outputs": [
        {
          "internalType": "bytes32",
          "name": "",
          "type": "bytes32"
        }
      ],
      "stateMutability": "view",
      "type": "function"
    },
    {
      "inputs": [
        {
          "internalType": "bytes32",
          "name": "role",
          "type": "bytes32"
        },
        {
          "internalType": "uint256",
          "name": "index",
          "type": "uint256"
        }
      ],
      "name": "getRoleMember",
      "outputs": [
        {
          "internalType": "address",
          "name": "",
          "type": "address"
        }
      ],
      "stateMutability": "view",
      "type": "function"
    },
    {
      "inputs": [
        {
          "internalType": "bytes32",
          "name": "role",
          "type": "bytes32"
        }
      ],
      "name": "getRoleMemberCount",
      "outputs": [
        {
          "internalType": "uint256",
          "name": "",
          "type": "uint256"
        }
      ],
      "stateMutability": "view",
      "type": "function"
    },
    {
      "inputs": [
        {
          "internalType": "bytes32",
          "name": "role",
          "type": "bytes32"
        },
        {
          "internalType": "address",
          "name": "account",
          "type": "address"
        }
      ],
      "name": "grantRole",
      "outputs": [],
      "stateMutability": "nonpayable",
      "type": "function"
    },
    {
      "inputs": [
        {
          "internalType": "bytes32",
          "name": "role",
          "type": "bytes32"
        },
        {
          "internalType": "address",
          "name": "account",
          "type": "address"
        }
      ],
      "name": "hasRole",
      "outputs": [
        {
          "internalType": "bool",
          "name": "",
          "type": "bool"
        }
      ],
      "stateMutability": "view",
      "type": "function"
    },
    {
      "inputs": [
        {
          "internalType": "address",
          "name": "account",
          "type": "address"
        },
        {
          "internalType": "address",
          "name": "operator",
          "type": "address"
        }
      ],
      "name": "isApprovedForAll",
      "outputs": [
        {
          "internalType": "bool",
          "name": "",
          "type": "bool"
        }
      ],
      "stateMutability": "view",
      "type": "function"
    },
    {
      "inputs": [
        {
          "internalType": "address",
          "name": "account",
          "type": "address"
        },
        {
          "internalType": "uint256",
          "name": "id",
          "type": "uint256"
        },
        {
          "internalType": "uint256",
          "name": "amount",
          "type": "uint256"
        },
        {
          "internalType": "bytes",
          "name": "data",
          "type": "bytes"
        }
      ],
      "name": "mint",
      "outputs": [],
      "stateMutability": "nonpayable",
      "type": "function"
    },
    {
      "inputs": [
        {
          "internalType": "address",
          "name": "account",
          "type": "address"
        },
        {
          "internalType": "uint256[]",
          "name": "ids",
          "type": "uint256[]"
        },
        {
          "internalType": "uint256[]",
          "name": "amounts",
          "type": "uint256[]"
        },
        {
          "internalType": "bytes",
          "name": "data",
          "type": "bytes"
        }
      ],
      "name": "mintBatch",
      "outputs": [],
      "stateMutability": "nonpayable",
      "type": "function"
    },
    {
      "inputs": [
        {
          "internalType": "bytes32",
          "name": "role",
          "type": "bytes32"
        },
        {
          "internalType": "address",
          "name": "account",
          "type": "address"
        }
      ],
      "name": "renounceRole",
      "outputs": [],
      "stateMutability": "nonpayable",
      "type": "function"
    },
    {
      "inputs": [
        {
          "internalType": "bytes32",
          "name": "role",
          "type": "bytes32"
        },
        {
          "internalType": "address",
          "name": "account",
          "type": "address"
        }
      ],
      "name": "revokeRole",
      "outputs": [],
      "stateMutability": "nonpayable",
      "type": "function"
    },
    {
      "inputs": [
        {
          "internalType": "address",
          "name": "from",
          "type": "address"
        },
        {
          "internalType": "address",
          "name": "to",
          "type": "address"
        },
        {
          "internalType": "uint256[]",
          "name": "ids",
          "type": "uint256[]"
        },
        {
          "internalType": "uint256[]",
          "name": "amounts",
          "type": "uint256[]"
        },
        {
          "internalType": "bytes",
          "name": "data",
          "type": "bytes"
        }
      ],
      "name": "safeBatchTransferFrom",
      "outputs": [],
      "stateMutability": "nonpayable",
      "type": "function"
    },
    {
      "inputs": [
        {
          "internalType": "address",
          "name": "from",
          "type": "address"
        },
        {
          "internalType": "address",
          "name": "to",
          "type": "address"
        },
        {
          "internalType": "uint256",
          "name": "id",
          "type": "uint256"
        },
        {
          "internalType": "uint256",
          "name": "amount",
          "type": "uint256"
        },
        {
          "internalType": "bytes",
          "name": "data",
          "type": "bytes"
        }
      ],
      "name": "safeTransferFrom",
      "outputs": [],
      "stateMutability": "nonpayable",
      "type": "function"
    },
    {
      "inputs": [
        {
          "internalType": "address",
          "name": "operator",
          "type": "address"
        },
        {
          "internalType": "bool",
          "name": "approved",
          "type": "bool"
        }
      ],
      "name": "setApprovalForAll",
      "outputs": [],
      "stateMutability": "nonpayable",
      "type": "function"
    },
    {
      "inputs": [
        {
          "internalType": "bytes4",
          "name": "interfaceId",
          "type": "bytes4"
        }
      ],
      "name": "supportsInterface",
      "outputs": [
        {
          "internalType": "bool",
          "name": "",
          "type": "bool"
        }
      ],
      "stateMutability": "view",
      "type": "function"
    },
    {
      "inputs": [
        {
          "internalType": "uint256",
          "name": "",
          "type": "uint256"
        }
      ],
      "name": "uri",
      "outputs": [
        {
          "internalType": "string",
          "name": "",
          "type": "string"
        }
      ],
      "stateMutability": "view",
      "type": "function"
    }
  ],
  "bytecode": "0x60806040523480156200001157600080fd5b506040516200381938038062003819833981810160405260208110156200003757600080fd5b81019080805160405193929190846401000000008211156200005857600080fd5b9083019060208201858111156200006e57600080fd5b82516401000000008111828201881017156200008957600080fd5b82525081516020918201929091019080838360005b83811015620000b85781810151838201526020016200009e565b50505050905090810190601f168015620000e65780820380516001836020036101000a031916815260200191505b50604052505050620001026200017360201b620017601760201c565b62000118816200023160201b620018121760201c565b6200012d620002fb60201b620018cd1760201c565b62000148600080516020620037f983398151915280620003a3565b6200016c600080516020620037f983398151915262000166620003f5565b620003f9565b5062000872565b600054610100900460ff16806200018f57506200018f62000405565b806200019e575060005460ff16155b620001db5760405162461bcd60e51b815260040180806020018281038252602e815260200180620037cb602e913960400191505060405180910390fd5b600054610100900460ff1615801562000207576000805460ff1961ff0019909116610100171660011790555b6200021162000423565b6200021b62000423565b80156200022e576000805461ff00191690555b50565b600054610100900460ff16806200024d57506200024d62000405565b806200025c575060005460ff16155b620002995760405162461bcd60e51b815260040180806020018281038252602e815260200180620037cb602e913960400191505060405180910390fd5b600054610100900460ff16158015620002c5576000805460ff1961ff0019909116610100171660011790555b620002cf62000423565b620002d9620004cb565b620002e48262000571565b8015620002f7576000805461ff00191690555b5050565b600054610100900460ff16806200031757506200031762000405565b8062000326575060005460ff16155b620003635760405162461bcd60e51b815260040180806020018281038252602e815260200180620037cb602e913960400191505060405180910390fd5b600054610100900460ff161580156200038f576000805460ff1961ff0019909116610100171660011790555b6200039962000423565b62000211620004cb565b600082815260336020526040808220600201549051839285917fbd79b86ffe0ab8e8776151514217cd7cacd52c909f66475c3af44e129f0b00ff9190a460009182526033602052604090912060020155565b3390565b620002f7828262000634565b60006200041d30620006af60201b6200196a1760201c565b15905090565b600054610100900460ff16806200043f57506200043f62000405565b806200044e575060005460ff16155b6200048b5760405162461bcd60e51b815260040180806020018281038252602e815260200180620037cb602e913960400191505060405180910390fd5b600054610100900460ff161580156200021b576000805460ff1961ff00199091166101001716600117905580156200022e576000805461ff001916905550565b600054610100900460ff1680620004e75750620004e762000405565b80620004f6575060005460ff16155b620005335760405162461bcd60e51b815260040180806020018281038252602e815260200180620037cb602e913960400191505060405180910390fd5b600054610100900460ff161580156200055f576000805460ff1961ff0019909116610100171660011790555b6200021b6301ffc9a760e01b620006b5565b600054610100900460ff16806200058d57506200058d62000405565b806200059c575060005460ff16155b620005d95760405162461bcd60e51b815260040180806020018281038252602e815260200180620037cb602e913960400191505060405180910390fd5b600054610100900460ff1615801562000605576000805460ff1961ff0019909116610100171660011790555b62000610826200073a565b62000622636cdb3d1360e11b620006b5565b620002e46303a24d0760e21b620006b5565b60008281526033602090815260409091206200065b918390620019706200074f821b17901c565b15620002f7576200066b620003f5565b6001600160a01b0316816001600160a01b0316837f2f8788117e7eff1d82e926ec794901d17c78024a50270940304540a733656f0d60405160405180910390a45050565b3b151590565b6001600160e01b0319808216141562000715576040805162461bcd60e51b815260206004820152601c60248201527f4552433136353a20696e76616c696420696e7465726661636520696400000000604482015290519081900360640190fd5b6001600160e01b0319166000908152606560205260409020805460ff19166001179055565b8051620002f7906099906020840190620007d6565b600062000766836001600160a01b0384166200076f565b90505b92915050565b60006200077d8383620007be565b620007b55750815460018181018455600084815260208082209093018490558454848252828601909352604090209190915562000769565b50600062000769565b60009081526001919091016020526040902054151590565b828054600181600116156101000203166002900490600052602060002090601f016020900481019282601f106200081957805160ff191683800117855562000849565b8280016001018555821562000849579182015b82811115620008495782518255916020019190600101906200082c565b50620008579291506200085b565b5090565b5b808211156200085757600081556001016200085c565b612f4980620008826000396000f3fe608060405234801561001057600080fd5b50600436106101365760003560e01c8063731133e9116100b8578063ca15c8731161007c578063ca15c87314610a3d578063d539139314610a5a578063d547741f14610a62578063e985e9c514610a8e578063f242432a14610abc578063f5298aca14610b8557610136565b8063731133e9146108dc5780639010d07c1461099c57806391d14854146109db578063a217fddf14610a07578063a22cb46514610a0f57610136565b80632eb2c2d6116100ff5780632eb2c2d61461041d5780632f2ff15d146105de57806336568abe1461060a5780634e1273f4146106365780636b20c454146107a957610136565b8062fdd58e1461013b57806301ffc9a7146101795780630e89341c146101b45780631f7fdffa14610246578063248a9ca314610400575b600080fd5b6101676004803603604081101561015157600080fd5b506001600160a01b038135169060200135610bb7565b60408051918252519081900360200190f35b6101a06004803603602081101561018f57600080fd5b50356001600160e01b031916610c29565b604080519115158252519081900360200190f35b6101d1600480360360208110156101ca57600080fd5b5035610c48565b6040805160208082528351818301528351919283929083019185019080838360005b8381101561020b5781810151838201526020016101f3565b50505050905090810190601f1680156102385780820380516001836020036101000a031916815260200191505b509250505060405180910390f35b6103fe6004803603608081101561025c57600080fd5b6001600160a01b038235169190810190604081016020820135600160201b81111561028657600080fd5b82018360208201111561029857600080fd5b803590602001918460208302840111600160201b831117156102b957600080fd5b9190808060200260200160405190810160405280939291908181526020018383602002808284376000920191909152509295949360208101935035915050600160201b81111561030857600080fd5b82018360208201111561031a57600080fd5b803590602001918460208302840111600160201b8311171561033b57600080fd5b9190808060200260200160405190810160405280939291908181526020018383602002808284376000920191909152509295949360208101935035915050600160201b81111561038a57600080fd5b82018360208201111561039c57600080fd5b803590602001918460018302840111600160201b831117156103bd57600080fd5b91908080601f016020809104026020016040519081016040528093929190818152602001838380828437600092019190915250929550610ce0945050505050565b005b6101676004803603602081101561041657600080fd5b5035610d6d565b6103fe600480360360a081101561043357600080fd5b6001600160a01b038235811692602081013590911691810190606081016040820135600160201b81111561046657600080fd5b82018360208201111561047857600080fd5b803590602001918460208302840111600160201b8311171561049957600080fd5b9190808060200260200160405190810160405280939291908181526020018383602002808284376000920191909152509295949360208101935035915050600160201b8111156104e857600080fd5b8201836020820111156104fa57600080fd5b803590602001918460208302840111600160201b8311171561051b57600080fd5b9190808060200260200160405190810160405280939291908181526020018383602002808284376000920191909152509295949360208101935035915050600160201b81111561056a57600080fd5b82018360208201111561057c57600080fd5b803590602001918460018302840111600160201b8311171561059d57600080fd5b91908080601f016020809104026020016040519081016040528093929190818152602001838380828437600092019190915250929550610d82945050505050565b6103fe600480360360408110156105f457600080fd5b50803590602001356001600160a01b0316611085565b6103fe6004803603604081101561062057600080fd5b50803590602001356001600160a01b03166110ec565b6107596004803603604081101561064c57600080fd5b810190602081018135600160201b81111561066657600080fd5b82018360208201111561067857600080fd5b803590602001918460208302840111600160201b8311171561069957600080fd5b9190808060200260200160405190810160405280939291908181526020018383602002808284376000920191909152509295949360208101935035915050600160201b8111156106e857600080fd5b8201836020820111156106fa57600080fd5b803590602001918460208302840111600160201b8311171561071b57600080fd5b91908080602002602001604051908101604052809392919081815260200183836020028082843760009201919091525092955061114d945050505050565b60408051602080825283518183015283519192839290830191858101910280838360005b8381101561079557818101518382015260200161077d565b505050509050019250505060405180910390f35b6103fe600480360360608110156107bf57600080fd5b6001600160a01b038235169190810190604081016020820135600160201b8111156107e957600080fd5b8201836020820111156107fb57600080fd5b803590602001918460208302840111600160201b8311171561081c57600080fd5b9190808060200260200160405190810160405280939291908181526020018383602002808284376000920191909152509295949360208101935035915050600160201b81111561086b57600080fd5b82018360208201111561087d57600080fd5b803590602001918460208302840111600160201b8311171561089e57600080fd5b919080806020026020016040519081016040528093929190818152602001838360200280828437600092019190915250929550611239945050505050565b6103fe600480360360808110156108f257600080fd5b6001600160a01b038235169160208101359160408201359190810190608081016060820135600160201b81111561092857600080fd5b82018360208201111561093a57600080fd5b803590602001918460018302840111600160201b8311171561095b57600080fd5b91908080601f0160208091040260200160405190810160405280939291908181526020018383808284376000920191909152509295506112b2945050505050565b6109bf600480360360408110156109b257600080fd5b5080359060200135611334565b604080516001600160a01b039092168252519081900360200190f35b6101a0600480360360408110156109f157600080fd5b50803590602001356001600160a01b0316611353565b61016761136b565b6103fe60048036036040811015610a2557600080fd5b506001600160a01b0381351690602001351515611370565b61016760048036036020811015610a5357600080fd5b503561145f565b610167611476565b6103fe60048036036040811015610a7857600080fd5b50803590602001356001600160a01b031661149a565b6101a060048036036040811015610aa457600080fd5b506001600160a01b03813581169160200135166114f3565b6103fe600480360360a0811015610ad257600080fd5b6001600160a01b03823581169260208101359091169160408201359160608101359181019060a081016080820135600160201b811115610b1157600080fd5b820183602082011115610b2357600080fd5b803590602001918460018302840111600160201b83111715610b4457600080fd5b91908080601f016020809104026020016040519081016040528093929190818152602001838380828437600092019190915250929550611521945050505050565b6103fe60048036036060811015610b9b57600080fd5b506001600160a01b0381351690602081013590604001356116ec565b60006001600160a01b038316610bfe5760405162461bcd60e51b815260040180806020018281038252602b815260200180612cd0602b913960400191505060405180910390fd5b5060008181526097602090815260408083206001600160a01b03861684529091529020545b92915050565b6001600160e01b03191660009081526065602052604090205460ff1690565b60998054604080516020601f6002600019610100600188161502019095169490940493840181900481028201810190925282815260609390929091830182828015610cd45780601f10610ca957610100808354040283529160200191610cd4565b820191906000526020600020905b815481529060010190602001808311610cb757829003601f168201915b50505050509050919050565b610d117f9f2df0fed2c77648de5860a4cc508cd0818c85b8b8a1ab4ceeef8d981c8956a6610d0c611985565b611353565b610d5b576040805162461bcd60e51b815260206004820152601660248201527529b2b73232b91034b9903737ba10309026b4b73a32b960511b604482015290519081900360640190fd5b610d678484848461198a565b50505050565b60009081526033602052604090206002015490565b8151835114610dc25760405162461bcd60e51b8152600401808060200182810382526028815260200180612e9c6028913960400191505060405180910390fd5b6001600160a01b038416610e075760405162461bcd60e51b8152600401808060200182810382526025815260200180612d786025913960400191505060405180910390fd5b610e0f611985565b6001600160a01b0316856001600160a01b03161480610e3a5750610e3a85610e35611985565b6114f3565b610e755760405162461bcd60e51b8152600401808060200182810382526032815260200180612d9d6032913960400191505060405180910390fd5b6000610e7f611985565b9050610e8f81878787878761107d565b60005b8451811015610f95576000858281518110610ea957fe5b602002602001015190506000858381518110610ec157fe5b60200260200101519050610f2e816040518060600160405280602a8152602001612e20602a91396097600086815260200190815260200160002060008d6001600160a01b03166001600160a01b0316815260200190815260200160002054611bdf9092919063ffffffff16565b60008381526097602090815260408083206001600160a01b038e811685529252808320939093558a1681522054610f659082611c76565b60009283526097602090815260408085206001600160a01b038c1686529091529092209190915550600101610e92565b50846001600160a01b0316866001600160a01b0316826001600160a01b03167f4a39dc06d4c0dbc64b70af90fd698a233a518aa5d07e595d983b8c0526c8f7fb8787604051808060200180602001838103835285818151815260200191508051906020019060200280838360005b8381101561101b578181015183820152602001611003565b50505050905001838103825284818151815260200191508051906020019060200280838360005b8381101561105a578181015183820152602001611042565b5050505090500194505050505060405180910390a461107d818787878787611cd0565b505050505050565b6000828152603360205260409020600201546110a390610d0c611985565b6110de5760405162461bcd60e51b815260040180806020018281038252602f815260200180612ca1602f913960400191505060405180910390fd5b6110e88282611f4f565b5050565b6110f4611985565b6001600160a01b0316816001600160a01b0316146111435760405162461bcd60e51b815260040180806020018281038252602f815260200180612ee5602f913960400191505060405180910390fd5b6110e88282611fb8565b6060815183511461118f5760405162461bcd60e51b8152600401808060200182810382526029815260200180612e736029913960400191505060405180910390fd5b6060835167ffffffffffffffff811180156111a957600080fd5b506040519080825280602002602001820160405280156111d3578160200160208202803683370190505b50905060005b8451811015611231576112128582815181106111f157fe5b602002602001015185838151811061120557fe5b6020026020010151610bb7565b82828151811061121e57fe5b60209081029190910101526001016111d9565b509392505050565b611241611985565b6001600160a01b0316836001600160a01b03161480611267575061126783610e35611985565b6112a25760405162461bcd60e51b8152600401808060200182810382526029815260200180612d1f6029913960400191505060405180910390fd5b6112ad838383612021565b505050565b6112de7f9f2df0fed2c77648de5860a4cc508cd0818c85b8b8a1ab4ceeef8d981c8956a6610d0c611985565b611328576040805162461bcd60e51b815260206004820152601660248201527529b2b73232b91034b9903737ba10309026b4b73a32b960511b604482015290519081900360640190fd5b610d678484848461228f565b600082815260336020526040812061134c9083612390565b9392505050565b600082815260336020526040812061134c908361239c565b600081565b816001600160a01b0316611382611985565b6001600160a01b031614156113c85760405162461bcd60e51b8152600401808060200182810382526029815260200180612e4a6029913960400191505060405180910390fd5b80609860006113d5611985565b6001600160a01b03908116825260208083019390935260409182016000908120918716808252919093529120805460ff191692151592909217909155611419611985565b6001600160a01b03167f17307eab39ab6107e8899845ad3d59bd9653f200f220920489ca2b5937696c318360405180821515815260200191505060405180910390a35050565b6000818152603360205260408120610c23906123b1565b7f9f2df0fed2c77648de5860a4cc508cd0818c85b8b8a1ab4ceeef8d981c8956a681565b6000828152603360205260409020600201546114b890610d0c611985565b6111435760405162461bcd60e51b8152600401808060200182810382526030815260200180612d486030913960400191505060405180910390fd5b6001600160a01b03918216600090815260986020908152604080832093909416825291909152205460ff1690565b6001600160a01b0384166115665760405162461bcd60e51b8152600401808060200182810382526025815260200180612d786025913960400191505060405180910390fd5b61156e611985565b6001600160a01b0316856001600160a01b03161480611594575061159485610e35611985565b6115cf5760405162461bcd60e51b8152600401808060200182810382526029815260200180612d1f6029913960400191505060405180910390fd5b60006115d9611985565b90506115f98187876115ea886123bc565b6115f3886123bc565b8761107d565b611640836040518060600160405280602a8152602001612e20602a913960008781526097602090815260408083206001600160a01b038d1684529091529020549190611bdf565b60008581526097602090815260408083206001600160a01b038b811685529252808320939093558716815220546116779084611c76565b60008581526097602090815260408083206001600160a01b03808b168086529184529382902094909455805188815291820187905280518a8416938616927fc3d58168c5ae7397731d063d5bbf3d657854427343f4c083240f7aacaa2d0f6292908290030190a461107d818787878787612400565b6116f4611985565b6001600160a01b0316836001600160a01b0316148061171a575061171a83610e35611985565b6117555760405162461bcd60e51b8152600401808060200182810382526029815260200180612d1f6029913960400191505060405180910390fd5b6112ad838383612571565b600054610100900460ff168061177957506117796126a4565b80611787575060005460ff16155b6117c25760405162461bcd60e51b815260040180806020018281038252602e815260200180612dcf602e913960400191505060405180910390fd5b600054610100900460ff161580156117ed576000805460ff1961ff0019909116610100171660011790555b6117f56126b5565b6117fd6126b5565b801561180f576000805461ff00191690555b50565b600054610100900460ff168061182b575061182b6126a4565b80611839575060005460ff16155b6118745760405162461bcd60e51b815260040180806020018281038252602e815260200180612dcf602e913960400191505060405180910390fd5b600054610100900460ff1615801561189f576000805460ff1961ff0019909116610100171660011790555b6118a76126b5565b6118af612755565b6118b8826127f2565b80156110e8576000805461ff00191690555050565b600054610100900460ff16806118e657506118e66126a4565b806118f4575060005460ff16155b61192f5760405162461bcd60e51b815260040180806020018281038252602e815260200180612dcf602e913960400191505060405180910390fd5b600054610100900460ff1615801561195a576000805460ff1961ff0019909116610100171660011790555b6119626126b5565b6117f5612755565b3b151590565b600061134c836001600160a01b0384166128a8565b335b90565b6001600160a01b0384166119cf5760405162461bcd60e51b8152600401808060200182810382526021815260200180612ec46021913960400191505060405180910390fd5b8151835114611a0f5760405162461bcd60e51b8152600401808060200182810382526028815260200180612e9c6028913960400191505060405180910390fd5b6000611a19611985565b9050611a2a8160008787878761107d565b60005b8451811015611aee57611aa560976000878481518110611a4957fe5b602002602001015181526020019081526020016000206000886001600160a01b03166001600160a01b0316815260200190815260200160002054858381518110611a8f57fe5b6020026020010151611c7690919063ffffffff16565b60976000878481518110611ab557fe5b602090810291909101810151825281810192909252604090810160009081206001600160a01b038b168252909252902055600101611a2d565b50846001600160a01b031660006001600160a01b0316826001600160a01b03167f4a39dc06d4c0dbc64b70af90fd698a233a518aa5d07e595d983b8c0526c8f7fb8787604051808060200180602001838103835285818151815260200191508051906020019060200280838360005b83811015611b75578181015183820152602001611b5d565b50505050905001838103825284818151815260200191508051906020019060200280838360005b83811015611bb4578181015183820152602001611b9c565b5050505090500194505050505060405180910390a4611bd881600087878787611cd0565b5050505050565b60008184841115611c6e5760405162461bcd60e51b81526004018080602001828103825283818151815260200191508051906020019080838360005b83811015611c33578181015183820152602001611c1b565b50505050905090810190601f168015611c605780820380516001836020036101000a031916815260200191505b509250505060405180910390fd5b505050900390565b60008282018381101561134c576040805162461bcd60e51b815260206004820152601b60248201527f536166654d6174683a206164646974696f6e206f766572666c6f770000000000604482015290519081900360640190fd5b611ce2846001600160a01b031661196a565b1561107d57836001600160a01b031663bc197c8187878686866040518663ffffffff1660e01b815260040180866001600160a01b03168152602001856001600160a01b03168152602001806020018060200180602001848103845287818151815260200191508051906020019060200280838360005b83811015611d70578181015183820152602001611d58565b50505050905001848103835286818151815260200191508051906020019060200280838360005b83811015611daf578181015183820152602001611d97565b50505050905001848103825285818151815260200191508051906020019080838360005b83811015611deb578181015183820152602001611dd3565b50505050905090810190601f168015611e185780820380516001836020036101000a031916815260200191505b5098505050505050505050602060405180830381600087803b158015611e3d57600080fd5b505af1925050508015611e6257506040513d6020811015611e5d57600080fd5b505160015b611ef757611e6e612b7d565b80611e795750611ec0565b60405162461bcd60e51b8152602060048201818152835160248401528351849391928392604401919085019080838360008315611c33578181015183820152602001611c1b565b60405162461bcd60e51b8152600401808060200182810382526034815260200180612c236034913960400191505060405180910390fd5b6001600160e01b0319811663bc197c8160e01b14611f465760405162461bcd60e51b8152600401808060200182810382526028815260200180612c796028913960400191505060405180910390fd5b50505050505050565b6000828152603360205260409020611f679082611970565b156110e857611f74611985565b6001600160a01b0316816001600160a01b0316837f2f8788117e7eff1d82e926ec794901d17c78024a50270940304540a733656f0d60405160405180910390a45050565b6000828152603360205260409020611fd090826128f2565b156110e857611fdd611985565b6001600160a01b0316816001600160a01b0316837ff6391f5c32d9c69d2a47ea670b442974b53935d1edc7fd64eb21e047a839171b60405160405180910390a45050565b6001600160a01b0383166120665760405162461bcd60e51b8152600401808060200182810382526023815260200180612dfd6023913960400191505060405180910390fd5b80518251146120a65760405162461bcd60e51b8152600401808060200182810382526028815260200180612e9c6028913960400191505060405180910390fd5b60006120b0611985565b90506120d08185600086866040518060200160405280600081525061107d565b60005b83518110156121ae576121658382815181106120eb57fe5b6020026020010151604051806060016040528060248152602001612cfb602491396097600088868151811061211c57fe5b602002602001015181526020019081526020016000206000896001600160a01b03166001600160a01b0316815260200190815260200160002054611bdf9092919063ffffffff16565b6097600086848151811061217557fe5b602090810291909101810151825281810192909252604090810160009081206001600160a01b038a1682529092529020556001016120d3565b5060006001600160a01b0316846001600160a01b0316826001600160a01b03167f4a39dc06d4c0dbc64b70af90fd698a233a518aa5d07e595d983b8c0526c8f7fb8686604051808060200180602001838103835285818151815260200191508051906020019060200280838360005b8381101561223557818101518382015260200161221d565b50505050905001838103825284818151815260200191508051906020019060200280838360005b8381101561227457818101518382015260200161225c565b5050505090500194505050505060405180910390a450505050565b6001600160a01b0384166122d45760405162461bcd60e51b8152600401808060200182810382526021815260200180612ec46021913960400191505060405180910390fd5b60006122de611985565b90506122f0816000876115ea886123bc565b60008481526097602090815260408083206001600160a01b038916845290915290205461231d9084611c76565b60008581526097602090815260408083206001600160a01b03808b16808652918452828520959095558151898152928301889052815190948616927fc3d58168c5ae7397731d063d5bbf3d657854427343f4c083240f7aacaa2d0f6292908290030190a4611bd881600087878787612400565b600061134c8383612907565b600061134c836001600160a01b03841661296b565b6000610c2382612983565b6040805160018082528183019092526060918291906020808301908036833701905050905082816000815181106123ef57fe5b602090810291909101015292915050565b612412846001600160a01b031661196a565b1561107d57836001600160a01b031663f23a6e6187878686866040518663ffffffff1660e01b815260040180866001600160a01b03168152602001856001600160a01b0316815260200184815260200183815260200180602001828103825283818151815260200191508051906020019080838360005b838110156124a1578181015183820152602001612489565b50505050905090810190601f1680156124ce5780820380516001836020036101000a031916815260200191505b509650505050505050602060405180830381600087803b1580156124f157600080fd5b505af192505050801561251657506040513d602081101561251157600080fd5b505160015b61252257611e6e612b7d565b6001600160e01b0319811663f23a6e6160e01b14611f465760405162461bcd60e51b8152600401808060200182810382526028815260200180612c796028913960400191505060405180910390fd5b6001600160a01b0383166125b65760405162461bcd60e51b8152600401808060200182810382526023815260200180612dfd6023913960400191505060405180910390fd5b60006125c0611985565b90506125f0818560006125d2876123bc565b6125db876123bc565b6040518060200160405280600081525061107d565b61263782604051806060016040528060248152602001612cfb6024913960008681526097602090815260408083206001600160a01b038b1684529091529020549190611bdf565b60008481526097602090815260408083206001600160a01b03808a16808652918452828520959095558151888152928301879052815193949093908616927fc3d58168c5ae7397731d063d5bbf3d657854427343f4c083240f7aacaa2d0f6292908290030190a450505050565b60006126af3061196a565b15905090565b600054610100900460ff16806126ce57506126ce6126a4565b806126dc575060005460ff16155b6127175760405162461bcd60e51b815260040180806020018281038252602e815260200180612dcf602e913960400191505060405180910390fd5b600054610100900460ff161580156117fd576000805460ff1961ff001990911661010017166001179055801561180f576000805461ff001916905550565b600054610100900460ff168061276e575061276e6126a4565b8061277c575060005460ff16155b6127b75760405162461bcd60e51b815260040180806020018281038252602e815260200180612dcf602e913960400191505060405180910390fd5b600054610100900460ff161580156127e2576000805460ff1961ff0019909116610100171660011790555b6117fd6301ffc9a760e01b612987565b600054610100900460ff168061280b575061280b6126a4565b80612819575060005460ff16155b6128545760405162461bcd60e51b815260040180806020018281038252602e815260200180612dcf602e913960400191505060405180910390fd5b600054610100900460ff1615801561287f576000805460ff1961ff0019909116610100171660011790555b61288882612a0b565b612898636cdb3d1360e11b612987565b6118b86303a24d0760e21b612987565b60006128b4838361296b565b6128ea57508154600181810184556000848152602080822090930184905584548482528286019093526040902091909155610c23565b506000610c23565b600061134c836001600160a01b038416612a1e565b815460009082106129495760405162461bcd60e51b8152600401808060200182810382526022815260200180612c576022913960400191505060405180910390fd5b82600001828154811061295857fe5b9060005260206000200154905092915050565b60009081526001919091016020526040902054151590565b5490565b6001600160e01b031980821614156129e6576040805162461bcd60e51b815260206004820152601c60248201527f4552433136353a20696e76616c696420696e7465726661636520696400000000604482015290519081900360640190fd5b6001600160e01b0319166000908152606560205260409020805460ff19166001179055565b80516110e8906099906020840190612ae4565b60008181526001830160205260408120548015612ada5783546000198083019190810190600090879083908110612a5157fe5b9060005260206000200154905080876000018481548110612a6e57fe5b600091825260208083209091019290925582815260018981019092526040902090840190558654879080612a9e57fe5b60019003818190600052602060002001600090559055866001016000878152602001908152602001600020600090556001945050505050610c23565b6000915050610c23565b828054600181600116156101000203166002900490600052602060002090601f016020900481019282601f10612b2557805160ff1916838001178555612b52565b82800160010185558215612b52579182015b82811115612b52578251825591602001919060010190612b37565b50612b5e929150612b62565b5090565b5b80821115612b5e5760008155600101612b63565b60e01c90565b600060443d1015612b8d57611987565b600481823e6308c379a0612ba18251612b77565b14612bab57611987565b6040513d600319016004823e80513d67ffffffffffffffff8160248401118184111715612bdb5750505050611987565b82840192508251915080821115612bf55750505050611987565b503d83016020828401011115612c0d57505050611987565b601f01601f191681016020016040529150509056fe455243313135353a207472616e7366657220746f206e6f6e2045524331313535526563656976657220696d706c656d656e746572456e756d657261626c655365743a20696e646578206f7574206f6620626f756e6473455243313135353a204552433131353552656365697665722072656a656374656420746f6b656e73416363657373436f6e74726f6c3a2073656e646572206d75737420626520616e2061646d696e20746f206772616e74455243313135353a2062616c616e636520717565727920666f7220746865207a65726f2061646472657373455243313135353a206275726e20616d6f756e7420657863656564732062616c616e6365455243313135353a2063616c6c6572206973206e6f74206f776e6572206e6f7220617070726f766564416363657373436f6e74726f6c3a2073656e646572206d75737420626520616e2061646d696e20746f207265766f6b65455243313135353a207472616e7366657220746f20746865207a65726f2061646472657373455243313135353a207472616e736665722063616c6c6572206973206e6f74206f776e6572206e6f7220617070726f766564496e697469616c697a61626c653a20636f6e747261637420697320616c726561647920696e697469616c697a6564455243313135353a206275726e2066726f6d20746865207a65726f2061646472657373455243313135353a20696e73756666696369656e742062616c616e636520666f72207472616e73666572455243313135353a2073657474696e6720617070726f76616c2073746174757320666f722073656c66455243313135353a206163636f756e747320616e6420696473206c656e677468206d69736d61746368455243313135353a2069647320616e6420616d6f756e7473206c656e677468206d69736d61746368455243313135353a206d696e7420746f20746865207a65726f2061646472657373416363657373436f6e74726f6c3a2063616e206f6e6c792072656e6f756e636520726f6c657320666f722073656c66a26469706673582212208082e80af5715fe3fac7824ad3b116a08ca0bb914f0d3fd373b87d6d3d635c7664736f6c634300060c0033496e697469616c697a61626c653a20636f6e747261637420697320616c726561647920696e697469616c697a65649f2df0fed2c77648de5860a4cc508cd0818c85b8b8a1ab4ceeef8d981c8956a6",
  "linkReferences": {},
  "deployedLinkReferences": {}
}