{
  "_format": "hh-sol-artifact-1",
  "contractName": "ERC20OnChain",
  "sourceName": "contracts/schain/tokens/ERC20OnChain.sol",
  "abi": [
    {
      "inputs": [
        {
          "internalType": "string",
          "name": "contractName",
          "type": "string"
        },
        {
          "internalType": "string",
          "name": "contractSymbol",
          "type": "string"
        }
      ],
      "stateMutability": "nonpayable",
      "type": "constructor"
    },
    {
      "anonymous": false,
      "inputs": [
        {
          "indexed": true,
          "internalType": "address",
          "name": "owner",
          "type": "address"
        },
        {
          "indexed": true,
          "internalType": "address",
          "name": "spender",
          "type": "address"
        },
        {
          "indexed": false,
          "internalType": "uint256",
          "name": "value",
          "type": "uint256"
        }
      ],
      "name": "Approval",
      "type": "event"
    },
    {
      "anonymous": false,
      "inputs": [
        {
          "indexed": true,
          "internalType": "bytes32",
          "name": "role",
          "type": "bytes32"
        },
        {
          "indexed": true,
          "internalType": "bytes32",
          "name": "previousAdminRole",
          "type": "bytes32"
        },
        {
          "indexed": true,
          "internalType": "bytes32",
          "name": "newAdminRole",
          "type": "bytes32"
        }
      ],
      "name": "RoleAdminChanged",
      "type": "event"
    },
    {
      "anonymous": false,
      "inputs": [
        {
          "indexed": true,
          "internalType": "bytes32",
          "name": "role",
          "type": "bytes32"
        },
        {
          "indexed": true,
          "internalType": "address",
          "name": "account",
          "type": "address"
        },
        {
          "indexed": true,
          "internalType": "address",
          "name": "sender",
          "type": "address"
        }
      ],
      "name": "RoleGranted",
      "type": "event"
    },
    {
      "anonymous": false,
      "inputs": [
        {
          "indexed": true,
          "internalType": "bytes32",
          "name": "role",
          "type": "bytes32"
        },
        {
          "indexed": true,
          "internalType": "address",
          "name": "account",
          "type": "address"
        },
        {
          "indexed": true,
          "internalType": "address",
          "name": "sender",
          "type": "address"
        }
      ],
      "name": "RoleRevoked",
      "type": "event"
    },
    {
      "anonymous": false,
      "inputs": [
        {
          "indexed": true,
          "internalType": "address",
          "name": "from",
          "type": "address"
        },
        {
          "indexed": true,
          "internalType": "address",
          "name": "to",
          "type": "address"
        },
        {
          "indexed": false,
          "internalType": "uint256",
          "name": "value",
          "type": "uint256"
        }
      ],
      "name": "Transfer",
      "type": "event"
    },
    {
      "inputs": [],
      "name": "DEFAULT_ADMIN_ROLE",
      "outputs": [
        {
          "internalType": "bytes32",
          "name": "",
          "type": "bytes32"
        }
      ],
      "stateMutability": "view",
      "type": "function"
    },
    {
      "inputs": [],
      "name": "MINTER_ROLE",
      "outputs": [
        {
          "internalType": "bytes32",
          "name": "",
          "type": "bytes32"
        }
      ],
      "stateMutability": "view",
      "type": "function"
    },
    {
      "inputs": [
        {
          "internalType": "address",
          "name": "owner",
          "type": "address"
        },
        {
          "internalType": "address",
          "name": "spender",
          "type": "address"
        }
      ],
      "name": "allowance",
      "outputs": [
        {
          "internalType": "uint256",
          "name": "",
          "type": "uint256"
        }
      ],
      "stateMutability": "view",
      "type": "function"
    },
    {
      "inputs": [
        {
          "internalType": "address",
          "name": "spender",
          "type": "address"
        },
        {
          "internalType": "uint256",
          "name": "amount",
          "type": "uint256"
        }
      ],
      "name": "approve",
      "outputs": [
        {
          "internalType": "bool",
          "name": "",
          "type": "bool"
        }
      ],
      "stateMutability": "nonpayable",
      "type": "function"
    },
    {
      "inputs": [
        {
          "internalType": "address",
          "name": "account",
          "type": "address"
        }
      ],
      "name": "balanceOf",
      "outputs": [
        {
          "internalType": "uint256",
          "name": "",
          "type": "uint256"
        }
      ],
      "stateMutability": "view",
      "type": "function"
    },
    {
      "inputs": [
        {
          "internalType": "uint256",
          "name": "amount",
          "type": "uint256"
        }
      ],
      "name": "burn",
      "outputs": [],
      "stateMutability": "nonpayable",
      "type": "function"
    },
    {
      "inputs": [
        {
          "internalType": "address",
          "name": "account",
          "type": "address"
        },
        {
          "internalType": "uint256",
          "name": "amount",
          "type": "uint256"
        }
      ],
      "name": "burnFrom",
      "outputs": [],
      "stateMutability": "nonpayable",
      "type": "function"
    },
    {
      "inputs": [],
      "name": "decimals",
      "outputs": [
        {
          "internalType": "uint8",
          "name": "",
          "type": "uint8"
        }
      ],
      "stateMutability": "view",
      "type": "function"
    },
    {
      "inputs": [
        {
          "internalType": "address",
          "name": "spender",
          "type": "address"
        },
        {
          "internalType": "uint256",
          "name": "subtractedValue",
          "type": "uint256"
        }
      ],
      "name": "decreaseAllowance",
      "outputs": [
        {
          "internalType": "bool",
          "name": "",
          "type": "bool"
        }
      ],
      "stateMutability": "nonpayable",
      "type": "function"
    },
    {
      "inputs": [
        {
          "internalType": "bytes32",
          "name": "role",
          "type": "bytes32"
        }
      ],
      "name": "getRoleAdmin",
      "outputs": [
        {
          "internalType": "bytes32",
          "name": "",
          "type": "bytes32"
        }
      ],
      "stateMutability": "view",
      "type": "function"
    },
    {
      "inputs": [
        {
          "internalType": "bytes32",
          "name": "role",
          "type": "bytes32"
        },
        {
          "internalType": "uint256",
          "name": "index",
          "type": "uint256"
        }
      ],
      "name": "getRoleMember",
      "outputs": [
        {
          "internalType": "address",
          "name": "",
          "type": "address"
        }
      ],
      "stateMutability": "view",
      "type": "function"
    },
    {
      "inputs": [
        {
          "internalType": "bytes32",
          "name": "role",
          "type": "bytes32"
        }
      ],
      "name": "getRoleMemberCount",
      "outputs": [
        {
          "internalType": "uint256",
          "name": "",
          "type": "uint256"
        }
      ],
      "stateMutability": "view",
      "type": "function"
    },
    {
      "inputs": [
        {
          "internalType": "bytes32",
          "name": "role",
          "type": "bytes32"
        },
        {
          "internalType": "address",
          "name": "account",
          "type": "address"
        }
      ],
      "name": "grantRole",
      "outputs": [],
      "stateMutability": "nonpayable",
      "type": "function"
    },
    {
      "inputs": [
        {
          "internalType": "bytes32",
          "name": "role",
          "type": "bytes32"
        },
        {
          "internalType": "address",
          "name": "account",
          "type": "address"
        }
      ],
      "name": "hasRole",
      "outputs": [
        {
          "internalType": "bool",
          "name": "",
          "type": "bool"
        }
      ],
      "stateMutability": "view",
      "type": "function"
    },
    {
      "inputs": [
        {
          "internalType": "address",
          "name": "spender",
          "type": "address"
        },
        {
          "internalType": "uint256",
          "name": "addedValue",
          "type": "uint256"
        }
      ],
      "name": "increaseAllowance",
      "outputs": [
        {
          "internalType": "bool",
          "name": "",
          "type": "bool"
        }
      ],
      "stateMutability": "nonpayable",
      "type": "function"
    },
    {
      "inputs": [
        {
          "internalType": "address",
          "name": "account",
          "type": "address"
        },
        {
          "internalType": "uint256",
          "name": "value",
          "type": "uint256"
        }
      ],
      "name": "mint",
      "outputs": [],
      "stateMutability": "nonpayable",
      "type": "function"
    },
    {
      "inputs": [],
      "name": "name",
      "outputs": [
        {
          "internalType": "string",
          "name": "",
          "type": "string"
        }
      ],
      "stateMutability": "view",
      "type": "function"
    },
    {
      "inputs": [
        {
          "internalType": "bytes32",
          "name": "role",
          "type": "bytes32"
        },
        {
          "internalType": "address",
          "name": "account",
          "type": "address"
        }
      ],
      "name": "renounceRole",
      "outputs": [],
      "stateMutability": "nonpayable",
      "type": "function"
    },
    {
      "inputs": [
        {
          "internalType": "bytes32",
          "name": "role",
          "type": "bytes32"
        },
        {
          "internalType": "address",
          "name": "account",
          "type": "address"
        }
      ],
      "name": "revokeRole",
      "outputs": [],
      "stateMutability": "nonpayable",
      "type": "function"
    },
    {
      "inputs": [],
      "name": "symbol",
      "outputs": [
        {
          "internalType": "string",
          "name": "",
          "type": "string"
        }
      ],
      "stateMutability": "view",
      "type": "function"
    },
    {
      "inputs": [],
      "name": "totalSupply",
      "outputs": [
        {
          "internalType": "uint256",
          "name": "",
          "type": "uint256"
        }
      ],
      "stateMutability": "view",
      "type": "function"
    },
    {
      "inputs": [
        {
          "internalType": "address",
          "name": "recipient",
          "type": "address"
        },
        {
          "internalType": "uint256",
          "name": "amount",
          "type": "uint256"
        }
      ],
      "name": "transfer",
      "outputs": [
        {
          "internalType": "bool",
          "name": "",
          "type": "bool"
        }
      ],
      "stateMutability": "nonpayable",
      "type": "function"
    },
    {
      "inputs": [
        {
          "internalType": "address",
          "name": "sender",
          "type": "address"
        },
        {
          "internalType": "address",
          "name": "recipient",
          "type": "address"
        },
        {
          "internalType": "uint256",
          "name": "amount",
          "type": "uint256"
        }
      ],
      "name": "transferFrom",
      "outputs": [
        {
          "internalType": "bool",
          "name": "",
          "type": "bool"
        }
      ],
      "stateMutability": "nonpayable",
      "type": "function"
    }
  ],
  "bytecode": "0x60806040523480156200001157600080fd5b506040516200206638038062002066833981810160405260408110156200003757600080fd5b81019080805160405193929190846401000000008211156200005857600080fd5b9083019060208201858111156200006e57600080fd5b82516401000000008111828201881017156200008957600080fd5b82525081516020918201929091019080838360005b83811015620000b85781810151838201526020016200009e565b50505050905090810190601f168015620000e65780820380516001836020036101000a031916815260200191505b50604052602001805160405193929190846401000000008211156200010a57600080fd5b9083019060208201858111156200012057600080fd5b82516401000000008111828201881017156200013b57600080fd5b82525081516020918201929091019080838360005b838110156200016a57818101518382015260200162000150565b50505050905090810190601f168015620001985780820380516001836020036101000a031916815260200191505b50604052505050620001b46200022760201b62000a681760201c565b620001cb8282620002e560201b62000b191760201c565b620001e06200022760201b62000a681760201c565b620001fb6000805160206200204683398151915280620003a7565b6200021f6000805160206200204683398151915262000219620003f9565b620003fd565b50506200075b565b600054610100900460ff1680620002435750620002436200040d565b8062000252575060005460ff16155b6200028f5760405162461bcd60e51b815260040180806020018281038252602e81526020018062002018602e913960400191505060405180910390fd5b600054610100900460ff16158015620002bb576000805460ff1961ff0019909116610100171660011790555b620002c56200042b565b620002cf6200042b565b8015620002e2576000805461ff00191690555b50565b600054610100900460ff1680620003015750620003016200040d565b8062000310575060005460ff16155b6200034d5760405162461bcd60e51b815260040180806020018281038252602e81526020018062002018602e913960400191505060405180910390fd5b600054610100900460ff1615801562000379576000805460ff1961ff0019909116610100171660011790555b620003836200042b565b6200038f8383620004d3565b8015620003a2576000805461ff00191690555b505050565b600082815260336020526040808220600201549051839285917fbd79b86ffe0ab8e8776151514217cd7cacd52c909f66475c3af44e129f0b00ff9190a460009182526033602052604090912060020155565b3390565b620004098282620005b7565b5050565b600062000425306200063260201b62000bce1760201c565b15905090565b600054610100900460ff1680620004475750620004476200040d565b8062000456575060005460ff16155b620004935760405162461bcd60e51b815260040180806020018281038252602e81526020018062002018602e913960400191505060405180910390fd5b600054610100900460ff16158015620002cf576000805460ff1961ff0019909116610100171660011790558015620002e2576000805461ff001916905550565b600054610100900460ff1680620004ef5750620004ef6200040d565b80620004fe575060005460ff16155b6200053b5760405162461bcd60e51b815260040180806020018281038252602e81526020018062002018602e913960400191505060405180910390fd5b600054610100900460ff1615801562000567576000805460ff1961ff0019909116610100171660011790555b82516200057c906068906020860190620006bf565b50815162000592906069906020850190620006bf565b50606a805460ff191660121790558015620003a2576000805461ff0019169055505050565b6000828152603360209081526040909120620005de91839062000bd462000638821b17901c565b156200040957620005ee620003f9565b6001600160a01b0316816001600160a01b0316837f2f8788117e7eff1d82e926ec794901d17c78024a50270940304540a733656f0d60405160405180910390a45050565b3b151590565b60006200064f836001600160a01b03841662000658565b90505b92915050565b6000620006668383620006a7565b6200069e5750815460018181018455600084815260208082209093018490558454848252828601909352604090209190915562000652565b50600062000652565b60009081526001919091016020526040902054151590565b828054600181600116156101000203166002900490600052602060002090601f016020900481019282601f106200070257805160ff191683800117855562000732565b8280016001018555821562000732579182015b828111156200073257825182559160200191906001019062000715565b506200074092915062000744565b5090565b5b8082111562000740576000815560010162000745565b6118ad806200076b6000396000f3fe608060405234801561001057600080fd5b506004361061014d5760003560e01c806370a08231116100c3578063a457c2d71161007c578063a457c2d714610436578063a9059cbb14610462578063ca15c8731461048e578063d5391393146104ab578063d547741f146104b3578063dd62ed3e146104df5761014d565b806370a082311461036957806379cc67901461038f5780639010d07c146103bb57806391d14854146103fa57806395d89b4114610426578063a217fddf1461042e5761014d565b80632f2ff15d116101155780632f2ff15d1461027c578063313ce567146102aa57806336568abe146102c857806339509351146102f457806340c10f191461032057806342966c681461034c5761014d565b806306fdde0314610152578063095ea7b3146101cf57806318160ddd1461020f57806323b872dd14610229578063248a9ca31461025f575b600080fd5b61015a61050d565b6040805160208082528351818301528351919283929083019185019080838360005b8381101561019457818101518382015260200161017c565b50505050905090810190601f1680156101c15780820380516001836020036101000a031916815260200191505b509250505060405180910390f35b6101fb600480360360408110156101e557600080fd5b506001600160a01b0381351690602001356105a3565b604080519115158252519081900360200190f35b6102176105c1565b60408051918252519081900360200190f35b6101fb6004803603606081101561023f57600080fd5b506001600160a01b038135811691602081013590911690604001356105c7565b6102176004803603602081101561027557600080fd5b503561064e565b6102a86004803603604081101561029257600080fd5b50803590602001356001600160a01b0316610663565b005b6102b26106cf565b6040805160ff9092168252519081900360200190f35b6102a8600480360360408110156102de57600080fd5b50803590602001356001600160a01b03166106d8565b6101fb6004803603604081101561030a57600080fd5b506001600160a01b038135169060200135610739565b6102a86004803603604081101561033657600080fd5b506001600160a01b038135169060200135610787565b6102a86004803603602081101561036257600080fd5b5035610807565b6102176004803603602081101561037f57600080fd5b50356001600160a01b031661081b565b6102a8600480360360408110156103a557600080fd5b506001600160a01b038135169060200135610836565b6103de600480360360408110156103d157600080fd5b5080359060200135610890565b604080516001600160a01b039092168252519081900360200190f35b6101fb6004803603604081101561041057600080fd5b50803590602001356001600160a01b03166108af565b61015a6108c7565b610217610928565b6101fb6004803603604081101561044c57600080fd5b506001600160a01b03813516906020013561092d565b6101fb6004803603604081101561047857600080fd5b506001600160a01b038135169060200135610995565b610217600480360360208110156104a457600080fd5b50356109a9565b6102176109c0565b6102a8600480360360408110156104c957600080fd5b50803590602001356001600160a01b03166109e4565b610217600480360360408110156104f557600080fd5b506001600160a01b0381358116916020013516610a3d565b60688054604080516020601f60026000196101006001881615020190951694909404938401819004810282018101909252828152606093909290918301828280156105995780601f1061056e57610100808354040283529160200191610599565b820191906000526020600020905b81548152906001019060200180831161057c57829003601f168201915b5050505050905090565b60006105b76105b0610be9565b8484610bed565b5060015b92915050565b60675490565b60006105d4848484610cd9565b610644846105e0610be9565b61063f8560405180606001604052806028815260200161176e602891396001600160a01b038a1660009081526066602052604081209061061e610be9565b6001600160a01b031681526020810191909152604001600020549190610e36565b610bed565b5060019392505050565b60009081526033602052604090206002015490565b60008281526033602052604090206002015461068690610681610be9565b6108af565b6106c15760405162461bcd60e51b815260040180806020018281038252602f815260200180611677602f913960400191505060405180910390fd5b6106cb8282610ecd565b5050565b606a5460ff1690565b6106e0610be9565b6001600160a01b0316816001600160a01b03161461072f5760405162461bcd60e51b815260040180806020018281038252602f815260200180611849602f913960400191505060405180910390fd5b6106cb8282610f36565b60006105b7610746610be9565b8461063f8560666000610757610be9565b6001600160a01b03908116825260208083019390935260409182016000908120918c168152925290205490610f9f565b6107b37f9f2df0fed2c77648de5860a4cc508cd0818c85b8b8a1ab4ceeef8d981c8956a6610681610be9565b6107fd576040805162461bcd60e51b815260206004820152601660248201527529b2b73232b91034b9903737ba10309026b4b73a32b960511b604482015290519081900360640190fd5b6106cb8282610ff9565b610818610812610be9565b826110eb565b50565b6001600160a01b031660009081526065602052604090205490565b600061086d826040518060600160405280602481526020016117966024913961086686610861610be9565b610a3d565b9190610e36565b90506108818361087b610be9565b83610bed565b61088b83836110eb565b505050565b60008281526033602052604081206108a890836111e7565b9392505050565b60008281526033602052604081206108a890836111f3565b60698054604080516020601f60026000196101006001881615020190951694909404938401819004810282018101909252828152606093909290918301828280156105995780601f1061056e57610100808354040283529160200191610599565b600081565b60006105b761093a610be9565b8461063f856040518060600160405280602581526020016118246025913960666000610964610be9565b6001600160a01b03908116825260208083019390935260409182016000908120918d16815292529020549190610e36565b60006105b76109a2610be9565b8484610cd9565b60008181526033602052604081206105bb90611208565b7f9f2df0fed2c77648de5860a4cc508cd0818c85b8b8a1ab4ceeef8d981c8956a681565b600082815260336020526040902060020154610a0290610681610be9565b61072f5760405162461bcd60e51b81526004018080602001828103825260308152602001806117106030913960400191505060405180910390fd5b6001600160a01b03918216600090815260666020908152604080832093909416825291909152205490565b600054610100900460ff1680610a815750610a81611213565b80610a8f575060005460ff16155b610aca5760405162461bcd60e51b815260040180806020018281038252602e815260200180611740602e913960400191505060405180910390fd5b600054610100900460ff16158015610af5576000805460ff1961ff0019909116610100171660011790555b610afd611224565b610b05611224565b8015610818576000805461ff001916905550565b600054610100900460ff1680610b325750610b32611213565b80610b40575060005460ff16155b610b7b5760405162461bcd60e51b815260040180806020018281038252602e815260200180611740602e913960400191505060405180910390fd5b600054610100900460ff16158015610ba6576000805460ff1961ff0019909116610100171660011790555b610bae611224565b610bb883836112c4565b801561088b576000805461ff0019169055505050565b3b151590565b60006108a8836001600160a01b03841661139c565b3390565b6001600160a01b038316610c325760405162461bcd60e51b81526004018080602001828103825260248152602001806118006024913960400191505060405180910390fd5b6001600160a01b038216610c775760405162461bcd60e51b81526004018080602001828103825260228152602001806116c86022913960400191505060405180910390fd5b6001600160a01b03808416600081815260666020908152604080832094871680845294825291829020859055815185815291517f8c5be1e5ebec7d5bd14f71427d1e84f3dd0314c0f7b2291e5b200ac8c7c3b9259281900390910190a3505050565b6001600160a01b038316610d1e5760405162461bcd60e51b81526004018080602001828103825260258152602001806117db6025913960400191505060405180910390fd5b6001600160a01b038216610d635760405162461bcd60e51b81526004018080602001828103825260238152602001806116546023913960400191505060405180910390fd5b610d6e83838361088b565b610dab816040518060600160405280602681526020016116ea602691396001600160a01b0386166000908152606560205260409020549190610e36565b6001600160a01b038085166000908152606560205260408082209390935590841681522054610dda9082610f9f565b6001600160a01b0380841660008181526065602090815260409182902094909455805185815290519193928716927fddf252ad1be2c89b69c2b068fc378daa952ba7f163c4a11628f55a4df523b3ef92918290030190a3505050565b60008184841115610ec55760405162461bcd60e51b81526004018080602001828103825283818151815260200191508051906020019080838360005b83811015610e8a578181015183820152602001610e72565b50505050905090810190601f168015610eb75780820380516001836020036101000a031916815260200191505b509250505060405180910390fd5b505050900390565b6000828152603360205260409020610ee59082610bd4565b156106cb57610ef2610be9565b6001600160a01b0316816001600160a01b0316837f2f8788117e7eff1d82e926ec794901d17c78024a50270940304540a733656f0d60405160405180910390a45050565b6000828152603360205260409020610f4e90826113e6565b156106cb57610f5b610be9565b6001600160a01b0316816001600160a01b0316837ff6391f5c32d9c69d2a47ea670b442974b53935d1edc7fd64eb21e047a839171b60405160405180910390a45050565b6000828201838110156108a8576040805162461bcd60e51b815260206004820152601b60248201527f536166654d6174683a206164646974696f6e206f766572666c6f770000000000604482015290519081900360640190fd5b6001600160a01b038216611054576040805162461bcd60e51b815260206004820152601f60248201527f45524332303a206d696e7420746f20746865207a65726f206164647265737300604482015290519081900360640190fd5b6110606000838361088b565b60675461106d9082610f9f565b6067556001600160a01b0382166000908152606560205260409020546110939082610f9f565b6001600160a01b03831660008181526065602090815260408083209490945583518581529351929391927fddf252ad1be2c89b69c2b068fc378daa952ba7f163c4a11628f55a4df523b3ef9281900390910190a35050565b6001600160a01b0382166111305760405162461bcd60e51b81526004018080602001828103825260218152602001806117ba6021913960400191505060405180910390fd5b61113c8260008361088b565b611179816040518060600160405280602281526020016116a6602291396001600160a01b0385166000908152606560205260409020549190610e36565b6001600160a01b03831660009081526065602052604090205560675461119f90826113fb565b6067556040805182815290516000916001600160a01b038516917fddf252ad1be2c89b69c2b068fc378daa952ba7f163c4a11628f55a4df523b3ef9181900360200190a35050565b60006108a88383611458565b60006108a8836001600160a01b0384166114bc565b60006105bb826114d4565b600061121e30610bce565b15905090565b600054610100900460ff168061123d575061123d611213565b8061124b575060005460ff16155b6112865760405162461bcd60e51b815260040180806020018281038252602e815260200180611740602e913960400191505060405180910390fd5b600054610100900460ff16158015610b05576000805460ff1961ff0019909116610100171660011790558015610818576000805461ff001916905550565b600054610100900460ff16806112dd57506112dd611213565b806112eb575060005460ff16155b6113265760405162461bcd60e51b815260040180806020018281038252602e815260200180611740602e913960400191505060405180910390fd5b600054610100900460ff16158015611351576000805460ff1961ff0019909116610100171660011790555b825161136490606890602086019061159e565b50815161137890606990602085019061159e565b50606a805460ff19166012179055801561088b576000805461ff0019169055505050565b60006113a883836114bc565b6113de575081546001818101845560008481526020808220909301849055845484825282860190935260409020919091556105bb565b5060006105bb565b60006108a8836001600160a01b0384166114d8565b600082821115611452576040805162461bcd60e51b815260206004820152601e60248201527f536166654d6174683a207375627472616374696f6e206f766572666c6f770000604482015290519081900360640190fd5b50900390565b8154600090821061149a5760405162461bcd60e51b81526004018080602001828103825260228152602001806116326022913960400191505060405180910390fd5b8260000182815481106114a957fe5b9060005260206000200154905092915050565b60009081526001919091016020526040902054151590565b5490565b60008181526001830160205260408120548015611594578354600019808301919081019060009087908390811061150b57fe5b906000526020600020015490508087600001848154811061152857fe5b60009182526020808320909101929092558281526001898101909252604090209084019055865487908061155857fe5b600190038181906000526020600020016000905590558660010160008781526020019081526020016000206000905560019450505050506105bb565b60009150506105bb565b828054600181600116156101000203166002900490600052602060002090601f016020900481019282601f106115df57805160ff191683800117855561160c565b8280016001018555821561160c579182015b8281111561160c5782518255916020019190600101906115f1565b5061161892915061161c565b5090565b5b80821115611618576000815560010161161d56fe456e756d657261626c655365743a20696e646578206f7574206f6620626f756e647345524332303a207472616e7366657220746f20746865207a65726f2061646472657373416363657373436f6e74726f6c3a2073656e646572206d75737420626520616e2061646d696e20746f206772616e7445524332303a206275726e20616d6f756e7420657863656564732062616c616e636545524332303a20617070726f766520746f20746865207a65726f206164647265737345524332303a207472616e7366657220616d6f756e7420657863656564732062616c616e6365416363657373436f6e74726f6c3a2073656e646572206d75737420626520616e2061646d696e20746f207265766f6b65496e697469616c697a61626c653a20636f6e747261637420697320616c726561647920696e697469616c697a656445524332303a207472616e7366657220616d6f756e74206578636565647320616c6c6f77616e636545524332303a206275726e20616d6f756e74206578636565647320616c6c6f77616e636545524332303a206275726e2066726f6d20746865207a65726f206164647265737345524332303a207472616e736665722066726f6d20746865207a65726f206164647265737345524332303a20617070726f76652066726f6d20746865207a65726f206164647265737345524332303a2064656372656173656420616c6c6f77616e63652062656c6f77207a65726f416363657373436f6e74726f6c3a2063616e206f6e6c792072656e6f756e636520726f6c657320666f722073656c66a2646970667358221220f5fd5b9f427fa0188f9574676da4de58e3fd195487cc5f2ba14cd5cbd4d68d2464736f6c634300060c0033496e697469616c697a61626c653a20636f6e747261637420697320616c726561647920696e697469616c697a65649f2df0fed2c77648de5860a4cc508cd0818c85b8b8a1ab4ceeef8d981c8956a6",
  "linkReferences": {},
  "deployedLinkReferences": {}
}