{
  "_format": "hh-sol-artifact-1",
  "contractName": "EthErc20",
  "sourceName": "contracts/schain/tokens/EthErc20.sol",
  "abi": [
    {
      "anonymous": false,
      "inputs": [
        {
          "indexed": true,
          "internalType": "address",
          "name": "owner",
          "type": "address"
        },
        {
          "indexed": true,
          "internalType": "address",
          "name": "spender",
          "type": "address"
        },
        {
          "indexed": false,
          "internalType": "uint256",
          "name": "value",
          "type": "uint256"
        }
      ],
      "name": "Approval",
      "type": "event"
    },
    {
      "anonymous": false,
      "inputs": [
        {
          "indexed": true,
          "internalType": "bytes32",
          "name": "role",
          "type": "bytes32"
        },
        {
          "indexed": true,
          "internalType": "bytes32",
          "name": "previousAdminRole",
          "type": "bytes32"
        },
        {
          "indexed": true,
          "internalType": "bytes32",
          "name": "newAdminRole",
          "type": "bytes32"
        }
      ],
      "name": "RoleAdminChanged",
      "type": "event"
    },
    {
      "anonymous": false,
      "inputs": [
        {
          "indexed": true,
          "internalType": "bytes32",
          "name": "role",
          "type": "bytes32"
        },
        {
          "indexed": true,
          "internalType": "address",
          "name": "account",
          "type": "address"
        },
        {
          "indexed": true,
          "internalType": "address",
          "name": "sender",
          "type": "address"
        }
      ],
      "name": "RoleGranted",
      "type": "event"
    },
    {
      "anonymous": false,
      "inputs": [
        {
          "indexed": true,
          "internalType": "bytes32",
          "name": "role",
          "type": "bytes32"
        },
        {
          "indexed": true,
          "internalType": "address",
          "name": "account",
          "type": "address"
        },
        {
          "indexed": true,
          "internalType": "address",
          "name": "sender",
          "type": "address"
        }
      ],
      "name": "RoleRevoked",
      "type": "event"
    },
    {
      "anonymous": false,
      "inputs": [
        {
          "indexed": true,
          "internalType": "address",
          "name": "from",
          "type": "address"
        },
        {
          "indexed": true,
          "internalType": "address",
          "name": "to",
          "type": "address"
        },
        {
          "indexed": false,
          "internalType": "uint256",
          "name": "value",
          "type": "uint256"
        }
      ],
      "name": "Transfer",
      "type": "event"
    },
    {
      "inputs": [],
      "name": "BURNER_ROLE",
      "outputs": [
        {
          "internalType": "bytes32",
          "name": "",
          "type": "bytes32"
        }
      ],
      "stateMutability": "view",
      "type": "function"
    },
    {
      "inputs": [],
      "name": "DEFAULT_ADMIN_ROLE",
      "outputs": [
        {
          "internalType": "bytes32",
          "name": "",
          "type": "bytes32"
        }
      ],
      "stateMutability": "view",
      "type": "function"
    },
    {
      "inputs": [],
      "name": "MINTER_ROLE",
      "outputs": [
        {
          "internalType": "bytes32",
          "name": "",
          "type": "bytes32"
        }
      ],
      "stateMutability": "view",
      "type": "function"
    },
    {
      "inputs": [
        {
          "internalType": "address",
          "name": "owner",
          "type": "address"
        },
        {
          "internalType": "address",
          "name": "spender",
          "type": "address"
        }
      ],
      "name": "allowance",
      "outputs": [
        {
          "internalType": "uint256",
          "name": "",
          "type": "uint256"
        }
      ],
      "stateMutability": "view",
      "type": "function"
    },
    {
      "inputs": [
        {
          "internalType": "address",
          "name": "spender",
          "type": "address"
        },
        {
          "internalType": "uint256",
          "name": "amount",
          "type": "uint256"
        }
      ],
      "name": "approve",
      "outputs": [
        {
          "internalType": "bool",
          "name": "",
          "type": "bool"
        }
      ],
      "stateMutability": "nonpayable",
      "type": "function"
    },
    {
      "inputs": [
        {
          "internalType": "address",
          "name": "account",
          "type": "address"
        }
      ],
      "name": "balanceOf",
      "outputs": [
        {
          "internalType": "uint256",
          "name": "",
          "type": "uint256"
        }
      ],
      "stateMutability": "view",
      "type": "function"
    },
    {
      "inputs": [
        {
          "internalType": "uint256",
          "name": "amount",
          "type": "uint256"
        }
      ],
      "name": "burn",
      "outputs": [],
      "stateMutability": "nonpayable",
      "type": "function"
    },
    {
      "inputs": [
        {
          "internalType": "address",
          "name": "account",
          "type": "address"
        },
        {
          "internalType": "uint256",
          "name": "amount",
          "type": "uint256"
        }
      ],
      "name": "burnFrom",
      "outputs": [],
      "stateMutability": "nonpayable",
      "type": "function"
    },
    {
      "inputs": [],
      "name": "decimals",
      "outputs": [
        {
          "internalType": "uint8",
          "name": "",
          "type": "uint8"
        }
      ],
      "stateMutability": "view",
      "type": "function"
    },
    {
      "inputs": [
        {
          "internalType": "address",
          "name": "spender",
          "type": "address"
        },
        {
          "internalType": "uint256",
          "name": "subtractedValue",
          "type": "uint256"
        }
      ],
      "name": "decreaseAllowance",
      "outputs": [
        {
          "internalType": "bool",
          "name": "",
          "type": "bool"
        }
      ],
      "stateMutability": "nonpayable",
      "type": "function"
    },
    {
      "inputs": [
        {
          "internalType": "address",
          "name": "account",
          "type": "address"
        },
        {
          "internalType": "uint256",
          "name": "amount",
          "type": "uint256"
        }
      ],
      "name": "forceBurn",
      "outputs": [],
      "stateMutability": "nonpayable",
      "type": "function"
    },
    {
      "inputs": [
        {
          "internalType": "bytes32",
          "name": "role",
          "type": "bytes32"
        }
      ],
      "name": "getRoleAdmin",
      "outputs": [
        {
          "internalType": "bytes32",
          "name": "",
          "type": "bytes32"
        }
      ],
      "stateMutability": "view",
      "type": "function"
    },
    {
      "inputs": [
        {
          "internalType": "bytes32",
          "name": "role",
          "type": "bytes32"
        },
        {
          "internalType": "uint256",
          "name": "index",
          "type": "uint256"
        }
      ],
      "name": "getRoleMember",
      "outputs": [
        {
          "internalType": "address",
          "name": "",
          "type": "address"
        }
      ],
      "stateMutability": "view",
      "type": "function"
    },
    {
      "inputs": [
        {
          "internalType": "bytes32",
          "name": "role",
          "type": "bytes32"
        }
      ],
      "name": "getRoleMemberCount",
      "outputs": [
        {
          "internalType": "uint256",
          "name": "",
          "type": "uint256"
        }
      ],
      "stateMutability": "view",
      "type": "function"
    },
    {
      "inputs": [
        {
          "internalType": "bytes32",
          "name": "role",
          "type": "bytes32"
        },
        {
          "internalType": "address",
          "name": "account",
          "type": "address"
        }
      ],
      "name": "grantRole",
      "outputs": [],
      "stateMutability": "nonpayable",
      "type": "function"
    },
    {
      "inputs": [
        {
          "internalType": "bytes32",
          "name": "role",
          "type": "bytes32"
        },
        {
          "internalType": "address",
          "name": "account",
          "type": "address"
        }
      ],
      "name": "hasRole",
      "outputs": [
        {
          "internalType": "bool",
          "name": "",
          "type": "bool"
        }
      ],
      "stateMutability": "view",
      "type": "function"
    },
    {
      "inputs": [
        {
          "internalType": "address",
          "name": "spender",
          "type": "address"
        },
        {
          "internalType": "uint256",
          "name": "addedValue",
          "type": "uint256"
        }
      ],
      "name": "increaseAllowance",
      "outputs": [
        {
          "internalType": "bool",
          "name": "",
          "type": "bool"
        }
      ],
      "stateMutability": "nonpayable",
      "type": "function"
    },
    {
      "inputs": [
        {
          "internalType": "address",
          "name": "tokenManagerEthAddress",
          "type": "address"
        }
      ],
      "name": "initialize",
      "outputs": [],
      "stateMutability": "nonpayable",
      "type": "function"
    },
    {
      "inputs": [
        {
          "internalType": "address",
          "name": "account",
          "type": "address"
        },
        {
          "internalType": "uint256",
          "name": "amount",
          "type": "uint256"
        }
      ],
      "name": "mint",
      "outputs": [],
      "stateMutability": "nonpayable",
      "type": "function"
    },
    {
      "inputs": [],
      "name": "name",
      "outputs": [
        {
          "internalType": "string",
          "name": "",
          "type": "string"
        }
      ],
      "stateMutability": "view",
      "type": "function"
    },
    {
      "inputs": [
        {
          "internalType": "bytes32",
          "name": "role",
          "type": "bytes32"
        },
        {
          "internalType": "address",
          "name": "account",
          "type": "address"
        }
      ],
      "name": "renounceRole",
      "outputs": [],
      "stateMutability": "nonpayable",
      "type": "function"
    },
    {
      "inputs": [
        {
          "internalType": "bytes32",
          "name": "role",
          "type": "bytes32"
        },
        {
          "internalType": "address",
          "name": "account",
          "type": "address"
        }
      ],
      "name": "revokeRole",
      "outputs": [],
      "stateMutability": "nonpayable",
      "type": "function"
    },
    {
      "inputs": [],
      "name": "symbol",
      "outputs": [
        {
          "internalType": "string",
          "name": "",
          "type": "string"
        }
      ],
      "stateMutability": "view",
      "type": "function"
    },
    {
      "inputs": [],
      "name": "totalSupply",
      "outputs": [
        {
          "internalType": "uint256",
          "name": "",
          "type": "uint256"
        }
      ],
      "stateMutability": "view",
      "type": "function"
    },
    {
      "inputs": [
        {
          "internalType": "address",
          "name": "recipient",
          "type": "address"
        },
        {
          "internalType": "uint256",
          "name": "amount",
          "type": "uint256"
        }
      ],
      "name": "transfer",
      "outputs": [
        {
          "internalType": "bool",
          "name": "",
          "type": "bool"
        }
      ],
      "stateMutability": "nonpayable",
      "type": "function"
    },
    {
      "inputs": [
        {
          "internalType": "address",
          "name": "sender",
          "type": "address"
        },
        {
          "internalType": "address",
          "name": "recipient",
          "type": "address"
        },
        {
          "internalType": "uint256",
          "name": "amount",
          "type": "uint256"
        }
      ],
      "name": "transferFrom",
      "outputs": [
        {
          "internalType": "bool",
          "name": "",
          "type": "bool"
        }
      ],
      "stateMutability": "nonpayable",
      "type": "function"
    }
  ],
  "bytecode": "0x608060405234801561001057600080fd5b50611b5a806100206000396000f3fe608060405234801561001057600080fd5b506004361061018e5760003560e01c806379cc6790116100de578063a9059cbb11610097578063d539139311610071578063d53913931461051a578063d547741f14610522578063dd62ed3e1461054e578063e2d6f6341461057c5761018e565b8063a9059cbb146104ab578063c4d66de8146104d7578063ca15c873146104fd5761018e565b806379cc6790146103d85780639010d07c1461040457806391d148541461044357806395d89b411461046f578063a217fddf14610477578063a457c2d71461047f5761018e565b80632f2ff15d1161014b5780633950935111610125578063395093511461033d57806340c10f191461036957806342966c681461039557806370a08231146103b25761018e565b80632f2ff15d146102c5578063313ce567146102f357806336568abe146103115761018e565b806306fdde0314610193578063095ea7b31461021057806318160ddd1461025057806323b872dd1461026a578063248a9ca3146102a0578063282c51f3146102bd575b600080fd5b61019b6105a8565b6040805160208082528351818301528351919283929083019185019080838360005b838110156101d55781810151838201526020016101bd565b50505050905090810190601f1680156102025780820380516001836020036101000a031916815260200191505b509250505060405180910390f35b61023c6004803603604081101561022657600080fd5b506001600160a01b03813516906020013561063e565b604080519115158252519081900360200190f35b61025861065c565b60408051918252519081900360200190f35b61023c6004803603606081101561028057600080fd5b506001600160a01b03813581169160208101359091169060400135610662565b610258600480360360208110156102b657600080fd5b50356106e9565b6102586106fe565b6102f1600480360360408110156102db57600080fd5b50803590602001356001600160a01b0316610722565b005b6102fb61078e565b6040805160ff9092168252519081900360200190f35b6102f16004803603604081101561032757600080fd5b50803590602001356001600160a01b0316610797565b61023c6004803603604081101561035357600080fd5b506001600160a01b0381351690602001356107f8565b6102f16004803603604081101561037f57600080fd5b506001600160a01b038135169060200135610846565b6102f1600480360360208110156103ab57600080fd5b50356108cd565b610258600480360360208110156103c857600080fd5b50356001600160a01b03166108e1565b6102f1600480360360408110156103ee57600080fd5b506001600160a01b0381351690602001356108fc565b6104276004803603604081101561041a57600080fd5b5080359060200135610956565b604080516001600160a01b039092168252519081900360200190f35b61023c6004803603604081101561045957600080fd5b50803590602001356001600160a01b0316610975565b61019b61098d565b6102586109ee565b61023c6004803603604081101561049557600080fd5b506001600160a01b0381351690602001356109f3565b61023c600480360360408110156104c157600080fd5b506001600160a01b038135169060200135610a5b565b6102f1600480360360208110156104ed57600080fd5b50356001600160a01b0316610a6f565b6102586004803603602081101561051357600080fd5b5035610bcf565b610258610be6565b6102f16004803603604081101561053857600080fd5b50803590602001356001600160a01b0316610c0a565b6102586004803603604081101561056457600080fd5b506001600160a01b0381358116916020013516610c63565b6102f16004803603604081101561059257600080fd5b506001600160a01b038135169060200135610c8e565b60688054604080516020601f60026000196101006001881615020190951694909404938401819004810282018101909252828152606093909290918301828280156106345780601f1061060957610100808354040283529160200191610634565b820191906000526020600020905b81548152906001019060200180831161061757829003601f168201915b5050505050905090565b600061065261064b610d15565b8484610d19565b5060015b92915050565b60675490565b600061066f848484610e05565b6106df8461067b610d15565b6106da85604051806060016040528060288152602001611a1b602891396001600160a01b038a166000908152606660205260408120906106b9610d15565b6001600160a01b031681526020810191909152604001600020549190610f62565b610d19565b5060019392505050565b60009081526033602052604090206002015490565b7f3c11d16cbaffd01df69ce1c404f6340ee057498f5f00246190ea54220576a84881565b60008281526033602052604090206002015461074590610740610d15565b610975565b6107805760405162461bcd60e51b815260040180806020018281038252602f815260200180611924602f913960400191505060405180910390fd5b61078a8282610ff9565b5050565b606a5460ff1690565b61079f610d15565b6001600160a01b0316816001600160a01b0316146107ee5760405162461bcd60e51b815260040180806020018281038252602f815260200180611af6602f913960400191505060405180910390fd5b61078a8282611062565b6000610652610805610d15565b846106da8560666000610816610d15565b6001600160a01b03908116825260208083019390935260409182016000908120918c1681529252902054906110cb565b6108727f9f2df0fed2c77648de5860a4cc508cd0818c85b8b8a1ab4ceeef8d981c8956a6610740610d15565b6108c3576040805162461bcd60e51b815260206004820152601760248201527f4d494e54455220726f6c65206973207265717569726564000000000000000000604482015290519081900360640190fd5b61078a8282611125565b6108de6108d8610d15565b82611217565b50565b6001600160a01b031660009081526065602052604090205490565b600061093382604051806060016040528060248152602001611a436024913961092c86610927610d15565b610c63565b9190610f62565b905061094783610941610d15565b83610d19565b6109518383611217565b505050565b600082815260336020526040812061096e9083611313565b9392505050565b600082815260336020526040812061096e908361131f565b60698054604080516020601f60026000196101006001881615020190951694909404938401819004810282018101909252828152606093909290918301828280156106345780601f1061060957610100808354040283529160200191610634565b600081565b6000610652610a00610d15565b846106da85604051806060016040528060258152602001611ad16025913960666000610a2a610d15565b6001600160a01b03908116825260208083019390935260409182016000908120918d16815292529020549190610f62565b6000610652610a68610d15565b8484610e05565b600054610100900460ff1680610a885750610a88611334565b80610a96575060005460ff16155b610ad15760405162461bcd60e51b815260040180806020018281038252602e8152602001806119ed602e913960400191505060405180910390fd5b600054610100900460ff16158015610afc576000805460ff1961ff0019909116610100171660011790555b610b04611345565b610b5360405180604001604052806011815260200170455243323020457468657220436c6f6e6560781b815250604051806040016040528060048152602001634554484360e01b8152506113f6565b610b5b611345565b610b66600033610780565b610b907f9f2df0fed2c77648de5860a4cc508cd0818c85b8b8a1ab4ceeef8d981c8956a683610780565b610bba7f3c11d16cbaffd01df69ce1c404f6340ee057498f5f00246190ea54220576a84883610780565b801561078a576000805461ff00191690555050565b6000818152603360205260408120610656906114ab565b7f9f2df0fed2c77648de5860a4cc508cd0818c85b8b8a1ab4ceeef8d981c8956a681565b600082815260336020526040902060020154610c2890610740610d15565b6107ee5760405162461bcd60e51b81526004018080602001828103825260308152602001806119bd6030913960400191505060405180910390fd5b6001600160a01b03918216600090815260666020908152604080832093909416825291909152205490565b610cba7f3c11d16cbaffd01df69ce1c404f6340ee057498f5f00246190ea54220576a848610740610d15565b610d0b576040805162461bcd60e51b815260206004820152601760248201527f4255524e455220726f6c65206973207265717569726564000000000000000000604482015290519081900360640190fd5b61078a8282611217565b3390565b6001600160a01b038316610d5e5760405162461bcd60e51b8152600401808060200182810382526024815260200180611aad6024913960400191505060405180910390fd5b6001600160a01b038216610da35760405162461bcd60e51b81526004018080602001828103825260228152602001806119756022913960400191505060405180910390fd5b6001600160a01b03808416600081815260666020908152604080832094871680845294825291829020859055815185815291517f8c5be1e5ebec7d5bd14f71427d1e84f3dd0314c0f7b2291e5b200ac8c7c3b9259281900390910190a3505050565b6001600160a01b038316610e4a5760405162461bcd60e51b8152600401808060200182810382526025815260200180611a886025913960400191505060405180910390fd5b6001600160a01b038216610e8f5760405162461bcd60e51b81526004018080602001828103825260238152602001806119016023913960400191505060405180910390fd5b610e9a838383610951565b610ed781604051806060016040528060268152602001611997602691396001600160a01b0386166000908152606560205260409020549190610f62565b6001600160a01b038085166000908152606560205260408082209390935590841681522054610f0690826110cb565b6001600160a01b0380841660008181526065602090815260409182902094909455805185815290519193928716927fddf252ad1be2c89b69c2b068fc378daa952ba7f163c4a11628f55a4df523b3ef92918290030190a3505050565b60008184841115610ff15760405162461bcd60e51b81526004018080602001828103825283818151815260200191508051906020019080838360005b83811015610fb6578181015183820152602001610f9e565b50505050905090810190601f168015610fe35780820380516001836020036101000a031916815260200191505b509250505060405180910390fd5b505050900390565b600082815260336020526040902061101190826114b6565b1561078a5761101e610d15565b6001600160a01b0316816001600160a01b0316837f2f8788117e7eff1d82e926ec794901d17c78024a50270940304540a733656f0d60405160405180910390a45050565b600082815260336020526040902061107a90826114cb565b1561078a57611087610d15565b6001600160a01b0316816001600160a01b0316837ff6391f5c32d9c69d2a47ea670b442974b53935d1edc7fd64eb21e047a839171b60405160405180910390a45050565b60008282018381101561096e576040805162461bcd60e51b815260206004820152601b60248201527f536166654d6174683a206164646974696f6e206f766572666c6f770000000000604482015290519081900360640190fd5b6001600160a01b038216611180576040805162461bcd60e51b815260206004820152601f60248201527f45524332303a206d696e7420746f20746865207a65726f206164647265737300604482015290519081900360640190fd5b61118c60008383610951565b60675461119990826110cb565b6067556001600160a01b0382166000908152606560205260409020546111bf90826110cb565b6001600160a01b03831660008181526065602090815260408083209490945583518581529351929391927fddf252ad1be2c89b69c2b068fc378daa952ba7f163c4a11628f55a4df523b3ef9281900390910190a35050565b6001600160a01b03821661125c5760405162461bcd60e51b8152600401808060200182810382526021815260200180611a676021913960400191505060405180910390fd5b61126882600083610951565b6112a581604051806060016040528060228152602001611953602291396001600160a01b0385166000908152606560205260409020549190610f62565b6001600160a01b0383166000908152606560205260409020556067546112cb90826114e0565b6067556040805182815290516000916001600160a01b038516917fddf252ad1be2c89b69c2b068fc378daa952ba7f163c4a11628f55a4df523b3ef9181900360200190a35050565b600061096e838361153d565b600061096e836001600160a01b0384166115a1565b600061133f306115b9565b15905090565b600054610100900460ff168061135e575061135e611334565b8061136c575060005460ff16155b6113a75760405162461bcd60e51b815260040180806020018281038252602e8152602001806119ed602e913960400191505060405180910390fd5b600054610100900460ff161580156113d2576000805460ff1961ff0019909116610100171660011790555b6113da6115bf565b6113e26115bf565b80156108de576000805461ff001916905550565b600054610100900460ff168061140f575061140f611334565b8061141d575060005460ff16155b6114585760405162461bcd60e51b815260040180806020018281038252602e8152602001806119ed602e913960400191505060405180910390fd5b600054610100900460ff16158015611483576000805460ff1961ff0019909116610100171660011790555b61148b6115bf565b611495838361165f565b8015610951576000805461ff0019169055505050565b600061065682611737565b600061096e836001600160a01b03841661173b565b600061096e836001600160a01b038416611785565b600082821115611537576040805162461bcd60e51b815260206004820152601e60248201527f536166654d6174683a207375627472616374696f6e206f766572666c6f770000604482015290519081900360640190fd5b50900390565b8154600090821061157f5760405162461bcd60e51b81526004018080602001828103825260228152602001806118df6022913960400191505060405180910390fd5b82600001828154811061158e57fe5b9060005260206000200154905092915050565b60009081526001919091016020526040902054151590565b3b151590565b600054610100900460ff16806115d857506115d8611334565b806115e6575060005460ff16155b6116215760405162461bcd60e51b815260040180806020018281038252602e8152602001806119ed602e913960400191505060405180910390fd5b600054610100900460ff161580156113e2576000805460ff1961ff00199091166101001716600117905580156108de576000805461ff001916905550565b600054610100900460ff16806116785750611678611334565b80611686575060005460ff16155b6116c15760405162461bcd60e51b815260040180806020018281038252602e8152602001806119ed602e913960400191505060405180910390fd5b600054610100900460ff161580156116ec576000805460ff1961ff0019909116610100171660011790555b82516116ff90606890602086019061184b565b50815161171390606990602085019061184b565b50606a805460ff191660121790558015610951576000805461ff0019169055505050565b5490565b600061174783836115a1565b61177d57508154600181810184556000848152602080822090930184905584548482528286019093526040902091909155610656565b506000610656565b6000818152600183016020526040812054801561184157835460001980830191908101906000908790839081106117b857fe5b90600052602060002001549050808760000184815481106117d557fe5b60009182526020808320909101929092558281526001898101909252604090209084019055865487908061180557fe5b60019003818190600052602060002001600090559055866001016000878152602001908152602001600020600090556001945050505050610656565b6000915050610656565b828054600181600116156101000203166002900490600052602060002090601f016020900481019282601f1061188c57805160ff19168380011785556118b9565b828001600101855582156118b9579182015b828111156118b957825182559160200191906001019061189e565b506118c59291506118c9565b5090565b5b808211156118c557600081556001016118ca56fe456e756d657261626c655365743a20696e646578206f7574206f6620626f756e647345524332303a207472616e7366657220746f20746865207a65726f2061646472657373416363657373436f6e74726f6c3a2073656e646572206d75737420626520616e2061646d696e20746f206772616e7445524332303a206275726e20616d6f756e7420657863656564732062616c616e636545524332303a20617070726f766520746f20746865207a65726f206164647265737345524332303a207472616e7366657220616d6f756e7420657863656564732062616c616e6365416363657373436f6e74726f6c3a2073656e646572206d75737420626520616e2061646d696e20746f207265766f6b65496e697469616c697a61626c653a20636f6e747261637420697320616c726561647920696e697469616c697a656445524332303a207472616e7366657220616d6f756e74206578636565647320616c6c6f77616e636545524332303a206275726e20616d6f756e74206578636565647320616c6c6f77616e636545524332303a206275726e2066726f6d20746865207a65726f206164647265737345524332303a207472616e736665722066726f6d20746865207a65726f206164647265737345524332303a20617070726f76652066726f6d20746865207a65726f206164647265737345524332303a2064656372656173656420616c6c6f77616e63652062656c6f77207a65726f416363657373436f6e74726f6c3a2063616e206f6e6c792072656e6f756e636520726f6c657320666f722073656c66a26469706673582212201356ff31fdcc22341ece4d4b5497010c80f00e126998f2573f67551e2649eda664736f6c634300060c0033",
  "linkReferences": {},
  "deployedLinkReferences": {}
}