{
  "_format": "hh-sol-artifact-1",
  "contractName": "KeyStorage",
  "sourceName": "contracts/schain/KeyStorage.sol",
  "abi": [
    {
      "anonymous": false,
      "inputs": [
        {
          "indexed": true,
          "internalType": "bytes32",
          "name": "role",
          "type": "bytes32"
        },
        {
          "indexed": true,
          "internalType": "bytes32",
          "name": "previousAdminRole",
          "type": "bytes32"
        },
        {
          "indexed": true,
          "internalType": "bytes32",
          "name": "newAdminRole",
          "type": "bytes32"
        }
      ],
      "name": "RoleAdminChanged",
      "type": "event"
    },
    {
      "anonymous": false,
      "inputs": [
        {
          "indexed": true,
          "internalType": "bytes32",
          "name": "role",
          "type": "bytes32"
        },
        {
          "indexed": true,
          "internalType": "address",
          "name": "account",
          "type": "address"
        },
        {
          "indexed": true,
          "internalType": "address",
          "name": "sender",
          "type": "address"
        }
      ],
      "name": "RoleGranted",
      "type": "event"
    },
    {
      "anonymous": false,
      "inputs": [
        {
          "indexed": true,
          "internalType": "bytes32",
          "name": "role",
          "type": "bytes32"
        },
        {
          "indexed": true,
          "internalType": "address",
          "name": "account",
          "type": "address"
        },
        {
          "indexed": true,
          "internalType": "address",
          "name": "sender",
          "type": "address"
        }
      ],
      "name": "RoleRevoked",
      "type": "event"
    },
    {
      "inputs": [],
      "name": "DEFAULT_ADMIN_ROLE",
      "outputs": [
        {
          "internalType": "bytes32",
          "name": "",
          "type": "bytes32"
        }
      ],
      "stateMutability": "view",
      "type": "function"
    },
    {
      "inputs": [],
      "name": "FN_NUM_GET_CONFIG_VARIABLE_UINT256",
      "outputs": [
        {
          "internalType": "uint256",
          "name": "",
          "type": "uint256"
        }
      ],
      "stateMutability": "view",
      "type": "function"
    },
    {
      "inputs": [],
      "name": "FREE_MEM_PTR",
      "outputs": [
        {
          "internalType": "uint256",
          "name": "",
          "type": "uint256"
        }
      ],
      "stateMutability": "view",
      "type": "function"
    },
    {
      "inputs": [],
      "name": "getBlsCommonPublicKey",
      "outputs": [
        {
          "components": [
            {
              "components": [
                {
                  "internalType": "uint256",
                  "name": "a",
                  "type": "uint256"
                },
                {
                  "internalType": "uint256",
                  "name": "b",
                  "type": "uint256"
                }
              ],
              "internalType": "struct Fp2Operations.Fp2Point",
              "name": "x",
              "type": "tuple"
            },
            {
              "components": [
                {
                  "internalType": "uint256",
                  "name": "a",
                  "type": "uint256"
                },
                {
                  "internalType": "uint256",
                  "name": "b",
                  "type": "uint256"
                }
              ],
              "internalType": "struct Fp2Operations.Fp2Point",
              "name": "y",
              "type": "tuple"
            }
          ],
          "internalType": "struct G2Operations.G2Point",
          "name": "",
          "type": "tuple"
        }
      ],
      "stateMutability": "view",
      "type": "function"
    },
    {
      "inputs": [
        {
          "internalType": "bytes32",
          "name": "role",
          "type": "bytes32"
        }
      ],
      "name": "getRoleAdmin",
      "outputs": [
        {
          "internalType": "bytes32",
          "name": "",
          "type": "bytes32"
        }
      ],
      "stateMutability": "view",
      "type": "function"
    },
    {
      "inputs": [
        {
          "internalType": "bytes32",
          "name": "role",
          "type": "bytes32"
        },
        {
          "internalType": "uint256",
          "name": "index",
          "type": "uint256"
        }
      ],
      "name": "getRoleMember",
      "outputs": [
        {
          "internalType": "address",
          "name": "",
          "type": "address"
        }
      ],
      "stateMutability": "view",
      "type": "function"
    },
    {
      "inputs": [
        {
          "internalType": "bytes32",
          "name": "role",
          "type": "bytes32"
        }
      ],
      "name": "getRoleMemberCount",
      "outputs": [
        {
          "internalType": "uint256",
          "name": "",
          "type": "uint256"
        }
      ],
      "stateMutability": "view",
      "type": "function"
    },
    {
      "inputs": [
        {
          "internalType": "bytes32",
          "name": "role",
          "type": "bytes32"
        },
        {
          "internalType": "address",
          "name": "account",
          "type": "address"
        }
      ],
      "name": "grantRole",
      "outputs": [],
      "stateMutability": "nonpayable",
      "type": "function"
    },
    {
      "inputs": [
        {
          "internalType": "bytes32",
          "name": "role",
          "type": "bytes32"
        },
        {
          "internalType": "address",
          "name": "account",
          "type": "address"
        }
      ],
      "name": "hasRole",
      "outputs": [
        {
          "internalType": "bool",
          "name": "",
          "type": "bool"
        }
      ],
      "stateMutability": "view",
      "type": "function"
    },
    {
      "inputs": [],
      "name": "initialize",
      "outputs": [],
      "stateMutability": "nonpayable",
      "type": "function"
    },
    {
      "inputs": [
        {
          "internalType": "bytes32",
          "name": "role",
          "type": "bytes32"
        },
        {
          "internalType": "address",
          "name": "account",
          "type": "address"
        }
      ],
      "name": "renounceRole",
      "outputs": [],
      "stateMutability": "nonpayable",
      "type": "function"
    },
    {
      "inputs": [
        {
          "internalType": "bytes32",
          "name": "role",
          "type": "bytes32"
        },
        {
          "internalType": "address",
          "name": "account",
          "type": "address"
        }
      ],
      "name": "revokeRole",
      "outputs": [],
      "stateMutability": "nonpayable",
      "type": "function"
    }
  ],
  "bytecode": "0x608060405234801561001057600080fd5b50610c37806100206000396000f3fe608060405234801561001057600080fd5b50600436106100b45760003560e01c80639010d07c116100715780639010d07c1461012f57806391d148541461014f578063a217fddf1461016f578063ab2a585314610177578063ca15c8731461017f578063d547741f14610192576100b4565b8063248a9ca3146100b95780632f2ff15d146100e257806336568abe146100f7578063554ef7a61461010a578063573c8aba1461011f5780638129fc1c14610127575b600080fd5b6100cc6100c73660046108ad565b6101a5565b6040516100d9919061094e565b60405180910390f35b6100f56100f03660046108c5565b6101ba565b005b6100f56101053660046108c5565b61020b565b61011261024d565b6040516100d99190610b0c565b6100cc61030c565b6100f5610311565b61014261013d3660046108ff565b6103a7565b6040516100d9919061092f565b61016261015d3660046108c5565b6103c8565b6040516100d99190610943565b6100cc6103e0565b6100cc6103e5565b6100cc61018d3660046108ad565b6103ea565b6100f56101a03660046108c5565b610401565b60009081526033602052604090206002015490565b6000828152603360205260409020600201546101d89061015d61043b565b6101fd5760405162461bcd60e51b81526004016101f490610999565b60405180910390fd5b610207828261043f565b5050565b61021361043b565b6001600160a01b0316816001600160a01b0316146102435760405162461bcd60e51b81526004016101f490610abd565b61020782826104a8565b61025561086e565b6040805160e0810182526034608082018181529192839290830191829161028391610b3260a0870139610511565b81526020016102a9604051806060016040528060348152602001610bce60349139610511565b815250815260200160405180604001604052806102dd604051806060016040528060348152602001610b9a60349139610511565b8152602001610303604051806060016040528060348152602001610b6660349139610511565b90529052905090565b604081565b600054610100900460ff168061032a575061032a61058a565b80610338575060005460ff16155b6103545760405162461bcd60e51b81526004016101f490610a38565b600054610100900460ff1615801561037f576000805460ff1961ff0019909116610100171660011790555b61038761059b565b6103926000336101fd565b80156103a4576000805461ff00191690555b50565b60008281526033602052604081206103bf9083610619565b90505b92915050565b60008281526033602052604081206103bf9083610625565b600081565b601381565b60008181526033602052604081206103c29061063a565b60008281526033602052604090206002015461041f9061015d61043b565b6102435760405162461bcd60e51b81526004016101f4906109e8565b3390565b60008281526033602052604090206104579082610645565b156102075761046461043b565b6001600160a01b0316816001600160a01b0316837f2f8788117e7eff1d82e926ec794901d17c78024a50270940304540a733656f0d60405160405180910390a45050565b60008281526033602052604090206104c0908261065a565b15610207576104cd61043b565b6001600160a01b0316816001600160a01b0316837ff6391f5c32d9c69d2a47ea670b442974b53935d1edc7fd64eb21e047a839171b60405160405180910390a45050565b60008060409050600060208451601f018161052857fe5b0460010190506000825160005b8381101561055157602081028781015190830152600101610535565b50602081848202816013600019fa905194509050806105825760405162461bcd60e51b81526004016101f490610a86565b505050919050565b60006105953061066f565b15905090565b600054610100900460ff16806105b457506105b461058a565b806105c2575060005460ff16155b6105de5760405162461bcd60e51b81526004016101f490610a38565b600054610100900460ff16158015610609576000805460ff1961ff0019909116610100171660011790555b610611610675565b610392610675565b60006103bf83836106f6565b60006103bf836001600160a01b03841661073b565b60006103c282610753565b60006103bf836001600160a01b038416610757565b60006103bf836001600160a01b0384166107a1565b3b151590565b600054610100900460ff168061068e575061068e61058a565b8061069c575060005460ff16155b6106b85760405162461bcd60e51b81526004016101f490610a38565b600054610100900460ff16158015610392576000805460ff1961ff00199091166101001716600117905580156103a4576000805461ff001916905550565b815460009082106107195760405162461bcd60e51b81526004016101f490610957565b82600001828154811061072857fe5b9060005260206000200154905092915050565b60009081526001919091016020526040902054151590565b5490565b6000610763838361073b565b610799575081546001818101845560008481526020808220909301849055845484825282860190935260409020919091556103c2565b5060006103c2565b6000818152600183016020526040812054801561085d57835460001980830191908101906000908790839081106107d457fe5b90600052602060002001549050808760000184815481106107f157fe5b60009182526020808320909101929092558281526001898101909252604090209084019055865487908061082157fe5b600190038181906000526020600020016000905590558660010160008781526020019081526020016000206000905560019450505050506103c2565b60009150506103c2565b5092915050565b6040518060400160405280610881610893565b815260200161088e610893565b905290565b604051806040016040528060008152602001600081525090565b6000602082840312156108be578081fd5b5035919050565b600080604083850312156108d7578081fd5b8235915060208301356001600160a01b03811681146108f4578182fd5b809150509250929050565b60008060408385031215610911578182fd5b50508035926020909101359150565b80518252602090810151910152565b6001600160a01b0391909116815260200190565b901515815260200190565b90815260200190565b60208082526022908201527f456e756d657261626c655365743a20696e646578206f7574206f6620626f756e604082015261647360f01b606082015260800190565b6020808252602f908201527f416363657373436f6e74726f6c3a2073656e646572206d75737420626520616e60408201526e0818591b5a5b881d1bc819dc985b9d608a1b606082015260800190565b60208082526030908201527f416363657373436f6e74726f6c3a2073656e646572206d75737420626520616e60408201526f2061646d696e20746f207265766f6b6560801b606082015260800190565b6020808252602e908201527f496e697469616c697a61626c653a20636f6e747261637420697320616c72656160408201526d191e481a5b9a5d1a585b1a5e995960921b606082015260800190565b60208082526019908201527f47657420636f6e6669672075696e74323536206661696c656400000000000000604082015260600190565b6020808252602f908201527f416363657373436f6e74726f6c3a2063616e206f6e6c792072656e6f756e636560408201526e103937b632b9903337b91039b2b63360891b606082015260800190565b6000608082019050610b1f828451610920565b6020830151610867604084018261092056fe736b616c65436f6e6669672e6e6f6465496e666f2e77616c6c6574732e696d612e636f6d6d6f6e424c535075626c69634b657930736b616c65436f6e6669672e6e6f6465496e666f2e77616c6c6574732e696d612e636f6d6d6f6e424c535075626c69634b657933736b616c65436f6e6669672e6e6f6465496e666f2e77616c6c6574732e696d612e636f6d6d6f6e424c535075626c69634b657932736b616c65436f6e6669672e6e6f6465496e666f2e77616c6c6574732e696d612e636f6d6d6f6e424c535075626c69634b657931a264697066735822122053629a129ff1abe9c9555f5979234152217ffc755596b6e5bc41be252073a65e64736f6c634300060c0033",
  "linkReferences": {},
  "deployedLinkReferences": {}
}