{
  "_format": "hh-sol-artifact-1",
  "contractName": "MessageProxyForSchain",
  "sourceName": "contracts/schain/MessageProxyForSchain.sol",
  "abi": [
    {
      "anonymous": false,
      "inputs": [
        {
          "indexed": true,
          "internalType": "bytes32",
          "name": "dstChainHash",
          "type": "bytes32"
        },
        {
          "indexed": true,
          "internalType": "uint256",
          "name": "msgCounter",
          "type": "uint256"
        },
        {
          "indexed": true,
          "internalType": "address",
          "name": "srcContract",
          "type": "address"
        },
        {
          "indexed": false,
          "internalType": "address",
          "name": "dstContract",
          "type": "address"
        },
        {
          "indexed": false,
          "internalType": "bytes",
          "name": "data",
          "type": "bytes"
        }
      ],
      "name": "OutgoingMessage",
      "type": "event"
    },
    {
      "anonymous": false,
      "inputs": [
        {
          "indexed": true,
          "internalType": "uint256",
          "name": "msgCounter",
          "type": "uint256"
        },
        {
          "indexed": false,
          "internalType": "bytes",
          "name": "message",
          "type": "bytes"
        }
      ],
      "name": "PostMessageError",
      "type": "event"
    },
    {
      "anonymous": false,
      "inputs": [
        {
          "indexed": true,
          "internalType": "bytes32",
          "name": "role",
          "type": "bytes32"
        },
        {
          "indexed": true,
          "internalType": "bytes32",
          "name": "previousAdminRole",
          "type": "bytes32"
        },
        {
          "indexed": true,
          "internalType": "bytes32",
          "name": "newAdminRole",
          "type": "bytes32"
        }
      ],
      "name": "RoleAdminChanged",
      "type": "event"
    },
    {
      "anonymous": false,
      "inputs": [
        {
          "indexed": true,
          "internalType": "bytes32",
          "name": "role",
          "type": "bytes32"
        },
        {
          "indexed": true,
          "internalType": "address",
          "name": "account",
          "type": "address"
        },
        {
          "indexed": true,
          "internalType": "address",
          "name": "sender",
          "type": "address"
        }
      ],
      "name": "RoleGranted",
      "type": "event"
    },
    {
      "anonymous": false,
      "inputs": [
        {
          "indexed": true,
          "internalType": "bytes32",
          "name": "role",
          "type": "bytes32"
        },
        {
          "indexed": true,
          "internalType": "address",
          "name": "account",
          "type": "address"
        },
        {
          "indexed": true,
          "internalType": "address",
          "name": "sender",
          "type": "address"
        }
      ],
      "name": "RoleRevoked",
      "type": "event"
    },
    {
      "inputs": [],
      "name": "CHAIN_CONNECTOR_ROLE",
      "outputs": [
        {
          "internalType": "bytes32",
          "name": "",
          "type": "bytes32"
        }
      ],
      "stateMutability": "view",
      "type": "function"
    },
    {
      "inputs": [],
      "name": "DEBUGGER_ROLE",
      "outputs": [
        {
          "internalType": "bytes32",
          "name": "",
          "type": "bytes32"
        }
      ],
      "stateMutability": "view",
      "type": "function"
    },
    {
      "inputs": [],
      "name": "DEFAULT_ADMIN_ROLE",
      "outputs": [
        {
          "internalType": "bytes32",
          "name": "",
          "type": "bytes32"
        }
      ],
      "stateMutability": "view",
      "type": "function"
    },
    {
      "inputs": [],
      "name": "EXTRA_CONTRACT_REGISTRAR_ROLE",
      "outputs": [
        {
          "internalType": "bytes32",
          "name": "",
          "type": "bytes32"
        }
      ],
      "stateMutability": "view",
      "type": "function"
    },
    {
      "inputs": [
        {
          "internalType": "string",
          "name": "chainName",
          "type": "string"
        }
      ],
      "name": "addConnectedChain",
      "outputs": [],
      "stateMutability": "nonpayable",
      "type": "function"
    },
    {
      "inputs": [
        {
          "internalType": "bytes32",
          "name": "",
          "type": "bytes32"
        }
      ],
      "name": "connectedChains",
      "outputs": [
        {
          "internalType": "uint256",
          "name": "incomingMessageCounter",
          "type": "uint256"
        },
        {
          "internalType": "uint256",
          "name": "outgoingMessageCounter",
          "type": "uint256"
        },
        {
          "internalType": "bool",
          "name": "inited",
          "type": "bool"
        }
      ],
      "stateMutability": "view",
      "type": "function"
    },
    {
      "inputs": [
        {
          "internalType": "string",
          "name": "fromSchainName",
          "type": "string"
        }
      ],
      "name": "getIncomingMessagesCounter",
      "outputs": [
        {
          "internalType": "uint256",
          "name": "",
          "type": "uint256"
        }
      ],
      "stateMutability": "view",
      "type": "function"
    },
    {
      "inputs": [
        {
          "internalType": "string",
          "name": "targetSchainName",
          "type": "string"
        }
      ],
      "name": "getOutgoingMessagesCounter",
      "outputs": [
        {
          "internalType": "uint256",
          "name": "",
          "type": "uint256"
        }
      ],
      "stateMutability": "view",
      "type": "function"
    },
    {
      "inputs": [
        {
          "internalType": "bytes32",
          "name": "role",
          "type": "bytes32"
        }
      ],
      "name": "getRoleAdmin",
      "outputs": [
        {
          "internalType": "bytes32",
          "name": "",
          "type": "bytes32"
        }
      ],
      "stateMutability": "view",
      "type": "function"
    },
    {
      "inputs": [
        {
          "internalType": "bytes32",
          "name": "role",
          "type": "bytes32"
        },
        {
          "internalType": "uint256",
          "name": "index",
          "type": "uint256"
        }
      ],
      "name": "getRoleMember",
      "outputs": [
        {
          "internalType": "address",
          "name": "",
          "type": "address"
        }
      ],
      "stateMutability": "view",
      "type": "function"
    },
    {
      "inputs": [
        {
          "internalType": "bytes32",
          "name": "role",
          "type": "bytes32"
        }
      ],
      "name": "getRoleMemberCount",
      "outputs": [
        {
          "internalType": "uint256",
          "name": "",
          "type": "uint256"
        }
      ],
      "stateMutability": "view",
      "type": "function"
    },
    {
      "inputs": [
        {
          "internalType": "bytes32",
          "name": "role",
          "type": "bytes32"
        },
        {
          "internalType": "address",
          "name": "account",
          "type": "address"
        }
      ],
      "name": "grantRole",
      "outputs": [],
      "stateMutability": "nonpayable",
      "type": "function"
    },
    {
      "inputs": [
        {
          "internalType": "bytes32",
          "name": "role",
          "type": "bytes32"
        },
        {
          "internalType": "address",
          "name": "account",
          "type": "address"
        }
      ],
      "name": "hasRole",
      "outputs": [
        {
          "internalType": "bool",
          "name": "",
          "type": "bool"
        }
      ],
      "stateMutability": "view",
      "type": "function"
    },
    {
      "inputs": [
        {
          "internalType": "contract KeyStorage",
          "name": "blsKeyStorage",
          "type": "address"
        },
        {
          "internalType": "string",
          "name": "schainName",
          "type": "string"
        }
      ],
      "name": "initialize",
      "outputs": [],
      "stateMutability": "nonpayable",
      "type": "function"
    },
    {
      "inputs": [
        {
          "internalType": "string",
          "name": "schainName",
          "type": "string"
        }
      ],
      "name": "isConnectedChain",
      "outputs": [
        {
          "internalType": "bool",
          "name": "",
          "type": "bool"
        }
      ],
      "stateMutability": "view",
      "type": "function"
    },
    {
      "inputs": [],
      "name": "keyStorage",
      "outputs": [
        {
          "internalType": "contract KeyStorage",
          "name": "",
          "type": "address"
        }
      ],
      "stateMutability": "view",
      "type": "function"
    },
    {
      "inputs": [
        {
          "internalType": "string",
          "name": "schainName",
          "type": "string"
        }
      ],
      "name": "moveIncomingCounter",
      "outputs": [],
      "stateMutability": "nonpayable",
      "type": "function"
    },
    {
      "inputs": [
        {
          "internalType": "string",
          "name": "fromChainName",
          "type": "string"
        },
        {
          "internalType": "uint256",
          "name": "startingCounter",
          "type": "uint256"
        },
        {
          "components": [
            {
              "internalType": "address",
              "name": "sender",
              "type": "address"
            },
            {
              "internalType": "address",
              "name": "destinationContract",
              "type": "address"
            },
            {
              "internalType": "bytes",
              "name": "data",
              "type": "bytes"
            }
          ],
          "internalType": "struct MessageProxyForSchain.Message[]",
          "name": "messages",
          "type": "tuple[]"
        },
        {
          "components": [
            {
              "internalType": "uint256[2]",
              "name": "blsSignature",
              "type": "uint256[2]"
            },
            {
              "internalType": "uint256",
              "name": "hashA",
              "type": "uint256"
            },
            {
              "internalType": "uint256",
              "name": "hashB",
              "type": "uint256"
            },
            {
              "internalType": "uint256",
              "name": "counter",
              "type": "uint256"
            }
          ],
          "internalType": "struct MessageProxyForSchain.Signature",
          "name": "signature",
          "type": "tuple"
        },
        {
          "internalType": "uint256",
          "name": "idxLastToPopNotIncluding",
          "type": "uint256"
        }
      ],
      "name": "postIncomingMessages",
      "outputs": [],
      "stateMutability": "nonpayable",
      "type": "function"
    },
    {
      "inputs": [
        {
          "internalType": "string",
          "name": "targetChainName",
          "type": "string"
        },
        {
          "internalType": "address",
          "name": "dstContract",
          "type": "address"
        },
        {
          "internalType": "bytes",
          "name": "data",
          "type": "bytes"
        }
      ],
      "name": "postOutgoingMessage",
      "outputs": [],
      "stateMutability": "nonpayable",
      "type": "function"
    },
    {
      "inputs": [
        {
          "internalType": "string",
          "name": "schainName",
          "type": "string"
        },
        {
          "internalType": "address",
          "name": "contractOnSchain",
          "type": "address"
        }
      ],
      "name": "registerExtraContract",
      "outputs": [],
      "stateMutability": "nonpayable",
      "type": "function"
    },
    {
      "inputs": [
        {
          "internalType": "address",
          "name": "contractOnSchain",
          "type": "address"
        }
      ],
      "name": "registerExtraContractForAll",
      "outputs": [],
      "stateMutability": "nonpayable",
      "type": "function"
    },
    {
      "inputs": [
        {
          "internalType": "bytes32",
          "name": "",
          "type": "bytes32"
        },
        {
          "internalType": "address",
          "name": "",
          "type": "address"
        }
      ],
      "name": "registryContracts",
      "outputs": [
        {
          "internalType": "bool",
          "name": "",
          "type": "bool"
        }
      ],
      "stateMutability": "view",
      "type": "function"
    },
    {
      "inputs": [
        {
          "internalType": "string",
          "name": "schainName",
          "type": "string"
        }
      ],
      "name": "removeConnectedChain",
      "outputs": [],
      "stateMutability": "nonpayable",
      "type": "function"
    },
    {
      "inputs": [
        {
          "internalType": "string",
          "name": "schainName",
          "type": "string"
        },
        {
          "internalType": "address",
          "name": "contractOnSchain",
          "type": "address"
        }
      ],
      "name": "removeExtraContract",
      "outputs": [],
      "stateMutability": "nonpayable",
      "type": "function"
    },
    {
      "inputs": [
        {
          "internalType": "address",
          "name": "contractOnSchain",
          "type": "address"
        }
      ],
      "name": "removeExtraContractForAll",
      "outputs": [],
      "stateMutability": "nonpayable",
      "type": "function"
    },
    {
      "inputs": [
        {
          "internalType": "bytes32",
          "name": "role",
          "type": "bytes32"
        },
        {
          "internalType": "address",
          "name": "account",
          "type": "address"
        }
      ],
      "name": "renounceRole",
      "outputs": [],
      "stateMutability": "nonpayable",
      "type": "function"
    },
    {
      "inputs": [
        {
          "internalType": "bytes32",
          "name": "role",
          "type": "bytes32"
        },
        {
          "internalType": "address",
          "name": "account",
          "type": "address"
        }
      ],
      "name": "revokeRole",
      "outputs": [],
      "stateMutability": "nonpayable",
      "type": "function"
    },
    {
      "inputs": [],
      "name": "schainHash",
      "outputs": [
        {
          "internalType": "bytes32",
          "name": "",
          "type": "bytes32"
        }
      ],
      "stateMutability": "view",
      "type": "function"
    },
    {
      "inputs": [
        {
          "internalType": "string",
          "name": "schainName",
          "type": "string"
        }
      ],
      "name": "setCountersToZero",
      "outputs": [],
      "stateMutability": "nonpayable",
      "type": "function"
    },
    {
      "inputs": [
        {
          "components": [
            {
              "internalType": "string",
              "name": "dstChain",
              "type": "string"
            },
            {
              "internalType": "uint256",
              "name": "msgCounter",
              "type": "uint256"
            },
            {
              "internalType": "address",
              "name": "srcContract",
              "type": "address"
            },
            {
              "internalType": "address",
              "name": "dstContract",
              "type": "address"
            },
            {
              "internalType": "bytes",
              "name": "data",
              "type": "bytes"
            }
          ],
          "internalType": "struct MessageProxyForSchain.OutgoingMessageData",
          "name": "message",
          "type": "tuple"
        }
      ],
      "name": "verifyOutgoingMessageData",
      "outputs": [
        {
          "internalType": "bool",
          "name": "isValidMessage",
          "type": "bool"
        }
      ],
      "stateMutability": "view",
      "type": "function"
    }
  ],
  "bytecode": "0x608060405234801561001057600080fd5b506135bd806100206000396000f3fe608060405234801561001057600080fd5b50600436106101da5760003560e01c8063999ab9aa11610104578063cab010c9116100a2578063f2f6360511610071578063f2f63605146103d7578063f399e22e146103ea578063f79f7954146103fd578063f8c88a1614610405576101da565b8063cab010c91461037c578063d547741f1461038f578063e45b045f146103a2578063e6ab8403146103b5576101da565b8063a8bb1b7d116100de578063a8bb1b7d1461033b578063ac2f861e1461034e578063b51cc14d14610356578063ca15c87314610369576101da565b8063999ab9aa1461030d578063a217fddf14610320578063a78868c814610328576101da565b80634da84ce51161017c57806377fe0f311161014b57806377fe0f31146102a75780637c5ad80c146102ba5780639010d07c146102da57806391d14854146102fa576101da565b80634da84ce514610266578063523c8ab61461027957806365e3781f1461028157806367ec602014610294576101da565b806336568abe116101b857806336568abe146102255780633b690b6b146102385780633cdd2cc3146102405780634d20385914610253576101da565b806313c52260146101df578063248a9ca3146101fd5780632f2ff15d14610210575b600080fd5b6101e7610418565b6040516101f49190612b56565b60405180910390f35b6101e761020b3660046126ad565b61043c565b61022361021e3660046126c5565b610451565b005b6102236102333660046126c5565b6104a2565b6101e76104e4565b61022361024e366004612763565b6104ea565b610223610261366004612671565b6105fa565b610223610274366004612763565b6106d3565b6101e76107a5565b61022361028f3660046127f8565b6107b7565b6101e76102a2366004612763565b61095f565b6101e76102b5366004612763565b6109cc565b6102cd6102c83660046126c5565b610a34565b6040516101f49190612b4b565b6102ed6102e83660046126f4565b610a54565b6040516101f49190612b13565b6102cd6103083660046126c5565b610a73565b6102cd61031b366004612763565b610a8b565b6101e7610ad7565b61022361033636600461287a565b610adc565b610223610349366004612671565b610d3b565b6101e7610e10565b6102cd61036436600461297a565b610e34565b6101e76103773660046126ad565b610e9b565b61022361038a3660046127a3565b610eb2565b61022361039d3660046126c5565b610fb5565b6102236103b0366004612763565b610fef565b6103c86103c33660046126ad565b6110be565b6040516101f493929190613378565b6102236103e5366004612763565b6110e2565b6102236103f8366004612715565b6111fb565b6102ed611351565b6102236104133660046127a3565b611360565b7f2785f35fe7d8743aa971942d8474737bb31895d396eff2cc688a481e0221e19181565b60009081526033602052604090206002015490565b60008281526033602052604090206002015461046f9061030861145f565b6104945760405162461bcd60e51b815260040161048b90612c81565b60405180910390fd5b61049e8282611464565b5050565b6104aa61145f565b6001600160a01b0316816001600160a01b0316146104da5760405162461bcd60e51b815260040161048b90613329565b61049e82826114cd565b60665481565b6105147f2785f35fe7d8743aa971942d8474737bb31895d396eff2cc688a481e0221e19133610a73565b6105305760405162461bcd60e51b815260040161048b90612d48565b60008282604051602001610545929190612ad4565b60405160208183030381529060405280519060200120905060405160200161056c90612b00565b604051602081830303815290604052805190602001208114156105a15760405162461bcd60e51b815260040161048b906132e0565b60008181526067602052604090206002015460ff166105d25760405162461bcd60e51b815260040161048b906131cf565b60009081526067602052604081208181556001810191909155600201805460ff191690555050565b61061260008051602061350283398151915233610a73565b61062e5760405162461bcd60e51b815260040161048b90612d7d565b610640816001600160a01b0316611536565b61065c5760405162461bcd60e51b815260040161048b90613265565b6001600160a01b0381166000908152600080516020613568833981519152602052604090205460ff16156106a25760405162461bcd60e51b815260040161048b9061329c565b6001600160a01b0316600090815260008051602061356883398151915260205260409020805460ff19166001179055565b6106fd7f621a88c2734d2b469650b9ed1f143b5eea096e7e7bb5c68a326ac7aee5e7f94633610a73565b6107195760405162461bcd60e51b815260040161048b9061322e565b6000606760008484604051602001610732929190612ad4565b604051602081830303815290604052805190602001208152602001908152602001600020600001819055506000606760008484604051602001610776929190612ad4565b604051602081830303815290604052805190602001208152602001908152602001600020600101819055505050565b60008051602061350283398151915281565b600085856040516020016107cc929190612ad4565b60408051601f1981840301815291815281516020928301206000818152606790935291206002015490915060ff166108165760405162461bcd60e51b815260040161048b9061312f565b336000908152600080516020613568833981519152602052604090205460ff168061085a57506000818152606b6020908152604080832033845290915290205460ff165b6108765760405162461bcd60e51b815260040161048b90612d07565b60008181526067602052604090206001908101546108939161153c565b60008281526067602090815260409182902060010192909255805160c0601f89018490049093028101830190915260a08101878152610957928291908a908a908190850183828082843760009201829052509385525050508481526067602090815260409182902060010154600019018184015233828401526001600160a01b03891660608401528151601f880182900482028101820190925286825260809092019187908790819084018382808284376000920191909152505050915250611561565b505050505050565b6000808383604051602001610975929190612ad4565b60408051601f1981840301815291815281516020928301206000818152606790935291206002015490915060ff166109b15760009150506109c6565b60009081526067602052604090206001015490505b92915050565b60008083836040516020016109e2929190612ad4565b60408051601f1981840301815291815281516020928301206000818152606790935291206002015490915060ff16610a1e5760009150506109c6565b6000908152606760205260409020549392505050565b606b60209081526000928352604080842090915290825290205460ff1681565b6000828152603360205260408120610a6c9083611636565b9392505050565b6000828152603360205260408120610a6c9083611642565b6000606760008484604051602001610aa4929190612ad4565b60408051808303601f190181529181528151602092830120835290820192909252016000206002015460ff169392505050565b600081565b60008787604051602001610af1929190612ad4565b604051602081830303815290604052805190602001209050610b1c610b168686611657565b84611746565b610b385760405162461bcd60e51b815260040161048b90612f4d565b60008181526067602052604090206002015460ff16610b695760405162461bcd60e51b815260040161048b906131cf565b6000818152606760205260409020548614610b965760405162461bcd60e51b815260040161048b90613033565b60005b84811015610cfd576000828152606b6020526040812090878784818110610bbc57fe5b9050602002810190610bce91906133d5565b610bdf906040810190602001612671565b6001600160a01b0316815260208101919091526040016000205460ff16158015610c6c57506000808052606b60205260008051602061356883398151915290878784818110610c2a57fe5b9050602002810190610c3c91906133d5565b610c4d906040810190602001612671565b6001600160a01b0316815260208101919091526040016000205460ff16155b15610cc8578087017f4b7d3908626050c0d998d657e4e6f31cb43ed736bf2b9a1a0192494537ca0e5960405180606001604052806026815260200161352260269139604051610cbb9190612ba6565b60405180910390a2610cf5565b610cf382878784818110610cd857fe5b9050602002810190610cea91906133d5565b896001016117f3565b505b600101610b99565b50600081815260676020526040902054610d17908561153c565b600082815260676020526040902055610d308183611958565b505050505050505050565b610d5360008051602061350283398151915233610a73565b610d6f5760405162461bcd60e51b815260040161048b90612ea0565b610d81816001600160a01b0316611536565b610d9d5760405162461bcd60e51b815260040161048b90613265565b6001600160a01b0381166000908152600080516020613568833981519152602052604090205460ff16610de25760405162461bcd60e51b815260040161048b90612fbb565b6001600160a01b0316600090815260008051602061356883398151915260205260409020805460ff19169055565b7f621a88c2734d2b469650b9ed1f143b5eea096e7e7bb5c68a326ac7aee5e7f94681565b6000808260000151604051602001610e4c9190612ae4565b60408051601f198184030181529181528151602092830120600081815260688452828120878501518252909352912054909150610e88846119e4565b811415610e9457600192505b5050919050565b60008181526033602052604081206109c690611a77565b60008383604051602001610ec7929190612ad4565b604051602081830303815290604052805190602001209050610ef760008051602061350283398151915233610a73565b610f135760405162461bcd60e51b815260040161048b90613090565b610f25826001600160a01b0316611536565b610f415760405162461bcd60e51b815260040161048b90613265565b6000818152606b602090815260408083206001600160a01b038616845290915290205460ff1615610f845760405162461bcd60e51b815260040161048b9061329c565b6000908152606b602090815260408083206001600160a01b03909416835292905220805460ff191660011790555050565b600082815260336020526040902060020154610fd39061030861145f565b6104da5760405162461bcd60e51b815260040161048b90612efd565b6110197f621a88c2734d2b469650b9ed1f143b5eea096e7e7bb5c68a326ac7aee5e7f94633610a73565b6110355760405162461bcd60e51b815260040161048b9061322e565b61107d6001606760008585604051602001611051929190612ad4565b60408051601f19818403018152918152815160209283012083529082019290925201600020549061153c565b606760008484604051602001611094929190612ad4565b60408051601f19818403018152918152815160209283012083529082019290925201600020555050565b60676020526000908152604090208054600182015460029092015490919060ff1683565b61110c7f2785f35fe7d8743aa971942d8474737bb31895d396eff2cc688a481e0221e19133610a73565b6111285760405162461bcd60e51b815260040161048b90612d48565b6000828260405160200161113d929190612ad4565b6040516020818303038152906040528051906020012090506066548114156111775760405162461bcd60e51b815260040161048b90612c4a565b60008181526067602052604090206002015460ff16156111a95760405162461bcd60e51b815260040161048b90612f84565b604080516060810182526000808252602080830182815260018486018181529684526067909252939091209151825591519181019190915590516002909101805460ff19169115159190911790555050565b600054610100900460ff16806112145750611214611a82565b80611222575060005460ff16155b61123e5760405162461bcd60e51b815260040161048b906130e1565b600054610100900460ff16158015611269576000805460ff1961ff0019909116610100171660011790555b611271611a93565b61127c600033610494565b606580546001600160a01b0319166001600160a01b0385161790556040805160608101825260008082526020808301829052600183850152925191926067926112c59101612b00565b60408051808303601f19018152918152815160209283012083528282019390935290820160002083518155838201516001820155928201516002909301805460ff1916931515939093179092555161131f91849101612ae4565b60408051601f198184030181529190528051602090910120606655801561134c576000805461ff00191690555b505050565b6065546001600160a01b031681565b60008383604051602001611375929190612ad4565b6040516020818303038152906040528051906020012090506113a560008051602061350283398151915233610a73565b6113c15760405162461bcd60e51b815260040161048b90612bfb565b6113d3826001600160a01b0316611536565b6113ef5760405162461bcd60e51b815260040161048b90613265565b6000818152606b602090815260408083206001600160a01b038616845290915290205460ff166114315760405162461bcd60e51b815260040161048b90612fbb565b6000908152606b602090815260408083206001600160a01b03909416835292905220805460ff191690555050565b335b90565b600082815260336020526040902061147c9082611b26565b1561049e5761148961145f565b6001600160a01b0316816001600160a01b0316837f2f8788117e7eff1d82e926ec794901d17c78024a50270940304540a733656f0d60405160405180910390a45050565b60008281526033602052604090206114e59082611b3b565b1561049e576114f261145f565b6001600160a01b0316816001600160a01b0316837ff6391f5c32d9c69d2a47ea670b442974b53935d1edc7fd64eb21e047a839171b60405160405180910390a45050565b3b151590565b600082820183811015610a6c5760405162461bcd60e51b815260040161048b90612cd0565b805160405160009161157591602001612ae4565b60405160208183030381529060405280519060200120905081604001516001600160a01b03168260200151827f803d7f3ca0e5f93fcce39fa29812ed57a95a151594966e17125220132741c6b0856060015186608001516040516115da929190612b27565b60405180910390a46115eb826119e4565b6000828152606860209081526040808320606a808452828520805486529184529184209490945591849052525461162390600161153c565b6000918252606a60205260409091205550565b6000610a6c8383611b50565b6000610a6c836001600160a01b038416611b95565b6000606060005b83811015611736578185858381811061167357fe5b905060200281019061168591906133d5565b611693906020810190612671565b60601b6001600160601b0319168686848181106116ac57fe5b90506020028101906116be91906133d5565b6116cf906040810190602001612671565b60601b6001600160601b0319168787858181106116e857fe5b90506020028101906116fa91906133d5565b611708906040810190613390565b60405160200161171c959493929190612a9d565b60408051601f19818403018152919052915060010161165e565b5080516020909101209392505050565b60408051808201825282358152602080840135908201526065548251632aa77bd360e11b81528351600094610a6c949388936080808a013594938a01359360608b0135936001600160a01b03169263554ef7a6926004808301939192829003018186803b1580156117b657600080fd5b505afa1580156117ca573d6000803e3d6000fd5b505050506040513d601f19601f820116820180604052508101906117ee919061293a565b611bad565b60006118056040840160208501612671565b6001600160a01b031663884cee5a856118216020870187612671565b61182e6040880188613390565b6040518563ffffffff1660e01b815260040161184d9493929190612b5f565b602060405180830381600087803b15801561186757600080fd5b505af1925050508015611897575060408051601f3d908101601f191682019092526118949181019061268d565b60015b611950576118a3613447565b806118ae57506118f0565b827f4b7d3908626050c0d998d657e4e6f31cb43ed736bf2b9a1a0192494537ca0e59826040516118de9190612ba6565b60405180910390a26000915050610a6c565b3d80801561191a576040519150601f19603f3d011682016040523d82523d6000602084013e61191f565b606091505b50827f4b7d3908626050c0d998d657e4e6f31cb43ed736bf2b9a1a0192494537ca0e59826040516118de9190612ba6565b949350505050565b6000828152606a602090815260408083205460699092528220545b838110156119ad57818110611987576119ad565b600085815260686020908152604080832084845290915281205560019283019201611973565b5081156119dd576000848152606960205260409020546119cd908361153c565b6000858152606960205260409020555b5092915050565b6000606082600001516040516020016119fd9190612ae4565b60405160208183030381529060405280519060200120836020015160001b846040015160601b6001600160601b031916856060015160601b6001600160601b0319168660800151604051602001611a58959493929190612a62565b60408051808303601f1901815291905280516020909101209392505050565b60006109c682611ceb565b6000611a8d30611536565b15905090565b600054610100900460ff1680611aac5750611aac611a82565b80611aba575060005460ff16155b611ad65760405162461bcd60e51b815260040161048b906130e1565b600054610100900460ff16158015611b01576000805460ff1961ff0019909116610100171660011790555b611b09611cef565b611b11611cef565b8015611b23576000805461ff00191690555b50565b6000610a6c836001600160a01b038416611d70565b6000610a6c836001600160a01b038416611dba565b81546000908210611b735760405162461bcd60e51b815260040161048b90612bb9565b826000018281548110611b8257fe5b9060005260206000200154905092915050565b60009081526001919091016020526040902054151590565b6000611bb887611e80565b611bd45760405162461bcd60e51b815260040161048b90612e11565b611be086868686611eb6565b611bec57506000611ce1565b6000611bfb8860200151611f88565b9050611c0b886000015182611fac565b611c275760405162461bcd60e51b815260040161048b90613206565b611c318585611fac565b611c4d5760405162461bcd60e51b815260040161048b90612e41565b611c556124f2565b611c5d611fdc565b9050611c688461209c565b611c845760405162461bcd60e51b815260040161048b906131a1565b611cdc8960000151838360000151602001518460000151600001518560200151602001518660200151600001518c8c8c60000151602001518d60000151600001518e60200151602001518f60200151600001516120b0565b925050505b9695505050505050565b5490565b600054610100900460ff1680611d085750611d08611a82565b80611d16575060005460ff16155b611d325760405162461bcd60e51b815260040161048b906130e1565b600054610100900460ff16158015611b11576000805460ff1961ff0019909116610100171660011790558015611b23576000805461ff001916905550565b6000611d7c8383611b95565b611db2575081546001818101845560008481526020808220909301849055845484825282860190935260409020919091556109c6565b5060006109c6565b60008181526001830160205260408120548015611e765783546000198083019190810190600090879083908110611ded57fe5b9060005260206000200154905080876000018481548110611e0a57fe5b600091825260208083209091019290925582815260018981019092526040902090840190558654879080611e3a57fe5b600190038181906000526020600020016000905590558660010160008781526020019081526020016000206000905560019450505050506109c6565b60009150506109c6565b600060008051602061354883398151915282600001511080156109c6575050602001516000805160206135488339815191521190565b60006064841115611ec957506000611950565b60008051602061354883398151915280860690611ee6828761153c565b81611eed57fe5b069050600060008051602061354883398151915260036000805160206135488339815191528460008051602061354883398151915286870909089050611f426000805160206135488339815191526002612159565b841080611f6057508060008051602061354883398151915285860914155b80611f6b5750848214155b15611f7b57600092505050611950565b5060019695505050505050565b60006109c6600080516020613548833981519152611fa6818561218b565b906121b3565b600060008051602061354883398151915280600381868188890909088180611fd057fe5b84850914949350505050565b611fe46124f2565b50604080516080810182527f1800deef121f1e76426a00665e5c4479674322d4f75edadd46debd5cd992f6ed8183019081527f198e9393920d483a7260bfb731fb5d25f1aa493335a9e71297e485b7aef312c26060830152815281518083019092527f12c85ea5db8c6deb4aab71808dcb408fe3d1e7690c43d37b4ce6cc0166fa7daa82527f090689d0585ff075ec9e99ad690c3395bc4b313370b38ef355acdadcd122975b60208381019190915281019190915290565b60006109c6826000015183602001516121e5565b6000806120bb612517565b8e8152602081018e9052604081018d9052606081018c9052608081018b905260a081018a905260c0810189905260e081018890526101008101879052610120810186905261014081018590526101608101849052612117612536565b602081610180846008600019fa9250826121435760405162461bcd60e51b815260040161048b90613173565b5115159f9e505050505050505050505050505050565b600080821161217a5760405162461bcd60e51b815260040161048b90612e69565b81838161218357fe5b049392505050565b6000828211156121ad5760405162461bcd60e51b815260040161048b90612dda565b50900390565b60008082116121d45760405162461bcd60e51b815260040161048b90612ffc565b8183816121dd57fe5b069392505050565b60006121f18383612264565b156121fe575060016109c6565b612206612554565b61220f83612297565b9050612219612554565b61224761222461231c565b61224161223a886122348a612297565b9061237a565b859061243e565b9061243e565b805190915015801561225b57506020810151155b95945050505050565b815160009015801561227857506020830151155b8015612285575081516001145b8015610a6c5750506020015115919050565b61229f612554565b60008051602061354883398151915260008160208501518551099050600082806122c557fe5b83806122cd57fe5b84806122d557fe5b8760200151600187030987510884806122ea57fe5b60208801518851080990506040518060400160405280828152602001848061230e57fe5b848508905295945050505050565b612324612554565b50604080518082019091527f2b149d40ceb8aaae81be18991be06ac3b5b4c5e559dbefa33267e6dc24a138e581527e9713b03af0fed4cd2cafadeed8fdf4a74fa084e52d1852e4a2bd0685c315d2602082015290565b612382612554565b600080516020613548833981519152612399612554565b604051806040016040528083806123ac57fe5b8651885109815260200183806123be57fe5b86602001518860200151099052905081806123d557fe5b82806123dd57fe5b82602001516001850309825108835281806123f457fe5b82806123fc57fe5b60208301518351088303838061240e57fe5b848061241657fe5b6020880151885108858061242657fe5b60208a01518a51080908602084015250909392505050565b612446612554565b81518351600080516020613548833981519152911161247757808061246757fe5b8351855190830390088252612497565b61249481828061248357fe5b8651865190850390088303906121b3565b82525b82602001518460200151106124c55780806124ae57fe5b8360200151820385602001510860208301526119dd565b6124e68182806124d157fe5b866020015184038660200151088303906121b3565b60208301525092915050565b6040518060400160405280612505612554565b8152602001612512612554565b905290565b604051806101800160405280600c906020820280368337509192915050565b60405180602001604052806001906020820280368337509192915050565b604051806040016040528060008152602001600081525090565b80356109c6816134ec565b60008083601f84011261258a578182fd5b50813567ffffffffffffffff8111156125a1578182fd5b6020830191508360208285010111156125b957600080fd5b9250929050565b600082601f8301126125d0578081fd5b813567ffffffffffffffff8111156125e6578182fd5b6125f9601f8201601f19166020016133ea565b915080825283602082850101111561261057600080fd5b8060208401602084013760009082016020015292915050565b60006040828403121561263a578081fd5b61264460406133ea565b9050815181526020820151602082015292915050565b600060a0828403121561266b578081fd5b50919050565b600060208284031215612682578081fd5b8135610a6c816134ec565b60006020828403121561269e578081fd5b81518015158114610a6c578182fd5b6000602082840312156126be578081fd5b5035919050565b600080604083850312156126d7578081fd5b8235915060208301356126e9816134ec565b809150509250929050565b60008060408385031215612706578182fd5b50508035926020909101359150565b60008060408385031215612727578182fd5b8235612732816134ec565b9150602083013567ffffffffffffffff81111561274d578182fd5b612759858286016125c0565b9150509250929050565b60008060208385031215612775578182fd5b823567ffffffffffffffff81111561278b578283fd5b61279785828601612579565b90969095509350505050565b6000806000604084860312156127b7578081fd5b833567ffffffffffffffff8111156127cd578182fd5b6127d986828701612579565b90945092505060208401356127ed816134ec565b809150509250925092565b60008060008060006060868803121561280f578081fd5b853567ffffffffffffffff80821115612826578283fd5b61283289838a01612579565b909750955060208801359150612847826134ec565b9093506040870135908082111561285c578283fd5b5061286988828901612579565b969995985093965092949392505050565b6000806000806000806000610120888a031215612895578485fd5b873567ffffffffffffffff808211156128ac578687fd5b6128b88b838c01612579565b909950975060208a0135965060408a01359150808211156128d7578384fd5b818a0191508a601f8301126128ea578384fd5b8135818111156128f8578485fd5b8b6020808302850101111561290b578485fd5b6020830196508095505050506129248960608a0161265a565b9150610100880135905092959891949750929550565b60006080828403121561294b578081fd5b61295560406133ea565b61295f8484612629565b815261296e8460408501612629565b60208201529392505050565b60006020828403121561298b578081fd5b813567ffffffffffffffff808211156129a2578283fd5b9083019060a082860312156129b5578283fd5b6129bf60a06133ea565b8235828111156129cd578485fd5b6129d9878286016125c0565b825250602083013560208201526129f3866040850161256e565b6040820152612a05866060850161256e565b6060820152608083013582811115612a1b578485fd5b612a27878286016125c0565b60808301525095945050505050565b60008151808452612a4e816020860160208601613411565b601f01601f19169290920160200192915050565b60008682528560208301528460408301528360608301528251612a8c816080850160208701613411565b919091016080019695505050505050565b60008651612aaf818460208b01613411565b8201868152602081018690528385604083013790920160400191825250949350505050565b6000828483379101908152919050565b60008251612af6818460208701613411565b9190910192915050565b6613585a5b9b995d60ca1b815260070190565b6001600160a01b0391909116815260200190565b6001600160a01b038316815260406020820181905260009061195090830184612a36565b901515815260200190565b90815260200190565b8481526001600160a01b03841660208201526060604082018190528101829052600082846080840137818301608090810191909152601f909201601f191601019392505050565b600060208252610a6c6020830184612a36565b60208082526022908201527f456e756d657261626c655365743a20696e646578206f7574206f6620626f756e604082015261647360f01b606082015260800190565b6020808252602f908201527f4e6f7420656e6f756768207065726d697373696f6e7320746f2072656d6f766560408201526e08195e1d1c984818dbdb9d1c9858dd608a1b606082015260800190565b6020808252601c908201527f53636861696e2063616e6e6f7420636f6e6e65637420697473656c6600000000604082015260600190565b6020808252602f908201527f416363657373436f6e74726f6c3a2073656e646572206d75737420626520616e60408201526e0818591b5a5b881d1bc819dc985b9d608a1b606082015260800190565b6020808252601b908201527f536166654d6174683a206164646974696f6e206f766572666c6f770000000000604082015260600190565b60208082526021908201527f53656e64657220636f6e7472616374206973206e6f74207265676973746572656040820152601960fa1b606082015260800190565b6020808252818101527f434841494e5f434f4e4e4543544f525f524f4c45206973207265717569726564604082015260600190565b60208082526039908201527f4e6f7420656e6f756768207065726d697373696f6e7320746f2072656769737460408201527f657220657874726120636f6e747261637420666f7220616c6c00000000000000606082015260800190565b6020808252601e908201527f536166654d6174683a207375627472616374696f6e206f766572666c6f770000604082015260600190565b60208082526016908201527514da59db985d1d5c99481a5cc81b9bdd081d985b1a5960521b604082015260600190565b6020808252600e908201526d48617368206e6f7420696e20473160901b604082015260600190565b6020808252601a908201527f536166654d6174683a206469766973696f6e206279207a65726f000000000000604082015260600190565b60208082526037908201527f4e6f7420656e6f756768207065726d697373696f6e7320746f2072656d6f766560408201527f20657874726120636f6e747261637420666f7220616c6c000000000000000000606082015260800190565b60208082526030908201527f416363657373436f6e74726f6c3a2073656e646572206d75737420626520616e60408201526f2061646d696e20746f207265766f6b6560801b606082015260800190565b60208082526019908201527f5369676e6174757265206973206e6f7420766572696669656400000000000000604082015260600190565b6020808252601a908201527f436861696e20697320616c726561647920636f6e6e6563746564000000000000604082015260600190565b60208082526021908201527f457874726120636f6e747261637420697320616c72656164792072656d6f76656040820152601960fa1b606082015260800190565b60208082526018908201527f536166654d6174683a206d6f64756c6f206279207a65726f0000000000000000604082015260600190565b60208082526038908201527f5374617274696e6720636f756e746572206973206e6f74207175616c20746f2060408201527f696e636f6d696e67206d65737361676520636f756e7465720000000000000000606082015260800190565b60208082526031908201527f4e6f7420656e6f756768207065726d697373696f6e7320746f20726567697374604082015270195c88195e1d1c984818dbdb9d1c9858dd607a1b606082015260800190565b6020808252602e908201527f496e697469616c697a61626c653a20636f6e747261637420697320616c72656160408201526d191e481a5b9a5d1a585b1a5e995960921b606082015260800190565b60208082526024908201527f44657374696e6174696f6e20636861696e206973206e6f7420696e697469616c6040820152631a5e995960e21b606082015260800190565b60208082526014908201527314185a5c9a5b99c818da1958dac819985a5b195960621b604082015260600190565b602080825260149082015273283ab13634b19025b2bc903737ba1034b710239960611b604082015260600190565b60208082526018908201527f436861696e206973206e6f7420696e697469616c697a65640000000000000000604082015260600190565b6020808252600e908201526d5369676e206e6f7420696e20473160901b604082015260600190565b60208082526019908201527f44454255474745525f524f4c4520697320726571756972656400000000000000604082015260600190565b6020808252601f908201527f476976656e2061646472657373206973206e6f74206120636f6e747261637400604082015260600190565b60208082526024908201527f457874726120636f6e747261637420697320616c726561647920726567697374604082015263195c995960e21b606082015260800190565b60208082526029908201527f4e657720636861696e20686173682063616e6e6f7420626520657175616c20746040820152681bc813585a5b9b995d60ba1b606082015260800190565b6020808252602f908201527f416363657373436f6e74726f6c3a2063616e206f6e6c792072656e6f756e636560408201526e103937b632b9903337b91039b2b63360891b606082015260800190565b92835260208301919091521515604082015260600190565b6000808335601e198436030181126133a6578283fd5b83018035915067ffffffffffffffff8211156133c0578283fd5b6020019150368190038213156125b957600080fd5b60008235605e19833603018112612af6578182fd5b60405181810167ffffffffffffffff8111828210171561340957600080fd5b604052919050565b60005b8381101561342c578181015183820152602001613414565b8381111561343b576000848401525b50505050565b60e01c90565b600060443d101561345757611461565b600481823e6308c379a061346b8251613441565b1461347557611461565b6040513d600319016004823e80513d67ffffffffffffffff81602484011181841117156134a55750505050611461565b828401925082519150808211156134bf5750505050611461565b503d830160208284010111156134d757505050611461565b601f01601f1916810160200160405291505090565b6001600160a01b0381168114611b2357600080fdfe6155b5aac15ce9aa193c0527a6f43be0a36a7e2e7496c2b615c0e5f92284277344657374696e6174696f6e20636f6e7472616374206973206e6f74207265676973746572656430644e72e131a029b85045b68181585d97816a916871ca8d3c208c16d87cfd47c8cc8bda7ad4886bea3ebbdafa02e79d37c39bf4011696b26a31a0802fd9458ba2646970667358221220093c2d278aeb4ed3411e26a3f398981ce473e254dc3a9b827a467e2847a66c6d64736f6c634300060c0033",
  "linkReferences": {},
  "deployedLinkReferences": {}
}