{
  "_format": "hh-sol-artifact-1",
  "contractName": "TokenManagerERC20",
  "sourceName": "contracts/schain/TokenManagers/TokenManagerERC20.sol",
  "abi": [
    {
      "anonymous": false,
      "inputs": [
        {
          "indexed": true,
          "internalType": "address",
          "name": "erc20OnMainnet",
          "type": "address"
        },
        {
          "indexed": true,
          "internalType": "address",
          "name": "erc20OnSchain",
          "type": "address"
        }
      ],
      "name": "ERC20TokenAdded",
      "type": "event"
    },
    {
      "anonymous": false,
      "inputs": [
        {
          "indexed": true,
          "internalType": "address",
          "name": "erc20OnMainnet",
          "type": "address"
        },
        {
          "indexed": true,
          "internalType": "address",
          "name": "erc20OnSchain",
          "type": "address"
        }
      ],
      "name": "ERC20TokenCreated",
      "type": "event"
    },
    {
      "anonymous": false,
      "inputs": [
        {
          "indexed": true,
          "internalType": "address",
          "name": "erc20OnMainnet",
          "type": "address"
        },
        {
          "indexed": true,
          "internalType": "address",
          "name": "erc20OnSchain",
          "type": "address"
        },
        {
          "indexed": false,
          "internalType": "uint256",
          "name": "amount",
          "type": "uint256"
        }
      ],
      "name": "ERC20TokenReceived",
      "type": "event"
    },
    {
      "anonymous": false,
      "inputs": [
        {
          "indexed": true,
          "internalType": "bytes32",
          "name": "role",
          "type": "bytes32"
        },
        {
          "indexed": true,
          "internalType": "bytes32",
          "name": "previousAdminRole",
          "type": "bytes32"
        },
        {
          "indexed": true,
          "internalType": "bytes32",
          "name": "newAdminRole",
          "type": "bytes32"
        }
      ],
      "name": "RoleAdminChanged",
      "type": "event"
    },
    {
      "anonymous": false,
      "inputs": [
        {
          "indexed": true,
          "internalType": "bytes32",
          "name": "role",
          "type": "bytes32"
        },
        {
          "indexed": true,
          "internalType": "address",
          "name": "account",
          "type": "address"
        },
        {
          "indexed": true,
          "internalType": "address",
          "name": "sender",
          "type": "address"
        }
      ],
      "name": "RoleGranted",
      "type": "event"
    },
    {
      "anonymous": false,
      "inputs": [
        {
          "indexed": true,
          "internalType": "bytes32",
          "name": "role",
          "type": "bytes32"
        },
        {
          "indexed": true,
          "internalType": "address",
          "name": "account",
          "type": "address"
        },
        {
          "indexed": true,
          "internalType": "address",
          "name": "sender",
          "type": "address"
        }
      ],
      "name": "RoleRevoked",
      "type": "event"
    },
    {
      "inputs": [],
      "name": "AUTOMATIC_DEPLOY_ROLE",
      "outputs": [
        {
          "internalType": "bytes32",
          "name": "",
          "type": "bytes32"
        }
      ],
      "stateMutability": "view",
      "type": "function"
    },
    {
      "inputs": [],
      "name": "DEFAULT_ADMIN_ROLE",
      "outputs": [
        {
          "internalType": "bytes32",
          "name": "",
          "type": "bytes32"
        }
      ],
      "stateMutability": "view",
      "type": "function"
    },
    {
      "inputs": [],
      "name": "MAINNET_HASH",
      "outputs": [
        {
          "internalType": "bytes32",
          "name": "",
          "type": "bytes32"
        }
      ],
      "stateMutability": "view",
      "type": "function"
    },
    {
      "inputs": [],
      "name": "MAINNET_NAME",
      "outputs": [
        {
          "internalType": "string",
          "name": "",
          "type": "string"
        }
      ],
      "stateMutability": "view",
      "type": "function"
    },
    {
      "inputs": [],
      "name": "TOKEN_REGISTRAR_ROLE",
      "outputs": [
        {
          "internalType": "bytes32",
          "name": "",
          "type": "bytes32"
        }
      ],
      "stateMutability": "view",
      "type": "function"
    },
    {
      "inputs": [
        {
          "internalType": "address",
          "name": "erc20OnMainnet",
          "type": "address"
        },
        {
          "internalType": "contract ERC20OnChain",
          "name": "erc20OnSchain",
          "type": "address"
        }
      ],
      "name": "addERC20TokenByOwner",
      "outputs": [],
      "stateMutability": "nonpayable",
      "type": "function"
    },
    {
      "inputs": [
        {
          "internalType": "string",
          "name": "schainName",
          "type": "string"
        },
        {
          "internalType": "address",
          "name": "newTokenManager",
          "type": "address"
        }
      ],
      "name": "addTokenManager",
      "outputs": [],
      "stateMutability": "nonpayable",
      "type": "function"
    },
    {
      "inputs": [],
      "name": "automaticDeploy",
      "outputs": [
        {
          "internalType": "bool",
          "name": "",
          "type": "bool"
        }
      ],
      "stateMutability": "view",
      "type": "function"
    },
    {
      "inputs": [
        {
          "internalType": "address",
          "name": "newDepositBox",
          "type": "address"
        }
      ],
      "name": "changeDepositBoxAddress",
      "outputs": [],
      "stateMutability": "nonpayable",
      "type": "function"
    },
    {
      "inputs": [
        {
          "internalType": "address",
          "name": "",
          "type": "address"
        }
      ],
      "name": "clonesErc20",
      "outputs": [
        {
          "internalType": "contract ERC20OnChain",
          "name": "",
          "type": "address"
        }
      ],
      "stateMutability": "view",
      "type": "function"
    },
    {
      "inputs": [],
      "name": "communityLocker",
      "outputs": [
        {
          "internalType": "contract CommunityLocker",
          "name": "",
          "type": "address"
        }
      ],
      "stateMutability": "view",
      "type": "function"
    },
    {
      "inputs": [],
      "name": "depositBox",
      "outputs": [
        {
          "internalType": "address",
          "name": "",
          "type": "address"
        }
      ],
      "stateMutability": "view",
      "type": "function"
    },
    {
      "inputs": [],
      "name": "disableAutomaticDeploy",
      "outputs": [],
      "stateMutability": "nonpayable",
      "type": "function"
    },
    {
      "inputs": [],
      "name": "enableAutomaticDeploy",
      "outputs": [],
      "stateMutability": "nonpayable",
      "type": "function"
    },
    {
      "inputs": [
        {
          "internalType": "address",
          "name": "contractOnMainnet",
          "type": "address"
        },
        {
          "internalType": "address",
          "name": "to",
          "type": "address"
        },
        {
          "internalType": "uint256",
          "name": "amount",
          "type": "uint256"
        }
      ],
      "name": "exitToMainERC20",
      "outputs": [],
      "stateMutability": "nonpayable",
      "type": "function"
    },
    {
      "inputs": [
        {
          "internalType": "bytes32",
          "name": "role",
          "type": "bytes32"
        }
      ],
      "name": "getRoleAdmin",
      "outputs": [
        {
          "internalType": "bytes32",
          "name": "",
          "type": "bytes32"
        }
      ],
      "stateMutability": "view",
      "type": "function"
    },
    {
      "inputs": [
        {
          "internalType": "bytes32",
          "name": "role",
          "type": "bytes32"
        },
        {
          "internalType": "uint256",
          "name": "index",
          "type": "uint256"
        }
      ],
      "name": "getRoleMember",
      "outputs": [
        {
          "internalType": "address",
          "name": "",
          "type": "address"
        }
      ],
      "stateMutability": "view",
      "type": "function"
    },
    {
      "inputs": [
        {
          "internalType": "bytes32",
          "name": "role",
          "type": "bytes32"
        }
      ],
      "name": "getRoleMemberCount",
      "outputs": [
        {
          "internalType": "uint256",
          "name": "",
          "type": "uint256"
        }
      ],
      "stateMutability": "view",
      "type": "function"
    },
    {
      "inputs": [
        {
          "internalType": "bytes32",
          "name": "role",
          "type": "bytes32"
        },
        {
          "internalType": "address",
          "name": "account",
          "type": "address"
        }
      ],
      "name": "grantRole",
      "outputs": [],
      "stateMutability": "nonpayable",
      "type": "function"
    },
    {
      "inputs": [
        {
          "internalType": "bytes32",
          "name": "role",
          "type": "bytes32"
        },
        {
          "internalType": "address",
          "name": "account",
          "type": "address"
        }
      ],
      "name": "hasRole",
      "outputs": [
        {
          "internalType": "bool",
          "name": "",
          "type": "bool"
        }
      ],
      "stateMutability": "view",
      "type": "function"
    },
    {
      "inputs": [
        {
          "internalType": "string",
          "name": "schainName",
          "type": "string"
        }
      ],
      "name": "hasTokenManager",
      "outputs": [
        {
          "internalType": "bool",
          "name": "",
          "type": "bool"
        }
      ],
      "stateMutability": "view",
      "type": "function"
    },
    {
      "inputs": [
        {
          "internalType": "string",
          "name": "newChainName",
          "type": "string"
        },
        {
          "internalType": "contract MessageProxyForSchain",
          "name": "newMessageProxy",
          "type": "address"
        },
        {
          "internalType": "contract TokenManagerLinker",
          "name": "newIMALinker",
          "type": "address"
        },
        {
          "internalType": "contract CommunityLocker",
          "name": "newCommunityLocker",
          "type": "address"
        },
        {
          "internalType": "address",
          "name": "newDepositBox",
          "type": "address"
        }
      ],
      "name": "initialize",
      "outputs": [],
      "stateMutability": "nonpayable",
      "type": "function"
    },
    {
      "inputs": [
        {
          "internalType": "string",
          "name": "newSchainName",
          "type": "string"
        },
        {
          "internalType": "contract MessageProxyForSchain",
          "name": "newMessageProxy",
          "type": "address"
        },
        {
          "internalType": "contract TokenManagerLinker",
          "name": "newIMALinker",
          "type": "address"
        },
        {
          "internalType": "contract CommunityLocker",
          "name": "newCommunityLocker",
          "type": "address"
        },
        {
          "internalType": "address",
          "name": "newDepositBox",
          "type": "address"
        }
      ],
      "name": "initializeTokenManager",
      "outputs": [],
      "stateMutability": "nonpayable",
      "type": "function"
    },
    {
      "inputs": [],
      "name": "messageProxy",
      "outputs": [
        {
          "internalType": "contract MessageProxyForSchain",
          "name": "",
          "type": "address"
        }
      ],
      "stateMutability": "view",
      "type": "function"
    },
    {
      "inputs": [
        {
          "internalType": "bytes32",
          "name": "fromChainHash",
          "type": "bytes32"
        },
        {
          "internalType": "address",
          "name": "sender",
          "type": "address"
        },
        {
          "internalType": "bytes",
          "name": "data",
          "type": "bytes"
        }
      ],
      "name": "postMessage",
      "outputs": [
        {
          "internalType": "bool",
          "name": "",
          "type": "bool"
        }
      ],
      "stateMutability": "nonpayable",
      "type": "function"
    },
    {
      "inputs": [
        {
          "internalType": "string",
          "name": "schainName",
          "type": "string"
        }
      ],
      "name": "removeTokenManager",
      "outputs": [],
      "stateMutability": "nonpayable",
      "type": "function"
    },
    {
      "inputs": [
        {
          "internalType": "bytes32",
          "name": "role",
          "type": "bytes32"
        },
        {
          "internalType": "address",
          "name": "account",
          "type": "address"
        }
      ],
      "name": "renounceRole",
      "outputs": [],
      "stateMutability": "nonpayable",
      "type": "function"
    },
    {
      "inputs": [
        {
          "internalType": "bytes32",
          "name": "role",
          "type": "bytes32"
        },
        {
          "internalType": "address",
          "name": "account",
          "type": "address"
        }
      ],
      "name": "revokeRole",
      "outputs": [],
      "stateMutability": "nonpayable",
      "type": "function"
    },
    {
      "inputs": [],
      "name": "schainHash",
      "outputs": [
        {
          "internalType": "bytes32",
          "name": "",
          "type": "bytes32"
        }
      ],
      "stateMutability": "view",
      "type": "function"
    },
    {
      "inputs": [],
      "name": "tokenManagerLinker",
      "outputs": [
        {
          "internalType": "contract TokenManagerLinker",
          "name": "",
          "type": "address"
        }
      ],
      "stateMutability": "view",
      "type": "function"
    },
    {
      "inputs": [
        {
          "internalType": "bytes32",
          "name": "",
          "type": "bytes32"
        }
      ],
      "name": "tokenManagers",
      "outputs": [
        {
          "internalType": "address",
          "name": "",
          "type": "address"
        }
      ],
      "stateMutability": "view",
      "type": "function"
    },
    {
      "inputs": [
        {
          "internalType": "contract IERC20Upgradeable",
          "name": "",
          "type": "address"
        }
      ],
      "name": "totalSupplyOnMainnet",
      "outputs": [
        {
          "internalType": "uint256",
          "name": "",
          "type": "uint256"
        }
      ],
      "stateMutability": "view",
      "type": "function"
    },
    {
      "inputs": [
        {
          "internalType": "string",
          "name": "targetSchainName",
          "type": "string"
        },
        {
          "internalType": "address",
          "name": "contractOnMainnet",
          "type": "address"
        },
        {
          "internalType": "address",
          "name": "to",
          "type": "address"
        },
        {
          "internalType": "uint256",
          "name": "amount",
          "type": "uint256"
        }
      ],
      "name": "transferToSchainERC20",
      "outputs": [],
      "stateMutability": "nonpayable",
      "type": "function"
    }
  ],
  "bytecode": "0x608060405234801561001057600080fd5b50615098806100206000396000f3fe60806040523480156200001157600080fd5b50600436106200022c5760003560e01c80635573b8b61162000135578063b9581c5011620000bd578063cc5b715b1162000087578063cc5b715b146200046d578063d547741f1462000477578063dec2deb6146200048e578063edcc12b51462000498578063f429e38314620004af576200022c565b8063b9581c50146200041e578063c0e312dc1462000428578063ca15c873146200043f578063cb703bff1462000456576200022c565b8063884cee5a11620000ff578063884cee5a14620003cf5780639010d07c14620003e657806391d1485414620003fd578063a217fddf1462000414576200022c565b80635573b8b6146200039a5780636ce681d214620003a45780636d61128614620003bb5780636d6c68e614620003c5576200022c565b80632dc151de11620001b95780633b690b6b11620001835780633b690b6b14620003565780633fa194ce14620003605780634d58c889146200036a57806350f442801462000381576200022c565b80632dc151de14620002f85780632f2ff15d146200030257806336568abe146200031957806339927cf91462000330576200022c565b8063248a9ca311620001fb578063248a9ca3146200029a57806328c5e18214620002c05780632baaf64314620002ca5780632d6eea0614620002e1576200022c565b8063029996b814620002315780630472e00a146200023d5780630b885ac314620002545780630f1a8f74146200026b575b600080fd5b6200023b620004c6565b005b6200023b6200024e3660046200242a565b6200051e565b6200023b62000265366004620024a0565b6200093d565b620002826200027c366004620022ab565b62000953565b604051620002919190620026e9565b60405180910390f35b620002b1620002ab366004620022ab565b6200096e565b6040516200029191906200275f565b620002b162000983565b6200023b620002db36600462002207565b620009ce565b62000282620002f2366004620021e8565b62000d97565b6200028262000db2565b6200023b62000313366004620022c4565b62000dc1565b6200023b6200032a366004620022c4565b62000e11565b62000347620003413660046200238b565b62000e5a565b60405162000291919062002754565b620002b162000eb9565b620002b162000ebf565b6200023b6200037b3660046200224c565b62000ed2565b6200038b6200103c565b604051620002919190620027c2565b620002826200105f565b6200023b620003b5366004620024a0565b6200106e565b62000282620011d5565b62000282620011e4565b62000347620003e0366004620022eb565b620011f3565b62000282620003f73660046200234b565b62001369565b620003476200040e366004620022c4565b6200138a565b620002b1620013a4565b6200023b620013a9565b6200023b620004393660046200238b565b620013f2565b620002b162000450366004620022ab565b620014ba565b6200023b62000467366004620023cf565b620014d3565b620002b1620015d5565b6200023b62000488366004620022c4565b620015f9565b6200034762001639565b6200023b620004a9366004620021e8565b62001649565b620002b1620004c0366004620021e8565b62001697565b620004e160008051602062005043833981519152336200138a565b620005095760405162461bcd60e51b8152600401620005009062002a65565b60405180910390fd5b6069805460ff60a01b1916600160a01b179055565b6001600160a01b038216620005475760405162461bcd60e51b8152600401620005009062002cae565b600085856040516020016200055e929190620026bb565b60408051601f1981840301815282825280516020918201208383018352600784526613585a5b9b995d60ca1b848301529151919350620005a0929101620026cb565b60405160208183030381529060405280519060200120811415620005d85760405162461bcd60e51b81526004016200050090620029b0565b6000818152606a60205260409020546001600160a01b03166200060f5760405162461bcd60e51b815260040162000500906200284b565b6001600160a01b038085166000908152606b6020526040902054166200063581620016a9565b620006545760405162461bcd60e51b8152600401620005009062002e42565b6040516370a0823160e01b815283906001600160a01b038316906370a082319062000684903390600401620026e9565b60206040518083038186803b1580156200069d57600080fd5b505afa158015620006b2573d6000803e3d6000fd5b505050506040513d601f19601f82011682018060405250810190620006d8919062002674565b1015620006f95760405162461bcd60e51b8152600401620005009062002aa6565b604051636eb1769f60e11b815283906001600160a01b0383169063dd62ed3e906200072b9033903090600401620026fd565b60206040518083038186803b1580156200074457600080fd5b505afa15801562000759573d6000803e3d6000fd5b505050506040513d601f19601f820116820180604052508101906200077f919062002674565b1015620007a05760405162461bcd60e51b8152600401620005009062002bdc565b6040516323b872dd60e01b81526001600160a01b038216906323b872dd90620007d29033903090889060040162002717565b602060405180830381600087803b158015620007ed57600080fd5b505af115801562000802573d6000803e3d6000fd5b505050506040513d601f19601f8201168201806040525081019062000828919062002289565b620008475760405162461bcd60e51b8152600401620005009062002da5565b604051630852cd8d60e31b81526001600160a01b038216906342966c6890620008759086906004016200275f565b600060405180830381600087803b1580156200089057600080fd5b505af1158015620008a5573d6000803e3d6000fd5b50506065546000858152606a60205260409020546001600160a01b0391821693506365e3781f92508a918a9116620008df8a8a8a620016af565b6040518563ffffffff1660e01b815260040162000900949392919062002768565b600060405180830381600087803b1580156200091b57600080fd5b505af115801562000930573d6000803e3d6000fd5b5050505050505050505050565b6200094c85858585856200106e565b5050505050565b606a602052600090815260409020546001600160a01b031681565b60009081526033602052604090206002015490565b6040518060400160405280600781526020016613585a5b9b995d60ca1b815250604051602001620009b59190620026cb565b6040516020818303038152906040528051906020012081565b6001600160a01b038216620009f75760405162461bcd60e51b8152600401620005009062002cae565b6067546040516311be333d60e11b81526001600160a01b039091169063237c667a9062000a29908590600401620026e9565b600060405180830381600087803b15801562000a4457600080fd5b505af115801562000a59573d6000803e3d6000fd5b505050506001600160a01b038381166000908152606b60205260409020541662000a8381620016a9565b62000aa25760405162461bcd60e51b8152600401620005009062002e42565b6040516370a0823160e01b815282906001600160a01b038316906370a082319062000ad2903390600401620026e9565b60206040518083038186803b15801562000aeb57600080fd5b505afa15801562000b00573d6000803e3d6000fd5b505050506040513d601f19601f8201168201806040525081019062000b26919062002674565b101562000b475760405162461bcd60e51b8152600401620005009062002aa6565b604051636eb1769f60e11b815282906001600160a01b0383169063dd62ed3e9062000b799033903090600401620026fd565b60206040518083038186803b15801562000b9257600080fd5b505afa15801562000ba7573d6000803e3d6000fd5b505050506040513d601f19601f8201168201806040525081019062000bcd919062002674565b101562000bee5760405162461bcd60e51b8152600401620005009062002bdc565b6040516323b872dd60e01b81526001600160a01b038216906323b872dd9062000c209033903090879060040162002717565b602060405180830381600087803b15801562000c3b57600080fd5b505af115801562000c50573d6000803e3d6000fd5b505050506040513d601f19601f8201168201806040525081019062000c76919062002289565b62000c955760405162461bcd60e51b8152600401620005009062002da5565b604051630852cd8d60e31b81526001600160a01b038216906342966c689062000cc39085906004016200275f565b600060405180830381600087803b15801562000cde57600080fd5b505af115801562000cf3573d6000803e3d6000fd5b505060655460408051808201909152600781526613585a5b9b995d60ca1b60208201526069546001600160a01b0392831694506365e3781f935090911662000d3d888888620016af565b6040518463ffffffff1660e01b815260040162000d5d93929190620027d7565b600060405180830381600087803b15801562000d7857600080fd5b505af115801562000d8d573d6000803e3d6000fd5b5050505050505050565b606b602052600090815260409020546001600160a01b031681565b6066546001600160a01b031681565b60008281526033602052604090206002015462000de2906200040e62001726565b62000e015760405162461bcd60e51b81526004016200050090620028f3565b62000e0d82826200172a565b5050565b62000e1b62001726565b6001600160a01b0316816001600160a01b03161462000e4e5760405162461bcd60e51b8152600401620005009062002e79565b62000e0d828262001798565b6000806001600160a01b0316606a6000858560405160200162000e7f929190620026bb565b60408051601f19818403018152918152815160209283012083529082019290925201600020546001600160a01b0316141590505b92915050565b60685481565b6000805160206200504383398151915281565b62000efe7ffda70c2cc66a36c14884ee85424961f51b1d92b4494751699b6d105b3bcbcba8336200138a565b62000f1d5760405162461bcd60e51b8152600401620005009062002b22565b62000f31816001600160a01b0316620016a9565b62000f505760405162461bcd60e51b8152600401620005009062002ce5565b806001600160a01b03166318160ddd6040518163ffffffff1660e01b815260040160206040518083038186803b15801562000f8a57600080fd5b505afa15801562000f9f573d6000803e3d6000fd5b505050506040513d601f19601f8201168201806040525081019062000fc5919062002674565b1562000fe55760405162461bcd60e51b8152600401620005009062002ba5565b6001600160a01b038281166000818152606b602052604080822080546001600160a01b0319169486169485179055517fc6e93524baaa4770b94da082aa0caeac9ba78c87f7edc7c3d2820f2e9fdf400a9190a35050565b6040518060400160405280600781526020016613585a5b9b995d60ca1b81525081565b6065546001600160a01b031681565b600054610100900460ff16806200108a57506200108a62001806565b8062001099575060005460ff16155b620010b85760405162461bcd60e51b8152600401620005009062002b57565b600054610100900460ff16158015620010e4576000805460ff1961ff0019909116610100171660011790555b620010ee62001819565b620010fb60003362000e01565b62001116600080516020620050438339815191523362000e01565b620011427ffda70c2cc66a36c14884ee85424961f51b1d92b4494751699b6d105b3bcbcba83362000e01565b85604051602001620011559190620026cb565b60408051601f198184030181529190528051602090910120606855606580546001600160a01b038088166001600160a01b031992831617909255606680548784169083161790556067805486841690831617905560698054928516929091169190911790558015620011cd576000805461ff00191690555b505050505050565b6069546001600160a01b031681565b6067546001600160a01b031681565b6065546000906001600160a01b03163314620012235760405162461bcd60e51b8152600401620005009062002942565b6068548514158015620012b557506040518060400160405280600781526020016613585a5b9b995d60ca1b815250604051602001620012639190620026cb565b604051602081830303815290604052805190602001208514620012a3576000858152606a60205260409020546001600160a01b03858116911614620012b5565b6069546001600160a01b038581169116145b620012d45760405162461bcd60e51b8152600401620005009062002d1c565b6000620012e28484620018b9565b9050600481600c811115620012f357fe5b14806200130c5750600381600c8111156200130a57fe5b145b1562001343576200131e848462001904565b6200133d5760405162461bcd60e51b8152600401620005009062002a37565b6200135d565b60405162461bcd60e51b8152600401620005009062002ec8565b50600195945050505050565b600082815260336020526040812062001383908362001caf565b9392505050565b600082815260336020526040812062001383908362001cbd565b600081565b620013c460008051602062005043833981519152336200138a565b620013e35760405162461bcd60e51b8152600401620005009062002a65565b6069805460ff60a01b19169055565b6066546001600160a01b0316331480620014145750620014146000336200138a565b620014335760405162461bcd60e51b8152600401620005009062002e13565b600082826040516020016200144a929190620026bb565b60408051601f1981840301815291815281516020928301206000818152606a9093529120549091506001600160a01b03166200149a5760405162461bcd60e51b8152600401620005009062002a00565b6000908152606a6020526040902080546001600160a01b03191690555050565b600081815260336020526040812062000eb39062001cd4565b6066546001600160a01b0316331480620014f55750620014f56000336200138a565b620015145760405162461bcd60e51b8152600401620005009062002e13565b600083836040516020016200152b929190620026bb565b60408051601f1981840301815291815281516020928301206000818152606a9093529120549091506001600160a01b0316156200157c5760405162461bcd60e51b8152600401620005009062002ddc565b6001600160a01b038216620015a55760405162461bcd60e51b815260040162000500906200284b565b6000908152606a6020526040902080546001600160a01b0319166001600160a01b03929092169190911790555050565b7ffda70c2cc66a36c14884ee85424961f51b1d92b4494751699b6d105b3bcbcba881565b6000828152603360205260409020600201546200161a906200040e62001726565b62000e4e5760405162461bcd60e51b8152600401620005009062002ad2565b606954600160a01b900460ff1681565b620016566000336200138a565b620016755760405162461bcd60e51b8152600401620005009062002979565b606980546001600160a01b0319166001600160a01b0392909216919091179055565b606c6020526000908152604090205481565b3b151590565b6060620016bb62001fbd565b6040805160a0810190915280608081018060028152508152602001866001600160a01b03168152602001856001600160a01b03168152602001848152509050806040516020016200170d919062002ef8565b6040516020818303038152906040529150509392505050565b3390565b600082815260336020526040902062001744908262001ce1565b1562000e0d576200175462001726565b6001600160a01b0316816001600160a01b0316837f2f8788117e7eff1d82e926ec794901d17c78024a50270940304540a733656f0d60405160405180910390a45050565b6000828152603360205260409020620017b2908262001cf8565b1562000e0d57620017c262001726565b6001600160a01b0316816001600160a01b0316837ff6391f5c32d9c69d2a47ea670b442974b53935d1edc7fd64eb21e047a839171b60405160405180910390a45050565b60006200181330620016a9565b15905090565b600054610100900460ff16806200183557506200183562001806565b8062001844575060005460ff16155b620018635760405162461bcd60e51b8152600401620005009062002b57565b600054610100900460ff161580156200188f576000805460ff1961ff0019909116610100171660011790555b6200189962001d0f565b620018a362001d0f565b8015620018b6576000805461ff00191690555b50565b600080620018ca83850185620022ab565b905060208106620018f657620018ed620018e78483818862002f69565b620018b9565b91505062000eb3565b620018ed838501856200236d565b600080620019138484620018b9565b9050600080808080600386600c8111156200192a57fe5b141562001990576200193b62001fed565b620019478a8a62001d99565b8051604080820151602080840151606090940151948101516001600160a01b038086166000908152606b9093529390912054919a5092985092965090945016915062001ac29050565b6200199a6200200f565b620019a68a8a62001deb565b8051604080820151602080840151606090940151818601516001600160a01b038087166000908152606b9094529490922054929b5093995092975091955016925090508162001ac057606954600160a01b900460ff1662001a1b5760405162461bcd60e51b8152600401620005009062002c77565b80604001516000015181604001516040015160405162001a3b906200203f565b62001a4892919062002819565b604051809103906000f08015801562001a65573d6000803e3d6000fd5b506001600160a01b038681166000818152606b602052604080822080546001600160a01b031916948616948517905551939550919290917fcdae5f6ddbda7847ad809fcd087e35946ef42729ff7ecdbcc81a03eb3a52ab2891a35b505b62001ad6816001600160a01b0316620016a9565b62001af55760405162461bcd60e51b8152600401620005009062002ce5565b6001600160a01b0381166000908152606c6020526040902054821462001b31576001600160a01b0381166000908152606c602052604090208290555b606c6000826001600160a01b03166001600160a01b031681526020019081526020016000205483826001600160a01b03166318160ddd6040518163ffffffff1660e01b815260040160206040518083038186803b15801562001b9257600080fd5b505afa15801562001ba7573d6000803e3d6000fd5b505050506040513d601f19601f8201168201806040525081019062001bcd919062002674565b01111562001bef5760405162461bcd60e51b81526004016200050090620028c4565b6040516340c10f1960e01b81526001600160a01b038216906340c10f199062001c1f90889087906004016200273b565b600060405180830381600087803b15801562001c3a57600080fd5b505af115801562001c4f573d6000803e3d6000fd5b50505050806001600160a01b0316846001600160a01b03167f3799680c99183658e109873f9f352e8f136e8ef04c1963b80064ff525c2d4d898560405162001c9891906200275f565b60405180910390a350600198975050505050505050565b600062001383838362001e3d565b600062001383836001600160a01b03841662001e86565b600062000eb38262001e9e565b600062001383836001600160a01b03841662001ea2565b600062001383836001600160a01b03841662001ef1565b600054610100900460ff168062001d2b575062001d2b62001806565b8062001d3a575060005460ff16155b62001d595760405162461bcd60e51b8152600401620005009062002b57565b600054610100900460ff16158015620018a3576000805460ff1961ff0019909116610100171660011790558015620018b6576000805461ff001916905550565b62001da362001fed565b600362001db18484620018b9565b600c81111562001dbd57fe5b1462001ddd5760405162461bcd60e51b8152600401620005009062002c24565b620013838284018462002636565b62001df56200200f565b600462001e038484620018b9565b600c81111562001e0f57fe5b1462001e2f5760405162461bcd60e51b8152600401620005009062002d53565b620013838284018462002534565b8154600090821062001e635760405162461bcd60e51b8152600401620005009062002882565b82600001828154811062001e7357fe5b9060005260206000200154905092915050565b60009081526001919091016020526040902054151590565b5490565b600062001eb0838362001e86565b62001ee85750815460018181018455600084815260208082209093018490558454848252828601909352604090209190915562000eb3565b50600062000eb3565b6000818152600183016020526040812054801562001fb2578354600019808301919081019060009087908390811062001f2657fe5b906000526020600020015490508087600001848154811062001f4457fe5b60009182526020808320909101929092558281526001898101909252604090209084019055865487908062001f7557fe5b6001900381819060005260206000200160009055905586600101600087815260200190815260200160002060009055600194505050505062000eb3565b600091505062000eb3565b604051806080016040528062001fd26200204d565b81526000602082018190526040820181905260609091015290565b60405180604001604052806200200262001fbd565b8152602001600081525090565b60405180606001604052806200202462001fbd565b8152602001600081526020016200203a62002061565b905290565b6120668062002fdd83390190565b60408051602081019091528060006200203a565b604051806060016040528060608152602001600060ff168152602001606081525090565b60008083601f84011262002097578182fd5b50813567ffffffffffffffff811115620020af578182fd5b602083019150836020828501011115620020c857600080fd5b9250929050565b8035600d811062000eb357600080fd5b600082601f830112620020f0578081fd5b813567ffffffffffffffff81111562002107578182fd5b6200211c601f8201601f191660200162002f41565b91508082528360208285010111156200213457600080fd5b8060208401602084013760009082016020015292915050565b6000818303608081121562002160578182fd5b6200216c608062002f41565b915060208112156200217d57600080fd5b506200218a602062002f41565b620021968484620020cf565b815281526020820135620021aa8162002fc6565b60208201526040820135620021bf8162002fc6565b806040830152506060820135606082015292915050565b803560ff8116811462000eb357600080fd5b600060208284031215620021fa578081fd5b8135620013838162002fc6565b6000806000606084860312156200221c578182fd5b8335620022298162002fc6565b925060208401356200223b8162002fc6565b929592945050506040919091013590565b600080604083850312156200225f578182fd5b82356200226c8162002fc6565b915060208301356200227e8162002fc6565b809150509250929050565b6000602082840312156200229b578081fd5b8151801515811462001383578182fd5b600060208284031215620022bd578081fd5b5035919050565b60008060408385031215620022d7578182fd5b8235915060208301356200227e8162002fc6565b6000806000806060858703121562002301578182fd5b843593506020850135620023158162002fc6565b9250604085013567ffffffffffffffff81111562002331578283fd5b6200233f8782880162002085565b95989497509550505050565b600080604083850312156200235e578182fd5b50508035926020909101359150565b6000602082840312156200237f578081fd5b620013838383620020cf565b600080602083850312156200239e578182fd5b823567ffffffffffffffff811115620023b5578283fd5b620023c38582860162002085565b90969095509350505050565b600080600060408486031215620023e4578081fd5b833567ffffffffffffffff811115620023fb578182fd5b620024098682870162002085565b90945092505060208401356200241f8162002fc6565b809150509250925092565b60008060008060006080868803121562002442578283fd5b853567ffffffffffffffff81111562002459578384fd5b620024678882890162002085565b90965094505060208601356200247d8162002fc6565b925060408601356200248f8162002fc6565b949793965091946060013592915050565b600080600080600060a08688031215620024b8578283fd5b853567ffffffffffffffff811115620024cf578384fd5b620024dd88828901620020df565b9550506020860135620024f08162002fc6565b93506040860135620025028162002fc6565b92506060860135620025148162002fc6565b91506080860135620025268162002fc6565b809150509295509295909350565b60006020828403121562002546578081fd5b813567ffffffffffffffff808211156200255e578283fd5b9083019060c0828603121562002572578283fd5b6200257e606062002f41565b6200258a86846200214d565b81526080830135602082015260a083013582811115620025a8578485fd5b929092019160608387031215620025bd578384fd5b620025c9606062002f41565b833583811115620025d8578586fd5b620025e688828701620020df565b825250620025f88760208601620021d6565b60208201526040840135838111156200260f578586fd5b6200261d88828701620020df565b6040830152508060408301525080935050505092915050565b600060a0828403121562002648578081fd5b62002654604062002f41565b6200266084846200214d565b815260809290920135602083015250919050565b60006020828403121562002686578081fd5b5051919050565b60008151808452620026a781602086016020860162002f93565b601f01601f19169290920160200192915050565b6000828483379101908152919050565b60008251620026df81846020870162002f93565b9190910192915050565b6001600160a01b0391909116815260200190565b6001600160a01b0392831681529116602082015260400190565b6001600160a01b039384168152919092166020820152604081019190915260600190565b6001600160a01b03929092168252602082015260400190565b901515815260200190565b90815260200190565b60006060825284606083015284866080840137608085830181018290526001600160a01b0385166020840152601f8601601f191683018381038201604085015290620027b7908201856200268d565b979650505050505050565b6000602082526200138360208301846200268d565b600060608252620027ec60608301866200268d565b6001600160a01b038516602084015282810360408401526200280f81856200268d565b9695505050505050565b6000604082526200282e60408301856200268d565b82810360208401526200284281856200268d565b95945050505050565b6020808252601f908201527f496e636f727265637420546f6b656e204d616e61676572206164647265737300604082015260600190565b60208082526022908201527f456e756d657261626c655365743a20696e646578206f7574206f6620626f756e604082015261647360f01b606082015260800190565b602080825260159082015274151bdd185b081cdd5c1c1b1e48195e18d959591959605a1b604082015260600190565b6020808252602f908201527f416363657373436f6e74726f6c3a2073656e646572206d75737420626520616e60408201526e0818591b5a5b881d1bc819dc985b9d608a1b606082015260800190565b6020808252601c908201527f53656e646572206973206e6f742061204d65737361676550726f787900000000604082015260600190565b6020808252601e908201527f44454641554c545f41444d494e5f524f4c452069732072657175697265640000604082015260600190565b60208082526030908201527f546869732066756e6374696f6e206973206e6f7420666f72207472616e73666560408201526f1c9c9a5b99c81d1bc813585a5b9b995d60821b606082015260800190565b60208082526018908201527f546f6b656e204d616e61676572206973206e6f74207365740000000000000000604082015260600190565b60208082526014908201527304661696c656420746f2073656e642045524332360641b604082015260600190565b60208082526021908201527f4155544f4d415449435f4445504c4f595f524f4c4520697320726571756972656040820152601960fa1b606082015260800190565b602080825260129082015271496e73756666696369656e742066756e647360701b604082015260600190565b60208082526030908201527f416363657373436f6e74726f6c3a2073656e646572206d75737420626520616e60408201526f2061646d696e20746f207265766f6b6560801b606082015260800190565b6020808252818101527f544f4b454e5f5245474953545241525f524f4c45206973207265717569726564604082015260600190565b6020808252602e908201527f496e697469616c697a61626c653a20636f6e747261637420697320616c72656160408201526d191e481a5b9a5d1a585b1a5e995960921b606082015260800190565b60208082526017908201527f546f74616c537570706c79206973206e6f74207a65726f000000000000000000604082015260600190565b60208082526028908201527f5472616e73666572206973206e6f7420617070726f76656420627920746f6b6560408201526737103437b63232b960c11b606082015260800190565b60208082526033908201527f4d6573736167652074797065206973206e6f74204552433230207472616e7366604082015272657220616e6420746f74616c20737570706c7960681b606082015260800190565b6020808252601c908201527f4175746f6d61746963206465706c6f792069732064697361626c656400000000604082015260600190565b6020808252601a908201527f496e636f72726563742072656365697665722061646472657373000000000000604082015260600190565b6020808252601f908201527f476976656e2061646472657373206973206e6f74206120636f6e747261637400604082015260600190565b6020808252601b908201527f526563656976657220636861696e20697320696e636f72726563740000000000604082015260600190565b60208082526032908201527f4d6573736167652074797065206973206e6f74204552433230207472616e73666040820152716572207769746820746f6b656e20696e666f60701b606082015260800190565b6020808252601e908201527f436f756c64206e6f74207472616e7366657220455243323020546f6b656e0000604082015260600190565b6020808252601c908201527f546f6b656e204d616e6167657220697320616c72656164792073657400000000604082015260600190565b6020808252601590820152742737ba1030baba3437b934bd32b21031b0b63632b960591b604082015260600190565b60208082526018908201527f4e6f20746f6b656e20636c6f6e65206f6e2073636861696e0000000000000000604082015260600190565b6020808252602f908201527f416363657373436f6e74726f6c3a2063616e206f6e6c792072656e6f756e636560408201526e103937b632b9903337b91039b2b63360891b606082015260800190565b60208082526016908201527526b2b9b9b0b3b2aa3cb8329034b9903ab735b737bbb760511b604082015260600190565b8151516080820190600d811062002f0b57fe5b80835250602083015160018060a01b03808216602085015280604086015116604085015250506060830151606083015292915050565b60405181810167ffffffffffffffff8111828210171562002f6157600080fd5b604052919050565b6000808585111562002f79578182fd5b8386111562002f86578182fd5b5050820193919092039150565b60005b8381101562002fb057818101518382015260200162002f96565b8381111562002fc0576000848401525b50505050565b6001600160a01b0381168114620018b657600080fdfe60806040523480156200001157600080fd5b506040516200206638038062002066833981810160405260408110156200003757600080fd5b81019080805160405193929190846401000000008211156200005857600080fd5b9083019060208201858111156200006e57600080fd5b82516401000000008111828201881017156200008957600080fd5b82525081516020918201929091019080838360005b83811015620000b85781810151838201526020016200009e565b50505050905090810190601f168015620000e65780820380516001836020036101000a031916815260200191505b50604052602001805160405193929190846401000000008211156200010a57600080fd5b9083019060208201858111156200012057600080fd5b82516401000000008111828201881017156200013b57600080fd5b82525081516020918201929091019080838360005b838110156200016a57818101518382015260200162000150565b50505050905090810190601f168015620001985780820380516001836020036101000a031916815260200191505b50604052505050620001b46200022760201b62000a681760201c565b620001cb8282620002e560201b62000b191760201c565b620001e06200022760201b62000a681760201c565b620001fb6000805160206200204683398151915280620003a7565b6200021f6000805160206200204683398151915262000219620003f9565b620003fd565b50506200075b565b600054610100900460ff1680620002435750620002436200040d565b8062000252575060005460ff16155b6200028f5760405162461bcd60e51b815260040180806020018281038252602e81526020018062002018602e913960400191505060405180910390fd5b600054610100900460ff16158015620002bb576000805460ff1961ff0019909116610100171660011790555b620002c56200042b565b620002cf6200042b565b8015620002e2576000805461ff00191690555b50565b600054610100900460ff1680620003015750620003016200040d565b8062000310575060005460ff16155b6200034d5760405162461bcd60e51b815260040180806020018281038252602e81526020018062002018602e913960400191505060405180910390fd5b600054610100900460ff1615801562000379576000805460ff1961ff0019909116610100171660011790555b620003836200042b565b6200038f8383620004d3565b8015620003a2576000805461ff00191690555b505050565b600082815260336020526040808220600201549051839285917fbd79b86ffe0ab8e8776151514217cd7cacd52c909f66475c3af44e129f0b00ff9190a460009182526033602052604090912060020155565b3390565b620004098282620005b7565b5050565b600062000425306200063260201b62000bce1760201c565b15905090565b600054610100900460ff1680620004475750620004476200040d565b8062000456575060005460ff16155b620004935760405162461bcd60e51b815260040180806020018281038252602e81526020018062002018602e913960400191505060405180910390fd5b600054610100900460ff16158015620002cf576000805460ff1961ff0019909116610100171660011790558015620002e2576000805461ff001916905550565b600054610100900460ff1680620004ef5750620004ef6200040d565b80620004fe575060005460ff16155b6200053b5760405162461bcd60e51b815260040180806020018281038252602e81526020018062002018602e913960400191505060405180910390fd5b600054610100900460ff1615801562000567576000805460ff1961ff0019909116610100171660011790555b82516200057c906068906020860190620006bf565b50815162000592906069906020850190620006bf565b50606a805460ff191660121790558015620003a2576000805461ff0019169055505050565b6000828152603360209081526040909120620005de91839062000bd462000638821b17901c565b156200040957620005ee620003f9565b6001600160a01b0316816001600160a01b0316837f2f8788117e7eff1d82e926ec794901d17c78024a50270940304540a733656f0d60405160405180910390a45050565b3b151590565b60006200064f836001600160a01b03841662000658565b90505b92915050565b6000620006668383620006a7565b6200069e5750815460018181018455600084815260208082209093018490558454848252828601909352604090209190915562000652565b50600062000652565b60009081526001919091016020526040902054151590565b828054600181600116156101000203166002900490600052602060002090601f016020900481019282601f106200070257805160ff191683800117855562000732565b8280016001018555821562000732579182015b828111156200073257825182559160200191906001019062000715565b506200074092915062000744565b5090565b5b8082111562000740576000815560010162000745565b6118ad806200076b6000396000f3fe608060405234801561001057600080fd5b506004361061014d5760003560e01c806370a08231116100c3578063a457c2d71161007c578063a457c2d714610436578063a9059cbb14610462578063ca15c8731461048e578063d5391393146104ab578063d547741f146104b3578063dd62ed3e146104df5761014d565b806370a082311461036957806379cc67901461038f5780639010d07c146103bb57806391d14854146103fa57806395d89b4114610426578063a217fddf1461042e5761014d565b80632f2ff15d116101155780632f2ff15d1461027c578063313ce567146102aa57806336568abe146102c857806339509351146102f457806340c10f191461032057806342966c681461034c5761014d565b806306fdde0314610152578063095ea7b3146101cf57806318160ddd1461020f57806323b872dd14610229578063248a9ca31461025f575b600080fd5b61015a61050d565b6040805160208082528351818301528351919283929083019185019080838360005b8381101561019457818101518382015260200161017c565b50505050905090810190601f1680156101c15780820380516001836020036101000a031916815260200191505b509250505060405180910390f35b6101fb600480360360408110156101e557600080fd5b506001600160a01b0381351690602001356105a3565b604080519115158252519081900360200190f35b6102176105c1565b60408051918252519081900360200190f35b6101fb6004803603606081101561023f57600080fd5b506001600160a01b038135811691602081013590911690604001356105c7565b6102176004803603602081101561027557600080fd5b503561064e565b6102a86004803603604081101561029257600080fd5b50803590602001356001600160a01b0316610663565b005b6102b26106cf565b6040805160ff9092168252519081900360200190f35b6102a8600480360360408110156102de57600080fd5b50803590602001356001600160a01b03166106d8565b6101fb6004803603604081101561030a57600080fd5b506001600160a01b038135169060200135610739565b6102a86004803603604081101561033657600080fd5b506001600160a01b038135169060200135610787565b6102a86004803603602081101561036257600080fd5b5035610807565b6102176004803603602081101561037f57600080fd5b50356001600160a01b031661081b565b6102a8600480360360408110156103a557600080fd5b506001600160a01b038135169060200135610836565b6103de600480360360408110156103d157600080fd5b5080359060200135610890565b604080516001600160a01b039092168252519081900360200190f35b6101fb6004803603604081101561041057600080fd5b50803590602001356001600160a01b03166108af565b61015a6108c7565b610217610928565b6101fb6004803603604081101561044c57600080fd5b506001600160a01b03813516906020013561092d565b6101fb6004803603604081101561047857600080fd5b506001600160a01b038135169060200135610995565b610217600480360360208110156104a457600080fd5b50356109a9565b6102176109c0565b6102a8600480360360408110156104c957600080fd5b50803590602001356001600160a01b03166109e4565b610217600480360360408110156104f557600080fd5b506001600160a01b0381358116916020013516610a3d565b60688054604080516020601f60026000196101006001881615020190951694909404938401819004810282018101909252828152606093909290918301828280156105995780601f1061056e57610100808354040283529160200191610599565b820191906000526020600020905b81548152906001019060200180831161057c57829003601f168201915b5050505050905090565b60006105b76105b0610be9565b8484610bed565b5060015b92915050565b60675490565b60006105d4848484610cd9565b610644846105e0610be9565b61063f8560405180606001604052806028815260200161176e602891396001600160a01b038a1660009081526066602052604081209061061e610be9565b6001600160a01b031681526020810191909152604001600020549190610e36565b610bed565b5060019392505050565b60009081526033602052604090206002015490565b60008281526033602052604090206002015461068690610681610be9565b6108af565b6106c15760405162461bcd60e51b815260040180806020018281038252602f815260200180611677602f913960400191505060405180910390fd5b6106cb8282610ecd565b5050565b606a5460ff1690565b6106e0610be9565b6001600160a01b0316816001600160a01b03161461072f5760405162461bcd60e51b815260040180806020018281038252602f815260200180611849602f913960400191505060405180910390fd5b6106cb8282610f36565b60006105b7610746610be9565b8461063f8560666000610757610be9565b6001600160a01b03908116825260208083019390935260409182016000908120918c168152925290205490610f9f565b6107b37f9f2df0fed2c77648de5860a4cc508cd0818c85b8b8a1ab4ceeef8d981c8956a6610681610be9565b6107fd576040805162461bcd60e51b815260206004820152601660248201527529b2b73232b91034b9903737ba10309026b4b73a32b960511b604482015290519081900360640190fd5b6106cb8282610ff9565b610818610812610be9565b826110eb565b50565b6001600160a01b031660009081526065602052604090205490565b600061086d826040518060600160405280602481526020016117966024913961086686610861610be9565b610a3d565b9190610e36565b90506108818361087b610be9565b83610bed565b61088b83836110eb565b505050565b60008281526033602052604081206108a890836111e7565b9392505050565b60008281526033602052604081206108a890836111f3565b60698054604080516020601f60026000196101006001881615020190951694909404938401819004810282018101909252828152606093909290918301828280156105995780601f1061056e57610100808354040283529160200191610599565b600081565b60006105b761093a610be9565b8461063f856040518060600160405280602581526020016118246025913960666000610964610be9565b6001600160a01b03908116825260208083019390935260409182016000908120918d16815292529020549190610e36565b60006105b76109a2610be9565b8484610cd9565b60008181526033602052604081206105bb90611208565b7f9f2df0fed2c77648de5860a4cc508cd0818c85b8b8a1ab4ceeef8d981c8956a681565b600082815260336020526040902060020154610a0290610681610be9565b61072f5760405162461bcd60e51b81526004018080602001828103825260308152602001806117106030913960400191505060405180910390fd5b6001600160a01b03918216600090815260666020908152604080832093909416825291909152205490565b600054610100900460ff1680610a815750610a81611213565b80610a8f575060005460ff16155b610aca5760405162461bcd60e51b815260040180806020018281038252602e815260200180611740602e913960400191505060405180910390fd5b600054610100900460ff16158015610af5576000805460ff1961ff0019909116610100171660011790555b610afd611224565b610b05611224565b8015610818576000805461ff001916905550565b600054610100900460ff1680610b325750610b32611213565b80610b40575060005460ff16155b610b7b5760405162461bcd60e51b815260040180806020018281038252602e815260200180611740602e913960400191505060405180910390fd5b600054610100900460ff16158015610ba6576000805460ff1961ff0019909116610100171660011790555b610bae611224565b610bb883836112c4565b801561088b576000805461ff0019169055505050565b3b151590565b60006108a8836001600160a01b03841661139c565b3390565b6001600160a01b038316610c325760405162461bcd60e51b81526004018080602001828103825260248152602001806118006024913960400191505060405180910390fd5b6001600160a01b038216610c775760405162461bcd60e51b81526004018080602001828103825260228152602001806116c86022913960400191505060405180910390fd5b6001600160a01b03808416600081815260666020908152604080832094871680845294825291829020859055815185815291517f8c5be1e5ebec7d5bd14f71427d1e84f3dd0314c0f7b2291e5b200ac8c7c3b9259281900390910190a3505050565b6001600160a01b038316610d1e5760405162461bcd60e51b81526004018080602001828103825260258152602001806117db6025913960400191505060405180910390fd5b6001600160a01b038216610d635760405162461bcd60e51b81526004018080602001828103825260238152602001806116546023913960400191505060405180910390fd5b610d6e83838361088b565b610dab816040518060600160405280602681526020016116ea602691396001600160a01b0386166000908152606560205260409020549190610e36565b6001600160a01b038085166000908152606560205260408082209390935590841681522054610dda9082610f9f565b6001600160a01b0380841660008181526065602090815260409182902094909455805185815290519193928716927fddf252ad1be2c89b69c2b068fc378daa952ba7f163c4a11628f55a4df523b3ef92918290030190a3505050565b60008184841115610ec55760405162461bcd60e51b81526004018080602001828103825283818151815260200191508051906020019080838360005b83811015610e8a578181015183820152602001610e72565b50505050905090810190601f168015610eb75780820380516001836020036101000a031916815260200191505b509250505060405180910390fd5b505050900390565b6000828152603360205260409020610ee59082610bd4565b156106cb57610ef2610be9565b6001600160a01b0316816001600160a01b0316837f2f8788117e7eff1d82e926ec794901d17c78024a50270940304540a733656f0d60405160405180910390a45050565b6000828152603360205260409020610f4e90826113e6565b156106cb57610f5b610be9565b6001600160a01b0316816001600160a01b0316837ff6391f5c32d9c69d2a47ea670b442974b53935d1edc7fd64eb21e047a839171b60405160405180910390a45050565b6000828201838110156108a8576040805162461bcd60e51b815260206004820152601b60248201527f536166654d6174683a206164646974696f6e206f766572666c6f770000000000604482015290519081900360640190fd5b6001600160a01b038216611054576040805162461bcd60e51b815260206004820152601f60248201527f45524332303a206d696e7420746f20746865207a65726f206164647265737300604482015290519081900360640190fd5b6110606000838361088b565b60675461106d9082610f9f565b6067556001600160a01b0382166000908152606560205260409020546110939082610f9f565b6001600160a01b03831660008181526065602090815260408083209490945583518581529351929391927fddf252ad1be2c89b69c2b068fc378daa952ba7f163c4a11628f55a4df523b3ef9281900390910190a35050565b6001600160a01b0382166111305760405162461bcd60e51b81526004018080602001828103825260218152602001806117ba6021913960400191505060405180910390fd5b61113c8260008361088b565b611179816040518060600160405280602281526020016116a6602291396001600160a01b0385166000908152606560205260409020549190610e36565b6001600160a01b03831660009081526065602052604090205560675461119f90826113fb565b6067556040805182815290516000916001600160a01b038516917fddf252ad1be2c89b69c2b068fc378daa952ba7f163c4a11628f55a4df523b3ef9181900360200190a35050565b60006108a88383611458565b60006108a8836001600160a01b0384166114bc565b60006105bb826114d4565b600061121e30610bce565b15905090565b600054610100900460ff168061123d575061123d611213565b8061124b575060005460ff16155b6112865760405162461bcd60e51b815260040180806020018281038252602e815260200180611740602e913960400191505060405180910390fd5b600054610100900460ff16158015610b05576000805460ff1961ff0019909116610100171660011790558015610818576000805461ff001916905550565b600054610100900460ff16806112dd57506112dd611213565b806112eb575060005460ff16155b6113265760405162461bcd60e51b815260040180806020018281038252602e815260200180611740602e913960400191505060405180910390fd5b600054610100900460ff16158015611351576000805460ff1961ff0019909116610100171660011790555b825161136490606890602086019061159e565b50815161137890606990602085019061159e565b50606a805460ff19166012179055801561088b576000805461ff0019169055505050565b60006113a883836114bc565b6113de575081546001818101845560008481526020808220909301849055845484825282860190935260409020919091556105bb565b5060006105bb565b60006108a8836001600160a01b0384166114d8565b600082821115611452576040805162461bcd60e51b815260206004820152601e60248201527f536166654d6174683a207375627472616374696f6e206f766572666c6f770000604482015290519081900360640190fd5b50900390565b8154600090821061149a5760405162461bcd60e51b81526004018080602001828103825260228152602001806116326022913960400191505060405180910390fd5b8260000182815481106114a957fe5b9060005260206000200154905092915050565b60009081526001919091016020526040902054151590565b5490565b60008181526001830160205260408120548015611594578354600019808301919081019060009087908390811061150b57fe5b906000526020600020015490508087600001848154811061152857fe5b60009182526020808320909101929092558281526001898101909252604090209084019055865487908061155857fe5b600190038181906000526020600020016000905590558660010160008781526020019081526020016000206000905560019450505050506105bb565b60009150506105bb565b828054600181600116156101000203166002900490600052602060002090601f016020900481019282601f106115df57805160ff191683800117855561160c565b8280016001018555821561160c579182015b8281111561160c5782518255916020019190600101906115f1565b5061161892915061161c565b5090565b5b80821115611618576000815560010161161d56fe456e756d657261626c655365743a20696e646578206f7574206f6620626f756e647345524332303a207472616e7366657220746f20746865207a65726f2061646472657373416363657373436f6e74726f6c3a2073656e646572206d75737420626520616e2061646d696e20746f206772616e7445524332303a206275726e20616d6f756e7420657863656564732062616c616e636545524332303a20617070726f766520746f20746865207a65726f206164647265737345524332303a207472616e7366657220616d6f756e7420657863656564732062616c616e6365416363657373436f6e74726f6c3a2073656e646572206d75737420626520616e2061646d696e20746f207265766f6b65496e697469616c697a61626c653a20636f6e747261637420697320616c726561647920696e697469616c697a656445524332303a207472616e7366657220616d6f756e74206578636565647320616c6c6f77616e636545524332303a206275726e20616d6f756e74206578636565647320616c6c6f77616e636545524332303a206275726e2066726f6d20746865207a65726f206164647265737345524332303a207472616e736665722066726f6d20746865207a65726f206164647265737345524332303a20617070726f76652066726f6d20746865207a65726f206164647265737345524332303a2064656372656173656420616c6c6f77616e63652062656c6f77207a65726f416363657373436f6e74726f6c3a2063616e206f6e6c792072656e6f756e636520726f6c657320666f722073656c66a2646970667358221220f5fd5b9f427fa0188f9574676da4de58e3fd195487cc5f2ba14cd5cbd4d68d2464736f6c634300060c0033496e697469616c697a61626c653a20636f6e747261637420697320616c726561647920696e697469616c697a65649f2df0fed2c77648de5860a4cc508cd0818c85b8b8a1ab4ceeef8d981c8956a67164765a3c8bd2513bdfa0c90f1bee9606e920fbf2c9071f310263fbd818684ba2646970667358221220fe207ed89cc17d38d8f034964b3e08743099bc2cf9e6a046aed52f29ac1f19c564736f6c634300060c0033",
  "linkReferences": {},
  "deployedLinkReferences": {}
}