{
  "_format": "hh-sol-artifact-1",
  "contractName": "TokenManagerERC1155",
  "sourceName": "contracts/schain/TokenManagers/TokenManagerERC1155.sol",
  "abi": [
    {
      "anonymous": false,
      "inputs": [
        {
          "indexed": true,
          "internalType": "address",
          "name": "erc1155OnMainnet",
          "type": "address"
        },
        {
          "indexed": true,
          "internalType": "address",
          "name": "erc1155OnSchain",
          "type": "address"
        }
      ],
      "name": "ERC1155TokenAdded",
      "type": "event"
    },
    {
      "anonymous": false,
      "inputs": [
        {
          "indexed": true,
          "internalType": "address",
          "name": "erc1155OnMainnet",
          "type": "address"
        },
        {
          "indexed": true,
          "internalType": "address",
          "name": "erc1155OnSchain",
          "type": "address"
        }
      ],
      "name": "ERC1155TokenCreated",
      "type": "event"
    },
    {
      "anonymous": false,
      "inputs": [
        {
          "indexed": true,
          "internalType": "address",
          "name": "erc1155OnMainnet",
          "type": "address"
        },
        {
          "indexed": true,
          "internalType": "address",
          "name": "erc1155OnSchain",
          "type": "address"
        },
        {
          "indexed": false,
          "internalType": "uint256[]",
          "name": "ids",
          "type": "uint256[]"
        },
        {
          "indexed": false,
          "internalType": "uint256[]",
          "name": "amounts",
          "type": "uint256[]"
        }
      ],
      "name": "ERC1155TokenReceived",
      "type": "event"
    },
    {
      "anonymous": false,
      "inputs": [
        {
          "indexed": true,
          "internalType": "bytes32",
          "name": "role",
          "type": "bytes32"
        },
        {
          "indexed": true,
          "internalType": "bytes32",
          "name": "previousAdminRole",
          "type": "bytes32"
        },
        {
          "indexed": true,
          "internalType": "bytes32",
          "name": "newAdminRole",
          "type": "bytes32"
        }
      ],
      "name": "RoleAdminChanged",
      "type": "event"
    },
    {
      "anonymous": false,
      "inputs": [
        {
          "indexed": true,
          "internalType": "bytes32",
          "name": "role",
          "type": "bytes32"
        },
        {
          "indexed": true,
          "internalType": "address",
          "name": "account",
          "type": "address"
        },
        {
          "indexed": true,
          "internalType": "address",
          "name": "sender",
          "type": "address"
        }
      ],
      "name": "RoleGranted",
      "type": "event"
    },
    {
      "anonymous": false,
      "inputs": [
        {
          "indexed": true,
          "internalType": "bytes32",
          "name": "role",
          "type": "bytes32"
        },
        {
          "indexed": true,
          "internalType": "address",
          "name": "account",
          "type": "address"
        },
        {
          "indexed": true,
          "internalType": "address",
          "name": "sender",
          "type": "address"
        }
      ],
      "name": "RoleRevoked",
      "type": "event"
    },
    {
      "inputs": [],
      "name": "AUTOMATIC_DEPLOY_ROLE",
      "outputs": [
        {
          "internalType": "bytes32",
          "name": "",
          "type": "bytes32"
        }
      ],
      "stateMutability": "view",
      "type": "function"
    },
    {
      "inputs": [],
      "name": "DEFAULT_ADMIN_ROLE",
      "outputs": [
        {
          "internalType": "bytes32",
          "name": "",
          "type": "bytes32"
        }
      ],
      "stateMutability": "view",
      "type": "function"
    },
    {
      "inputs": [],
      "name": "MAINNET_HASH",
      "outputs": [
        {
          "internalType": "bytes32",
          "name": "",
          "type": "bytes32"
        }
      ],
      "stateMutability": "view",
      "type": "function"
    },
    {
      "inputs": [],
      "name": "MAINNET_NAME",
      "outputs": [
        {
          "internalType": "string",
          "name": "",
          "type": "string"
        }
      ],
      "stateMutability": "view",
      "type": "function"
    },
    {
      "inputs": [],
      "name": "TOKEN_REGISTRAR_ROLE",
      "outputs": [
        {
          "internalType": "bytes32",
          "name": "",
          "type": "bytes32"
        }
      ],
      "stateMutability": "view",
      "type": "function"
    },
    {
      "inputs": [
        {
          "internalType": "address",
          "name": "erc1155OnMainnet",
          "type": "address"
        },
        {
          "internalType": "contract ERC1155OnChain",
          "name": "erc1155OnSchain",
          "type": "address"
        }
      ],
      "name": "addERC1155TokenByOwner",
      "outputs": [],
      "stateMutability": "nonpayable",
      "type": "function"
    },
    {
      "inputs": [
        {
          "internalType": "string",
          "name": "schainName",
          "type": "string"
        },
        {
          "internalType": "address",
          "name": "newTokenManager",
          "type": "address"
        }
      ],
      "name": "addTokenManager",
      "outputs": [],
      "stateMutability": "nonpayable",
      "type": "function"
    },
    {
      "inputs": [],
      "name": "automaticDeploy",
      "outputs": [
        {
          "internalType": "bool",
          "name": "",
          "type": "bool"
        }
      ],
      "stateMutability": "view",
      "type": "function"
    },
    {
      "inputs": [
        {
          "internalType": "address",
          "name": "newDepositBox",
          "type": "address"
        }
      ],
      "name": "changeDepositBoxAddress",
      "outputs": [],
      "stateMutability": "nonpayable",
      "type": "function"
    },
    {
      "inputs": [
        {
          "internalType": "address",
          "name": "",
          "type": "address"
        }
      ],
      "name": "clonesErc1155",
      "outputs": [
        {
          "internalType": "contract ERC1155OnChain",
          "name": "",
          "type": "address"
        }
      ],
      "stateMutability": "view",
      "type": "function"
    },
    {
      "inputs": [],
      "name": "communityLocker",
      "outputs": [
        {
          "internalType": "contract CommunityLocker",
          "name": "",
          "type": "address"
        }
      ],
      "stateMutability": "view",
      "type": "function"
    },
    {
      "inputs": [],
      "name": "depositBox",
      "outputs": [
        {
          "internalType": "address",
          "name": "",
          "type": "address"
        }
      ],
      "stateMutability": "view",
      "type": "function"
    },
    {
      "inputs": [],
      "name": "disableAutomaticDeploy",
      "outputs": [],
      "stateMutability": "nonpayable",
      "type": "function"
    },
    {
      "inputs": [],
      "name": "enableAutomaticDeploy",
      "outputs": [],
      "stateMutability": "nonpayable",
      "type": "function"
    },
    {
      "inputs": [
        {
          "internalType": "address",
          "name": "contractOnMainnet",
          "type": "address"
        },
        {
          "internalType": "address",
          "name": "to",
          "type": "address"
        },
        {
          "internalType": "uint256",
          "name": "id",
          "type": "uint256"
        },
        {
          "internalType": "uint256",
          "name": "amount",
          "type": "uint256"
        }
      ],
      "name": "exitToMainERC1155",
      "outputs": [],
      "stateMutability": "nonpayable",
      "type": "function"
    },
    {
      "inputs": [
        {
          "internalType": "address",
          "name": "contractOnMainnet",
          "type": "address"
        },
        {
          "internalType": "address",
          "name": "to",
          "type": "address"
        },
        {
          "internalType": "uint256[]",
          "name": "ids",
          "type": "uint256[]"
        },
        {
          "internalType": "uint256[]",
          "name": "amounts",
          "type": "uint256[]"
        }
      ],
      "name": "exitToMainERC1155Batch",
      "outputs": [],
      "stateMutability": "nonpayable",
      "type": "function"
    },
    {
      "inputs": [
        {
          "internalType": "bytes32",
          "name": "role",
          "type": "bytes32"
        }
      ],
      "name": "getRoleAdmin",
      "outputs": [
        {
          "internalType": "bytes32",
          "name": "",
          "type": "bytes32"
        }
      ],
      "stateMutability": "view",
      "type": "function"
    },
    {
      "inputs": [
        {
          "internalType": "bytes32",
          "name": "role",
          "type": "bytes32"
        },
        {
          "internalType": "uint256",
          "name": "index",
          "type": "uint256"
        }
      ],
      "name": "getRoleMember",
      "outputs": [
        {
          "internalType": "address",
          "name": "",
          "type": "address"
        }
      ],
      "stateMutability": "view",
      "type": "function"
    },
    {
      "inputs": [
        {
          "internalType": "bytes32",
          "name": "role",
          "type": "bytes32"
        }
      ],
      "name": "getRoleMemberCount",
      "outputs": [
        {
          "internalType": "uint256",
          "name": "",
          "type": "uint256"
        }
      ],
      "stateMutability": "view",
      "type": "function"
    },
    {
      "inputs": [
        {
          "internalType": "bytes32",
          "name": "role",
          "type": "bytes32"
        },
        {
          "internalType": "address",
          "name": "account",
          "type": "address"
        }
      ],
      "name": "grantRole",
      "outputs": [],
      "stateMutability": "nonpayable",
      "type": "function"
    },
    {
      "inputs": [
        {
          "internalType": "bytes32",
          "name": "role",
          "type": "bytes32"
        },
        {
          "internalType": "address",
          "name": "account",
          "type": "address"
        }
      ],
      "name": "hasRole",
      "outputs": [
        {
          "internalType": "bool",
          "name": "",
          "type": "bool"
        }
      ],
      "stateMutability": "view",
      "type": "function"
    },
    {
      "inputs": [
        {
          "internalType": "string",
          "name": "schainName",
          "type": "string"
        }
      ],
      "name": "hasTokenManager",
      "outputs": [
        {
          "internalType": "bool",
          "name": "",
          "type": "bool"
        }
      ],
      "stateMutability": "view",
      "type": "function"
    },
    {
      "inputs": [
        {
          "internalType": "string",
          "name": "newChainName",
          "type": "string"
        },
        {
          "internalType": "contract MessageProxyForSchain",
          "name": "newMessageProxy",
          "type": "address"
        },
        {
          "internalType": "contract TokenManagerLinker",
          "name": "newIMALinker",
          "type": "address"
        },
        {
          "internalType": "contract CommunityLocker",
          "name": "newCommunityLocker",
          "type": "address"
        },
        {
          "internalType": "address",
          "name": "newDepositBox",
          "type": "address"
        }
      ],
      "name": "initialize",
      "outputs": [],
      "stateMutability": "nonpayable",
      "type": "function"
    },
    {
      "inputs": [
        {
          "internalType": "string",
          "name": "newSchainName",
          "type": "string"
        },
        {
          "internalType": "contract MessageProxyForSchain",
          "name": "newMessageProxy",
          "type": "address"
        },
        {
          "internalType": "contract TokenManagerLinker",
          "name": "newIMALinker",
          "type": "address"
        },
        {
          "internalType": "contract CommunityLocker",
          "name": "newCommunityLocker",
          "type": "address"
        },
        {
          "internalType": "address",
          "name": "newDepositBox",
          "type": "address"
        }
      ],
      "name": "initializeTokenManager",
      "outputs": [],
      "stateMutability": "nonpayable",
      "type": "function"
    },
    {
      "inputs": [],
      "name": "messageProxy",
      "outputs": [
        {
          "internalType": "contract MessageProxyForSchain",
          "name": "",
          "type": "address"
        }
      ],
      "stateMutability": "view",
      "type": "function"
    },
    {
      "inputs": [
        {
          "internalType": "bytes32",
          "name": "fromChainHash",
          "type": "bytes32"
        },
        {
          "internalType": "address",
          "name": "sender",
          "type": "address"
        },
        {
          "internalType": "bytes",
          "name": "data",
          "type": "bytes"
        }
      ],
      "name": "postMessage",
      "outputs": [
        {
          "internalType": "bool",
          "name": "",
          "type": "bool"
        }
      ],
      "stateMutability": "nonpayable",
      "type": "function"
    },
    {
      "inputs": [
        {
          "internalType": "string",
          "name": "schainName",
          "type": "string"
        }
      ],
      "name": "removeTokenManager",
      "outputs": [],
      "stateMutability": "nonpayable",
      "type": "function"
    },
    {
      "inputs": [
        {
          "internalType": "bytes32",
          "name": "role",
          "type": "bytes32"
        },
        {
          "internalType": "address",
          "name": "account",
          "type": "address"
        }
      ],
      "name": "renounceRole",
      "outputs": [],
      "stateMutability": "nonpayable",
      "type": "function"
    },
    {
      "inputs": [
        {
          "internalType": "bytes32",
          "name": "role",
          "type": "bytes32"
        },
        {
          "internalType": "address",
          "name": "account",
          "type": "address"
        }
      ],
      "name": "revokeRole",
      "outputs": [],
      "stateMutability": "nonpayable",
      "type": "function"
    },
    {
      "inputs": [],
      "name": "schainHash",
      "outputs": [
        {
          "internalType": "bytes32",
          "name": "",
          "type": "bytes32"
        }
      ],
      "stateMutability": "view",
      "type": "function"
    },
    {
      "inputs": [],
      "name": "tokenManagerLinker",
      "outputs": [
        {
          "internalType": "contract TokenManagerLinker",
          "name": "",
          "type": "address"
        }
      ],
      "stateMutability": "view",
      "type": "function"
    },
    {
      "inputs": [
        {
          "internalType": "bytes32",
          "name": "",
          "type": "bytes32"
        }
      ],
      "name": "tokenManagers",
      "outputs": [
        {
          "internalType": "address",
          "name": "",
          "type": "address"
        }
      ],
      "stateMutability": "view",
      "type": "function"
    },
    {
      "inputs": [
        {
          "internalType": "string",
          "name": "targetSchainName",
          "type": "string"
        },
        {
          "internalType": "address",
          "name": "contractOnMainnet",
          "type": "address"
        },
        {
          "internalType": "address",
          "name": "to",
          "type": "address"
        },
        {
          "internalType": "uint256",
          "name": "id",
          "type": "uint256"
        },
        {
          "internalType": "uint256",
          "name": "amount",
          "type": "uint256"
        }
      ],
      "name": "transferToSchainERC1155",
      "outputs": [],
      "stateMutability": "nonpayable",
      "type": "function"
    },
    {
      "inputs": [
        {
          "internalType": "string",
          "name": "targetSchainName",
          "type": "string"
        },
        {
          "internalType": "address",
          "name": "contractOnMainnet",
          "type": "address"
        },
        {
          "internalType": "address",
          "name": "to",
          "type": "address"
        },
        {
          "internalType": "uint256[]",
          "name": "ids",
          "type": "uint256[]"
        },
        {
          "internalType": "uint256[]",
          "name": "amounts",
          "type": "uint256[]"
        }
      ],
      "name": "transferToSchainERC1155Batch",
      "outputs": [],
      "stateMutability": "nonpayable",
      "type": "function"
    }
  ],
  "bytecode": "0x608060405234801561001057600080fd5b506170e6806100206000396000f3fe60806040523480156200001157600080fd5b5060043610620002385760003560e01c80636d6112861162000135578063b9581c5011620000bd578063cc5b715b1162000087578063cc5b715b1462000490578063d547741f146200049a578063dec2deb614620004b1578063e7ece22814620004bb578063edcc12b514620004d25762000238565b8063b9581c501462000441578063c0e312dc146200044b578063ca15c8731462000462578063cb703bff14620004795762000238565b806391d1485411620000ff57806391d1485414620003f2578063a217fddf1462000409578063ade686761462000413578063b626a44f146200042a5762000238565b80636d61128614620003b05780636d6c68e614620003ba578063884cee5a14620003c45780639010d07c14620003db5762000238565b806336568abe11620001c557806350f44280116200018f57806350f4428014620003485780635492d3b514620003615780635573b8b614620003785780636685bde514620003825780636ce681d214620003995762000238565b806336568abe14620002f757806339927cf9146200030e5780633b690b6b14620003345780633fa194ce146200033e5762000238565b8063248a9ca31162000207578063248a9ca314620002a657806328c5e18214620002cc5780632dc151de14620002d65780632f2ff15d14620002e05762000238565b8063029996b8146200023d578063066ee47f14620002495780630b885ac314620002605780630f1a8f741462000277575b600080fd5b62000247620004e9565b005b620002476200025a36600462002b0a565b62000541565b620002476200027136600462002c48565b6200081c565b6200028e620002883660046200298e565b620008bc565b6040516200029d919062002ee3565b60405180910390f35b620002bd620002b73660046200298e565b620008d7565b6040516200029d919062003036565b620002bd620008ec565b6200028e62000937565b62000247620002f1366004620029a7565b62000946565b6200024762000308366004620029a7565b62000996565b620003256200031f36600462002a6d565b620009df565b6040516200029d91906200302b565b620002bd62000a3e565b620002bd62000a44565b6200035262000a57565b6040516200029d919062003099565b620002476200037236600462002bc9565b62000a7a565b6200028e62000cc9565b6200028e6200039336600462002836565b62000cd8565b62000247620003aa36600462002c48565b62000cf3565b6200028e62000e59565b6200028e62000e68565b62000325620003d5366004620029ce565b62000e77565b6200028e620003ec36600462002a2d565b62001008565b6200032562000403366004620029a7565b62001029565b620002bd62001043565b620002476200042436600462002855565b62001048565b620002476200043b3660046200292f565b620012cd565b62000247620013a2565b620002476200045c36600462002a6d565b620013eb565b620002bd620004733660046200298e565b620014b3565b620002476200048a36600462002ab0565b620014cc565b620002bd620015ce565b62000247620004ab366004620029a7565b620015f2565b6200032562001632565b62000247620004cc366004620028e5565b62001642565b62000247620004e336600462002836565b62001835565b62000504600080516020620070918339815191523362001029565b6200052c5760405162461bcd60e51b815260040162000523906200338c565b60405180910390fd5b6069805460ff60a01b1916600160a01b179055565b6001600160a01b0383166200056a5760405162461bcd60e51b815260040162000523906200350e565b600086866040516020016200058192919062002eb5565b60408051601f1981840301815282825280516020918201208383018352600784526613585a5b9b995d60ca1b848301529151919350620005c392910162002ec5565b60405160208183030381529060405280519060200120811415620005fb5760405162461bcd60e51b8152600401620005239062003271565b6000818152606a60205260409020546001600160a01b0316620006325760405162461bcd60e51b81526004016200052390620030e6565b6001600160a01b038086166000908152606b602052604090205416620006588162001883565b620006775760405162461bcd60e51b8152600401620005239062003662565b60405163e985e9c560e01b81526001600160a01b0382169063e985e9c590620006a7903390309060040162002ef7565b60206040518083038186803b158015620006c057600080fd5b505afa158015620006d5573d6000803e3d6000fd5b505050506040513d601f19601f82011682018060405250810190620006fb91906200296c565b6200071a5760405162461bcd60e51b81526004016200052390620033cd565b604051631ac8311560e21b81526001600160a01b03821690636b20c454906200074c9033908890889060040162002f11565b600060405180830381600087803b1580156200076757600080fd5b505af11580156200077c573d6000803e3d6000fd5b505050506060620007908787878762001889565b6065546000858152606a6020526040908190205490516365e3781f60e01b81529293506001600160a01b03918216926365e3781f92620007dd928e928e929091169087906004016200303f565b600060405180830381600087803b158015620007f857600080fd5b505af11580156200080d573d6000803e3d6000fd5b50505050505050505050505050565b600054610100900460ff16806200083857506200083862001907565b8062000847575060005460ff16155b620008665760405162461bcd60e51b8152600401620005239062003489565b600054610100900460ff1615801562000892576000805460ff1961ff0019909116610100171660011790555b620008a1868686868662000cf3565b8015620008b4576000805461ff00191690555b505050505050565b606a602052600090815260409020546001600160a01b031681565b60009081526033602052604090206002015490565b6040518060400160405280600781526020016613585a5b9b995d60ca1b8152506040516020016200091e919062002ec5565b6040516020818303038152906040528051906020012081565b6066546001600160a01b031681565b6000828152603360205260409020600201546200096790620004036200191a565b620009865760405162461bcd60e51b815260040162000523906200315f565b6200099282826200191e565b5050565b620009a06200191a565b6001600160a01b0316816001600160a01b031614620009d35760405162461bcd60e51b8152600401620005239062003699565b6200099282826200198c565b6000806001600160a01b0316606a6000858560405160200162000a0492919062002eb5565b60408051601f19818403018152918152815160209283012083529082019290925201600020546001600160a01b0316141590505b92915050565b60685481565b6000805160206200709183398151915281565b6040518060400160405280600781526020016613585a5b9b995d60ca1b81525081565b6001600160a01b03831662000aa35760405162461bcd60e51b815260040162000523906200350e565b6000868660405160200162000aba92919062002eb5565b60408051601f1981840301815282825280516020918201208383018352600784526613585a5b9b995d60ca1b84830152915191935062000afc92910162002ec5565b6040516020818303038152906040528051906020012081141562000b345760405162461bcd60e51b8152600401620005239062003271565b6000818152606a60205260409020546001600160a01b031662000b6b5760405162461bcd60e51b81526004016200052390620030e6565b6001600160a01b038086166000908152606b60205260409020541662000b918162001883565b62000bb05760405162461bcd60e51b8152600401620005239062003662565b60405163e985e9c560e01b81526001600160a01b0382169063e985e9c59062000be0903390309060040162002ef7565b60206040518083038186803b15801562000bf957600080fd5b505afa15801562000c0e573d6000803e3d6000fd5b505050506040513d601f19601f8201168201806040525081019062000c3491906200296c565b62000c535760405162461bcd60e51b81526004016200052390620033cd565b604051637a94c56560e11b81526001600160a01b0382169063f5298aca9062000c859033908890889060040162002f55565b600060405180830381600087803b15801562000ca057600080fd5b505af115801562000cb5573d6000803e3d6000fd5b5050505060606200079087878787620019fa565b6065546001600160a01b031681565b606b602052600090815260409020546001600160a01b031681565b600054610100900460ff168062000d0f575062000d0f62001907565b8062000d1e575060005460ff16155b62000d3d5760405162461bcd60e51b8152600401620005239062003489565b600054610100900460ff1615801562000d69576000805460ff1961ff0019909116610100171660011790555b62000d7362001a5e565b62000d8060003362000986565b62000d9b600080516020620070918339815191523362000986565b62000dc77ffda70c2cc66a36c14884ee85424961f51b1d92b4494751699b6d105b3bcbcba83362000986565b8560405160200162000dda919062002ec5565b60408051601f198184030181529190528051602090910120606855606580546001600160a01b038088166001600160a01b031992831617909255606680548784169083161790556067805486841690831617905560698054928516929091169190911790558015620008b4576000805461ff0019169055505050505050565b6069546001600160a01b031681565b6067546001600160a01b031681565b6065546000906001600160a01b0316331462000ea75760405162461bcd60e51b81526004016200052390620031ae565b606854851415801562000f3957506040518060400160405280600781526020016613585a5b9b995d60ca1b81525060405160200162000ee7919062002ec5565b60405160208183030381529060405280519060200120851462000f27576000858152606a60205260409020546001600160a01b0385811691161462000f39565b6069546001600160a01b038581169116145b62000f585760405162461bcd60e51b815260040162000523906200357c565b600062000f66848462001afe565b9050600981600c81111562000f7757fe5b148062000f905750600a81600c81111562000f8e57fe5b145b1562000fa85762000fa2848462001b49565b62000ffc565b600b81600c81111562000fb757fe5b148062000fd05750600c81600c81111562000fce57fe5b145b1562000fe25762000fa2848462001dec565b60405162461bcd60e51b81526004016200052390620036e8565b50600195945050505050565b60008281526033602052604081206200102290836200206a565b9392505050565b600082815260336020526040812062001022908362002078565b600081565b6001600160a01b038316620010715760405162461bcd60e51b815260040162000523906200350e565b6001600160a01b038085166000908152606b6020526040908190205460675491516311be333d60e11b815290831692919091169063237c667a90620010bb90879060040162002ee3565b600060405180830381600087803b158015620010d657600080fd5b505af1158015620010eb573d6000803e3d6000fd5b5050505062001103816001600160a01b031662001883565b620011225760405162461bcd60e51b8152600401620005239062003662565b60405163e985e9c560e01b81526001600160a01b0382169063e985e9c59062001152903390309060040162002ef7565b60206040518083038186803b1580156200116b57600080fd5b505afa15801562001180573d6000803e3d6000fd5b505050506040513d601f19601f82011682018060405250810190620011a691906200296c565b620011c55760405162461bcd60e51b81526004016200052390620033cd565b604051631ac8311560e21b81526001600160a01b03821690636b20c45490620011f79033908790879060040162002f11565b600060405180830381600087803b1580156200121257600080fd5b505af115801562001227573d6000803e3d6000fd5b5050505060606200123b8686868662001889565b606554604080518082018252600781526613585a5b9b995d60ca1b602082015260695491516365e3781f60e01b81529394506001600160a01b03928316936365e3781f93620012919316908690600401620030ae565b600060405180830381600087803b158015620012ac57600080fd5b505af1158015620012c1573d6000803e3d6000fd5b50505050505050505050565b620012f97ffda70c2cc66a36c14884ee85424961f51b1d92b4494751699b6d105b3bcbcba83362001029565b620013185760405162461bcd60e51b8152600401620005239062003454565b6200132c816001600160a01b031662001883565b6200134b5760405162461bcd60e51b8152600401620005239062003545565b6001600160a01b038281166000818152606b602052604080822080546001600160a01b0319169486169485179055517f096b3e2c36bc263e90f7577e70dc47b6536fc8d85d467d54f61f91c2ca091c519190a35050565b620013bd600080516020620070918339815191523362001029565b620013dc5760405162461bcd60e51b815260040162000523906200338c565b6069805460ff60a01b19169055565b6066546001600160a01b03163314806200140d57506200140d60003362001029565b6200142c5760405162461bcd60e51b8152600401620005239062003633565b600082826040516020016200144392919062002eb5565b60408051601f1981840301815291815281516020928301206000818152606a9093529120549091506001600160a01b0316620014935760405162461bcd60e51b81526004016200052390620032c1565b6000908152606a6020526040902080546001600160a01b03191690555050565b600081815260336020526040812062000a38906200208f565b6066546001600160a01b0316331480620014ee5750620014ee60003362001029565b6200150d5760405162461bcd60e51b8152600401620005239062003633565b600083836040516020016200152492919062002eb5565b60408051601f1981840301815291815281516020928301206000818152606a9093529120549091506001600160a01b031615620015755760405162461bcd60e51b81526004016200052390620035fc565b6001600160a01b0382166200159e5760405162461bcd60e51b81526004016200052390620030e6565b6000908152606a6020526040902080546001600160a01b0319166001600160a01b03929092169190911790555050565b7ffda70c2cc66a36c14884ee85424961f51b1d92b4494751699b6d105b3bcbcba881565b6000828152603360205260409020600201546200161390620004036200191a565b620009d35760405162461bcd60e51b8152600401620005239062003404565b606954600160a01b900460ff1681565b6001600160a01b0383166200166b5760405162461bcd60e51b815260040162000523906200350e565b6001600160a01b038085166000908152606b6020526040908190205460675491516311be333d60e11b815290831692919091169063237c667a90620016b590879060040162002ee3565b600060405180830381600087803b158015620016d057600080fd5b505af1158015620016e5573d6000803e3d6000fd5b50505050620016fd816001600160a01b031662001883565b6200171c5760405162461bcd60e51b8152600401620005239062003662565b60405163e985e9c560e01b81526001600160a01b0382169063e985e9c5906200174c903390309060040162002ef7565b60206040518083038186803b1580156200176557600080fd5b505afa1580156200177a573d6000803e3d6000fd5b505050506040513d601f19601f82011682018060405250810190620017a091906200296c565b620017bf5760405162461bcd60e51b81526004016200052390620033cd565b604051637a94c56560e11b81526001600160a01b0382169063f5298aca90620017f19033908790879060040162002f55565b600060405180830381600087803b1580156200180c57600080fd5b505af115801562001821573d6000803e3d6000fd5b5050505060606200123b86868686620019fa565b6200184260003362001029565b620018615760405162461bcd60e51b815260040162000523906200323a565b606980546001600160a01b0319166001600160a01b0392909216919091179055565b3b151590565b6060620018956200245e565b6040805160c081019091528060a0810180600b8152508152602001876001600160a01b03168152602001866001600160a01b0316815260200185815260200184815250905080604051602001620018ed919062003718565b604051602081830303815290604052915050949350505050565b6000620019143062001883565b15905090565b3390565b60008281526033602052604090206200193890826200209c565b156200099257620019486200191a565b6001600160a01b0316816001600160a01b0316837f2f8788117e7eff1d82e926ec794901d17c78024a50270940304540a733656f0d60405160405180910390a45050565b6000828152603360205260409020620019a69082620020b3565b156200099257620019b66200191a565b6001600160a01b0316816001600160a01b0316837ff6391f5c32d9c69d2a47ea670b442974b53935d1edc7fd64eb21e047a839171b60405160405180910390a45050565b606062001a0662002494565b6040805160c081019091528060a081018060098152508152602001876001600160a01b03168152602001866001600160a01b0316815260200185815260200184815250905080604051602001620018ed91906200378c565b600054610100900460ff168062001a7a575062001a7a62001907565b8062001a89575060005460ff16155b62001aa85760405162461bcd60e51b8152600401620005239062003489565b600054610100900460ff1615801562001ad4576000805460ff1961ff0019909116610100171660011790555b62001ade620020ca565b62001ae8620020ca565b801562001afb576000805461ff00191690555b50565b60008062001b0f838501856200298e565b90506020810662001b3b5762001b3262001b2c8483818862003804565b62001afe565b91505062000a38565b62001b328385018562002a4f565b600062001b57838362001afe565b90506000808080600985600c81111562001b6d57fe5b141562001baf5762001b7e62002494565b62001b8a888862002154565b9050806040015194508060200151935080606001519250806080015191505062001cd4565b62001bb9620024cb565b62001bc58888620021a6565b805160408082015160208084015160608501516080909501516001600160a01b038083166000908152606b9094529490922054929a509850929650919450919250168062001cd157606954600160a01b900460ff1662001c395760405162461bcd60e51b81526004016200052390620034d7565b60208201515160405162001c4d90620024f4565b62001c59919062003099565b604051809103906000f08015801562001c76573d6000803e3d6000fd5b506001600160a01b038681166000818152606b602052604080822080546001600160a01b031916948616948517905551939450919290917ff591ef422bd6af456a3cad967032f043099a7d9838494d88ba15d16a89f50b7491a35b50505b6001600160a01b038084166000908152606b60205260409020541662001cfa8162001883565b62001d195760405162461bcd60e51b8152600401620005239062003545565b60405163731133e960e01b81526001600160a01b0382169063731133e99062001d4b9088908790879060040162002fc9565b600060405180830381600087803b15801562001d6657600080fd5b505af115801562001d7b573d6000803e3d6000fd5b50505050806001600160a01b0316846001600160a01b03167f84899afd4ab55115c2eab5a59471e73bc42359e7c3d4e5a3c1aa4837bd20ed5562001dbf86620021f8565b62001dca86620021f8565b60405162001dda92919062002ff9565b60405180910390a35050505050505050565b600062001dfa838362001afe565b9050600080606080600b85600c81111562001e1157fe5b141562001e535762001e226200245e565b62001e2e88886200223a565b9050806040015194508060200151935080606001519250806080015191505062001f78565b62001e5d62002502565b62001e6988886200228c565b805160408082015160208084015160608501516080909501516001600160a01b038083166000908152606b9094529490922054929a509850929650919450919250168062001f7557606954600160a01b900460ff1662001edd5760405162461bcd60e51b81526004016200052390620034d7565b60208201515160405162001ef190620024f4565b62001efd919062003099565b604051809103906000f08015801562001f1a573d6000803e3d6000fd5b506001600160a01b038681166000818152606b602052604080822080546001600160a01b031916948616948517905551939450919290917ff591ef422bd6af456a3cad967032f043099a7d9838494d88ba15d16a89f50b7491a35b50505b6001600160a01b038084166000908152606b60205260409020541662001f9e8162001883565b62001fbd5760405162461bcd60e51b8152600401620005239062003545565b604051630fbfeffd60e11b81526001600160a01b03821690631f7fdffa9062001fef9088908790879060040162002f76565b600060405180830381600087803b1580156200200a57600080fd5b505af11580156200201f573d6000803e3d6000fd5b50505050806001600160a01b0316846001600160a01b03167f84899afd4ab55115c2eab5a59471e73bc42359e7c3d4e5a3c1aa4837bd20ed55858560405162001dda92919062002ff9565b6000620010228383620022de565b600062001022836001600160a01b03841662002327565b600062000a38826200233f565b600062001022836001600160a01b03841662002343565b600062001022836001600160a01b03841662002392565b600054610100900460ff1680620020e65750620020e662001907565b80620020f5575060005460ff16155b620021145760405162461bcd60e51b8152600401620005239062003489565b600054610100900460ff1615801562001ae8576000805460ff1961ff001990911661010017166001179055801562001afb576000805461ff001916905550565b6200215e62002494565b60096200216c848462001afe565b600c8111156200217857fe5b14620021985760405162461bcd60e51b81526004016200052390620032f8565b620010228284018462002e1a565b620021b0620024cb565b600a620021be848462001afe565b600c811115620021ca57fe5b14620021ea5760405162461bcd60e51b815260040162000523906200333c565b620010228284018462002cdb565b6040805160018082528183019092526060916020808301908036833701905050905081816000815181106200222957fe5b602002602001018181525050919050565b620022446200245e565b600b62002252848462001afe565b600c8111156200225e57fe5b146200227e5760405162461bcd60e51b81526004016200052390620035b3565b620010228284018462002ddc565b6200229662002502565b600c620022a4848462001afe565b600c811115620022b057fe5b14620022d05760405162461bcd60e51b81526004016200052390620031e5565b620010228284018462002d61565b81546000908210620023045760405162461bcd60e51b815260040162000523906200311d565b8260000182815481106200231457fe5b9060005260206000200154905092915050565b60009081526001919091016020526040902054151590565b5490565b600062002351838362002327565b620023895750815460018181018455600084815260208082209093018490558454848252828601909352604090209190915562000a38565b50600062000a38565b60008181526001830160205260408120548015620024535783546000198083019190810190600090879083908110620023c757fe5b9060005260206000200154905080876000018481548110620023e557fe5b6000918252602080832090910192909255828152600189810190925260409020908401905586548790806200241657fe5b6001900381819060005260206000200160009055905586600101600087815260200190815260200160002060009055600194505050505062000a38565b600091505062000a38565b6040518060a001604052806200247362002517565b81526000602082018190526040820152606080820181905260809091015290565b6040518060a00160405280620024a962002517565b8152600060208201819052604082018190526060820181905260809091015290565b6040518060400160405280620024e062002494565b8152602001620024ef6200252b565b905290565b613819806200387883390190565b6040518060400160405280620024e06200245e565b6040805160208101909152806000620024ef565b6040518060200160405280606081525090565b600082601f8301126200254f578081fd5b81356001600160401b0381111562002565578182fd5b602080820262002577828201620037dd565b838152935081840185830182870184018810156200259457600080fd5b600092505b84831015620025b957803582526001929092019190830190830162002599565b505050505092915050565b60008083601f840112620025d6578182fd5b5081356001600160401b03811115620025ed578182fd5b6020830191508360208285010111156200260657600080fd5b9250929050565b8035600d811062000a3857600080fd5b600082601f8301126200262e578081fd5b81356001600160401b0381111562002644578182fd5b62002659601f8201601f1916602001620037dd565b91508082528360208285010111156200267157600080fd5b8060208401602084013760009082016020015292915050565b6000602082840312156200269c578081fd5b620026a86020620037dd565b9050620026b683836200260d565b815292915050565b600060208284031215620026d0578081fd5b620026dc6020620037dd565b905081356001600160401b03811115620026f557600080fd5b62002703848285016200261d565b82525092915050565b600060a082840312156200271e578081fd5b6200272a60a0620037dd565b90506200273883836200268a565b815260208201356200274a8162003861565b602082015260408201356200275f8162003861565b604082015260608201356001600160401b03808211156200277f57600080fd5b6200278d858386016200253e565b60608401526080840135915080821115620027a757600080fd5b50620027b6848285016200253e565b60808301525092915050565b600060a08284031215620027d4578081fd5b620027e060a0620037dd565b9050620027ee83836200268a565b81526020820135620028008162003861565b60208201526040820135620028158162003861565b80604083015250606082013560608201526080820135608082015292915050565b60006020828403121562002848578081fd5b8135620010228162003861565b600080600080608085870312156200286b578283fd5b8435620028788162003861565b935060208501356200288a8162003861565b925060408501356001600160401b0380821115620028a6578384fd5b620028b4888389016200253e565b93506060870135915080821115620028ca578283fd5b50620028d9878288016200253e565b91505092959194509250565b60008060008060808587031215620028fb578384fd5b8435620029088162003861565b935060208501356200291a8162003861565b93969395505050506040820135916060013590565b6000806040838503121562002942578182fd5b82356200294f8162003861565b91506020830135620029618162003861565b809150509250929050565b6000602082840312156200297e578081fd5b8151801515811462001022578182fd5b600060208284031215620029a0578081fd5b5035919050565b60008060408385031215620029ba578182fd5b823591506020830135620029618162003861565b60008060008060608587031215620029e4578182fd5b843593506020850135620029f88162003861565b925060408501356001600160401b0381111562002a13578283fd5b62002a2187828801620025c4565b95989497509550505050565b6000806040838503121562002a40578182fd5b50508035926020909101359150565b60006020828403121562002a61578081fd5b6200102283836200260d565b6000806020838503121562002a80578182fd5b82356001600160401b0381111562002a96578283fd5b62002aa485828601620025c4565b90969095509350505050565b60008060006040848603121562002ac5578081fd5b83356001600160401b0381111562002adb578182fd5b62002ae986828701620025c4565b909450925050602084013562002aff8162003861565b809150509250925092565b60008060008060008060a0878903121562002b23578384fd5b86356001600160401b038082111562002b3a578586fd5b62002b488a838b01620025c4565b90985096506020890135915062002b5f8262003861565b90945060408801359062002b738262003861565b9093506060880135908082111562002b89578384fd5b62002b978a838b016200253e565b9350608089013591508082111562002bad578283fd5b5062002bbc89828a016200253e565b9150509295509295509295565b60008060008060008060a0878903121562002be2578384fd5b86356001600160401b0381111562002bf8578485fd5b62002c0689828a01620025c4565b909750955050602087013562002c1c8162003861565b9350604087013562002c2e8162003861565b959894975092956060810135946080909101359350915050565b600080600080600060a0868803121562002c60578283fd5b85356001600160401b0381111562002c76578384fd5b62002c84888289016200261d565b955050602086013562002c978162003861565b9350604086013562002ca98162003861565b9250606086013562002cbb8162003861565b9150608086013562002ccd8162003861565b809150509295509295909350565b60006020828403121562002ced578081fd5b81356001600160401b038082111562002d04578283fd5b9083019060c0828603121562002d18578283fd5b62002d246040620037dd565b62002d308684620027c2565b815260a08301358281111562002d44578485fd5b62002d5287828601620026be565b60208301525095945050505050565b60006020828403121562002d73578081fd5b81356001600160401b038082111562002d8a578283fd5b908301906040828603121562002d9e578283fd5b62002daa6040620037dd565b82358281111562002db9578485fd5b62002dc7878286016200270c565b82525060208301358281111562002d44578485fd5b60006020828403121562002dee578081fd5b81356001600160401b0381111562002e04578182fd5b62002e12848285016200270c565b949350505050565b600060a0828403121562002e2c578081fd5b620010228383620027c2565b6000815180845260208085019450808401835b8381101562002e695781518752958201959082019060010162002e4b565b509495945050505050565b6000815180845262002e8e8160208601602086016200382e565b601f01601f19169290920160200192915050565b8051600d811062002eaf57fe5b90915250565b6000828483379101908152919050565b6000825162002ed98184602087016200382e565b9190910192915050565b6001600160a01b0391909116815260200190565b6001600160a01b0392831681529116602082015260400190565b6001600160a01b038416815260606020820181905260009062002f379083018562002e38565b828103604084015262002f4b818562002e38565b9695505050505050565b6001600160a01b039390931683526020830191909152604082015260600190565b6001600160a01b038416815260806020820181905260009062002f9c9083018562002e38565b828103604084015262002fb0818562002e38565b8381036060909401939093525081526020019392505050565b6001600160a01b039390931683526020830191909152604082015260806060820181905260009082015260a00190565b6000604082526200300e604083018562002e38565b828103602084015262003022818562002e38565b95945050505050565b901515815260200190565b90815260200190565b60006060825284606083015284866080840137608085830181018290526001600160a01b0385166020840152601f8601601f1916830183810382016040850152906200308e9082018562002e74565b979650505050505050565b60006020825262001022602083018462002e74565b600060608252620030c3606083018662002e74565b6001600160a01b0385166020840152828103604084015262002f4b818562002e74565b6020808252601f908201527f496e636f727265637420546f6b656e204d616e61676572206164647265737300604082015260600190565b60208082526022908201527f456e756d657261626c655365743a20696e646578206f7574206f6620626f756e604082015261647360f01b606082015260800190565b6020808252602f908201527f416363657373436f6e74726f6c3a2073656e646572206d75737420626520616e60408201526e0818591b5a5b881d1bc819dc985b9d608a1b606082015260800190565b6020808252601c908201527f53656e646572206973206e6f742061204d65737361676550726f787900000000604082015260600190565b60208082526035908201527f4d6573736167652074797065206973206e6f742045524331313535426174636860408201527420b7322a37b5b2b724b73337903a3930b739b332b960591b606082015260800190565b6020808252601e908201527f44454641554c545f41444d494e5f524f4c452069732072657175697265640000604082015260600190565b60208082526030908201527f546869732066756e6374696f6e206973206e6f7420666f72207472616e73666560408201526f1c9c9a5b99c81d1bc813585a5b9b995d60821b606082015260800190565b60208082526018908201527f546f6b656e204d616e61676572206973206e6f74207365740000000000000000604082015260600190565b60208082526024908201527f4d6573736167652074797065206973206e6f742045524331313535207472616e60408201526339b332b960e11b606082015260800190565b60208082526030908201527f4d6573736167652074797065206973206e6f742045524331313535416e64546f60408201526f35b2b724b73337903a3930b739b332b960811b606082015260800190565b60208082526021908201527f4155544f4d415449435f4445504c4f595f524f4c4520697320726571756972656040820152601960fa1b606082015260800190565b60208082526019908201527f4e6f7420616c6c6f776564204552433131353520546f6b656e00000000000000604082015260600190565b60208082526030908201527f416363657373436f6e74726f6c3a2073656e646572206d75737420626520616e60408201526f2061646d696e20746f207265766f6b6560801b606082015260800190565b6020808252818101527f544f4b454e5f5245474953545241525f524f4c45206973207265717569726564604082015260600190565b6020808252602e908201527f496e697469616c697a61626c653a20636f6e747261637420697320616c72656160408201526d191e481a5b9a5d1a585b1a5e995960921b606082015260800190565b6020808252601c908201527f4175746f6d61746963206465706c6f792069732064697361626c656400000000604082015260600190565b6020808252601a908201527f496e636f72726563742072656365697665722061646472657373000000000000604082015260600190565b6020808252601f908201527f476976656e2061646472657373206973206e6f74206120636f6e747261637400604082015260600190565b6020808252601b908201527f526563656976657220636861696e20697320696e636f72726563740000000000604082015260600190565b60208082526029908201527f4d6573736167652074797065206973206e6f7420455243313135354261746368604082015268103a3930b739b332b960b91b606082015260800190565b6020808252601c908201527f546f6b656e204d616e6167657220697320616c72656164792073657400000000604082015260600190565b6020808252601590820152742737ba1030baba3437b934bd32b21031b0b63632b960591b604082015260600190565b60208082526018908201527f4e6f20746f6b656e20636c6f6e65206f6e2073636861696e0000000000000000604082015260600190565b6020808252602f908201527f416363657373436f6e74726f6c3a2063616e206f6e6c792072656e6f756e636560408201526e103937b632b9903337b91039b2b63360891b606082015260800190565b60208082526016908201527526b2b9b9b0b3b2aa3cb8329034b9903ab735b737bbb760511b604082015260600190565b6000602082526200372e60208301845162002ea2565b60208301516001600160a01b039081166040848101919091528401511660608084019190915283015160a060808401526200376d60c084018262002e38565b90506080840151601f198483030160a085015262003022828262002e38565b600060a082019050620037a182845162002ea2565b602083015160018060a01b0380821660208501528060408601511660408501525050606083015160608301526080830151608083015292915050565b6040518181016001600160401b0381118282101715620037fc57600080fd5b604052919050565b6000808585111562003814578182fd5b8386111562003821578182fd5b5050820193919092039150565b60005b838110156200384b57818101518382015260200162003831565b838111156200385b576000848401525b50505050565b6001600160a01b038116811462001afb57600080fdfe60806040523480156200001157600080fd5b506040516200381938038062003819833981810160405260208110156200003757600080fd5b81019080805160405193929190846401000000008211156200005857600080fd5b9083019060208201858111156200006e57600080fd5b82516401000000008111828201881017156200008957600080fd5b82525081516020918201929091019080838360005b83811015620000b85781810151838201526020016200009e565b50505050905090810190601f168015620000e65780820380516001836020036101000a031916815260200191505b50604052505050620001026200017360201b620017601760201c565b62000118816200023160201b620018121760201c565b6200012d620002fb60201b620018cd1760201c565b62000148600080516020620037f983398151915280620003a3565b6200016c600080516020620037f983398151915262000166620003f5565b620003f9565b5062000872565b600054610100900460ff16806200018f57506200018f62000405565b806200019e575060005460ff16155b620001db5760405162461bcd60e51b815260040180806020018281038252602e815260200180620037cb602e913960400191505060405180910390fd5b600054610100900460ff1615801562000207576000805460ff1961ff0019909116610100171660011790555b6200021162000423565b6200021b62000423565b80156200022e576000805461ff00191690555b50565b600054610100900460ff16806200024d57506200024d62000405565b806200025c575060005460ff16155b620002995760405162461bcd60e51b815260040180806020018281038252602e815260200180620037cb602e913960400191505060405180910390fd5b600054610100900460ff16158015620002c5576000805460ff1961ff0019909116610100171660011790555b620002cf62000423565b620002d9620004cb565b620002e48262000571565b8015620002f7576000805461ff00191690555b5050565b600054610100900460ff16806200031757506200031762000405565b8062000326575060005460ff16155b620003635760405162461bcd60e51b815260040180806020018281038252602e815260200180620037cb602e913960400191505060405180910390fd5b600054610100900460ff161580156200038f576000805460ff1961ff0019909116610100171660011790555b6200039962000423565b62000211620004cb565b600082815260336020526040808220600201549051839285917fbd79b86ffe0ab8e8776151514217cd7cacd52c909f66475c3af44e129f0b00ff9190a460009182526033602052604090912060020155565b3390565b620002f7828262000634565b60006200041d30620006af60201b6200196a1760201c565b15905090565b600054610100900460ff16806200043f57506200043f62000405565b806200044e575060005460ff16155b6200048b5760405162461bcd60e51b815260040180806020018281038252602e815260200180620037cb602e913960400191505060405180910390fd5b600054610100900460ff161580156200021b576000805460ff1961ff00199091166101001716600117905580156200022e576000805461ff001916905550565b600054610100900460ff1680620004e75750620004e762000405565b80620004f6575060005460ff16155b620005335760405162461bcd60e51b815260040180806020018281038252602e815260200180620037cb602e913960400191505060405180910390fd5b600054610100900460ff161580156200055f576000805460ff1961ff0019909116610100171660011790555b6200021b6301ffc9a760e01b620006b5565b600054610100900460ff16806200058d57506200058d62000405565b806200059c575060005460ff16155b620005d95760405162461bcd60e51b815260040180806020018281038252602e815260200180620037cb602e913960400191505060405180910390fd5b600054610100900460ff1615801562000605576000805460ff1961ff0019909116610100171660011790555b62000610826200073a565b62000622636cdb3d1360e11b620006b5565b620002e46303a24d0760e21b620006b5565b60008281526033602090815260409091206200065b918390620019706200074f821b17901c565b15620002f7576200066b620003f5565b6001600160a01b0316816001600160a01b0316837f2f8788117e7eff1d82e926ec794901d17c78024a50270940304540a733656f0d60405160405180910390a45050565b3b151590565b6001600160e01b0319808216141562000715576040805162461bcd60e51b815260206004820152601c60248201527f4552433136353a20696e76616c696420696e7465726661636520696400000000604482015290519081900360640190fd5b6001600160e01b0319166000908152606560205260409020805460ff19166001179055565b8051620002f7906099906020840190620007d6565b600062000766836001600160a01b0384166200076f565b90505b92915050565b60006200077d8383620007be565b620007b55750815460018181018455600084815260208082209093018490558454848252828601909352604090209190915562000769565b50600062000769565b60009081526001919091016020526040902054151590565b828054600181600116156101000203166002900490600052602060002090601f016020900481019282601f106200081957805160ff191683800117855562000849565b8280016001018555821562000849579182015b82811115620008495782518255916020019190600101906200082c565b50620008579291506200085b565b5090565b5b808211156200085757600081556001016200085c565b612f4980620008826000396000f3fe608060405234801561001057600080fd5b50600436106101365760003560e01c8063731133e9116100b8578063ca15c8731161007c578063ca15c87314610a3d578063d539139314610a5a578063d547741f14610a62578063e985e9c514610a8e578063f242432a14610abc578063f5298aca14610b8557610136565b8063731133e9146108dc5780639010d07c1461099c57806391d14854146109db578063a217fddf14610a07578063a22cb46514610a0f57610136565b80632eb2c2d6116100ff5780632eb2c2d61461041d5780632f2ff15d146105de57806336568abe1461060a5780634e1273f4146106365780636b20c454146107a957610136565b8062fdd58e1461013b57806301ffc9a7146101795780630e89341c146101b45780631f7fdffa14610246578063248a9ca314610400575b600080fd5b6101676004803603604081101561015157600080fd5b506001600160a01b038135169060200135610bb7565b60408051918252519081900360200190f35b6101a06004803603602081101561018f57600080fd5b50356001600160e01b031916610c29565b604080519115158252519081900360200190f35b6101d1600480360360208110156101ca57600080fd5b5035610c48565b6040805160208082528351818301528351919283929083019185019080838360005b8381101561020b5781810151838201526020016101f3565b50505050905090810190601f1680156102385780820380516001836020036101000a031916815260200191505b509250505060405180910390f35b6103fe6004803603608081101561025c57600080fd5b6001600160a01b038235169190810190604081016020820135600160201b81111561028657600080fd5b82018360208201111561029857600080fd5b803590602001918460208302840111600160201b831117156102b957600080fd5b9190808060200260200160405190810160405280939291908181526020018383602002808284376000920191909152509295949360208101935035915050600160201b81111561030857600080fd5b82018360208201111561031a57600080fd5b803590602001918460208302840111600160201b8311171561033b57600080fd5b9190808060200260200160405190810160405280939291908181526020018383602002808284376000920191909152509295949360208101935035915050600160201b81111561038a57600080fd5b82018360208201111561039c57600080fd5b803590602001918460018302840111600160201b831117156103bd57600080fd5b91908080601f016020809104026020016040519081016040528093929190818152602001838380828437600092019190915250929550610ce0945050505050565b005b6101676004803603602081101561041657600080fd5b5035610d6d565b6103fe600480360360a081101561043357600080fd5b6001600160a01b038235811692602081013590911691810190606081016040820135600160201b81111561046657600080fd5b82018360208201111561047857600080fd5b803590602001918460208302840111600160201b8311171561049957600080fd5b9190808060200260200160405190810160405280939291908181526020018383602002808284376000920191909152509295949360208101935035915050600160201b8111156104e857600080fd5b8201836020820111156104fa57600080fd5b803590602001918460208302840111600160201b8311171561051b57600080fd5b9190808060200260200160405190810160405280939291908181526020018383602002808284376000920191909152509295949360208101935035915050600160201b81111561056a57600080fd5b82018360208201111561057c57600080fd5b803590602001918460018302840111600160201b8311171561059d57600080fd5b91908080601f016020809104026020016040519081016040528093929190818152602001838380828437600092019190915250929550610d82945050505050565b6103fe600480360360408110156105f457600080fd5b50803590602001356001600160a01b0316611085565b6103fe6004803603604081101561062057600080fd5b50803590602001356001600160a01b03166110ec565b6107596004803603604081101561064c57600080fd5b810190602081018135600160201b81111561066657600080fd5b82018360208201111561067857600080fd5b803590602001918460208302840111600160201b8311171561069957600080fd5b9190808060200260200160405190810160405280939291908181526020018383602002808284376000920191909152509295949360208101935035915050600160201b8111156106e857600080fd5b8201836020820111156106fa57600080fd5b803590602001918460208302840111600160201b8311171561071b57600080fd5b91908080602002602001604051908101604052809392919081815260200183836020028082843760009201919091525092955061114d945050505050565b60408051602080825283518183015283519192839290830191858101910280838360005b8381101561079557818101518382015260200161077d565b505050509050019250505060405180910390f35b6103fe600480360360608110156107bf57600080fd5b6001600160a01b038235169190810190604081016020820135600160201b8111156107e957600080fd5b8201836020820111156107fb57600080fd5b803590602001918460208302840111600160201b8311171561081c57600080fd5b9190808060200260200160405190810160405280939291908181526020018383602002808284376000920191909152509295949360208101935035915050600160201b81111561086b57600080fd5b82018360208201111561087d57600080fd5b803590602001918460208302840111600160201b8311171561089e57600080fd5b919080806020026020016040519081016040528093929190818152602001838360200280828437600092019190915250929550611239945050505050565b6103fe600480360360808110156108f257600080fd5b6001600160a01b038235169160208101359160408201359190810190608081016060820135600160201b81111561092857600080fd5b82018360208201111561093a57600080fd5b803590602001918460018302840111600160201b8311171561095b57600080fd5b91908080601f0160208091040260200160405190810160405280939291908181526020018383808284376000920191909152509295506112b2945050505050565b6109bf600480360360408110156109b257600080fd5b5080359060200135611334565b604080516001600160a01b039092168252519081900360200190f35b6101a0600480360360408110156109f157600080fd5b50803590602001356001600160a01b0316611353565b61016761136b565b6103fe60048036036040811015610a2557600080fd5b506001600160a01b0381351690602001351515611370565b61016760048036036020811015610a5357600080fd5b503561145f565b610167611476565b6103fe60048036036040811015610a7857600080fd5b50803590602001356001600160a01b031661149a565b6101a060048036036040811015610aa457600080fd5b506001600160a01b03813581169160200135166114f3565b6103fe600480360360a0811015610ad257600080fd5b6001600160a01b03823581169260208101359091169160408201359160608101359181019060a081016080820135600160201b811115610b1157600080fd5b820183602082011115610b2357600080fd5b803590602001918460018302840111600160201b83111715610b4457600080fd5b91908080601f016020809104026020016040519081016040528093929190818152602001838380828437600092019190915250929550611521945050505050565b6103fe60048036036060811015610b9b57600080fd5b506001600160a01b0381351690602081013590604001356116ec565b60006001600160a01b038316610bfe5760405162461bcd60e51b815260040180806020018281038252602b815260200180612cd0602b913960400191505060405180910390fd5b5060008181526097602090815260408083206001600160a01b03861684529091529020545b92915050565b6001600160e01b03191660009081526065602052604090205460ff1690565b60998054604080516020601f6002600019610100600188161502019095169490940493840181900481028201810190925282815260609390929091830182828015610cd45780601f10610ca957610100808354040283529160200191610cd4565b820191906000526020600020905b815481529060010190602001808311610cb757829003601f168201915b50505050509050919050565b610d117f9f2df0fed2c77648de5860a4cc508cd0818c85b8b8a1ab4ceeef8d981c8956a6610d0c611985565b611353565b610d5b576040805162461bcd60e51b815260206004820152601660248201527529b2b73232b91034b9903737ba10309026b4b73a32b960511b604482015290519081900360640190fd5b610d678484848461198a565b50505050565b60009081526033602052604090206002015490565b8151835114610dc25760405162461bcd60e51b8152600401808060200182810382526028815260200180612e9c6028913960400191505060405180910390fd5b6001600160a01b038416610e075760405162461bcd60e51b8152600401808060200182810382526025815260200180612d786025913960400191505060405180910390fd5b610e0f611985565b6001600160a01b0316856001600160a01b03161480610e3a5750610e3a85610e35611985565b6114f3565b610e755760405162461bcd60e51b8152600401808060200182810382526032815260200180612d9d6032913960400191505060405180910390fd5b6000610e7f611985565b9050610e8f81878787878761107d565b60005b8451811015610f95576000858281518110610ea957fe5b602002602001015190506000858381518110610ec157fe5b60200260200101519050610f2e816040518060600160405280602a8152602001612e20602a91396097600086815260200190815260200160002060008d6001600160a01b03166001600160a01b0316815260200190815260200160002054611bdf9092919063ffffffff16565b60008381526097602090815260408083206001600160a01b038e811685529252808320939093558a1681522054610f659082611c76565b60009283526097602090815260408085206001600160a01b038c1686529091529092209190915550600101610e92565b50846001600160a01b0316866001600160a01b0316826001600160a01b03167f4a39dc06d4c0dbc64b70af90fd698a233a518aa5d07e595d983b8c0526c8f7fb8787604051808060200180602001838103835285818151815260200191508051906020019060200280838360005b8381101561101b578181015183820152602001611003565b50505050905001838103825284818151815260200191508051906020019060200280838360005b8381101561105a578181015183820152602001611042565b5050505090500194505050505060405180910390a461107d818787878787611cd0565b505050505050565b6000828152603360205260409020600201546110a390610d0c611985565b6110de5760405162461bcd60e51b815260040180806020018281038252602f815260200180612ca1602f913960400191505060405180910390fd5b6110e88282611f4f565b5050565b6110f4611985565b6001600160a01b0316816001600160a01b0316146111435760405162461bcd60e51b815260040180806020018281038252602f815260200180612ee5602f913960400191505060405180910390fd5b6110e88282611fb8565b6060815183511461118f5760405162461bcd60e51b8152600401808060200182810382526029815260200180612e736029913960400191505060405180910390fd5b6060835167ffffffffffffffff811180156111a957600080fd5b506040519080825280602002602001820160405280156111d3578160200160208202803683370190505b50905060005b8451811015611231576112128582815181106111f157fe5b602002602001015185838151811061120557fe5b6020026020010151610bb7565b82828151811061121e57fe5b60209081029190910101526001016111d9565b509392505050565b611241611985565b6001600160a01b0316836001600160a01b03161480611267575061126783610e35611985565b6112a25760405162461bcd60e51b8152600401808060200182810382526029815260200180612d1f6029913960400191505060405180910390fd5b6112ad838383612021565b505050565b6112de7f9f2df0fed2c77648de5860a4cc508cd0818c85b8b8a1ab4ceeef8d981c8956a6610d0c611985565b611328576040805162461bcd60e51b815260206004820152601660248201527529b2b73232b91034b9903737ba10309026b4b73a32b960511b604482015290519081900360640190fd5b610d678484848461228f565b600082815260336020526040812061134c9083612390565b9392505050565b600082815260336020526040812061134c908361239c565b600081565b816001600160a01b0316611382611985565b6001600160a01b031614156113c85760405162461bcd60e51b8152600401808060200182810382526029815260200180612e4a6029913960400191505060405180910390fd5b80609860006113d5611985565b6001600160a01b03908116825260208083019390935260409182016000908120918716808252919093529120805460ff191692151592909217909155611419611985565b6001600160a01b03167f17307eab39ab6107e8899845ad3d59bd9653f200f220920489ca2b5937696c318360405180821515815260200191505060405180910390a35050565b6000818152603360205260408120610c23906123b1565b7f9f2df0fed2c77648de5860a4cc508cd0818c85b8b8a1ab4ceeef8d981c8956a681565b6000828152603360205260409020600201546114b890610d0c611985565b6111435760405162461bcd60e51b8152600401808060200182810382526030815260200180612d486030913960400191505060405180910390fd5b6001600160a01b03918216600090815260986020908152604080832093909416825291909152205460ff1690565b6001600160a01b0384166115665760405162461bcd60e51b8152600401808060200182810382526025815260200180612d786025913960400191505060405180910390fd5b61156e611985565b6001600160a01b0316856001600160a01b03161480611594575061159485610e35611985565b6115cf5760405162461bcd60e51b8152600401808060200182810382526029815260200180612d1f6029913960400191505060405180910390fd5b60006115d9611985565b90506115f98187876115ea886123bc565b6115f3886123bc565b8761107d565b611640836040518060600160405280602a8152602001612e20602a913960008781526097602090815260408083206001600160a01b038d1684529091529020549190611bdf565b60008581526097602090815260408083206001600160a01b038b811685529252808320939093558716815220546116779084611c76565b60008581526097602090815260408083206001600160a01b03808b168086529184529382902094909455805188815291820187905280518a8416938616927fc3d58168c5ae7397731d063d5bbf3d657854427343f4c083240f7aacaa2d0f6292908290030190a461107d818787878787612400565b6116f4611985565b6001600160a01b0316836001600160a01b0316148061171a575061171a83610e35611985565b6117555760405162461bcd60e51b8152600401808060200182810382526029815260200180612d1f6029913960400191505060405180910390fd5b6112ad838383612571565b600054610100900460ff168061177957506117796126a4565b80611787575060005460ff16155b6117c25760405162461bcd60e51b815260040180806020018281038252602e815260200180612dcf602e913960400191505060405180910390fd5b600054610100900460ff161580156117ed576000805460ff1961ff0019909116610100171660011790555b6117f56126b5565b6117fd6126b5565b801561180f576000805461ff00191690555b50565b600054610100900460ff168061182b575061182b6126a4565b80611839575060005460ff16155b6118745760405162461bcd60e51b815260040180806020018281038252602e815260200180612dcf602e913960400191505060405180910390fd5b600054610100900460ff1615801561189f576000805460ff1961ff0019909116610100171660011790555b6118a76126b5565b6118af612755565b6118b8826127f2565b80156110e8576000805461ff00191690555050565b600054610100900460ff16806118e657506118e66126a4565b806118f4575060005460ff16155b61192f5760405162461bcd60e51b815260040180806020018281038252602e815260200180612dcf602e913960400191505060405180910390fd5b600054610100900460ff1615801561195a576000805460ff1961ff0019909116610100171660011790555b6119626126b5565b6117f5612755565b3b151590565b600061134c836001600160a01b0384166128a8565b335b90565b6001600160a01b0384166119cf5760405162461bcd60e51b8152600401808060200182810382526021815260200180612ec46021913960400191505060405180910390fd5b8151835114611a0f5760405162461bcd60e51b8152600401808060200182810382526028815260200180612e9c6028913960400191505060405180910390fd5b6000611a19611985565b9050611a2a8160008787878761107d565b60005b8451811015611aee57611aa560976000878481518110611a4957fe5b602002602001015181526020019081526020016000206000886001600160a01b03166001600160a01b0316815260200190815260200160002054858381518110611a8f57fe5b6020026020010151611c7690919063ffffffff16565b60976000878481518110611ab557fe5b602090810291909101810151825281810192909252604090810160009081206001600160a01b038b168252909252902055600101611a2d565b50846001600160a01b031660006001600160a01b0316826001600160a01b03167f4a39dc06d4c0dbc64b70af90fd698a233a518aa5d07e595d983b8c0526c8f7fb8787604051808060200180602001838103835285818151815260200191508051906020019060200280838360005b83811015611b75578181015183820152602001611b5d565b50505050905001838103825284818151815260200191508051906020019060200280838360005b83811015611bb4578181015183820152602001611b9c565b5050505090500194505050505060405180910390a4611bd881600087878787611cd0565b5050505050565b60008184841115611c6e5760405162461bcd60e51b81526004018080602001828103825283818151815260200191508051906020019080838360005b83811015611c33578181015183820152602001611c1b565b50505050905090810190601f168015611c605780820380516001836020036101000a031916815260200191505b509250505060405180910390fd5b505050900390565b60008282018381101561134c576040805162461bcd60e51b815260206004820152601b60248201527f536166654d6174683a206164646974696f6e206f766572666c6f770000000000604482015290519081900360640190fd5b611ce2846001600160a01b031661196a565b1561107d57836001600160a01b031663bc197c8187878686866040518663ffffffff1660e01b815260040180866001600160a01b03168152602001856001600160a01b03168152602001806020018060200180602001848103845287818151815260200191508051906020019060200280838360005b83811015611d70578181015183820152602001611d58565b50505050905001848103835286818151815260200191508051906020019060200280838360005b83811015611daf578181015183820152602001611d97565b50505050905001848103825285818151815260200191508051906020019080838360005b83811015611deb578181015183820152602001611dd3565b50505050905090810190601f168015611e185780820380516001836020036101000a031916815260200191505b5098505050505050505050602060405180830381600087803b158015611e3d57600080fd5b505af1925050508015611e6257506040513d6020811015611e5d57600080fd5b505160015b611ef757611e6e612b7d565b80611e795750611ec0565b60405162461bcd60e51b8152602060048201818152835160248401528351849391928392604401919085019080838360008315611c33578181015183820152602001611c1b565b60405162461bcd60e51b8152600401808060200182810382526034815260200180612c236034913960400191505060405180910390fd5b6001600160e01b0319811663bc197c8160e01b14611f465760405162461bcd60e51b8152600401808060200182810382526028815260200180612c796028913960400191505060405180910390fd5b50505050505050565b6000828152603360205260409020611f679082611970565b156110e857611f74611985565b6001600160a01b0316816001600160a01b0316837f2f8788117e7eff1d82e926ec794901d17c78024a50270940304540a733656f0d60405160405180910390a45050565b6000828152603360205260409020611fd090826128f2565b156110e857611fdd611985565b6001600160a01b0316816001600160a01b0316837ff6391f5c32d9c69d2a47ea670b442974b53935d1edc7fd64eb21e047a839171b60405160405180910390a45050565b6001600160a01b0383166120665760405162461bcd60e51b8152600401808060200182810382526023815260200180612dfd6023913960400191505060405180910390fd5b80518251146120a65760405162461bcd60e51b8152600401808060200182810382526028815260200180612e9c6028913960400191505060405180910390fd5b60006120b0611985565b90506120d08185600086866040518060200160405280600081525061107d565b60005b83518110156121ae576121658382815181106120eb57fe5b6020026020010151604051806060016040528060248152602001612cfb602491396097600088868151811061211c57fe5b602002602001015181526020019081526020016000206000896001600160a01b03166001600160a01b0316815260200190815260200160002054611bdf9092919063ffffffff16565b6097600086848151811061217557fe5b602090810291909101810151825281810192909252604090810160009081206001600160a01b038a1682529092529020556001016120d3565b5060006001600160a01b0316846001600160a01b0316826001600160a01b03167f4a39dc06d4c0dbc64b70af90fd698a233a518aa5d07e595d983b8c0526c8f7fb8686604051808060200180602001838103835285818151815260200191508051906020019060200280838360005b8381101561223557818101518382015260200161221d565b50505050905001838103825284818151815260200191508051906020019060200280838360005b8381101561227457818101518382015260200161225c565b5050505090500194505050505060405180910390a450505050565b6001600160a01b0384166122d45760405162461bcd60e51b8152600401808060200182810382526021815260200180612ec46021913960400191505060405180910390fd5b60006122de611985565b90506122f0816000876115ea886123bc565b60008481526097602090815260408083206001600160a01b038916845290915290205461231d9084611c76565b60008581526097602090815260408083206001600160a01b03808b16808652918452828520959095558151898152928301889052815190948616927fc3d58168c5ae7397731d063d5bbf3d657854427343f4c083240f7aacaa2d0f6292908290030190a4611bd881600087878787612400565b600061134c8383612907565b600061134c836001600160a01b03841661296b565b6000610c2382612983565b6040805160018082528183019092526060918291906020808301908036833701905050905082816000815181106123ef57fe5b602090810291909101015292915050565b612412846001600160a01b031661196a565b1561107d57836001600160a01b031663f23a6e6187878686866040518663ffffffff1660e01b815260040180866001600160a01b03168152602001856001600160a01b0316815260200184815260200183815260200180602001828103825283818151815260200191508051906020019080838360005b838110156124a1578181015183820152602001612489565b50505050905090810190601f1680156124ce5780820380516001836020036101000a031916815260200191505b509650505050505050602060405180830381600087803b1580156124f157600080fd5b505af192505050801561251657506040513d602081101561251157600080fd5b505160015b61252257611e6e612b7d565b6001600160e01b0319811663f23a6e6160e01b14611f465760405162461bcd60e51b8152600401808060200182810382526028815260200180612c796028913960400191505060405180910390fd5b6001600160a01b0383166125b65760405162461bcd60e51b8152600401808060200182810382526023815260200180612dfd6023913960400191505060405180910390fd5b60006125c0611985565b90506125f0818560006125d2876123bc565b6125db876123bc565b6040518060200160405280600081525061107d565b61263782604051806060016040528060248152602001612cfb6024913960008681526097602090815260408083206001600160a01b038b1684529091529020549190611bdf565b60008481526097602090815260408083206001600160a01b03808a16808652918452828520959095558151888152928301879052815193949093908616927fc3d58168c5ae7397731d063d5bbf3d657854427343f4c083240f7aacaa2d0f6292908290030190a450505050565b60006126af3061196a565b15905090565b600054610100900460ff16806126ce57506126ce6126a4565b806126dc575060005460ff16155b6127175760405162461bcd60e51b815260040180806020018281038252602e815260200180612dcf602e913960400191505060405180910390fd5b600054610100900460ff161580156117fd576000805460ff1961ff001990911661010017166001179055801561180f576000805461ff001916905550565b600054610100900460ff168061276e575061276e6126a4565b8061277c575060005460ff16155b6127b75760405162461bcd60e51b815260040180806020018281038252602e815260200180612dcf602e913960400191505060405180910390fd5b600054610100900460ff161580156127e2576000805460ff1961ff0019909116610100171660011790555b6117fd6301ffc9a760e01b612987565b600054610100900460ff168061280b575061280b6126a4565b80612819575060005460ff16155b6128545760405162461bcd60e51b815260040180806020018281038252602e815260200180612dcf602e913960400191505060405180910390fd5b600054610100900460ff1615801561287f576000805460ff1961ff0019909116610100171660011790555b61288882612a0b565b612898636cdb3d1360e11b612987565b6118b86303a24d0760e21b612987565b60006128b4838361296b565b6128ea57508154600181810184556000848152602080822090930184905584548482528286019093526040902091909155610c23565b506000610c23565b600061134c836001600160a01b038416612a1e565b815460009082106129495760405162461bcd60e51b8152600401808060200182810382526022815260200180612c576022913960400191505060405180910390fd5b82600001828154811061295857fe5b9060005260206000200154905092915050565b60009081526001919091016020526040902054151590565b5490565b6001600160e01b031980821614156129e6576040805162461bcd60e51b815260206004820152601c60248201527f4552433136353a20696e76616c696420696e7465726661636520696400000000604482015290519081900360640190fd5b6001600160e01b0319166000908152606560205260409020805460ff19166001179055565b80516110e8906099906020840190612ae4565b60008181526001830160205260408120548015612ada5783546000198083019190810190600090879083908110612a5157fe5b9060005260206000200154905080876000018481548110612a6e57fe5b600091825260208083209091019290925582815260018981019092526040902090840190558654879080612a9e57fe5b60019003818190600052602060002001600090559055866001016000878152602001908152602001600020600090556001945050505050610c23565b6000915050610c23565b828054600181600116156101000203166002900490600052602060002090601f016020900481019282601f10612b2557805160ff1916838001178555612b52565b82800160010185558215612b52579182015b82811115612b52578251825591602001919060010190612b37565b50612b5e929150612b62565b5090565b5b80821115612b5e5760008155600101612b63565b60e01c90565b600060443d1015612b8d57611987565b600481823e6308c379a0612ba18251612b77565b14612bab57611987565b6040513d600319016004823e80513d67ffffffffffffffff8160248401118184111715612bdb5750505050611987565b82840192508251915080821115612bf55750505050611987565b503d83016020828401011115612c0d57505050611987565b601f01601f191681016020016040529150509056fe455243313135353a207472616e7366657220746f206e6f6e2045524331313535526563656976657220696d706c656d656e746572456e756d657261626c655365743a20696e646578206f7574206f6620626f756e6473455243313135353a204552433131353552656365697665722072656a656374656420746f6b656e73416363657373436f6e74726f6c3a2073656e646572206d75737420626520616e2061646d696e20746f206772616e74455243313135353a2062616c616e636520717565727920666f7220746865207a65726f2061646472657373455243313135353a206275726e20616d6f756e7420657863656564732062616c616e6365455243313135353a2063616c6c6572206973206e6f74206f776e6572206e6f7220617070726f766564416363657373436f6e74726f6c3a2073656e646572206d75737420626520616e2061646d696e20746f207265766f6b65455243313135353a207472616e7366657220746f20746865207a65726f2061646472657373455243313135353a207472616e736665722063616c6c6572206973206e6f74206f776e6572206e6f7220617070726f766564496e697469616c697a61626c653a20636f6e747261637420697320616c726561647920696e697469616c697a6564455243313135353a206275726e2066726f6d20746865207a65726f2061646472657373455243313135353a20696e73756666696369656e742062616c616e636520666f72207472616e73666572455243313135353a2073657474696e6720617070726f76616c2073746174757320666f722073656c66455243313135353a206163636f756e747320616e6420696473206c656e677468206d69736d61746368455243313135353a2069647320616e6420616d6f756e7473206c656e677468206d69736d61746368455243313135353a206d696e7420746f20746865207a65726f2061646472657373416363657373436f6e74726f6c3a2063616e206f6e6c792072656e6f756e636520726f6c657320666f722073656c66a26469706673582212208082e80af5715fe3fac7824ad3b116a08ca0bb914f0d3fd373b87d6d3d635c7664736f6c634300060c0033496e697469616c697a61626c653a20636f6e747261637420697320616c726561647920696e697469616c697a65649f2df0fed2c77648de5860a4cc508cd0818c85b8b8a1ab4ceeef8d981c8956a67164765a3c8bd2513bdfa0c90f1bee9606e920fbf2c9071f310263fbd818684ba26469706673582212206bf00ba30bb34af44bf92128b57b7330a2e0d7dda2d608de431952c934fe131f64736f6c634300060c0033",
  "linkReferences": {},
  "deployedLinkReferences": {}
}