{
  "_format": "hh-sol-artifact-1",
  "contractName": "TokenManagerEth",
  "sourceName": "contracts/schain/TokenManagers/TokenManagerEth.sol",
  "abi": [
    {
      "anonymous": false,
      "inputs": [
        {
          "indexed": true,
          "internalType": "bytes32",
          "name": "role",
          "type": "bytes32"
        },
        {
          "indexed": true,
          "internalType": "bytes32",
          "name": "previousAdminRole",
          "type": "bytes32"
        },
        {
          "indexed": true,
          "internalType": "bytes32",
          "name": "newAdminRole",
          "type": "bytes32"
        }
      ],
      "name": "RoleAdminChanged",
      "type": "event"
    },
    {
      "anonymous": false,
      "inputs": [
        {
          "indexed": true,
          "internalType": "bytes32",
          "name": "role",
          "type": "bytes32"
        },
        {
          "indexed": true,
          "internalType": "address",
          "name": "account",
          "type": "address"
        },
        {
          "indexed": true,
          "internalType": "address",
          "name": "sender",
          "type": "address"
        }
      ],
      "name": "RoleGranted",
      "type": "event"
    },
    {
      "anonymous": false,
      "inputs": [
        {
          "indexed": true,
          "internalType": "bytes32",
          "name": "role",
          "type": "bytes32"
        },
        {
          "indexed": true,
          "internalType": "address",
          "name": "account",
          "type": "address"
        },
        {
          "indexed": true,
          "internalType": "address",
          "name": "sender",
          "type": "address"
        }
      ],
      "name": "RoleRevoked",
      "type": "event"
    },
    {
      "inputs": [],
      "name": "AUTOMATIC_DEPLOY_ROLE",
      "outputs": [
        {
          "internalType": "bytes32",
          "name": "",
          "type": "bytes32"
        }
      ],
      "stateMutability": "view",
      "type": "function"
    },
    {
      "inputs": [],
      "name": "DEFAULT_ADMIN_ROLE",
      "outputs": [
        {
          "internalType": "bytes32",
          "name": "",
          "type": "bytes32"
        }
      ],
      "stateMutability": "view",
      "type": "function"
    },
    {
      "inputs": [],
      "name": "MAINNET_HASH",
      "outputs": [
        {
          "internalType": "bytes32",
          "name": "",
          "type": "bytes32"
        }
      ],
      "stateMutability": "view",
      "type": "function"
    },
    {
      "inputs": [],
      "name": "MAINNET_NAME",
      "outputs": [
        {
          "internalType": "string",
          "name": "",
          "type": "string"
        }
      ],
      "stateMutability": "view",
      "type": "function"
    },
    {
      "inputs": [],
      "name": "TOKEN_REGISTRAR_ROLE",
      "outputs": [
        {
          "internalType": "bytes32",
          "name": "",
          "type": "bytes32"
        }
      ],
      "stateMutability": "view",
      "type": "function"
    },
    {
      "inputs": [
        {
          "internalType": "string",
          "name": "schainName",
          "type": "string"
        },
        {
          "internalType": "address",
          "name": "newTokenManager",
          "type": "address"
        }
      ],
      "name": "addTokenManager",
      "outputs": [],
      "stateMutability": "nonpayable",
      "type": "function"
    },
    {
      "inputs": [],
      "name": "automaticDeploy",
      "outputs": [
        {
          "internalType": "bool",
          "name": "",
          "type": "bool"
        }
      ],
      "stateMutability": "view",
      "type": "function"
    },
    {
      "inputs": [
        {
          "internalType": "address",
          "name": "newDepositBox",
          "type": "address"
        }
      ],
      "name": "changeDepositBoxAddress",
      "outputs": [],
      "stateMutability": "nonpayable",
      "type": "function"
    },
    {
      "inputs": [],
      "name": "communityLocker",
      "outputs": [
        {
          "internalType": "contract CommunityLocker",
          "name": "",
          "type": "address"
        }
      ],
      "stateMutability": "view",
      "type": "function"
    },
    {
      "inputs": [],
      "name": "depositBox",
      "outputs": [
        {
          "internalType": "address",
          "name": "",
          "type": "address"
        }
      ],
      "stateMutability": "view",
      "type": "function"
    },
    {
      "inputs": [],
      "name": "disableAutomaticDeploy",
      "outputs": [],
      "stateMutability": "nonpayable",
      "type": "function"
    },
    {
      "inputs": [],
      "name": "enableAutomaticDeploy",
      "outputs": [],
      "stateMutability": "nonpayable",
      "type": "function"
    },
    {
      "inputs": [],
      "name": "ethErc20",
      "outputs": [
        {
          "internalType": "contract EthErc20",
          "name": "",
          "type": "address"
        }
      ],
      "stateMutability": "view",
      "type": "function"
    },
    {
      "inputs": [
        {
          "internalType": "address",
          "name": "to",
          "type": "address"
        },
        {
          "internalType": "uint256",
          "name": "amount",
          "type": "uint256"
        }
      ],
      "name": "exitToMain",
      "outputs": [],
      "stateMutability": "nonpayable",
      "type": "function"
    },
    {
      "inputs": [
        {
          "internalType": "bytes32",
          "name": "role",
          "type": "bytes32"
        }
      ],
      "name": "getRoleAdmin",
      "outputs": [
        {
          "internalType": "bytes32",
          "name": "",
          "type": "bytes32"
        }
      ],
      "stateMutability": "view",
      "type": "function"
    },
    {
      "inputs": [
        {
          "internalType": "bytes32",
          "name": "role",
          "type": "bytes32"
        },
        {
          "internalType": "uint256",
          "name": "index",
          "type": "uint256"
        }
      ],
      "name": "getRoleMember",
      "outputs": [
        {
          "internalType": "address",
          "name": "",
          "type": "address"
        }
      ],
      "stateMutability": "view",
      "type": "function"
    },
    {
      "inputs": [
        {
          "internalType": "bytes32",
          "name": "role",
          "type": "bytes32"
        }
      ],
      "name": "getRoleMemberCount",
      "outputs": [
        {
          "internalType": "uint256",
          "name": "",
          "type": "uint256"
        }
      ],
      "stateMutability": "view",
      "type": "function"
    },
    {
      "inputs": [
        {
          "internalType": "bytes32",
          "name": "role",
          "type": "bytes32"
        },
        {
          "internalType": "address",
          "name": "account",
          "type": "address"
        }
      ],
      "name": "grantRole",
      "outputs": [],
      "stateMutability": "nonpayable",
      "type": "function"
    },
    {
      "inputs": [
        {
          "internalType": "bytes32",
          "name": "role",
          "type": "bytes32"
        },
        {
          "internalType": "address",
          "name": "account",
          "type": "address"
        }
      ],
      "name": "hasRole",
      "outputs": [
        {
          "internalType": "bool",
          "name": "",
          "type": "bool"
        }
      ],
      "stateMutability": "view",
      "type": "function"
    },
    {
      "inputs": [
        {
          "internalType": "string",
          "name": "schainName",
          "type": "string"
        }
      ],
      "name": "hasTokenManager",
      "outputs": [
        {
          "internalType": "bool",
          "name": "",
          "type": "bool"
        }
      ],
      "stateMutability": "view",
      "type": "function"
    },
    {
      "inputs": [
        {
          "internalType": "string",
          "name": "newChainName",
          "type": "string"
        },
        {
          "internalType": "contract MessageProxyForSchain",
          "name": "newMessageProxy",
          "type": "address"
        },
        {
          "internalType": "contract TokenManagerLinker",
          "name": "newIMALinker",
          "type": "address"
        },
        {
          "internalType": "contract CommunityLocker",
          "name": "newCommunityLocker",
          "type": "address"
        },
        {
          "internalType": "address",
          "name": "newDepositBox",
          "type": "address"
        },
        {
          "internalType": "contract EthErc20",
          "name": "ethErc20Address",
          "type": "address"
        }
      ],
      "name": "initialize",
      "outputs": [],
      "stateMutability": "nonpayable",
      "type": "function"
    },
    {
      "inputs": [
        {
          "internalType": "string",
          "name": "newSchainName",
          "type": "string"
        },
        {
          "internalType": "contract MessageProxyForSchain",
          "name": "newMessageProxy",
          "type": "address"
        },
        {
          "internalType": "contract TokenManagerLinker",
          "name": "newIMALinker",
          "type": "address"
        },
        {
          "internalType": "contract CommunityLocker",
          "name": "newCommunityLocker",
          "type": "address"
        },
        {
          "internalType": "address",
          "name": "newDepositBox",
          "type": "address"
        }
      ],
      "name": "initializeTokenManager",
      "outputs": [],
      "stateMutability": "nonpayable",
      "type": "function"
    },
    {
      "inputs": [],
      "name": "messageProxy",
      "outputs": [
        {
          "internalType": "contract MessageProxyForSchain",
          "name": "",
          "type": "address"
        }
      ],
      "stateMutability": "view",
      "type": "function"
    },
    {
      "inputs": [
        {
          "internalType": "bytes32",
          "name": "fromChainHash",
          "type": "bytes32"
        },
        {
          "internalType": "address",
          "name": "sender",
          "type": "address"
        },
        {
          "internalType": "bytes",
          "name": "data",
          "type": "bytes"
        }
      ],
      "name": "postMessage",
      "outputs": [
        {
          "internalType": "bool",
          "name": "",
          "type": "bool"
        }
      ],
      "stateMutability": "nonpayable",
      "type": "function"
    },
    {
      "inputs": [
        {
          "internalType": "string",
          "name": "schainName",
          "type": "string"
        }
      ],
      "name": "removeTokenManager",
      "outputs": [],
      "stateMutability": "nonpayable",
      "type": "function"
    },
    {
      "inputs": [
        {
          "internalType": "bytes32",
          "name": "role",
          "type": "bytes32"
        },
        {
          "internalType": "address",
          "name": "account",
          "type": "address"
        }
      ],
      "name": "renounceRole",
      "outputs": [],
      "stateMutability": "nonpayable",
      "type": "function"
    },
    {
      "inputs": [
        {
          "internalType": "bytes32",
          "name": "role",
          "type": "bytes32"
        },
        {
          "internalType": "address",
          "name": "account",
          "type": "address"
        }
      ],
      "name": "revokeRole",
      "outputs": [],
      "stateMutability": "nonpayable",
      "type": "function"
    },
    {
      "inputs": [],
      "name": "schainHash",
      "outputs": [
        {
          "internalType": "bytes32",
          "name": "",
          "type": "bytes32"
        }
      ],
      "stateMutability": "view",
      "type": "function"
    },
    {
      "inputs": [
        {
          "internalType": "contract EthErc20",
          "name": "newEthErc20Address",
          "type": "address"
        }
      ],
      "name": "setEthErc20Address",
      "outputs": [],
      "stateMutability": "nonpayable",
      "type": "function"
    },
    {
      "inputs": [],
      "name": "tokenManagerLinker",
      "outputs": [
        {
          "internalType": "contract TokenManagerLinker",
          "name": "",
          "type": "address"
        }
      ],
      "stateMutability": "view",
      "type": "function"
    },
    {
      "inputs": [
        {
          "internalType": "bytes32",
          "name": "",
          "type": "bytes32"
        }
      ],
      "name": "tokenManagers",
      "outputs": [
        {
          "internalType": "address",
          "name": "",
          "type": "address"
        }
      ],
      "stateMutability": "view",
      "type": "function"
    },
    {
      "inputs": [
        {
          "internalType": "string",
          "name": "targetSchainName",
          "type": "string"
        },
        {
          "internalType": "address",
          "name": "to",
          "type": "address"
        },
        {
          "internalType": "uint256",
          "name": "amount",
          "type": "uint256"
        }
      ],
      "name": "transferToSchain",
      "outputs": [],
      "stateMutability": "nonpayable",
      "type": "function"
    }
  ],
  "bytecode": "0x608060405234801561001057600080fd5b50611fca806100206000396000f3fe608060405234801561001057600080fd5b50600436106101f05760003560e01c80638182e7071161010f578063c0e312dc116100a2578063d547741f11610071578063d547741f146103b9578063dec2deb6146103cc578063e4a9eaaf146103d4578063edcc12b5146103e7576101f0565b8063c0e312dc14610378578063ca15c8731461038b578063cb703bff1461039e578063cc5b715b146103b1576101f0565b806391d14854116100de57806391d148541461034d57806392d7846a14610360578063a217fddf14610368578063b9581c5014610370576101f0565b80638182e70714610301578063884cee5a146103145780638b71b4b5146103275780639010d07c1461033a576101f0565b80633b690b6b116101875780636ce681d2116101565780636ce681d2146102cb5780636d611286146102de5780636d6c68e6146102e657806372838baa146102ee576101f0565b80633b690b6b1461029e5780633fa194ce146102a657806350f44280146102ae5780635573b8b6146102c3576101f0565b80632dc151de116101c35780632dc151de146102505780632f2ff15d1461025857806336568abe1461026b57806339927cf91461027e576101f0565b8063029996b8146101f55780630f1a8f74146101ff578063248a9ca31461022857806328c5e18214610248575b600080fd5b6101fd6103fa565b005b61021261020d3660046115d4565b61044c565b60405161021f9190611985565b60405180910390f35b61023b6102363660046115d4565b610467565b60405161021f91906119bd565b61023b61047c565b6102126104c5565b6101fd6102663660046115ec565b6104d4565b6101fd6102793660046115ec565b61051c565b61029161028c3660046116b1565b61055e565b60405161021f91906119b2565b61023b6105bb565b61023b6105c1565b6102b66105d3565b60405161021f91906119c6565b6102126105f6565b6101fd6102d936600461179e565b610605565b610212610758565b610212610767565b6101fd6102fc366004611746565b610776565b6101fd61030f366004611826565b6108e9565b61029161032236600461161b565b61099a565b6101fd61033536600461158d565b610b25565b610212610348366004611675565b610b9c565b61029161035b3660046115ec565b610bbb565b610212610bd3565b61023b610be2565b6101fd610be7565b6101fd6103863660046116b1565b610c2a565b61023b6103993660046115d4565b610ce7565b6101fd6103ac3660046116f1565b610cfe565b61023b610df2565b6101fd6103c73660046115ec565b610e16565b610291610e50565b6101fd6103e23660046115a9565b610e60565b6101fd6103f536600461158d565b610f60565b610412600080516020611f7583398151915233610bbb565b6104375760405162461bcd60e51b815260040161042e90611bd4565b60405180910390fd5b6069805460ff60a01b1916600160a01b179055565b606a602052600090815260409020546001600160a01b031681565b60009081526033602052604090206002015490565b6040518060400160405280600781526020016613585a5b9b995d60ca1b8152506040516020016104ac9190611969565b6040516020818303038152906040528051906020012081565b6066546001600160a01b031681565b6000828152603360205260409020600201546104f29061035b610fa9565b61050e5760405162461bcd60e51b815260040161042e90611a90565b6105188282610fad565b5050565b610524610fa9565b6001600160a01b0316816001600160a01b0316146105545760405162461bcd60e51b815260040161042e90611e59565b6105188282611016565b6000806001600160a01b0316606a60008585604051602001610581929190611959565b60408051601f19818403018152918152815160209283012083529082019290925201600020546001600160a01b0316141590505b92915050565b60685481565b600080516020611f7583398151915281565b6040518060400160405280600781526020016613585a5b9b995d60ca1b81525081565b6065546001600160a01b031681565b600054610100900460ff168061061e575061061e61107f565b8061062c575060005460ff16155b6106485760405162461bcd60e51b815260040161042e90611c9a565b600054610100900460ff16158015610673576000805460ff1961ff0019909116610100171660011790555b61067b611090565b61068660003361050e565b61069e600080516020611f758339815191523361050e565b6106c87ffda70c2cc66a36c14884ee85424961f51b1d92b4494751699b6d105b3bcbcba83361050e565b856040516020016106d99190611969565b60408051601f198184030181529190528051602090910120606855606580546001600160a01b038088166001600160a01b031992831617909255606680548784169083161790556067805486841690831617905560698054928516929091169190911790558015610750576000805461ff00191690555b505050505050565b6069546001600160a01b031681565b6067546001600160a01b031681565b6000836040516020016107899190611969565b60408051601f1981840301815282825280516020918201208383018352600784526613585a5b9b995d60ca1b8483015291519193506107c9929101611969565b604051602081830303815290604052805190602001208114156107fe5760405162461bcd60e51b815260040161042e90611b4d565b6000818152606a60205260409020546001600160a01b03166108325760405162461bcd60e51b815260040161042e90611a17565b6001600160a01b0383166108585760405162461bcd60e51b815260040161042e90611d2f565b6108623383611123565b6065546000828152606a60205260409020546001600160a01b03918216916365e3781f91879116610893878761115b565b6040518463ffffffff1660e01b81526004016108b1939291906119d9565b600060405180830381600087803b1580156108cb57600080fd5b505af11580156108df573d6000803e3d6000fd5b5050505050505050565b600054610100900460ff1680610902575061090261107f565b80610910575060005460ff16155b61092c5760405162461bcd60e51b815260040161042e90611c9a565b600054610100900460ff16158015610957576000805460ff1961ff0019909116610100171660011790555b6109648787878787610605565b606b80546001600160a01b0319166001600160a01b0384161790558015610991576000805461ff00191690555b50505050505050565b6065546000906001600160a01b031633146109c75760405162461bcd60e51b815260040161042e90611adf565b6068548514158015610a5457506040518060400160405280600781526020016613585a5b9b995d60ca1b815250604051602001610a049190611969565b604051602081830303815290604052805190602001208514610a42576000858152606a60205260409020546001600160a01b03858116911614610a54565b6069546001600160a01b038581169116145b610a705760405162461bcd60e51b815260040161042e90611d90565b610a78611495565b610a8284846111be565b60208101519091506001600160a01b038116610ab05760405162461bcd60e51b815260040161042e90611dfe565b606b5460408084015190516340c10f1960e01b81526001600160a01b03909216916340c10f1991610ae691859190600401611999565b600060405180830381600087803b158015610b0057600080fd5b505af1158015610b14573d6000803e3d6000fd5b5060019a9950505050505050505050565b610b30600033610bbb565b610b4c5760405162461bcd60e51b815260040161042e90611e2a565b606b546001600160a01b0382811691161415610b7a5760405162461bcd60e51b815260040161042e90611d66565b606b80546001600160a01b0319166001600160a01b0392909216919091179055565b6000828152603360205260408120610bb49083611206565b9392505050565b6000828152603360205260408120610bb49083611212565b606b546001600160a01b031681565b600081565b610bff600080516020611f7583398151915233610bbb565b610c1b5760405162461bcd60e51b815260040161042e90611bd4565b6069805460ff60a01b19169055565b6066546001600160a01b0316331480610c495750610c49600033610bbb565b610c655760405162461bcd60e51b815260040161042e90611e2a565b60008282604051602001610c7a929190611959565b60408051601f1981840301815291815281516020928301206000818152606a9093529120549091506001600160a01b0316610cc75760405162461bcd60e51b815260040161042e90611b9d565b6000908152606a6020526040902080546001600160a01b03191690555050565b60008181526033602052604081206105b590611227565b6066546001600160a01b0316331480610d1d5750610d1d600033610bbb565b610d395760405162461bcd60e51b815260040161042e90611e2a565b60008383604051602001610d4e929190611959565b60408051601f1981840301815291815281516020928301206000818152606a9093529120549091506001600160a01b031615610d9c5760405162461bcd60e51b815260040161042e90611dc7565b6001600160a01b038216610dc25760405162461bcd60e51b815260040161042e90611a17565b6000908152606a6020526040902080546001600160a01b0319166001600160a01b03929092169190911790555050565b7ffda70c2cc66a36c14884ee85424961f51b1d92b4494751699b6d105b3bcbcba881565b600082815260336020526040902060020154610e349061035b610fa9565b6105545760405162461bcd60e51b815260040161042e90611c15565b606954600160a01b900460ff1681565b6001600160a01b038216610e865760405162461bcd60e51b815260040161042e90611d2f565b610e903382611123565b6067546040516311be333d60e11b81526001600160a01b039091169063237c667a90610ec0908590600401611985565b600060405180830381600087803b158015610eda57600080fd5b505af1158015610eee573d6000803e3d6000fd5b50506065546069546001600160a01b0391821693506365e3781f925016610f15858561115b565b6040518363ffffffff1660e01b8152600401610f32929190611ce8565b600060405180830381600087803b158015610f4c57600080fd5b505af1158015610750573d6000803e3d6000fd5b610f6b600033610bbb565b610f875760405162461bcd60e51b815260040161042e90611b16565b606980546001600160a01b0319166001600160a01b0392909216919091179055565b3390565b6000828152603360205260409020610fc59082611232565b1561051857610fd2610fa9565b6001600160a01b0316816001600160a01b0316837f2f8788117e7eff1d82e926ec794901d17c78024a50270940304540a733656f0d60405160405180910390a45050565b600082815260336020526040902061102e9082611247565b156105185761103b610fa9565b6001600160a01b0316816001600160a01b0316837ff6391f5c32d9c69d2a47ea670b442974b53935d1edc7fd64eb21e047a839171b60405160405180910390a45050565b600061108a3061125c565b15905090565b600054610100900460ff16806110a957506110a961107f565b806110b7575060005460ff16155b6110d35760405162461bcd60e51b815260040161042e90611c9a565b600054610100900460ff161580156110fe576000805460ff1961ff0019909116610100171660011790555b611106611262565b61110e611262565b8015611120576000805461ff00191690555b50565b801561051857606b546040516338b5bd8d60e21b81526001600160a01b039091169063e2d6f63490610f329085908590600401611999565b6060611165611495565b604080516080810190915280606081018060018152508152602001856001600160a01b03168152602001848152509050806040516020016111a69190611ea8565b60405160208183030381529060405291505092915050565b6111c6611495565b60016111d284846112e3565b600c8111156111dd57fe5b146111fa5760405162461bcd60e51b815260040161042e90611c65565b610bb4828401846118bf565b6000610bb48383611324565b6000610bb4836001600160a01b038416611369565b60006105b582611381565b6000610bb4836001600160a01b038416611385565b6000610bb4836001600160a01b0384166113cf565b3b151590565b600054610100900460ff168061127b575061127b61107f565b80611289575060005460ff16155b6112a55760405162461bcd60e51b815260040161042e90611c9a565b600054610100900460ff1615801561110e576000805460ff1961ff0019909116610100171660011790558015611120576000805461ff001916905550565b6000806112f2838501856115d4565b9050602081066113185761131061130b84838188611f07565b6112e3565b9150506105b5565b61131083850185611696565b815460009082106113475760405162461bcd60e51b815260040161042e90611a4e565b82600001828154811061135657fe5b9060005260206000200154905092915050565b60009081526001919091016020526040902054151590565b5490565b60006113918383611369565b6113c7575081546001818101845560008481526020808220909301849055845484825282860190935260409020919091556105b5565b5060006105b5565b6000818152600183016020526040812054801561148b578354600019808301919081019060009087908390811061140257fe5b906000526020600020015490508087600001848154811061141f57fe5b60009182526020808320909101929092558281526001898101909252604090209084019055865487908061144f57fe5b600190038181906000526020600020016000905590558660010160008781526020019081526020016000206000905560019450505050506105b5565b60009150506105b5565b60405180606001604052806114a86114bc565b815260006020820181905260409091015290565b60408051602081019091526000815290565b60008083601f8401126114df578182fd5b50813567ffffffffffffffff8111156114f6578182fd5b60208301915083602082850101111561150e57600080fd5b9250929050565b8035600d81106105b557600080fd5b600082601f830112611534578081fd5b813567ffffffffffffffff81111561154a578182fd5b61155d601f8201601f1916602001611ee0565b915080825283602082850101111561157457600080fd5b8060208401602084013760009082016020015292915050565b60006020828403121561159e578081fd5b8135610bb481611f5f565b600080604083850312156115bb578081fd5b82356115c681611f5f565b946020939093013593505050565b6000602082840312156115e5578081fd5b5035919050565b600080604083850312156115fe578182fd5b82359150602083013561161081611f5f565b809150509250929050565b60008060008060608587031215611630578182fd5b84359350602085013561164281611f5f565b9250604085013567ffffffffffffffff81111561165d578283fd5b611669878288016114ce565b95989497509550505050565b60008060408385031215611687578182fd5b50508035926020909101359150565b6000602082840312156116a7578081fd5b610bb48383611515565b600080602083850312156116c3578182fd5b823567ffffffffffffffff8111156116d9578283fd5b6116e5858286016114ce565b90969095509350505050565b600080600060408486031215611705578283fd5b833567ffffffffffffffff81111561171b578384fd5b611727868287016114ce565b909450925050602084013561173b81611f5f565b809150509250925092565b60008060006060848603121561175a578283fd5b833567ffffffffffffffff811115611770578384fd5b61177c86828701611524565b935050602084013561178d81611f5f565b929592945050506040919091013590565b600080600080600060a086880312156117b5578283fd5b853567ffffffffffffffff8111156117cb578384fd5b6117d788828901611524565b95505060208601356117e881611f5f565b935060408601356117f881611f5f565b9250606086013561180881611f5f565b9150608086013561181881611f5f565b809150509295509295909350565b60008060008060008060c0878903121561183e578384fd5b863567ffffffffffffffff811115611854578485fd5b61186089828a01611524565b965050602087013561187181611f5f565b9450604087013561188181611f5f565b9350606087013561189181611f5f565b925060808701356118a181611f5f565b915060a08701356118b181611f5f565b809150509295509295509295565b600081830360608112156118d1578182fd5b6118db6060611ee0565b60208212156118e8578283fd5b6118f26020611ee0565b91506118fe8585611515565b825290815260208301359061191282611f5f565b81602082015260408401356040820152809250505092915050565b60008151808452611945816020860160208601611f2f565b601f01601f19169290920160200192915050565b6000828483379101908152919050565b6000825161197b818460208701611f2f565b9190910192915050565b6001600160a01b0391909116815260200190565b6001600160a01b03929092168252602082015260400190565b901515815260200190565b90815260200190565b600060208252610bb4602083018461192d565b6000606082526119ec606083018661192d565b6001600160a01b03851660208401528281036040840152611a0d818561192d565b9695505050505050565b6020808252601f908201527f496e636f727265637420546f6b656e204d616e61676572206164647265737300604082015260600190565b60208082526022908201527f456e756d657261626c655365743a20696e646578206f7574206f6620626f756e604082015261647360f01b606082015260800190565b6020808252602f908201527f416363657373436f6e74726f6c3a2073656e646572206d75737420626520616e60408201526e0818591b5a5b881d1bc819dc985b9d608a1b606082015260800190565b6020808252601c908201527f53656e646572206973206e6f742061204d65737361676550726f787900000000604082015260600190565b6020808252601e908201527f44454641554c545f41444d494e5f524f4c452069732072657175697265640000604082015260600190565b60208082526030908201527f546869732066756e6374696f6e206973206e6f7420666f72207472616e73666560408201526f1c9c9a5b99c81d1bc813585a5b9b995d60821b606082015260800190565b60208082526018908201527f546f6b656e204d616e61676572206973206e6f74207365740000000000000000604082015260600190565b60208082526021908201527f4155544f4d415449435f4445504c4f595f524f4c4520697320726571756972656040820152601960fa1b606082015260800190565b60208082526030908201527f416363657373436f6e74726f6c3a2073656e646572206d75737420626520616e60408201526f2061646d696e20746f207265766f6b6560801b606082015260800190565b6020808252818101527f4d6573736167652074797065206973206e6f7420455448207472616e73666572604082015260600190565b6020808252602e908201527f496e697469616c697a61626c653a20636f6e747261637420697320616c72656160408201526d191e481a5b9a5d1a585b1a5e995960921b606082015260800190565b600060608252600760608301526613585a5b9b995d60ca1b608083015260018060a01b038416602083015260a06040830152611d2760a083018461192d565b949350505050565b6020808252601a908201527f496e636f72726563742072656365697665722061646472657373000000000000604082015260600190565b60208082526010908201526f5468652073616d65206164647265737360801b604082015260600190565b6020808252601b908201527f526563656976657220636861696e20697320696e636f72726563740000000000604082015260600190565b6020808252601c908201527f546f6b656e204d616e6167657220697320616c72656164792073657400000000604082015260600190565b60208082526012908201527124b731b7b93932b1ba103932b1b2b4bb32b960711b604082015260600190565b6020808252601590820152742737ba1030baba3437b934bd32b21031b0b63632b960591b604082015260600190565b6020808252602f908201527f416363657373436f6e74726f6c3a2063616e206f6e6c792072656e6f756e636560408201526e103937b632b9903337b91039b2b63360891b606082015260800190565b8151516060820190600d8110611eba57fe5b82526020838101516001600160a01b031690830152604092830151929091019190915290565b60405181810167ffffffffffffffff81118282101715611eff57600080fd5b604052919050565b60008085851115611f16578182fd5b83861115611f22578182fd5b5050820193919092039150565b60005b83811015611f4a578181015183820152602001611f32565b83811115611f59576000848401525b50505050565b6001600160a01b038116811461112057600080fdfe7164765a3c8bd2513bdfa0c90f1bee9606e920fbf2c9071f310263fbd818684ba2646970667358221220efde7fc38a3556c193046d11cb81323fb7f4529a06ea809d112822cf41fede0e64736f6c634300060c0033",
  "linkReferences": {},
  "deployedLinkReferences": {}
}