{
  "_format": "hh-sol-artifact-1",
  "contractName": "TokenManagerLinker",
  "sourceName": "contracts/schain/TokenManagerLinker.sol",
  "abi": [
    {
      "anonymous": false,
      "inputs": [
        {
          "indexed": false,
          "internalType": "bool",
          "name": "isAllowed",
          "type": "bool"
        }
      ],
      "name": "InterchainConnectionAllowed",
      "type": "event"
    },
    {
      "anonymous": false,
      "inputs": [
        {
          "indexed": true,
          "internalType": "bytes32",
          "name": "role",
          "type": "bytes32"
        },
        {
          "indexed": true,
          "internalType": "bytes32",
          "name": "previousAdminRole",
          "type": "bytes32"
        },
        {
          "indexed": true,
          "internalType": "bytes32",
          "name": "newAdminRole",
          "type": "bytes32"
        }
      ],
      "name": "RoleAdminChanged",
      "type": "event"
    },
    {
      "anonymous": false,
      "inputs": [
        {
          "indexed": true,
          "internalType": "bytes32",
          "name": "role",
          "type": "bytes32"
        },
        {
          "indexed": true,
          "internalType": "address",
          "name": "account",
          "type": "address"
        },
        {
          "indexed": true,
          "internalType": "address",
          "name": "sender",
          "type": "address"
        }
      ],
      "name": "RoleGranted",
      "type": "event"
    },
    {
      "anonymous": false,
      "inputs": [
        {
          "indexed": true,
          "internalType": "bytes32",
          "name": "role",
          "type": "bytes32"
        },
        {
          "indexed": true,
          "internalType": "address",
          "name": "account",
          "type": "address"
        },
        {
          "indexed": true,
          "internalType": "address",
          "name": "sender",
          "type": "address"
        }
      ],
      "name": "RoleRevoked",
      "type": "event"
    },
    {
      "inputs": [],
      "name": "DEFAULT_ADMIN_ROLE",
      "outputs": [
        {
          "internalType": "bytes32",
          "name": "",
          "type": "bytes32"
        }
      ],
      "stateMutability": "view",
      "type": "function"
    },
    {
      "inputs": [],
      "name": "MAINNET_HASH",
      "outputs": [
        {
          "internalType": "bytes32",
          "name": "",
          "type": "bytes32"
        }
      ],
      "stateMutability": "view",
      "type": "function"
    },
    {
      "inputs": [],
      "name": "MAINNET_NAME",
      "outputs": [
        {
          "internalType": "string",
          "name": "",
          "type": "string"
        }
      ],
      "stateMutability": "view",
      "type": "function"
    },
    {
      "inputs": [],
      "name": "REGISTRAR_ROLE",
      "outputs": [
        {
          "internalType": "bytes32",
          "name": "",
          "type": "bytes32"
        }
      ],
      "stateMutability": "view",
      "type": "function"
    },
    {
      "inputs": [
        {
          "internalType": "string",
          "name": "schainName",
          "type": "string"
        },
        {
          "internalType": "address[]",
          "name": "tokenManagerAddresses",
          "type": "address[]"
        }
      ],
      "name": "connectSchain",
      "outputs": [],
      "stateMutability": "nonpayable",
      "type": "function"
    },
    {
      "inputs": [
        {
          "internalType": "string",
          "name": "schainName",
          "type": "string"
        }
      ],
      "name": "disconnectSchain",
      "outputs": [],
      "stateMutability": "nonpayable",
      "type": "function"
    },
    {
      "inputs": [
        {
          "internalType": "bytes32",
          "name": "role",
          "type": "bytes32"
        }
      ],
      "name": "getRoleAdmin",
      "outputs": [
        {
          "internalType": "bytes32",
          "name": "",
          "type": "bytes32"
        }
      ],
      "stateMutability": "view",
      "type": "function"
    },
    {
      "inputs": [
        {
          "internalType": "bytes32",
          "name": "role",
          "type": "bytes32"
        },
        {
          "internalType": "uint256",
          "name": "index",
          "type": "uint256"
        }
      ],
      "name": "getRoleMember",
      "outputs": [
        {
          "internalType": "address",
          "name": "",
          "type": "address"
        }
      ],
      "stateMutability": "view",
      "type": "function"
    },
    {
      "inputs": [
        {
          "internalType": "bytes32",
          "name": "role",
          "type": "bytes32"
        }
      ],
      "name": "getRoleMemberCount",
      "outputs": [
        {
          "internalType": "uint256",
          "name": "",
          "type": "uint256"
        }
      ],
      "stateMutability": "view",
      "type": "function"
    },
    {
      "inputs": [
        {
          "internalType": "bytes32",
          "name": "role",
          "type": "bytes32"
        },
        {
          "internalType": "address",
          "name": "account",
          "type": "address"
        }
      ],
      "name": "grantRole",
      "outputs": [],
      "stateMutability": "nonpayable",
      "type": "function"
    },
    {
      "inputs": [
        {
          "internalType": "bytes32",
          "name": "role",
          "type": "bytes32"
        },
        {
          "internalType": "address",
          "name": "account",
          "type": "address"
        }
      ],
      "name": "hasRole",
      "outputs": [
        {
          "internalType": "bool",
          "name": "",
          "type": "bool"
        }
      ],
      "stateMutability": "view",
      "type": "function"
    },
    {
      "inputs": [
        {
          "internalType": "string",
          "name": "schainName",
          "type": "string"
        }
      ],
      "name": "hasSchain",
      "outputs": [
        {
          "internalType": "bool",
          "name": "connected",
          "type": "bool"
        }
      ],
      "stateMutability": "view",
      "type": "function"
    },
    {
      "inputs": [
        {
          "internalType": "contract TokenManager",
          "name": "tokenManager",
          "type": "address"
        }
      ],
      "name": "hasTokenManager",
      "outputs": [
        {
          "internalType": "bool",
          "name": "",
          "type": "bool"
        }
      ],
      "stateMutability": "view",
      "type": "function"
    },
    {
      "inputs": [
        {
          "internalType": "contract IMessageProxy",
          "name": "newMessageProxyAddress",
          "type": "address"
        },
        {
          "internalType": "address",
          "name": "linker",
          "type": "address"
        }
      ],
      "name": "initialize",
      "outputs": [],
      "stateMutability": "nonpayable",
      "type": "function"
    },
    {
      "inputs": [],
      "name": "interchainConnections",
      "outputs": [
        {
          "internalType": "bool",
          "name": "",
          "type": "bool"
        }
      ],
      "stateMutability": "view",
      "type": "function"
    },
    {
      "inputs": [],
      "name": "linkerAddress",
      "outputs": [
        {
          "internalType": "address",
          "name": "",
          "type": "address"
        }
      ],
      "stateMutability": "view",
      "type": "function"
    },
    {
      "inputs": [],
      "name": "messageProxy",
      "outputs": [
        {
          "internalType": "contract IMessageProxy",
          "name": "",
          "type": "address"
        }
      ],
      "stateMutability": "view",
      "type": "function"
    },
    {
      "inputs": [
        {
          "internalType": "bytes32",
          "name": "fromChainHash",
          "type": "bytes32"
        },
        {
          "internalType": "address",
          "name": "sender",
          "type": "address"
        },
        {
          "internalType": "bytes",
          "name": "data",
          "type": "bytes"
        }
      ],
      "name": "postMessage",
      "outputs": [
        {
          "internalType": "bool",
          "name": "",
          "type": "bool"
        }
      ],
      "stateMutability": "nonpayable",
      "type": "function"
    },
    {
      "inputs": [
        {
          "internalType": "contract TokenManager",
          "name": "newTokenManager",
          "type": "address"
        }
      ],
      "name": "registerTokenManager",
      "outputs": [],
      "stateMutability": "nonpayable",
      "type": "function"
    },
    {
      "inputs": [
        {
          "internalType": "contract TokenManager",
          "name": "tokenManagerAddress",
          "type": "address"
        }
      ],
      "name": "removeTokenManager",
      "outputs": [],
      "stateMutability": "nonpayable",
      "type": "function"
    },
    {
      "inputs": [
        {
          "internalType": "bytes32",
          "name": "role",
          "type": "bytes32"
        },
        {
          "internalType": "address",
          "name": "account",
          "type": "address"
        }
      ],
      "name": "renounceRole",
      "outputs": [],
      "stateMutability": "nonpayable",
      "type": "function"
    },
    {
      "inputs": [
        {
          "internalType": "bytes32",
          "name": "role",
          "type": "bytes32"
        },
        {
          "internalType": "address",
          "name": "account",
          "type": "address"
        }
      ],
      "name": "revokeRole",
      "outputs": [],
      "stateMutability": "nonpayable",
      "type": "function"
    },
    {
      "inputs": [
        {
          "internalType": "uint256",
          "name": "",
          "type": "uint256"
        }
      ],
      "name": "tokenManagers",
      "outputs": [
        {
          "internalType": "contract TokenManager",
          "name": "",
          "type": "address"
        }
      ],
      "stateMutability": "view",
      "type": "function"
    }
  ],
  "bytecode": "0x608060405234801561001057600080fd5b50611b09806100206000396000f3fe608060405234801561001057600080fd5b506004361061014d5760003560e01c80635573b8b6116100c3578063b4fd8e141161007c578063b4fd8e1414610292578063b9727f96146102a5578063ca15c873146102b8578063d547741f146102cb578063e953c992146102de578063f68e9553146102f15761014d565b80635573b8b61461024157806364a5142f14610249578063884cee5a146102515780639010d07c1461026457806391d1485414610277578063a217fddf1461028a5761014d565b8063291f60d311610115578063291f60d3146101c05780632f2ff15d146101d357806336568abe146101e657806341ecadf9146101f9578063485cc9551461021957806350f442801461022c5761014d565b8063041f4c9b146101525780630f4ef5fd1461017b578063173df64b14610183578063248a9ca31461019857806328c5e182146101b8575b600080fd5b6101656101603660046113f3565b6102f9565b6040516101729190611582565b60405180910390f35b610165610447565b6101966101913660046113f3565b610450565b005b6101ab6101a63660046112e9565b61058b565b604051610172919061158d565b6101ab6105a3565b6101966101ce3660046112aa565b6105ec565b6101966101e1366004611301565b610672565b6101966101f4366004611301565b6106ba565b61020c6102073660046112e9565b6106fc565b604051610172919061156e565b6101966102273660046113ab565b610723565b610234610803565b60405161017291906115d6565b61020c610826565b61020c610835565b61016561025f366004611330565b610844565b61020c61027236600461138a565b6109d5565b610165610285366004611301565b6109f6565b6101ab610a0e565b6101966102a0366004611433565b610a13565b6101966102b33660046112aa565b610ba6565b6101ab6102c63660046112e9565b610ce3565b6101966102d9366004611301565b610cfa565b6101656102ec3660046112aa565b610d34565b6101ab610d97565b60675460019060005b818110156103b4578280156103aa57506067818154811061031f57fe5b6000918252602090912001546040516339927cf960e01b81526001600160a01b03909116906339927cf99061035a9088908890600401611596565b60206040518083038186803b15801561037257600080fd5b505afa158015610386573d6000803e3d6000fd5b505050506040513d601f19601f820116820180604052508101906103aa91906112cd565b9250600101610302565b5081801561043f5750606554604051634ccd5cd560e11b81526001600160a01b039091169063999ab9aa906103ef9087908790600401611596565b60206040518083038186803b15801561040757600080fd5b505afa15801561041b573d6000803e3d6000fd5b505050506040513d601f19601f8201168201806040525081019061043f91906112cd565b949350505050565b60685460ff1681565b610468600080516020611ab4833981519152336109f6565b61048d5760405162461bcd60e51b815260040161048490611718565b60405180910390fd5b60675460005b8181101561052157606781815481106104a857fe5b600091825260209091200154604051633038c4b760e21b81526001600160a01b039091169063c0e312dc906104e39087908790600401611596565b600060405180830381600087803b1580156104fd57600080fd5b505af1158015610511573d6000803e3d6000fd5b5050600190920191506104939050565b50606554604051633cdd2cc360e01b81526001600160a01b0390911690633cdd2cc3906105549086908690600401611596565b600060405180830381600087803b15801561056e57600080fd5b505af1158015610582573d6000803e3d6000fd5b50505050505050565b6000818152603360205260409020600201545b919050565b6040518060400160405280600781526020016613585a5b9b995d60ca1b8152506040516020016105d39190611552565b6040516020818303038152906040528051906020012081565b610604600080516020611ab4833981519152336109f6565b6106205760405162461bcd60e51b815260040161048490611718565b606780546001810182556000919091527f9787eeb91fe3101235e4a76063c7023ecb40f923f97916639c598592fa30d6ae0180546001600160a01b0319166001600160a01b0392909216919091179055565b60008281526033602052604090206002015461069090610285610da9565b6106ac5760405162461bcd60e51b81526004016104849061164b565b6106b68282610dad565b5050565b6106c2610da9565b6001600160a01b0316816001600160a01b0316146106f25760405162461bcd60e51b8152600401610484906119c2565b6106b68282610e16565b6067818154811061070957fe5b6000918252602090912001546001600160a01b0316905081565b600054610100900460ff168061073c575061073c610e7f565b8061074a575060005460ff16155b6107665760405162461bcd60e51b815260040161048490611876565b600054610100900460ff16158015610791576000805460ff1961ff0019909116610100171660011790555b610799610e90565b6107a46000336106ac565b6107bc600080516020611ab4833981519152336106ac565b606580546001600160a01b038086166001600160a01b031992831617909255606680549285169290911691909117905580156107fe576000805461ff00191690555b505050565b6040518060400160405280600781526020016613585a5b9b995d60ca1b81525081565b6065546001600160a01b031681565b6066546001600160a01b031681565b6065546000906001600160a01b031633146108715760405162461bcd60e51b81526004016104849061198b565b6066546001600160a01b0385811691161461089e5760405162461bcd60e51b81526004016104849061169a565b6040518060400160405280600781526020016613585a5b9b995d60ca1b8152506040516020016108ce9190611552565b6040516020818303038152906040528051906020012085146109025760405162461bcd60e51b815260040161048490611833565b600061090e8484610f23565b9050600881600c81111561091e57fe5b1461093b5760405162461bcd60e51b81526004016104849061174f565b610943611222565b61094d8585610f64565b6020810151606854919250151560ff9091161515141561097f5760405162461bcd60e51b81526004016104849061193c565b60208101516068805460ff19168215151790556040517fce4347a8c71d04a62f940154f3607d6a42f153b91cb09d9ec71356d2b36beb32916109c091611582565b60405180910390a15060019695505050505050565b60008281526033602052604081206109ed9083610fac565b90505b92915050565b60008281526033602052604081206109ed9083610fb8565b600081565b610a2b600080516020611ab4833981519152336109f6565b610a475760405162461bcd60e51b815260040161048490611718565b60685460ff16610a695760405162461bcd60e51b8152600401610484906118c4565b6067548114610a8a5760405162461bcd60e51b815260040161048490611905565b60005b81811015610b3b5760678181548110610aa257fe5b6000918252602090912001546001600160a01b031663cb703bff8686868686818110610aca57fe5b9050602002016020810190610adf91906112aa565b6040518463ffffffff1660e01b8152600401610afd939291906115aa565b600060405180830381600087803b158015610b1757600080fd5b505af1158015610b2b573d6000803e3d6000fd5b505060019092019150610a8d9050565b5060655460405163f2f6360560e01b81526001600160a01b039091169063f2f6360590610b6e9087908790600401611596565b600060405180830381600087803b158015610b8857600080fd5b505af1158015610b9c573d6000803e3d6000fd5b5050505050505050565b610bbe600080516020611ab4833981519152336109f6565b610bda5760405162461bcd60e51b815260040161048490611718565b6067546000905b80821015610c2b57826001600160a01b031660678381548110610c0057fe5b6000918252602090912001546001600160a01b03161415610c2057610c2b565b600190910190610be1565b808210156107fe57610c3e816001610fcd565b821015610cb1576067610c52826001610fcd565b81548110610c5c57fe5b600091825260209091200154606780546001600160a01b039092169184908110610c8257fe5b9060005260206000200160006101000a8154816001600160a01b0302191690836001600160a01b031602179055505b6067805480610cbc57fe5b600082815260209020810160001990810180546001600160a01b0319169055019055505050565b60008181526033602052604081206109f090610ff5565b600082815260336020526040902060020154610d1890610285610da9565b6106f25760405162461bcd60e51b8152600401610484906117e3565b60675460009081905b80821015610d8d57836001600160a01b031660678381548110610d5c57fe5b6000918252602090912001546001600160a01b03161415610d825760019250505061059e565b600190910190610d3d565b5060009392505050565b600080516020611ab483398151915281565b3390565b6000828152603360205260409020610dc59082611000565b156106b657610dd2610da9565b6001600160a01b0316816001600160a01b0316837f2f8788117e7eff1d82e926ec794901d17c78024a50270940304540a733656f0d60405160405180910390a45050565b6000828152603360205260409020610e2e9082611015565b156106b657610e3b610da9565b6001600160a01b0316816001600160a01b0316837ff6391f5c32d9c69d2a47ea670b442974b53935d1edc7fd64eb21e047a839171b60405160405180910390a45050565b6000610e8a3061102a565b15905090565b600054610100900460ff1680610ea95750610ea9610e7f565b80610eb7575060005460ff16155b610ed35760405162461bcd60e51b815260040161048490611876565b600054610100900460ff16158015610efe576000805460ff1961ff0019909116610100171660011790555b610f06611030565b610f0e611030565b8015610f20576000805461ff00191690555b50565b600080610f32838501856112e9565b905060208106610f5857610f50610f4b84838188611a38565b610f23565b9150506109f0565b610f50838501856113d8565b610f6c611222565b6008610f788484610f23565b600c811115610f8357fe5b14610fa05760405162461bcd60e51b8152600401610484906116cf565b6109ed828401846114c6565b60006109ed83836110b1565b60006109ed836001600160a01b0384166110f6565b600082821115610fef5760405162461bcd60e51b8152600401610484906117ac565b50900390565b60006109f08261110e565b60006109ed836001600160a01b038416611112565b60006109ed836001600160a01b03841661115c565b3b151590565b600054610100900460ff16806110495750611049610e7f565b80611057575060005460ff16155b6110735760405162461bcd60e51b815260040161048490611876565b600054610100900460ff16158015610f0e576000805460ff1961ff0019909116610100171660011790558015610f20576000805461ff001916905550565b815460009082106110d45760405162461bcd60e51b815260040161048490611609565b8260000182815481106110e357fe5b9060005260206000200154905092915050565b60009081526001919091016020526040902054151590565b5490565b600061111e83836110f6565b611154575081546001818101845560008481526020808220909301849055845484825282860190935260409020919091556109f0565b5060006109f0565b60008181526001830160205260408120548015611218578354600019808301919081019060009087908390811061118f57fe5b90600052602060002001549050808760000184815481106111ac57fe5b6000918252602080832090910192909255828152600189810190925260409020908401905586548790806111dc57fe5b600190038181906000526020600020016000905590558660010160008781526020019081526020016000206000905560019450505050506109f0565b60009150506109f0565b6040518060400160405280611235611242565b8152600060209091015290565b60408051602081019091526000815290565b60008083601f840112611265578182fd5b50813567ffffffffffffffff81111561127c578182fd5b60208301915083602082850101111561129457600080fd5b9250929050565b8035600d81106109f057600080fd5b6000602082840312156112bb578081fd5b81356112c681611a90565b9392505050565b6000602082840312156112de578081fd5b81516112c681611aa5565b6000602082840312156112fa578081fd5b5035919050565b60008060408385031215611313578081fd5b82359150602083013561132581611a90565b809150509250929050565b60008060008060608587031215611345578182fd5b84359350602085013561135781611a90565b9250604085013567ffffffffffffffff811115611372578283fd5b61137e87828801611254565b95989497509550505050565b6000806040838503121561139c578182fd5b50508035926020909101359150565b600080604083850312156113bd578182fd5b82356113c881611a90565b9150602083013561132581611a90565b6000602082840312156113e9578081fd5b6109ed838361129b565b60008060208385031215611405578182fd5b823567ffffffffffffffff81111561141b578283fd5b61142785828601611254565b90969095509350505050565b60008060008060408587031215611448578384fd5b843567ffffffffffffffff8082111561145f578586fd5b61146b88838901611254565b90965094506020870135915080821115611483578384fd5b818701915087601f830112611496578384fd5b8135818111156114a4578485fd5b88602080830285010111156114b7578485fd5b95989497505060200194505050565b600081830360408112156114d8578182fd5b6114e26040611a11565b60208212156114ef578283fd5b6114f96020611a11565b9150611505858561129b565b825290815260208301359061151982611aa5565b60208101919091529392505050565b60008284528282602086013780602084860101526020601f19601f85011685010190509392505050565b60008251611564818460208701611a60565b9190910192915050565b6001600160a01b0391909116815260200190565b901515815260200190565b90815260200190565b60006020825261043f602083018486611528565b6000604082526115be604083018587611528565b905060018060a01b0383166020830152949350505050565b60006020825282518060208401526115f5816040850160208701611a60565b601f01601f19169190910160400192915050565b60208082526022908201527f456e756d657261626c655365743a20696e646578206f7574206f6620626f756e604082015261647360f01b606082015260800190565b6020808252602f908201527f416363657373436f6e74726f6c3a2073656e646572206d75737420626520616e60408201526e0818591b5a5b881d1bc819dc985b9d608a1b606082015260800190565b6020808252818101527f53656e6465722066726f6d204d61696e6e657420697320696e636f7272656374604082015260600190565b60208082526029908201527f4d6573736167652074797065206973206e6f7420496e746572636861696e206360408201526837b73732b1ba34b7b760b91b606082015260800190565b6020808252601a908201527f5245474953545241525f524f4c45206973207265717569726564000000000000604082015260600190565b60208082526038908201527f546865206d6573736167652073686f756c6420636f6e7461696e206120696e7460408201527f6572636861696e20636f6e6e656374696f6e2073746174650000000000000000606082015260800190565b6020808252601e908201527f536166654d6174683a207375627472616374696f6e206f766572666c6f770000604082015260600190565b60208082526030908201527f416363657373436f6e74726f6c3a2073656e646572206d75737420626520616e60408201526f2061646d696e20746f207265766f6b6560801b606082015260800190565b60208082526023908201527f536f7572636520636861696e206e616d652073686f756c64206265204d61696e6040820152621b995d60ea1b606082015260800190565b6020808252602e908201527f496e697469616c697a61626c653a20636f6e747261637420697320616c72656160408201526d191e481a5b9a5d1a585b1a5e995960921b606082015260800190565b60208082526021908201527f496e746572636861696e20636f6e6e656374696f6e206e6f7420616c6c6f77656040820152601960fa1b606082015260800190565b6020808252601d908201527f496e636f7272656374206e756d626572206f6620616464726573736573000000604082015260600190565b6020808252602f908201527f496e746572636861696e20636f6e6e656374696f6e2073746174652073686f7560408201526e1b1908189948191a5999995c995b9d608a1b606082015260800190565b6020808252601d908201527f53656e646572206973206e6f742061206d6573736167652070726f7879000000604082015260600190565b6020808252602f908201527f416363657373436f6e74726f6c3a2063616e206f6e6c792072656e6f756e636560408201526e103937b632b9903337b91039b2b63360891b606082015260800190565b60405181810167ffffffffffffffff81118282101715611a3057600080fd5b604052919050565b60008085851115611a47578182fd5b83861115611a53578182fd5b5050820193919092039150565b60005b83811015611a7b578181015183820152602001611a63565b83811115611a8a576000848401525b50505050565b6001600160a01b0381168114610f2057600080fd5b8015158114610f2057600080fdfeedcc084d3dcd65a1f7f23c65c46722faca6953d28e43150a467cf43e5c309238a2646970667358221220b5eb8c3b77cbd30cbf8084a2c674c7f133c5691aa16514e744eed381a945dd0864736f6c634300060c0033",
  "linkReferences": {},
  "deployedLinkReferences": {}
}